{
  "address": "0x2f7e0Ee16FFd6BA0721158F74934Ff0e42Df6131",
  "abi": [
    {
      "inputs": [
        {
          "internalType": "address",
          "name": "_swapRouter",
          "type": "address"
        },
        {
          "internalType": "address",
          "name": "_roleManager",
          "type": "address"
        },
        {
          "internalType": "address",
          "name": "_weth9",
          "type": "address"
        }
      ],
      "stateMutability": "nonpayable",
      "type": "constructor"
    },
    {
      "anonymous": false,
      "inputs": [
        {
          "indexed": true,
          "internalType": "address",
          "name": "previousOwner",
          "type": "address"
        },
        {
          "indexed": true,
          "internalType": "address",
          "name": "newOwner",
          "type": "address"
        }
      ],
      "name": "OwnershipTransferred",
      "type": "event"
    },
    {
      "inputs": [
        {
          "internalType": "bytes",
          "name": "swapData",
          "type": "bytes"
        }
      ],
      "name": "calculateMsgValue",
      "outputs": [
        {
          "internalType": "uint256",
          "name": "value",
          "type": "uint256"
        }
      ],
      "stateMutability": "pure",
      "type": "function"
    },
    {
      "inputs": [
        {
          "internalType": "bytes[]",
          "name": "swapDataArray",
          "type": "bytes[]"
        },
        {
          "internalType": "uint256",
          "name": "msgValue",
          "type": "uint256"
        }
      ],
      "name": "checkMsgValue",
      "outputs": [],
      "stateMutability": "pure",
      "type": "function"
    },
    {
      "inputs": [
        {
          "internalType": "bytes",
          "name": "paramData",
          "type": "bytes"
        }
      ],
      "name": "decodeFromExchange",
      "outputs": [
        {
          "components": [
            {
              "internalType": "bytes",
              "name": "path",
              "type": "bytes"
            },
            {
              "internalType": "address",
              "name": "tokenIn",
              "type": "address"
            },
            {
              "internalType": "address",
              "name": "tokenOut",
              "type": "address"
            },
            {
              "internalType": "uint256",
              "name": "amountIn",
              "type": "uint256"
            },
            {
              "internalType": "uint256",
              "name": "amountOutMinimum",
              "type": "uint256"
            },
            {
              "internalType": "bool",
              "name": "isETH",
              "type": "bool"
            },
            {
              "internalType": "bool",
              "name": "swap",
              "type": "bool"
            }
          ],
          "internalType": "struct IExchanger.ExchangeData",
          "name": "data",
          "type": "tuple"
        }
      ],
      "stateMutability": "pure",
      "type": "function"
    },
    {
      "inputs": [
        {
          "components": [
            {
              "internalType": "bytes",
              "name": "path",
              "type": "bytes"
            },
            {
              "internalType": "address",
              "name": "tokenIn",
              "type": "address"
            },
            {
              "internalType": "address",
              "name": "tokenOut",
              "type": "address"
            },
            {
              "internalType": "uint256",
              "name": "amountIn",
              "type": "uint256"
            },
            {
              "internalType": "uint256",
              "name": "amountOutMinimum",
              "type": "uint256"
            },
            {
              "internalType": "bool",
              "name": "isETH",
              "type": "bool"
            },
            {
              "internalType": "bool",
              "name": "swap",
              "type": "bool"
            }
          ],
          "internalType": "struct IExchanger.ExchangeData",
          "name": "data",
          "type": "tuple"
        }
      ],
      "name": "encodeFromExchange",
      "outputs": [
        {
          "internalType": "bytes",
          "name": "paramData",
          "type": "bytes"
        }
      ],
      "stateMutability": "pure",
      "type": "function"
    },
    {
      "inputs": [],
      "name": "owner",
      "outputs": [
        {
          "internalType": "address",
          "name": "",
          "type": "address"
        }
      ],
      "stateMutability": "view",
      "type": "function"
    },
    {
      "inputs": [],
      "name": "renounceOwnership",
      "outputs": [],
      "stateMutability": "nonpayable",
      "type": "function"
    },
    {
      "inputs": [],
      "name": "roleManager",
      "outputs": [
        {
          "internalType": "contract RoleManager",
          "name": "",
          "type": "address"
        }
      ],
      "stateMutability": "view",
      "type": "function"
    },
    {
      "inputs": [
        {
          "internalType": "bytes",
          "name": "data",
          "type": "bytes"
        },
        {
          "internalType": "address",
          "name": "from",
          "type": "address"
        },
        {
          "internalType": "address",
          "name": "to",
          "type": "address"
        }
      ],
      "name": "swap",
      "outputs": [],
      "stateMutability": "payable",
      "type": "function"
    },
    {
      "inputs": [],
      "name": "swapRouter",
      "outputs": [
        {
          "internalType": "contract ISwapRouter",
          "name": "",
          "type": "address"
        }
      ],
      "stateMutability": "view",
      "type": "function"
    },
    {
      "inputs": [
        {
          "internalType": "address",
          "name": "newOwner",
          "type": "address"
        }
      ],
      "name": "transferOwnership",
      "outputs": [],
      "stateMutability": "nonpayable",
      "type": "function"
    },
    {
      "inputs": [],
      "name": "weth9",
      "outputs": [
        {
          "internalType": "contract IWETH9",
          "name": "",
          "type": "address"
        }
      ],
      "stateMutability": "view",
      "type": "function"
    }
  ],
  "transactionHash": "0x4d69d716bdd1af8f2e94cf099c49f6912e7b56e5516b929bdfeab1ff7dc3f105",
  "args": [
    "0xE592427A0AEce92De3Edee1F18E0157C05861564",
    "0xf02E21a390A368AC7ce9f90Da8Ef3201e74A00Aa",
    "0x82aF49447D8a07e3bd95BD0d56f35241523fBab1"
  ],
  "numDeployments": 5,
  "solcInputHash": "b1f2077a0dc40f076929ef05d9203b2d",
  "bytecode": "0x60806040523480156200001157600080fd5b50604051620023a8380380620023a8833981810160405281019062000037919062000259565b620000576200004b6200012360201b60201c565b6200012b60201b60201c565b82600160006101000a81548173ffffffffffffffffffffffffffffffffffffffff021916908373ffffffffffffffffffffffffffffffffffffffff16021790555081600260006101000a81548173ffffffffffffffffffffffffffffffffffffffff021916908373ffffffffffffffffffffffffffffffffffffffff16021790555080600360006101000a81548173ffffffffffffffffffffffffffffffffffffffff021916908373ffffffffffffffffffffffffffffffffffffffff160217905550505050620002b5565b600033905090565b60008060009054906101000a900473ffffffffffffffffffffffffffffffffffffffff169050816000806101000a81548173ffffffffffffffffffffffffffffffffffffffff021916908373ffffffffffffffffffffffffffffffffffffffff1602179055508173ffffffffffffffffffffffffffffffffffffffff168173ffffffffffffffffffffffffffffffffffffffff167f8be0079c531659141344cd1fd0a4f28419497f9722a3daafe3b4186f6b6457e060405160405180910390a35050565b600080fd5b600073ffffffffffffffffffffffffffffffffffffffff82169050919050565b60006200022182620001f4565b9050919050565b620002338162000214565b81146200023f57600080fd5b50565b600081519050620002538162000228565b92915050565b600080600060608486031215620002755762000274620001ef565b5b6000620002858682870162000242565b9350506020620002988682870162000242565b9250506040620002ab8682870162000242565b9150509250925092565b6120e380620002c56000396000f3fe60806040526004361061009b5760003560e01c80638da5cb5b116100645780638da5cb5b14610152578063bcc4bffd1461017d578063be3e58b6146101ba578063c31c9c07146101f7578063cafba07e14610222578063f2fde38b1461025f5761009b565b8062435da5146100a057806350879c1c146100cb578063715018a6146100f657806378a820a71461010d5780638a4c2a0e14610129575b600080fd5b3480156100ac57600080fd5b506100b5610288565b6040516100c29190611033565b60405180910390f35b3480156100d757600080fd5b506100e06102ae565b6040516100ed919061106f565b60405180910390f35b34801561010257600080fd5b5061010b6102d4565b005b61012760048036038101906101229190611222565b6102e8565b005b34801561013557600080fd5b50610150600480360381019061014b91906113ad565b610940565b005b34801561015e57600080fd5b506101676109fe565b6040516101749190611418565b60405180910390f35b34801561018957600080fd5b506101a4600480360381019061019f9190611433565b610a27565b6040516101b1919061148b565b60405180910390f35b3480156101c657600080fd5b506101e160048036038101906101dc91906115b8565b610a5a565b6040516101ee9190611689565b60405180910390f35b34801561020357600080fd5b5061020c610a83565b60405161021991906116cc565b60405180910390f35b34801561022e57600080fd5b5061024960048036038101906102449190611433565b610aa9565b60405161025691906117fa565b60405180910390f35b34801561026b57600080fd5b506102866004803603810190610281919061181c565b610acc565b005b600260009054906101000a900473ffffffffffffffffffffffffffffffffffffffff1681565b600360009054906101000a900473ffffffffffffffffffffffffffffffffffffffff1681565b6102dc610b50565b6102e66000610bce565b565b600260009054906101000a900473ffffffffffffffffffffffffffffffffffffffff1673ffffffffffffffffffffffffffffffffffffffff166391d14854600260009054906101000a900473ffffffffffffffffffffffffffffffffffffffff1673ffffffffffffffffffffffffffffffffffffffff1663f0a56fc86040518163ffffffff1660e01b815260040160206040518083038186803b15801561038e57600080fd5b505afa1580156103a2573d6000803e3d6000fd5b505050506040513d601f19601f820116820180604052508101906103c6919061187f565b336040518363ffffffff1660e01b81526004016103e49291906118bb565b60206040518083038186803b1580156103fc57600080fd5b505afa158015610410573d6000803e3d6000fd5b505050506040513d601f19601f8201168201806040525081019061043491906118f9565b610473576040517f08c379a000000000000000000000000000000000000000000000000000000000815260040161046a90611983565b60405180910390fd5b600061047e84610aa9565b90508060c00151156108a1576000808260a00151156104a357826060015191506104ed565b6104b7836020015186308660600151610c92565b6104ec8360200151600160009054906101000a900473ffffffffffffffffffffffffffffffffffffffff168560600151610dea565b5b8260a0015180156105315750826040015173ffffffffffffffffffffffffffffffffffffffff16836020015173ffffffffffffffffffffffffffffffffffffffff16145b156105be57600360009054906101000a900473ffffffffffffffffffffffffffffffffffffffff1673ffffffffffffffffffffffffffffffffffffffff1663d0e30db0836040518263ffffffff1660e01b81526004016000604051808303818588803b1580156105a057600080fd5b505af11580156105b4573d6000803e3d6000fd5b50505050506107a5565b60006040518060a00160405280856000015181526020013073ffffffffffffffffffffffffffffffffffffffff1681526020014281526020018560600151815260200185608001518152509050600160009054906101000a900473ffffffffffffffffffffffffffffffffffffffff1673ffffffffffffffffffffffffffffffffffffffff1663c04b8d5984836040518363ffffffff1660e01b81526004016106679190611a19565b6020604051808303818588803b15801561068057600080fd5b505af1158015610694573d6000803e3d6000fd5b50505050506040513d601f19601f820116820180604052508101906106b99190611a50565b91508360800151821015610702576040517f08c379a00000000000000000000000000000000000000000000000000000000081526004016106f990611ac9565b60405180910390fd5b836040015173ffffffffffffffffffffffffffffffffffffffff1663a9059cbb878660800151856107339190611b18565b6040518363ffffffff1660e01b8152600401610750929190611b4c565b602060405180830381600087803b15801561076a57600080fd5b505af115801561077e573d6000803e3d6000fd5b505050506040513d601f19601f820116820180604052508101906107a291906118f9565b50505b826040015173ffffffffffffffffffffffffffffffffffffffff1663a9059cbb8585608001516040518363ffffffff1660e01b81526004016107e8929190611b4c565b602060405180830381600087803b15801561080257600080fd5b505af1158015610816573d6000803e3d6000fd5b505050506040513d601f19601f8201168201806040525081019061083a91906118f9565b508260a00151801561084d575060004714155b1561089a578373ffffffffffffffffffffffffffffffffffffffff166108fc479081150290604051600060405180830381858888f19350505050158015610898573d6000803e3d6000fd5b505b505061093a565b806020015173ffffffffffffffffffffffffffffffffffffffff166323b872dd848484606001516040518463ffffffff1660e01b81526004016108e693929190611b75565b602060405180830381600087803b15801561090057600080fd5b505af1158015610914573d6000803e3d6000fd5b505050506040513d601f19601f8201168201806040525081019061093891906118f9565b505b50505050565b600080600090505b83518110156109b657600061097685838151811061096957610968611bac565b5b6020026020010151610aa9565b90508060a00151801561098a57508060c001515b156109a25780606001518361099f9190611bdb565b92505b5080806109ae90611c31565b915050610948565b508082146109f9576040517f08c379a00000000000000000000000000000000000000000000000000000000081526004016109f090611cc6565b60405180910390fd5b505050565b60008060009054906101000a900473ffffffffffffffffffffffffffffffffffffffff16905090565b600080610a3383610aa9565b90508060a001518015610a4757508060c001515b15610a5457806060015191505b50919050565b606081604051602001610a6d91906117fa565b6040516020818303038152906040529050919050565b600160009054906101000a900473ffffffffffffffffffffffffffffffffffffffff1681565b610ab1610f47565b81806020019051810190610ac59190611e3b565b9050919050565b610ad4610b50565b600073ffffffffffffffffffffffffffffffffffffffff168173ffffffffffffffffffffffffffffffffffffffff161415610b44576040517f08c379a0000000000000000000000000000000000000000000000000000000008152600401610b3b90611ef6565b60405180910390fd5b610b4d81610bce565b50565b610b58610f3f565b73ffffffffffffffffffffffffffffffffffffffff16610b766109fe565b73ffffffffffffffffffffffffffffffffffffffff1614610bcc576040517f08c379a0000000000000000000000000000000000000000000000000000000008152600401610bc390611f62565b60405180910390fd5b565b60008060009054906101000a900473ffffffffffffffffffffffffffffffffffffffff169050816000806101000a81548173ffffffffffffffffffffffffffffffffffffffff021916908373ffffffffffffffffffffffffffffffffffffffff1602179055508173ffffffffffffffffffffffffffffffffffffffff168173ffffffffffffffffffffffffffffffffffffffff167f8be0079c531659141344cd1fd0a4f28419497f9722a3daafe3b4186f6b6457e060405160405180910390a35050565b6000808573ffffffffffffffffffffffffffffffffffffffff166323b872dd60e01b868686604051602401610cc993929190611b75565b604051602081830303815290604052907bffffffffffffffffffffffffffffffffffffffffffffffffffffffff19166020820180517bffffffffffffffffffffffffffffffffffffffffffffffffffffffff8381831617835250505050604051610d339190611fbe565b6000604051808303816000865af19150503d8060008114610d70576040519150601f19603f3d011682016040523d82523d6000602084013e610d75565b606091505b5091509150818015610da35750600081511480610da2575080806020019051810190610da191906118f9565b5b5b610de2576040517f08c379a0000000000000000000000000000000000000000000000000000000008152600401610dd990612021565b60405180910390fd5b505050505050565b6000808473ffffffffffffffffffffffffffffffffffffffff1663095ea7b360e01b8585604051602401610e1f929190611b4c565b604051602081830303815290604052907bffffffffffffffffffffffffffffffffffffffffffffffffffffffff19166020820180517bffffffffffffffffffffffffffffffffffffffffffffffffffffffff8381831617835250505050604051610e899190611fbe565b6000604051808303816000865af19150503d8060008114610ec6576040519150601f19603f3d011682016040523d82523d6000602084013e610ecb565b606091505b5091509150818015610ef95750600081511480610ef8575080806020019051810190610ef791906118f9565b5b5b610f38576040517f08c379a0000000000000000000000000000000000000000000000000000000008152600401610f2f9061208d565b60405180910390fd5b5050505050565b600033905090565b6040518060e0016040528060608152602001600073ffffffffffffffffffffffffffffffffffffffff168152602001600073ffffffffffffffffffffffffffffffffffffffff16815260200160008152602001600081526020016000151581526020016000151581525090565b600073ffffffffffffffffffffffffffffffffffffffff82169050919050565b6000819050919050565b6000610ff9610ff4610fef84610fb4565b610fd4565b610fb4565b9050919050565b600061100b82610fde565b9050919050565b600061101d82611000565b9050919050565b61102d81611012565b82525050565b60006020820190506110486000830184611024565b92915050565b600061105982611000565b9050919050565b6110698161104e565b82525050565b60006020820190506110846000830184611060565b92915050565b6000604051905090565b600080fd5b600080fd5b600080fd5b600080fd5b6000601f19601f8301169050919050565b7f4e487b7100000000000000000000000000000000000000000000000000000000600052604160045260246000fd5b6110f1826110a8565b810181811067ffffffffffffffff821117156111105761110f6110b9565b5b80604052505050565b600061112361108a565b905061112f82826110e8565b919050565b600067ffffffffffffffff82111561114f5761114e6110b9565b5b611158826110a8565b9050602081019050919050565b82818337600083830152505050565b600061118761118284611134565b611119565b9050828152602081018484840111156111a3576111a26110a3565b5b6111ae848285611165565b509392505050565b600082601f8301126111cb576111ca61109e565b5b81356111db848260208601611174565b91505092915050565b60006111ef82610fb4565b9050919050565b6111ff816111e4565b811461120a57600080fd5b50565b60008135905061121c816111f6565b92915050565b60008060006060848603121561123b5761123a611094565b5b600084013567ffffffffffffffff81111561125957611258611099565b5b611265868287016111b6565b93505060206112768682870161120d565b92505060406112878682870161120d565b9150509250925092565b600067ffffffffffffffff8211156112ac576112ab6110b9565b5b602082029050602081019050919050565b600080fd5b60006112d56112d084611291565b611119565b905080838252602082019050602084028301858111156112f8576112f76112bd565b5b835b8181101561133f57803567ffffffffffffffff81111561131d5761131c61109e565b5b80860161132a89826111b6565b855260208501945050506020810190506112fa565b5050509392505050565b600082601f83011261135e5761135d61109e565b5b813561136e8482602086016112c2565b91505092915050565b6000819050919050565b61138a81611377565b811461139557600080fd5b50565b6000813590506113a781611381565b92915050565b600080604083850312156113c4576113c3611094565b5b600083013567ffffffffffffffff8111156113e2576113e1611099565b5b6113ee85828601611349565b92505060206113ff85828601611398565b9150509250929050565b611412816111e4565b82525050565b600060208201905061142d6000830184611409565b92915050565b60006020828403121561144957611448611094565b5b600082013567ffffffffffffffff81111561146757611466611099565b5b611473848285016111b6565b91505092915050565b61148581611377565b82525050565b60006020820190506114a0600083018461147c565b92915050565b600080fd5b600080fd5b60008115159050919050565b6114c5816114b0565b81146114d057600080fd5b50565b6000813590506114e2816114bc565b92915050565b600060e082840312156114fe576114fd6114a6565b5b61150860e0611119565b9050600082013567ffffffffffffffff811115611528576115276114ab565b5b611534848285016111b6565b60008301525060206115488482850161120d565b602083015250604061155c8482850161120d565b604083015250606061157084828501611398565b606083015250608061158484828501611398565b60808301525060a0611598848285016114d3565b60a08301525060c06115ac848285016114d3565b60c08301525092915050565b6000602082840312156115ce576115cd611094565b5b600082013567ffffffffffffffff8111156115ec576115eb611099565b5b6115f8848285016114e8565b91505092915050565b600081519050919050565b600082825260208201905092915050565b60005b8381101561163b578082015181840152602081019050611620565b8381111561164a576000848401525b50505050565b600061165b82611601565b611665818561160c565b935061167581856020860161161d565b61167e816110a8565b840191505092915050565b600060208201905081810360008301526116a38184611650565b905092915050565b60006116b682611000565b9050919050565b6116c6816116ab565b82525050565b60006020820190506116e160008301846116bd565b92915050565b600082825260208201905092915050565b600061170382611601565b61170d81856116e7565b935061171d81856020860161161d565b611726816110a8565b840191505092915050565b61173a816111e4565b82525050565b61174981611377565b82525050565b611758816114b0565b82525050565b600060e083016000830151848203600086015261177b82826116f8565b91505060208301516117906020860182611731565b5060408301516117a36040860182611731565b5060608301516117b66060860182611740565b5060808301516117c96080860182611740565b5060a08301516117dc60a086018261174f565b5060c08301516117ef60c086018261174f565b508091505092915050565b60006020820190508181036000830152611814818461175e565b905092915050565b60006020828403121561183257611831611094565b5b60006118408482850161120d565b91505092915050565b6000819050919050565b61185c81611849565b811461186757600080fd5b50565b60008151905061187981611853565b92915050565b60006020828403121561189557611894611094565b5b60006118a38482850161186a565b91505092915050565b6118b581611849565b82525050565b60006040820190506118d060008301856118ac565b6118dd6020830184611409565b9392505050565b6000815190506118f3816114bc565b92915050565b60006020828403121561190f5761190e611094565b5b600061191d848285016118e4565b91505092915050565b600082825260208201905092915050565b7f6d73672e73656e646572206e6f742068617665205452414445525f524f4c4500600082015250565b600061196d601f83611926565b915061197882611937565b602082019050919050565b6000602082019050818103600083015261199c81611960565b9050919050565b600060a08301600083015184820360008601526119c082826116f8565b91505060208301516119d56020860182611731565b5060408301516119e86040860182611740565b5060608301516119fb6060860182611740565b506080830151611a0e6080860182611740565b508091505092915050565b60006020820190508181036000830152611a3381846119a3565b905092915050565b600081519050611a4a81611381565b92915050565b600060208284031215611a6657611a65611094565b5b6000611a7484828501611a3b565b91505092915050565b7f696e76616c696420737761700000000000000000000000000000000000000000600082015250565b6000611ab3600c83611926565b9150611abe82611a7d565b602082019050919050565b60006020820190508181036000830152611ae281611aa6565b9050919050565b7f4e487b7100000000000000000000000000000000000000000000000000000000600052601160045260246000fd5b6000611b2382611377565b9150611b2e83611377565b925082821015611b4157611b40611ae9565b5b828203905092915050565b6000604082019050611b616000830185611409565b611b6e602083018461147c565b9392505050565b6000606082019050611b8a6000830186611409565b611b976020830185611409565b611ba4604083018461147c565b949350505050565b7f4e487b7100000000000000000000000000000000000000000000000000000000600052603260045260246000fd5b6000611be682611377565b9150611bf183611377565b9250827fffffffffffffffffffffffffffffffffffffffffffffffffffffffffffffffff03821115611c2657611c25611ae9565b5b828201905092915050565b6000611c3c82611377565b91507fffffffffffffffffffffffffffffffffffffffffffffffffffffffffffffffff821415611c6f57611c6e611ae9565b5b600182019050919050565b7f696e76616c6964206d73672e76616c7565000000000000000000000000000000600082015250565b6000611cb0601183611926565b9150611cbb82611c7a565b602082019050919050565b60006020820190508181036000830152611cdf81611ca3565b9050919050565b6000611cf9611cf484611134565b611119565b905082815260208101848484011115611d1557611d146110a3565b5b611d2084828561161d565b509392505050565b600082601f830112611d3d57611d3c61109e565b5b8151611d4d848260208601611ce6565b91505092915050565b600081519050611d65816111f6565b92915050565b600060e08284031215611d8157611d806114a6565b5b611d8b60e0611119565b9050600082015167ffffffffffffffff811115611dab57611daa6114ab565b5b611db784828501611d28565b6000830152506020611dcb84828501611d56565b6020830152506040611ddf84828501611d56565b6040830152506060611df384828501611a3b565b6060830152506080611e0784828501611a3b565b60808301525060a0611e1b848285016118e4565b60a08301525060c0611e2f848285016118e4565b60c08301525092915050565b600060208284031215611e5157611e50611094565b5b600082015167ffffffffffffffff811115611e6f57611e6e611099565b5b611e7b84828501611d6b565b91505092915050565b7f4f776e61626c653a206e6577206f776e657220697320746865207a65726f206160008201527f6464726573730000000000000000000000000000000000000000000000000000602082015250565b6000611ee0602683611926565b9150611eeb82611e84565b604082019050919050565b60006020820190508181036000830152611f0f81611ed3565b9050919050565b7f4f776e61626c653a2063616c6c6572206973206e6f7420746865206f776e6572600082015250565b6000611f4c602083611926565b9150611f5782611f16565b602082019050919050565b60006020820190508181036000830152611f7b81611f3f565b9050919050565b600081905092915050565b6000611f9882611601565b611fa28185611f82565b9350611fb281856020860161161d565b80840191505092915050565b6000611fca8284611f8d565b915081905092915050565b7f5354460000000000000000000000000000000000000000000000000000000000600082015250565b600061200b600383611926565b915061201682611fd5565b602082019050919050565b6000602082019050818103600083015261203a81611ffe565b9050919050565b7f5341000000000000000000000000000000000000000000000000000000000000600082015250565b6000612077600283611926565b915061208282612041565b602082019050919050565b600060208201905081810360008301526120a68161206a565b905091905056fea2646970667358221220b4d26e7f953e4fe3319a39fddc31379eb5df079f137da23b1b1ffe5b5145fb4964736f6c63430008090033",
  "devdoc": {
    "author": "0nika0",
    "details": "A smart contract for executing token swaps and managing roles for traders.  This contract allows users with the TRADER_ROLE to perform token swaps and enforces checks on the validity of swaps.",
    "kind": "dev",
    "methods": {
      "calculateMsgValue(bytes)": {
        "details": "See {IExchanger-calculateMsgValue}."
      },
      "checkMsgValue(bytes[],uint256)": {
        "details": "See {IExchanger-checkMsgValue}."
      },
      "decodeFromExchange(bytes)": {
        "details": "See {IExchanger-decodeFromExchange}."
      },
      "encodeFromExchange((bytes,address,address,uint256,uint256,bool,bool))": {
        "details": "See {IExchanger-encodeFromExchange}."
      },
      "owner()": {
        "details": "Returns the address of the current owner."
      },
      "renounceOwnership()": {
        "details": "Leaves the contract without owner. It will not be possible to call `onlyOwner` functions. Can only be called by the current owner. NOTE: Renouncing ownership will leave the contract without an owner, thereby disabling any functionality that is only available to the owner."
      },
      "swap(bytes,address,address)": {
        "details": "See {IExchanger-swap}."
      },
      "transferOwnership(address)": {
        "details": "Transfers ownership of the contract to a new account (`newOwner`). Can only be called by the current owner."
      }
    },
    "title": "Exchanger",
    "version": 1
  },
  "userdoc": {
    "kind": "user",
    "methods": {},
    "version": 1
  },
  "storageLayout": {
    "storage": [
      {
        "astId": 396,
        "contract": "contracts/exchanger/Exchanger.sol:Exchanger",
        "label": "_owner",
        "offset": 0,
        "slot": "0",
        "type": "t_address"
      },
      {
        "astId": 3222,
        "contract": "contracts/exchanger/Exchanger.sol:Exchanger",
        "label": "swapRouter",
        "offset": 0,
        "slot": "1",
        "type": "t_contract(ISwapRouter)2563"
      },
      {
        "astId": 3225,
        "contract": "contracts/exchanger/Exchanger.sol:Exchanger",
        "label": "roleManager",
        "offset": 0,
        "slot": "2",
        "type": "t_contract(RoleManager)2941"
      },
      {
        "astId": 3228,
        "contract": "contracts/exchanger/Exchanger.sol:Exchanger",
        "label": "weth9",
        "offset": 0,
        "slot": "3",
        "type": "t_contract(IWETH9)3639"
      }
    ],
    "types": {
      "t_address": {
        "encoding": "inplace",
        "label": "address",
        "numberOfBytes": "20"
      },
      "t_contract(ISwapRouter)2563": {
        "encoding": "inplace",
        "label": "contract ISwapRouter",
        "numberOfBytes": "20"
      },
      "t_contract(IWETH9)3639": {
        "encoding": "inplace",
        "label": "contract IWETH9",
        "numberOfBytes": "20"
      },
      "t_contract(RoleManager)2941": {
        "encoding": "inplace",
        "label": "contract RoleManager",
        "numberOfBytes": "20"
      }
    }
  }
}