{
  "address": "0x90481D5ed869be0E5bf11e5a2a8dCF632b9FAEf5",
  "abi": [
    {
      "inputs": [
        {
          "internalType": "address",
          "name": "_optionMarket",
          "type": "address"
        },
        {
          "internalType": "address",
          "name": "_optionToken",
          "type": "address"
        },
        {
          "internalType": "address",
          "name": "_referrer",
          "type": "address"
        }
      ],
      "stateMutability": "nonpayable",
      "type": "constructor"
    },
    {
      "anonymous": false,
      "inputs": [
        {
          "indexed": true,
          "internalType": "uint256",
          "name": "buildID",
          "type": "uint256"
        },
        {
          "indexed": false,
          "internalType": "uint256",
          "name": "strikeId",
          "type": "uint256"
        },
        {
          "indexed": false,
          "internalType": "uint256",
          "name": "positionId",
          "type": "uint256"
        },
        {
          "indexed": false,
          "internalType": "uint256",
          "name": "iterations",
          "type": "uint256"
        },
        {
          "indexed": false,
          "internalType": "enum IOptionMarket.OptionType",
          "name": "optionType",
          "type": "uint8"
        },
        {
          "indexed": false,
          "internalType": "uint256",
          "name": "amount",
          "type": "uint256"
        },
        {
          "indexed": false,
          "internalType": "uint256",
          "name": "setCollateralTo",
          "type": "uint256"
        },
        {
          "indexed": false,
          "internalType": "uint256",
          "name": "minTotalCost",
          "type": "uint256"
        },
        {
          "indexed": false,
          "internalType": "uint256",
          "name": "maxTotalCost",
          "type": "uint256"
        },
        {
          "indexed": false,
          "internalType": "address",
          "name": "referrer",
          "type": "address"
        },
        {
          "indexed": false,
          "internalType": "uint256",
          "name": "tokenID",
          "type": "uint256"
        }
      ],
      "name": "OpenPositionByLyra",
      "type": "event"
    },
    {
      "anonymous": false,
      "inputs": [
        {
          "indexed": true,
          "internalType": "address",
          "name": "previousOwner",
          "type": "address"
        },
        {
          "indexed": true,
          "internalType": "address",
          "name": "newOwner",
          "type": "address"
        }
      ],
      "name": "OwnershipTransferred",
      "type": "event"
    },
    {
      "inputs": [],
      "name": "allApprove",
      "outputs": [],
      "stateMutability": "nonpayable",
      "type": "function"
    },
    {
      "inputs": [
        {
          "internalType": "bytes",
          "name": "parameters",
          "type": "bytes"
        }
      ],
      "name": "calculateAmount",
      "outputs": [
        {
          "internalType": "address",
          "name": "token",
          "type": "address"
        },
        {
          "internalType": "uint256",
          "name": "amount",
          "type": "uint256"
        }
      ],
      "stateMutability": "view",
      "type": "function"
    },
    {
      "inputs": [
        {
          "internalType": "bytes",
          "name": "paramData",
          "type": "bytes"
        }
      ],
      "name": "decodeFromLyra",
      "outputs": [
        {
          "components": [
            {
              "internalType": "uint256",
              "name": "strikeId",
              "type": "uint256"
            },
            {
              "internalType": "uint256",
              "name": "positionId",
              "type": "uint256"
            },
            {
              "internalType": "uint256",
              "name": "iterations",
              "type": "uint256"
            },
            {
              "internalType": "enum IOptionMarket.OptionType",
              "name": "optionType",
              "type": "uint8"
            },
            {
              "internalType": "uint256",
              "name": "amount",
              "type": "uint256"
            },
            {
              "internalType": "uint256",
              "name": "setCollateralTo",
              "type": "uint256"
            },
            {
              "internalType": "uint256",
              "name": "minTotalCost",
              "type": "uint256"
            },
            {
              "internalType": "uint256",
              "name": "maxTotalCost",
              "type": "uint256"
            },
            {
              "internalType": "address",
              "name": "referrer",
              "type": "address"
            }
          ],
          "internalType": "struct IOptionMarket.TradeInputParameters",
          "name": "params",
          "type": "tuple"
        }
      ],
      "stateMutability": "pure",
      "type": "function"
    },
    {
      "inputs": [
        {
          "components": [
            {
              "internalType": "uint256",
              "name": "strikeId",
              "type": "uint256"
            },
            {
              "internalType": "uint256",
              "name": "positionId",
              "type": "uint256"
            },
            {
              "internalType": "uint256",
              "name": "iterations",
              "type": "uint256"
            },
            {
              "internalType": "enum IOptionMarket.OptionType",
              "name": "optionType",
              "type": "uint8"
            },
            {
              "internalType": "uint256",
              "name": "amount",
              "type": "uint256"
            },
            {
              "internalType": "uint256",
              "name": "setCollateralTo",
              "type": "uint256"
            },
            {
              "internalType": "uint256",
              "name": "minTotalCost",
              "type": "uint256"
            },
            {
              "internalType": "uint256",
              "name": "maxTotalCost",
              "type": "uint256"
            },
            {
              "internalType": "address",
              "name": "referrer",
              "type": "address"
            }
          ],
          "internalType": "struct IOptionMarket.TradeInputParameters",
          "name": "params",
          "type": "tuple"
        }
      ],
      "name": "encodeFromLyra",
      "outputs": [
        {
          "internalType": "bytes",
          "name": "paramData",
          "type": "bytes"
        }
      ],
      "stateMutability": "pure",
      "type": "function"
    },
    {
      "inputs": [
        {
          "internalType": "address",
          "name": "",
          "type": "address"
        },
        {
          "internalType": "address",
          "name": "",
          "type": "address"
        },
        {
          "internalType": "uint256",
          "name": "",
          "type": "uint256"
        },
        {
          "internalType": "bytes",
          "name": "",
          "type": "bytes"
        }
      ],
      "name": "onERC721Received",
      "outputs": [
        {
          "internalType": "bytes4",
          "name": "",
          "type": "bytes4"
        }
      ],
      "stateMutability": "nonpayable",
      "type": "function"
    },
    {
      "inputs": [],
      "name": "optionMarket",
      "outputs": [
        {
          "internalType": "address",
          "name": "",
          "type": "address"
        }
      ],
      "stateMutability": "view",
      "type": "function"
    },
    {
      "inputs": [],
      "name": "optionToken",
      "outputs": [
        {
          "internalType": "address",
          "name": "",
          "type": "address"
        }
      ],
      "stateMutability": "view",
      "type": "function"
    },
    {
      "inputs": [],
      "name": "owner",
      "outputs": [
        {
          "internalType": "address",
          "name": "",
          "type": "address"
        }
      ],
      "stateMutability": "view",
      "type": "function"
    },
    {
      "inputs": [
        {
          "internalType": "bytes",
          "name": "parametersArray",
          "type": "bytes"
        },
        {
          "internalType": "uint256",
          "name": "buildID",
          "type": "uint256"
        },
        {
          "internalType": "address",
          "name": "user",
          "type": "address"
        }
      ],
      "name": "processTx",
      "outputs": [],
      "stateMutability": "nonpayable",
      "type": "function"
    },
    {
      "inputs": [],
      "name": "referrer",
      "outputs": [
        {
          "internalType": "address",
          "name": "",
          "type": "address"
        }
      ],
      "stateMutability": "view",
      "type": "function"
    },
    {
      "inputs": [],
      "name": "renounceOwnership",
      "outputs": [],
      "stateMutability": "nonpayable",
      "type": "function"
    },
    {
      "inputs": [
        {
          "internalType": "address",
          "name": "newReferrer",
          "type": "address"
        }
      ],
      "name": "setReferrer",
      "outputs": [],
      "stateMutability": "nonpayable",
      "type": "function"
    },
    {
      "inputs": [
        {
          "internalType": "address",
          "name": "newOwner",
          "type": "address"
        }
      ],
      "name": "transferOwnership",
      "outputs": [],
      "stateMutability": "nonpayable",
      "type": "function"
    }
  ],
  "transactionHash": "0x7a255d5c71a3cf902361009acdd6214ab4d561b3cebf662cb4c90b482c91d84f",
  "args": [
    "0xe044919cf58dFb066FC9DE7c69C7db19f336B20c",
    "0x0e97498F3d91756Ec7F2d244aC97F6Ea9f4eBbC3",
    "0x683ad8b899cd14d8e077c9a623e8b3fed65a8c09"
  ],
  "numDeployments": 1,
  "solcInputHash": "bbe1494aa8cb1ccf942a0a0e74d3ef7f",
  "bytecode": "0x60806040523480156200001157600080fd5b506040516200286738038062002867833981810160405281019062000037919062000259565b620000576200004b6200012360201b60201c565b6200012b60201b60201c565b82600160006101000a81548173ffffffffffffffffffffffffffffffffffffffff021916908373ffffffffffffffffffffffffffffffffffffffff16021790555081600260006101000a81548173ffffffffffffffffffffffffffffffffffffffff021916908373ffffffffffffffffffffffffffffffffffffffff16021790555080600360006101000a81548173ffffffffffffffffffffffffffffffffffffffff021916908373ffffffffffffffffffffffffffffffffffffffff160217905550505050620002b5565b600033905090565b60008060009054906101000a900473ffffffffffffffffffffffffffffffffffffffff169050816000806101000a81548173ffffffffffffffffffffffffffffffffffffffff021916908373ffffffffffffffffffffffffffffffffffffffff1602179055508173ffffffffffffffffffffffffffffffffffffffff168173ffffffffffffffffffffffffffffffffffffffff167f8be0079c531659141344cd1fd0a4f28419497f9722a3daafe3b4186f6b6457e060405160405180910390a35050565b600080fd5b600073ffffffffffffffffffffffffffffffffffffffff82169050919050565b60006200022182620001f4565b9050919050565b620002338162000214565b81146200023f57600080fd5b50565b600081519050620002538162000228565b92915050565b600080600060608486031215620002755762000274620001ef565b5b6000620002858682870162000242565b9350506020620002988682870162000242565b9250506040620002ab8682870162000242565b9150509250925092565b6125a280620002c56000396000f3fe608060405234801561001057600080fd5b50600436106100cf5760003560e01c80637531a64e1161008c578063a18a7bfc11610066578063a18a7bfc14610215578063ad4bb90814610231578063bb4a9f881461023b578063f2fde38b14610259576100cf565b80637531a64e1461019657806389f94c29146101c75780638da5cb5b146101f7576100cf565b8063150b7a02146100d45780632bab754b146101045780632f63d892146101225780633819137a1461015257806368447c931461016e578063715018a61461018c575b600080fd5b6100ee60048036038101906100e9919061177d565b610275565b6040516100fb9190611840565b60405180910390f35b61010c6102a3565b604051610119919061186a565b60405180910390f35b61013c60048036038101906101379190611a1b565b6102c9565b6040516101499190611ad1565b60405180910390f35b61016c60048036038101906101679190611ba8565b6102f2565b005b610176610302565b604051610183919061186a565b60405180910390f35b610194610328565b005b6101b060048036038101906101ab9190611c17565b61033c565b6040516101be929190611c6f565b60405180910390f35b6101e160048036038101906101dc9190611c17565b610a24565b6040516101ee9190611de4565b60405180910390f35b6101ff610a47565b60405161020c919061186a565b60405180910390f35b61022f600480360381019061022a9190611e00565b610a70565b005b610239610abc565b005b610243610d9c565b604051610250919061186a565b60405180910390f35b610273600480360381019061026e9190611e00565b610dc2565b005b60007f150b7a023d4804d13e8c85fb27262cb750cf6ba9f9dd3bb30d90f482ceeb4b1f905095945050505050565b600260009054906101000a900473ffffffffffffffffffffffffffffffffffffffff1681565b6060816040516020016102dc9190611de4565b6040516020818303038152906040529050919050565b6102fd838383610e46565b505050565b600360009054906101000a900473ffffffffffffffffffffffffffffffffffffffff1681565b6103306114b2565b61033a6000611530565b565b600080600061034a84610a24565b9050600060048111156103605761035f611ca7565b5b8160600151600481111561037757610376611ca7565b5b14806103ab57506001600481111561039257610391611ca7565b5b816060015160048111156103a9576103a8611ca7565b5b145b156105a457600160009054906101000a900473ffffffffffffffffffffffffffffffffffffffff1673ffffffffffffffffffffffffffffffffffffffff1663fdf262b76040518163ffffffff1660e01b815260040160206040518083038186803b15801561041857600080fd5b505afa15801561042c573d6000803e3d6000fd5b505050506040513d601f19601f820116820180604052508101906104509190611e6b565b73ffffffffffffffffffffffffffffffffffffffff1663313ce5676040518163ffffffff1660e01b815260040160206040518083038186803b15801561049557600080fd5b505afa1580156104a9573d6000803e3d6000fd5b505050506040513d601f19601f820116820180604052508101906104cd9190611ed1565b600a6104d99190612060565b670de0b6b3a76400006104ec91906120da565b8160e001516104fb91906120da565b9150600160009054906101000a900473ffffffffffffffffffffffffffffffffffffffff1673ffffffffffffffffffffffffffffffffffffffff1663fdf262b76040518163ffffffff1660e01b815260040160206040518083038186803b15801561056557600080fd5b505afa158015610579573d6000803e3d6000fd5b505050506040513d601f19601f8201168201806040525081019061059d9190611e6b565b9250610a1e565b600360048111156105b8576105b7611ca7565b5b816060015160048111156105cf576105ce611ca7565b5b148061060257506004808111156105e9576105e8611ca7565b5b81606001516004811115610600576105ff611ca7565b5b145b156107fb57600160009054906101000a900473ffffffffffffffffffffffffffffffffffffffff1673ffffffffffffffffffffffffffffffffffffffff1663fdf262b76040518163ffffffff1660e01b815260040160206040518083038186803b15801561066f57600080fd5b505afa158015610683573d6000803e3d6000fd5b505050506040513d601f19601f820116820180604052508101906106a79190611e6b565b73ffffffffffffffffffffffffffffffffffffffff1663313ce5676040518163ffffffff1660e01b815260040160206040518083038186803b1580156106ec57600080fd5b505afa158015610700573d6000803e3d6000fd5b505050506040513d601f19601f820116820180604052508101906107249190611ed1565b600a6107309190612060565b670de0b6b3a764000061074391906120da565b8160a0015161075291906120da565b9150600160009054906101000a900473ffffffffffffffffffffffffffffffffffffffff1673ffffffffffffffffffffffffffffffffffffffff1663fdf262b76040518163ffffffff1660e01b815260040160206040518083038186803b1580156107bc57600080fd5b505afa1580156107d0573d6000803e3d6000fd5b505050506040513d601f19601f820116820180604052508101906107f49190611e6b565b9250610a1d565b6002600481111561080f5761080e611ca7565b5b8160600151600481111561082657610825611ca7565b5b1415610a1c57600160009054906101000a900473ffffffffffffffffffffffffffffffffffffffff1673ffffffffffffffffffffffffffffffffffffffff1663cdf456e16040518163ffffffff1660e01b815260040160206040518083038186803b15801561089457600080fd5b505afa1580156108a8573d6000803e3d6000fd5b505050506040513d601f19601f820116820180604052508101906108cc9190611e6b565b73ffffffffffffffffffffffffffffffffffffffff1663313ce5676040518163ffffffff1660e01b815260040160206040518083038186803b15801561091157600080fd5b505afa158015610925573d6000803e3d6000fd5b505050506040513d601f19601f820116820180604052508101906109499190611ed1565b600a6109559190612060565b670de0b6b3a764000061096891906120da565b8160a0015161097791906120da565b9150600160009054906101000a900473ffffffffffffffffffffffffffffffffffffffff1673ffffffffffffffffffffffffffffffffffffffff1663cdf456e16040518163ffffffff1660e01b815260040160206040518083038186803b1580156109e157600080fd5b505afa1580156109f5573d6000803e3d6000fd5b505050506040513d601f19601f82011682018060405250810190610a199190611e6b565b92505b5b5b50915091565b610a2c6115fc565b81806020019051810190610a40919061222a565b9050919050565b60008060009054906101000a900473ffffffffffffffffffffffffffffffffffffffff16905090565b610a786114b2565b80600360006101000a81548173ffffffffffffffffffffffffffffffffffffffff021916908373ffffffffffffffffffffffffffffffffffffffff16021790555050565b600160009054906101000a900473ffffffffffffffffffffffffffffffffffffffff1673ffffffffffffffffffffffffffffffffffffffff1663fdf262b76040518163ffffffff1660e01b815260040160206040518083038186803b158015610b2457600080fd5b505afa158015610b38573d6000803e3d6000fd5b505050506040513d601f19601f82011682018060405250810190610b5c9190611e6b565b73ffffffffffffffffffffffffffffffffffffffff1663095ea7b3600160009054906101000a900473ffffffffffffffffffffffffffffffffffffffff167fffffffffffffffffffffffffffffffffffffffffffffffffffffffffffffffff6040518363ffffffff1660e01b8152600401610bd8929190611c6f565b602060405180830381600087803b158015610bf257600080fd5b505af1158015610c06573d6000803e3d6000fd5b505050506040513d601f19601f82011682018060405250810190610c2a9190612290565b50600160009054906101000a900473ffffffffffffffffffffffffffffffffffffffff1673ffffffffffffffffffffffffffffffffffffffff1663cdf456e16040518163ffffffff1660e01b815260040160206040518083038186803b158015610c9357600080fd5b505afa158015610ca7573d6000803e3d6000fd5b505050506040513d601f19601f82011682018060405250810190610ccb9190611e6b565b73ffffffffffffffffffffffffffffffffffffffff1663095ea7b3600160009054906101000a900473ffffffffffffffffffffffffffffffffffffffff167fffffffffffffffffffffffffffffffffffffffffffffffffffffffffffffffff6040518363ffffffff1660e01b8152600401610d47929190611c6f565b602060405180830381600087803b158015610d6157600080fd5b505af1158015610d75573d6000803e3d6000fd5b505050506040513d601f19601f82011682018060405250810190610d999190612290565b50565b600160009054906101000a900473ffffffffffffffffffffffffffffffffffffffff1681565b610dca6114b2565b600073ffffffffffffffffffffffffffffffffffffffff168173ffffffffffffffffffffffffffffffffffffffff161415610e3a576040517f08c379a0000000000000000000000000000000000000000000000000000000008152600401610e3190612340565b60405180910390fd5b610e4381611530565b50565b6000610e5184610a24565b9050600360009054906101000a900473ffffffffffffffffffffffffffffffffffffffff1681610100019073ffffffffffffffffffffffffffffffffffffffff16908173ffffffffffffffffffffffffffffffffffffffff16815250506000610eb98561033c565b5090506000600260009054906101000a900473ffffffffffffffffffffffffffffffffffffffff1673ffffffffffffffffffffffffffffffffffffffff166361b8ce8c6040518163ffffffff1660e01b815260040160206040518083038186803b158015610f2657600080fd5b505afa158015610f3a573d6000803e3d6000fd5b505050506040513d601f19601f82011682018060405250810190610f5e9190612360565b9050600160009054906101000a900473ffffffffffffffffffffffffffffffffffffffff1673ffffffffffffffffffffffffffffffffffffffff1663d6c0bb44846040518263ffffffff1660e01b8152600401610fbb9190611de4565b606060405180830381600087803b158015610fd557600080fd5b505af1158015610fe9573d6000803e3d6000fd5b505050506040513d601f19601f8201168201806040525081019061100d91906123f1565b508173ffffffffffffffffffffffffffffffffffffffff1663a9059cbb858473ffffffffffffffffffffffffffffffffffffffff166370a08231306040518263ffffffff1660e01b8152600401611064919061186a565b60206040518083038186803b15801561107c57600080fd5b505afa158015611090573d6000803e3d6000fd5b505050506040513d601f19601f820116820180604052508101906110b49190612360565b6040518363ffffffff1660e01b81526004016110d1929190611c6f565b602060405180830381600087803b1580156110eb57600080fd5b505af11580156110ff573d6000803e3d6000fd5b505050506040513d601f19601f820116820180604052508101906111239190612290565b50600260009054906101000a900473ffffffffffffffffffffffffffffffffffffffff1673ffffffffffffffffffffffffffffffffffffffff166323b872dd3086846040518463ffffffff1660e01b81526004016111839392919061241e565b600060405180830381600087803b15801561119d57600080fd5b505af11580156111b1573d6000803e3d6000fd5b50505050600260048111156111c9576111c8611ca7565b5b836060015160048111156111e0576111df611ca7565b5b141561143b57600160009054906101000a900473ffffffffffffffffffffffffffffffffffffffff1673ffffffffffffffffffffffffffffffffffffffff1663fdf262b76040518163ffffffff1660e01b815260040160206040518083038186803b15801561124e57600080fd5b505afa158015611262573d6000803e3d6000fd5b505050506040513d601f19601f820116820180604052508101906112869190611e6b565b73ffffffffffffffffffffffffffffffffffffffff1663a9059cbb85600160009054906101000a900473ffffffffffffffffffffffffffffffffffffffff1673ffffffffffffffffffffffffffffffffffffffff1663fdf262b76040518163ffffffff1660e01b815260040160206040518083038186803b15801561130a57600080fd5b505afa15801561131e573d6000803e3d6000fd5b505050506040513d601f19601f820116820180604052508101906113429190611e6b565b73ffffffffffffffffffffffffffffffffffffffff166370a08231306040518263ffffffff1660e01b815260040161137a919061186a565b60206040518083038186803b15801561139257600080fd5b505afa1580156113a6573d6000803e3d6000fd5b505050506040513d601f19601f820116820180604052508101906113ca9190612360565b6040518363ffffffff1660e01b81526004016113e7929190611c6f565b602060405180830381600087803b15801561140157600080fd5b505af1158015611415573d6000803e3d6000fd5b505050506040513d601f19601f820116820180604052508101906114399190612290565b505b847f8650344f378c8df5446864351ca3e88677936be22fcf7b4d2254da11ce46875a846000015185602001518660400151876060015188608001518960a001518a60c001518b60e001518c61010001518b6040516114a29a99989796959493929190612464565b60405180910390a2505050505050565b6114ba6115f4565b73ffffffffffffffffffffffffffffffffffffffff166114d8610a47565b73ffffffffffffffffffffffffffffffffffffffff161461152e576040517f08c379a00000000000000000000000000000000000000000000000000000000081526004016115259061254c565b60405180910390fd5b565b60008060009054906101000a900473ffffffffffffffffffffffffffffffffffffffff169050816000806101000a81548173ffffffffffffffffffffffffffffffffffffffff021916908373ffffffffffffffffffffffffffffffffffffffff1602179055508173ffffffffffffffffffffffffffffffffffffffff168173ffffffffffffffffffffffffffffffffffffffff167f8be0079c531659141344cd1fd0a4f28419497f9722a3daafe3b4186f6b6457e060405160405180910390a35050565b600033905090565b6040518061012001604052806000815260200160008152602001600081526020016000600481111561163157611630611ca7565b5b815260200160008152602001600081526020016000815260200160008152602001600073ffffffffffffffffffffffffffffffffffffffff1681525090565b6000604051905090565b600080fd5b600080fd5b600073ffffffffffffffffffffffffffffffffffffffff82169050919050565b60006116af82611684565b9050919050565b6116bf816116a4565b81146116ca57600080fd5b50565b6000813590506116dc816116b6565b92915050565b6000819050919050565b6116f5816116e2565b811461170057600080fd5b50565b600081359050611712816116ec565b92915050565b600080fd5b600080fd5b600080fd5b60008083601f84011261173d5761173c611718565b5b8235905067ffffffffffffffff81111561175a5761175961171d565b5b60208301915083600182028301111561177657611775611722565b5b9250929050565b6000806000806000608086880312156117995761179861167a565b5b60006117a7888289016116cd565b95505060206117b8888289016116cd565b94505060406117c988828901611703565b935050606086013567ffffffffffffffff8111156117ea576117e961167f565b5b6117f688828901611727565b92509250509295509295909350565b60007fffffffff0000000000000000000000000000000000000000000000000000000082169050919050565b61183a81611805565b82525050565b60006020820190506118556000830184611831565b92915050565b611864816116a4565b82525050565b600060208201905061187f600083018461185b565b92915050565b600080fd5b6000601f19601f8301169050919050565b7f4e487b7100000000000000000000000000000000000000000000000000000000600052604160045260246000fd5b6118d38261188a565b810181811067ffffffffffffffff821117156118f2576118f161189b565b5b80604052505050565b6000611905611670565b905061191182826118ca565b919050565b6005811061192357600080fd5b50565b60008135905061193581611916565b92915050565b6000610120828403121561195257611951611885565b5b61195d6101206118fb565b9050600061196d84828501611703565b600083015250602061198184828501611703565b602083015250604061199584828501611703565b60408301525060606119a984828501611926565b60608301525060806119bd84828501611703565b60808301525060a06119d184828501611703565b60a08301525060c06119e584828501611703565b60c08301525060e06119f984828501611703565b60e083015250610100611a0e848285016116cd565b6101008301525092915050565b60006101208284031215611a3257611a3161167a565b5b6000611a408482850161193b565b91505092915050565b600081519050919050565b600082825260208201905092915050565b60005b83811015611a83578082015181840152602081019050611a68565b83811115611a92576000848401525b50505050565b6000611aa382611a49565b611aad8185611a54565b9350611abd818560208601611a65565b611ac68161188a565b840191505092915050565b60006020820190508181036000830152611aeb8184611a98565b905092915050565b600080fd5b600067ffffffffffffffff821115611b1357611b1261189b565b5b611b1c8261188a565b9050602081019050919050565b82818337600083830152505050565b6000611b4b611b4684611af8565b6118fb565b905082815260208101848484011115611b6757611b66611af3565b5b611b72848285611b29565b509392505050565b600082601f830112611b8f57611b8e611718565b5b8135611b9f848260208601611b38565b91505092915050565b600080600060608486031215611bc157611bc061167a565b5b600084013567ffffffffffffffff811115611bdf57611bde61167f565b5b611beb86828701611b7a565b9350506020611bfc86828701611703565b9250506040611c0d868287016116cd565b9150509250925092565b600060208284031215611c2d57611c2c61167a565b5b600082013567ffffffffffffffff811115611c4b57611c4a61167f565b5b611c5784828501611b7a565b91505092915050565b611c69816116e2565b82525050565b6000604082019050611c84600083018561185b565b611c916020830184611c60565b9392505050565b611ca1816116e2565b82525050565b7f4e487b7100000000000000000000000000000000000000000000000000000000600052602160045260246000fd5b60058110611ce757611ce6611ca7565b5b50565b6000819050611cf882611cd6565b919050565b6000611d0882611cea565b9050919050565b611d1881611cfd565b82525050565b611d27816116a4565b82525050565b61012082016000820151611d446000850182611c98565b506020820151611d576020850182611c98565b506040820151611d6a6040850182611c98565b506060820151611d7d6060850182611d0f565b506080820151611d906080850182611c98565b5060a0820151611da360a0850182611c98565b5060c0820151611db660c0850182611c98565b5060e0820151611dc960e0850182611c98565b50610100820151611dde610100850182611d1e565b50505050565b600061012082019050611dfa6000830184611d2d565b92915050565b600060208284031215611e1657611e1561167a565b5b6000611e24848285016116cd565b91505092915050565b6000611e38826116a4565b9050919050565b611e4881611e2d565b8114611e5357600080fd5b50565b600081519050611e6581611e3f565b92915050565b600060208284031215611e8157611e8061167a565b5b6000611e8f84828501611e56565b91505092915050565b600060ff82169050919050565b611eae81611e98565b8114611eb957600080fd5b50565b600081519050611ecb81611ea5565b92915050565b600060208284031215611ee757611ee661167a565b5b6000611ef584828501611ebc565b91505092915050565b7f4e487b7100000000000000000000000000000000000000000000000000000000600052601160045260246000fd5b60008160011c9050919050565b6000808291508390505b6001851115611f8457808604811115611f6057611f5f611efe565b5b6001851615611f6f5780820291505b8081029050611f7d85611f2d565b9450611f44565b94509492505050565b600082611f9d5760019050612059565b81611fab5760009050612059565b8160018114611fc15760028114611fcb57611ffa565b6001915050612059565b60ff841115611fdd57611fdc611efe565b5b8360020a915084821115611ff457611ff3611efe565b5b50612059565b5060208310610133831016604e8410600b841016171561202f5782820a90508381111561202a57612029611efe565b5b612059565b61203c8484846001611f3a565b9250905081840481111561205357612052611efe565b5b81810290505b9392505050565b600061206b826116e2565b915061207683611e98565b92506120a37fffffffffffffffffffffffffffffffffffffffffffffffffffffffffffffffff8484611f8d565b905092915050565b7f4e487b7100000000000000000000000000000000000000000000000000000000600052601260045260246000fd5b60006120e5826116e2565b91506120f0836116e2565b925082612100576120ff6120ab565b5b828204905092915050565b60008151905061211a816116ec565b92915050565b60008151905061212f81611916565b92915050565b600081519050612144816116b6565b92915050565b6000610120828403121561216157612160611885565b5b61216c6101206118fb565b9050600061217c8482850161210b565b60008301525060206121908482850161210b565b60208301525060406121a48482850161210b565b60408301525060606121b884828501612120565b60608301525060806121cc8482850161210b565b60808301525060a06121e08482850161210b565b60a08301525060c06121f48482850161210b565b60c08301525060e06122088482850161210b565b60e08301525061010061221d84828501612135565b6101008301525092915050565b600061012082840312156122415761224061167a565b5b600061224f8482850161214a565b91505092915050565b60008115159050919050565b61226d81612258565b811461227857600080fd5b50565b60008151905061228a81612264565b92915050565b6000602082840312156122a6576122a561167a565b5b60006122b48482850161227b565b91505092915050565b600082825260208201905092915050565b7f4f776e61626c653a206e6577206f776e657220697320746865207a65726f206160008201527f6464726573730000000000000000000000000000000000000000000000000000602082015250565b600061232a6026836122bd565b9150612335826122ce565b604082019050919050565b600060208201905081810360008301526123598161231d565b9050919050565b6000602082840312156123765761237561167a565b5b60006123848482850161210b565b91505092915050565b6000606082840312156123a3576123a2611885565b5b6123ad60606118fb565b905060006123bd8482850161210b565b60008301525060206123d18482850161210b565b60208301525060406123e58482850161210b565b60408301525092915050565b6000606082840312156124075761240661167a565b5b60006124158482850161238d565b91505092915050565b6000606082019050612433600083018661185b565b612440602083018561185b565b61244d6040830184611c60565b949350505050565b61245e81611cfd565b82525050565b60006101408201905061247a600083018d611c60565b612487602083018c611c60565b612494604083018b611c60565b6124a1606083018a612455565b6124ae6080830189611c60565b6124bb60a0830188611c60565b6124c860c0830187611c60565b6124d560e0830186611c60565b6124e361010083018561185b565b6124f1610120830184611c60565b9b9a5050505050505050505050565b7f4f776e61626c653a2063616c6c6572206973206e6f7420746865206f776e6572600082015250565b60006125366020836122bd565b915061254182612500565b602082019050919050565b6000602082019050818103600083015261256581612529565b905091905056fea264697066735822122083279f9980b6b4c0d55fd3d229ab74b25116c4e97a735fcadf700360bb7a6a1e64736f6c63430008090033",
  "devdoc": {
    "author": "0nika0",
    "kind": "dev",
    "methods": {
      "allApprove()": {
        "details": "See {ITxBuilderOpenLyra-allApprove}."
      },
      "calculateAmount(bytes)": {
        "details": "This public view function calculates the amount of a token based on a set of input parameters. It decodes the parameters, retrieves the necessary information from a Lyra strategy, and calculates the amount based on the option type and related factors.",
        "params": {
          "parameters": "The encoded parameters for the calculation."
        },
        "returns": {
          "amount": "The calculated amount of the token.",
          "token": "The address of the token to be calculated."
        }
      },
      "decodeFromLyra(bytes)": {
        "details": "See {ITxBuilderOpenLyra-decodeFromLyra}."
      },
      "encodeFromLyra((uint256,uint256,uint256,uint8,uint256,uint256,uint256,uint256,address))": {
        "details": "See {ITxBuilderOpenLyra-encodeFromLyra}."
      },
      "owner()": {
        "details": "Returns the address of the current owner."
      },
      "processTx(bytes,uint256,address)": {
        "details": "See {IBaseTxBuilderOpen-processTx}."
      },
      "renounceOwnership()": {
        "details": "Leaves the contract without owner. It will not be possible to call `onlyOwner` functions. Can only be called by the current owner. NOTE: Renouncing ownership will leave the contract without an owner, thereby disabling any functionality that is only available to the owner."
      },
      "setReferrer(address)": {
        "details": "See {ITxBuilderOpenLyra-setReferrer}."
      },
      "transferOwnership(address)": {
        "details": "Transfers ownership of the contract to a new account (`newOwner`). Can only be called by the current owner."
      }
    },
    "title": "TxBuilderOpenLyra",
    "version": 1
  },
  "userdoc": {
    "events": {
      "OpenPositionByLyra(uint256,uint256,uint256,uint256,uint8,uint256,uint256,uint256,uint256,address,uint256)": {
        "notice": "Emitted when a position is opened using the Lyra protocol."
      }
    },
    "kind": "user",
    "methods": {
      "calculateAmount(bytes)": {
        "notice": "Calculate the amount of a token based on provided parameters."
      }
    },
    "notice": "A contract for building and processing Lyra option transactions.",
    "version": 1
  },
  "storageLayout": {
    "storage": [
      {
        "astId": 396,
        "contract": "contracts/lyra/TxBuilderOpenLyra.sol:TxBuilderOpenLyra",
        "label": "_owner",
        "offset": 0,
        "slot": "0",
        "type": "t_address"
      },
      {
        "astId": 4448,
        "contract": "contracts/lyra/TxBuilderOpenLyra.sol:TxBuilderOpenLyra",
        "label": "optionMarket",
        "offset": 0,
        "slot": "1",
        "type": "t_address"
      },
      {
        "astId": 4450,
        "contract": "contracts/lyra/TxBuilderOpenLyra.sol:TxBuilderOpenLyra",
        "label": "optionToken",
        "offset": 0,
        "slot": "2",
        "type": "t_address"
      },
      {
        "astId": 4452,
        "contract": "contracts/lyra/TxBuilderOpenLyra.sol:TxBuilderOpenLyra",
        "label": "referrer",
        "offset": 0,
        "slot": "3",
        "type": "t_address"
      }
    ],
    "types": {
      "t_address": {
        "encoding": "inplace",
        "label": "address",
        "numberOfBytes": "20"
      }
    }
  }
}