{
  "address": "0x9C22123ffecAf575F93e5FA21DEeb43696A10ad3",
  "abi": [
    {
      "inputs": [
        {
          "internalType": "address",
          "name": "_exchanger",
          "type": "address"
        }
      ],
      "stateMutability": "nonpayable",
      "type": "constructor"
    },
    {
      "anonymous": false,
      "inputs": [
        {
          "indexed": false,
          "internalType": "uint256",
          "name": "buildID",
          "type": "uint256"
        },
        {
          "indexed": true,
          "internalType": "address",
          "name": "user",
          "type": "address"
        },
        {
          "indexed": false,
          "internalType": "uint256",
          "name": "productType",
          "type": "uint256"
        }
      ],
      "name": "CreateBuild",
      "type": "event"
    },
    {
      "anonymous": false,
      "inputs": [
        {
          "indexed": true,
          "internalType": "address",
          "name": "previousOwner",
          "type": "address"
        },
        {
          "indexed": true,
          "internalType": "address",
          "name": "newOwner",
          "type": "address"
        }
      ],
      "name": "OwnershipTransferred",
      "type": "event"
    },
    {
      "inputs": [
        {
          "internalType": "address",
          "name": "token",
          "type": "address"
        },
        {
          "internalType": "address",
          "name": "to",
          "type": "address"
        },
        {
          "internalType": "uint256",
          "name": "amount",
          "type": "uint256"
        }
      ],
      "name": "allApprove",
      "outputs": [],
      "stateMutability": "nonpayable",
      "type": "function"
    },
    {
      "inputs": [
        {
          "components": [
            {
              "internalType": "address",
              "name": "moduleAddress",
              "type": "address"
            },
            {
              "internalType": "string",
              "name": "name",
              "type": "string"
            }
          ],
          "internalType": "struct ITxBuilder.Module[]",
          "name": "moduleArray",
          "type": "tuple[]"
        },
        {
          "internalType": "bytes[]",
          "name": "parametersArray",
          "type": "bytes[]"
        },
        {
          "internalType": "bytes[]",
          "name": "swapDataArray",
          "type": "bytes[]"
        },
        {
          "internalType": "uint256",
          "name": "productType",
          "type": "uint256"
        }
      ],
      "name": "consolidationOfTransactions",
      "outputs": [],
      "stateMutability": "payable",
      "type": "function"
    },
    {
      "inputs": [],
      "name": "exchanger",
      "outputs": [
        {
          "internalType": "contract Exchanger",
          "name": "",
          "type": "address"
        }
      ],
      "stateMutability": "view",
      "type": "function"
    },
    {
      "inputs": [
        {
          "internalType": "uint256",
          "name": "",
          "type": "uint256"
        }
      ],
      "name": "module",
      "outputs": [
        {
          "internalType": "address",
          "name": "moduleAddress",
          "type": "address"
        },
        {
          "internalType": "string",
          "name": "name",
          "type": "string"
        }
      ],
      "stateMutability": "view",
      "type": "function"
    },
    {
      "inputs": [],
      "name": "nextBuildID",
      "outputs": [
        {
          "internalType": "uint256",
          "name": "",
          "type": "uint256"
        }
      ],
      "stateMutability": "view",
      "type": "function"
    },
    {
      "inputs": [],
      "name": "owner",
      "outputs": [
        {
          "internalType": "address",
          "name": "",
          "type": "address"
        }
      ],
      "stateMutability": "view",
      "type": "function"
    },
    {
      "inputs": [],
      "name": "renounceOwnership",
      "outputs": [],
      "stateMutability": "nonpayable",
      "type": "function"
    },
    {
      "inputs": [
        {
          "internalType": "address",
          "name": "exchangerAddress",
          "type": "address"
        }
      ],
      "name": "setExchanger",
      "outputs": [],
      "stateMutability": "nonpayable",
      "type": "function"
    },
    {
      "inputs": [
        {
          "internalType": "uint256",
          "name": "index",
          "type": "uint256"
        },
        {
          "components": [
            {
              "internalType": "address",
              "name": "moduleAddress",
              "type": "address"
            },
            {
              "internalType": "string",
              "name": "name",
              "type": "string"
            }
          ],
          "internalType": "struct ITxBuilder.Module",
          "name": "modData",
          "type": "tuple"
        }
      ],
      "name": "setModule",
      "outputs": [],
      "stateMutability": "nonpayable",
      "type": "function"
    },
    {
      "inputs": [
        {
          "internalType": "address",
          "name": "newOwner",
          "type": "address"
        }
      ],
      "name": "transferOwnership",
      "outputs": [],
      "stateMutability": "nonpayable",
      "type": "function"
    },
    {
      "inputs": [
        {
          "internalType": "address",
          "name": "token",
          "type": "address"
        },
        {
          "internalType": "address",
          "name": "user",
          "type": "address"
        },
        {
          "internalType": "uint256",
          "name": "amount",
          "type": "uint256"
        }
      ],
      "name": "withdrawERC20",
      "outputs": [],
      "stateMutability": "nonpayable",
      "type": "function"
    },
    {
      "inputs": [
        {
          "internalType": "address",
          "name": "user",
          "type": "address"
        },
        {
          "internalType": "uint256",
          "name": "amount",
          "type": "uint256"
        }
      ],
      "name": "withdrawETH",
      "outputs": [],
      "stateMutability": "nonpayable",
      "type": "function"
    }
  ],
  "transactionHash": "0x06ccd3150f8668b37bdeb3b1d7a78ddebc75c881a83fcc9c75bba7b4370ad84c",
  "args": [
    "0xb5a9a964E4bE759FF06D18BD5BB5060B3F65087c"
  ],
  "numDeployments": 1,
  "solcInputHash": "bbe1494aa8cb1ccf942a0a0e74d3ef7f",
  "bytecode": "0x608060405260016003553480156200001657600080fd5b506040516200206f3803806200206f83398181016040528101906200003c9190620001da565b6200005c62000050620000a460201b60201c565b620000ac60201b60201c565b80600160006101000a81548173ffffffffffffffffffffffffffffffffffffffff021916908373ffffffffffffffffffffffffffffffffffffffff160217905550506200020c565b600033905090565b60008060009054906101000a900473ffffffffffffffffffffffffffffffffffffffff169050816000806101000a81548173ffffffffffffffffffffffffffffffffffffffff021916908373ffffffffffffffffffffffffffffffffffffffff1602179055508173ffffffffffffffffffffffffffffffffffffffff168173ffffffffffffffffffffffffffffffffffffffff167f8be0079c531659141344cd1fd0a4f28419497f9722a3daafe3b4186f6b6457e060405160405180910390a35050565b600080fd5b600073ffffffffffffffffffffffffffffffffffffffff82169050919050565b6000620001a28262000175565b9050919050565b620001b48162000195565b8114620001c057600080fd5b50565b600081519050620001d481620001a9565b92915050565b600060208284031215620001f357620001f262000170565b5b60006200020384828501620001c3565b91505092915050565b611e53806200021c6000396000f3fe6080604052600436106100a75760003560e01c8063715018a611610064578063715018a6146101ac578063868ccfb3146101c35780638da5cb5b146101ec578063d7819cd114610217578063da909b0914610242578063f2fde38b1461026b576100a7565b80632ad4cd18146100ac578063302d2ef6146100d5578063430f75da146100f157806344004cc11461012f5780634782f779146101585780634d12fca414610181575b600080fd5b3480156100b857600080fd5b506100d360048036038101906100ce9190610cc6565b610294565b005b6100ef60048036038101906100ea919061113d565b61032f565b005b3480156100fd57600080fd5b50610118600480360381019061011391906111f8565b6107b2565b6040516101269291906112bc565b60405180910390f35b34801561013b57600080fd5b5061015660048036038101906101519190610cc6565b61087e565b005b34801561016457600080fd5b5061017f600480360381019061017a91906112ec565b610919565b005b34801561018d57600080fd5b5061019661096c565b6040516101a3919061138b565b60405180910390f35b3480156101b857600080fd5b506101c1610992565b005b3480156101cf57600080fd5b506101ea60048036038101906101e591906113ca565b6109a6565b005b3480156101f857600080fd5b506102016109d5565b60405161020e9190611426565b60405180910390f35b34801561022357600080fd5b5061022c6109fe565b6040516102399190611450565b60405180910390f35b34801561024e57600080fd5b506102696004803603810190610264919061146b565b610a04565b005b34801561027757600080fd5b50610292600480360381019061028d919061146b565b610a50565b005b61029c610ad4565b8273ffffffffffffffffffffffffffffffffffffffff1663095ea7b383836040518363ffffffff1660e01b81526004016102d7929190611498565b602060405180830381600087803b1580156102f157600080fd5b505af1158015610305573d6000803e3d6000fd5b505050506040513d601f19601f8201168201806040525081019061032991906114f9565b50505050565b82518451148015610341575081518351145b610380576040517f08c379a000000000000000000000000000000000000000000000000000000000815260040161037790611572565b60405180910390fd5b600160009054906101000a900473ffffffffffffffffffffffffffffffffffffffff1673ffffffffffffffffffffffffffffffffffffffff16638a4c2a0e83346040518363ffffffff1660e01b81526004016103dd9291906116a9565b60006040518083038186803b1580156103f557600080fd5b505afa158015610409573d6000803e3d6000fd5b5050505060005b8451811015610741576000600160009054906101000a900473ffffffffffffffffffffffffffffffffffffffff1673ffffffffffffffffffffffffffffffffffffffff1663bcc4bffd85848151811061046c5761046b6116d9565b5b60200260200101516040518263ffffffff1660e01b81526004016104909190611752565b60206040518083038186803b1580156104a857600080fd5b505afa1580156104bc573d6000803e3d6000fd5b505050506040513d601f19601f820116820180604052508101906104e09190611789565b905060008114156105b957600160009054906101000a900473ffffffffffffffffffffffffffffffffffffffff1673ffffffffffffffffffffffffffffffffffffffff166378a820a785848151811061053c5761053b6116d9565b5b602002602001015133898681518110610558576105576116d9565b5b6020026020010151600001516040518463ffffffff1660e01b8152600401610582939291906117b6565b600060405180830381600087803b15801561059c57600080fd5b505af11580156105b0573d6000803e3d6000fd5b50505050610684565b600160009054906101000a900473ffffffffffffffffffffffffffffffffffffffff1673ffffffffffffffffffffffffffffffffffffffff166378a820a78286858151811061060b5761060a6116d9565b5b6020026020010151338a8781518110610627576106266116d9565b5b6020026020010151600001516040518563ffffffff1660e01b8152600401610651939291906117b6565b6000604051808303818588803b15801561066a57600080fd5b505af115801561067e573d6000803e3d6000fd5b50505050505b858281518110610697576106966116d9565b5b60200260200101516000015173ffffffffffffffffffffffffffffffffffffffff16633819137a8684815181106106d1576106d06116d9565b5b6020026020010151600354336040518463ffffffff1660e01b81526004016106fb939291906117f4565b600060405180830381600087803b15801561071557600080fd5b505af1158015610729573d6000803e3d6000fd5b5050505050808061073990611861565b915050610410565b503373ffffffffffffffffffffffffffffffffffffffff167fdf35236315d79f749febbbe30af46d136cadd5dc4f8006c5668c7bd2fac5da726003548360405161078c9291906118aa565b60405180910390a2600360008154809291906107a790611861565b919050555050505050565b60026020528060005260406000206000915090508060000160009054906101000a900473ffffffffffffffffffffffffffffffffffffffff16908060010180546107fb90611902565b80601f016020809104026020016040519081016040528092919081815260200182805461082790611902565b80156108745780601f1061084957610100808354040283529160200191610874565b820191906000526020600020905b81548152906001019060200180831161085757829003601f168201915b5050505050905082565b610886610ad4565b8273ffffffffffffffffffffffffffffffffffffffff1663a9059cbb83836040518363ffffffff1660e01b81526004016108c1929190611498565b602060405180830381600087803b1580156108db57600080fd5b505af11580156108ef573d6000803e3d6000fd5b505050506040513d601f19601f8201168201806040525081019061091391906114f9565b50505050565b610921610ad4565b8173ffffffffffffffffffffffffffffffffffffffff166108fc829081150290604051600060405180830381858888f19350505050158015610967573d6000803e3d6000fd5b505050565b600160009054906101000a900473ffffffffffffffffffffffffffffffffffffffff1681565b61099a610ad4565b6109a46000610b52565b565b6109ae610ad4565b806002600084815260200190815260200160002081816109ce9190611d11565b9050505050565b60008060009054906101000a900473ffffffffffffffffffffffffffffffffffffffff16905090565b60035481565b610a0c610ad4565b80600160006101000a81548173ffffffffffffffffffffffffffffffffffffffff021916908373ffffffffffffffffffffffffffffffffffffffff16021790555050565b610a58610ad4565b600073ffffffffffffffffffffffffffffffffffffffff168173ffffffffffffffffffffffffffffffffffffffff161415610ac8576040517f08c379a0000000000000000000000000000000000000000000000000000000008152600401610abf90611d91565b60405180910390fd5b610ad181610b52565b50565b610adc610c16565b73ffffffffffffffffffffffffffffffffffffffff16610afa6109d5565b73ffffffffffffffffffffffffffffffffffffffff1614610b50576040517f08c379a0000000000000000000000000000000000000000000000000000000008152600401610b4790611dfd565b60405180910390fd5b565b60008060009054906101000a900473ffffffffffffffffffffffffffffffffffffffff169050816000806101000a81548173ffffffffffffffffffffffffffffffffffffffff021916908373ffffffffffffffffffffffffffffffffffffffff1602179055508173ffffffffffffffffffffffffffffffffffffffff168173ffffffffffffffffffffffffffffffffffffffff167f8be0079c531659141344cd1fd0a4f28419497f9722a3daafe3b4186f6b6457e060405160405180910390a35050565b600033905090565b6000604051905090565b600080fd5b600080fd5b600073ffffffffffffffffffffffffffffffffffffffff82169050919050565b6000610c5d82610c32565b9050919050565b610c6d81610c52565b8114610c7857600080fd5b50565b600081359050610c8a81610c64565b92915050565b6000819050919050565b610ca381610c90565b8114610cae57600080fd5b50565b600081359050610cc081610c9a565b92915050565b600080600060608486031215610cdf57610cde610c28565b5b6000610ced86828701610c7b565b9350506020610cfe86828701610c7b565b9250506040610d0f86828701610cb1565b9150509250925092565b600080fd5b6000601f19601f8301169050919050565b7f4e487b7100000000000000000000000000000000000000000000000000000000600052604160045260246000fd5b610d6782610d1e565b810181811067ffffffffffffffff82111715610d8657610d85610d2f565b5b80604052505050565b6000610d99610c1e565b9050610da58282610d5e565b919050565b600067ffffffffffffffff821115610dc557610dc4610d2f565b5b602082029050602081019050919050565b600080fd5b600080fd5b600080fd5b600080fd5b600067ffffffffffffffff821115610e0557610e04610d2f565b5b610e0e82610d1e565b9050602081019050919050565b82818337600083830152505050565b6000610e3d610e3884610dea565b610d8f565b905082815260208101848484011115610e5957610e58610de5565b5b610e64848285610e1b565b509392505050565b600082601f830112610e8157610e80610d19565b5b8135610e91848260208601610e2a565b91505092915050565b600060408284031215610eb057610eaf610ddb565b5b610eba6040610d8f565b90506000610eca84828501610c7b565b600083015250602082013567ffffffffffffffff811115610eee57610eed610de0565b5b610efa84828501610e6c565b60208301525092915050565b6000610f19610f1484610daa565b610d8f565b90508083825260208201905060208402830185811115610f3c57610f3b610dd6565b5b835b81811015610f8357803567ffffffffffffffff811115610f6157610f60610d19565b5b808601610f6e8982610e9a565b85526020850194505050602081019050610f3e565b5050509392505050565b600082601f830112610fa257610fa1610d19565b5b8135610fb2848260208601610f06565b91505092915050565b600067ffffffffffffffff821115610fd657610fd5610d2f565b5b602082029050602081019050919050565b600067ffffffffffffffff82111561100257611001610d2f565b5b61100b82610d1e565b9050602081019050919050565b600061102b61102684610fe7565b610d8f565b90508281526020810184848401111561104757611046610de5565b5b611052848285610e1b565b509392505050565b600082601f83011261106f5761106e610d19565b5b813561107f848260208601611018565b91505092915050565b600061109b61109684610fbb565b610d8f565b905080838252602082019050602084028301858111156110be576110bd610dd6565b5b835b8181101561110557803567ffffffffffffffff8111156110e3576110e2610d19565b5b8086016110f0898261105a565b855260208501945050506020810190506110c0565b5050509392505050565b600082601f83011261112457611123610d19565b5b8135611134848260208601611088565b91505092915050565b6000806000806080858703121561115757611156610c28565b5b600085013567ffffffffffffffff81111561117557611174610c2d565b5b61118187828801610f8d565b945050602085013567ffffffffffffffff8111156111a2576111a1610c2d565b5b6111ae8782880161110f565b935050604085013567ffffffffffffffff8111156111cf576111ce610c2d565b5b6111db8782880161110f565b92505060606111ec87828801610cb1565b91505092959194509250565b60006020828403121561120e5761120d610c28565b5b600061121c84828501610cb1565b91505092915050565b61122e81610c52565b82525050565b600081519050919050565b600082825260208201905092915050565b60005b8381101561126e578082015181840152602081019050611253565b8381111561127d576000848401525b50505050565b600061128e82611234565b611298818561123f565b93506112a8818560208601611250565b6112b181610d1e565b840191505092915050565b60006040820190506112d16000830185611225565b81810360208301526112e38184611283565b90509392505050565b6000806040838503121561130357611302610c28565b5b600061131185828601610c7b565b925050602061132285828601610cb1565b9150509250929050565b6000819050919050565b600061135161134c61134784610c32565b61132c565b610c32565b9050919050565b600061136382611336565b9050919050565b600061137582611358565b9050919050565b6113858161136a565b82525050565b60006020820190506113a0600083018461137c565b92915050565b600080fd5b6000604082840312156113c1576113c06113a6565b5b81905092915050565b600080604083850312156113e1576113e0610c28565b5b60006113ef85828601610cb1565b925050602083013567ffffffffffffffff8111156114105761140f610c2d565b5b61141c858286016113ab565b9150509250929050565b600060208201905061143b6000830184611225565b92915050565b61144a81610c90565b82525050565b60006020820190506114656000830184611441565b92915050565b60006020828403121561148157611480610c28565b5b600061148f84828501610c7b565b91505092915050565b60006040820190506114ad6000830185611225565b6114ba6020830184611441565b9392505050565b60008115159050919050565b6114d6816114c1565b81146114e157600080fd5b50565b6000815190506114f3816114cd565b92915050565b60006020828403121561150f5761150e610c28565b5b600061151d848285016114e4565b91505092915050565b7f617272617973206e6f7420657175616c00000000000000000000000000000000600082015250565b600061155c60108361123f565b915061156782611526565b602082019050919050565b6000602082019050818103600083015261158b8161154f565b9050919050565b600081519050919050565b600082825260208201905092915050565b6000819050602082019050919050565b600081519050919050565b600082825260208201905092915050565b60006115e5826115be565b6115ef81856115c9565b93506115ff818560208601611250565b61160881610d1e565b840191505092915050565b600061161f83836115da565b905092915050565b6000602082019050919050565b600061163f82611592565b611649818561159d565b93508360208202850161165b856115ae565b8060005b8581101561169757848403895281516116788582611613565b945061168383611627565b925060208a0199505060018101905061165f565b50829750879550505050505092915050565b600060408201905081810360008301526116c38185611634565b90506116d26020830184611441565b9392505050565b7f4e487b7100000000000000000000000000000000000000000000000000000000600052603260045260246000fd5b600082825260208201905092915050565b6000611724826115be565b61172e8185611708565b935061173e818560208601611250565b61174781610d1e565b840191505092915050565b6000602082019050818103600083015261176c8184611719565b905092915050565b60008151905061178381610c9a565b92915050565b60006020828403121561179f5761179e610c28565b5b60006117ad84828501611774565b91505092915050565b600060608201905081810360008301526117d08186611719565b90506117df6020830185611225565b6117ec6040830184611225565b949350505050565b6000606082019050818103600083015261180e8186611719565b905061181d6020830185611441565b61182a6040830184611225565b949350505050565b7f4e487b7100000000000000000000000000000000000000000000000000000000600052601160045260246000fd5b600061186c82610c90565b91507fffffffffffffffffffffffffffffffffffffffffffffffffffffffffffffffff82141561189f5761189e611832565b5b600182019050919050565b60006040820190506118bf6000830185611441565b6118cc6020830184611441565b9392505050565b7f4e487b7100000000000000000000000000000000000000000000000000000000600052602260045260246000fd5b6000600282049050600182168061191a57607f821691505b6020821081141561192e5761192d6118d3565b5b50919050565b6000813561194181610c64565b80915050919050565b60008160001b9050919050565b600073ffffffffffffffffffffffffffffffffffffffff6119778461194a565b9350801983169250808416831791505092915050565b600061199882611358565b9050919050565b6000819050919050565b6119b28261198d565b6119c56119be8261199f565b8354611957565b8255505050565b600080fd5b600080fd5b600080fd5b600080833560016020038436030381126119f8576119f76119cc565b5b80840192508235915067ffffffffffffffff821115611a1a57611a196119d1565b5b602083019250600182023603831315611a3657611a356119d6565b5b509250929050565b600082905092915050565b60008190508160005260206000209050919050565b60006020601f8301049050919050565b600082821b905092915050565b600060088302611aab7fffffffffffffffffffffffffffffffffffffffffffffffffffffffffffffffff82611a6e565b611ab58683611a6e565b95508019841693508086168417925050509392505050565b6000611ae8611ae3611ade84610c90565b61132c565b610c90565b9050919050565b6000819050919050565b611b0283611acd565b611b16611b0e82611aef565b848454611a7b565b825550505050565b600090565b611b2b611b1e565b611b36818484611af9565b505050565b5b81811015611b5a57611b4f600082611b23565b600181019050611b3c565b5050565b601f821115611b9f57611b7081611a49565b611b7984611a5e565b81016020851015611b88578190505b611b9c611b9485611a5e565b830182611b3b565b50505b505050565b600082821c905092915050565b6000611bc260001984600802611ba4565b1980831691505092915050565b6000611bdb8383611bb1565b9150826002028217905092915050565b611bf58383611a3e565b67ffffffffffffffff811115611c0e57611c0d610d2f565b5b611c188254611902565b611c23828285611b5e565b6000601f831160018114611c525760008415611c40578287013590505b611c4a8582611bcf565b865550611cb2565b601f198416611c6086611a49565b60005b82811015611c8857848901358255600182019150602085019450602081019050611c63565b86831015611ca55784890135611ca1601f891682611bb1565b8355505b6001600288020188555050505b50505050505050565b611cc6838383611beb565b505050565b600081016000830180611cdd81611934565b9050611ce981846119a9565b5050506001810160208301611cfe81856119db565b611d09818386611cbb565b505050505050565b611d1b8282611ccb565b5050565b7f4f776e61626c653a206e6577206f776e657220697320746865207a65726f206160008201527f6464726573730000000000000000000000000000000000000000000000000000602082015250565b6000611d7b60268361123f565b9150611d8682611d1f565b604082019050919050565b60006020820190508181036000830152611daa81611d6e565b9050919050565b7f4f776e61626c653a2063616c6c6572206973206e6f7420746865206f776e6572600082015250565b6000611de760208361123f565b9150611df282611db1565b602082019050919050565b60006020820190508181036000830152611e1681611dda565b905091905056fea2646970667358221220a026d4d060c60cd8ac4eacada44c209e60892d9a22d4729dcb4c104dd094ef8064736f6c63430008090033",
  "devdoc": {
    "author": "0nika0",
    "details": "This contract manages the consolidation of transactions and products, allowing users to create and interact with modules. It enables users to consolidate multiple transactions into one and create products through modules.",
    "kind": "dev",
    "methods": {
      "allApprove(address,address,uint256)": {
        "details": "See {ITxBuilder-allApprove}."
      },
      "consolidationOfTransactions((address,string)[],bytes[],bytes[],uint256)": {
        "details": "See {ITxBuilder-consolidationOfTransactions}."
      },
      "owner()": {
        "details": "Returns the address of the current owner."
      },
      "renounceOwnership()": {
        "details": "Leaves the contract without owner. It will not be possible to call `onlyOwner` functions. Can only be called by the current owner. NOTE: Renouncing ownership will leave the contract without an owner, thereby disabling any functionality that is only available to the owner."
      },
      "setExchanger(address)": {
        "details": "See {ITxBuilder-setExchanger}."
      },
      "setModule(uint256,(address,string))": {
        "details": "See {ITxBuilder-setModule}."
      },
      "transferOwnership(address)": {
        "details": "Transfers ownership of the contract to a new account (`newOwner`). Can only be called by the current owner."
      },
      "withdrawERC20(address,address,uint256)": {
        "details": "See {ITxBuilder-withdrawERC20}."
      },
      "withdrawETH(address,uint256)": {
        "details": "See {ITxBuilder-withdrawETH}."
      }
    },
    "title": "TxBuilder",
    "version": 1
  },
  "userdoc": {
    "kind": "user",
    "methods": {},
    "version": 1
  },
  "storageLayout": {
    "storage": [
      {
        "astId": 396,
        "contract": "contracts/TxBuilder.sol:TxBuilder",
        "label": "_owner",
        "offset": 0,
        "slot": "0",
        "type": "t_address"
      },
      {
        "astId": 3151,
        "contract": "contracts/TxBuilder.sol:TxBuilder",
        "label": "exchanger",
        "offset": 0,
        "slot": "1",
        "type": "t_contract(Exchanger)3719"
      },
      {
        "astId": 3156,
        "contract": "contracts/TxBuilder.sol:TxBuilder",
        "label": "module",
        "offset": 0,
        "slot": "2",
        "type": "t_mapping(t_uint256,t_struct(Module)2956_storage)"
      },
      {
        "astId": 3159,
        "contract": "contracts/TxBuilder.sol:TxBuilder",
        "label": "nextBuildID",
        "offset": 0,
        "slot": "3",
        "type": "t_uint256"
      }
    ],
    "types": {
      "t_address": {
        "encoding": "inplace",
        "label": "address",
        "numberOfBytes": "20"
      },
      "t_contract(Exchanger)3719": {
        "encoding": "inplace",
        "label": "contract Exchanger",
        "numberOfBytes": "20"
      },
      "t_mapping(t_uint256,t_struct(Module)2956_storage)": {
        "encoding": "mapping",
        "key": "t_uint256",
        "label": "mapping(uint256 => struct ITxBuilder.Module)",
        "numberOfBytes": "32",
        "value": "t_struct(Module)2956_storage"
      },
      "t_string_storage": {
        "encoding": "bytes",
        "label": "string",
        "numberOfBytes": "32"
      },
      "t_struct(Module)2956_storage": {
        "encoding": "inplace",
        "label": "struct ITxBuilder.Module",
        "members": [
          {
            "astId": 2953,
            "contract": "contracts/TxBuilder.sol:TxBuilder",
            "label": "moduleAddress",
            "offset": 0,
            "slot": "0",
            "type": "t_address"
          },
          {
            "astId": 2955,
            "contract": "contracts/TxBuilder.sol:TxBuilder",
            "label": "name",
            "offset": 0,
            "slot": "1",
            "type": "t_string_storage"
          }
        ],
        "numberOfBytes": "64"
      },
      "t_uint256": {
        "encoding": "inplace",
        "label": "uint256",
        "numberOfBytes": "32"
      }
    }
  }
}