{
  "address": "0xaE393DFE9d1A3C59B8d35502F0377c946766B298",
  "abi": [
    {
      "inputs": [
        {
          "internalType": "address",
          "name": "_proxySeller",
          "type": "address"
        },
        {
          "internalType": "address",
          "name": "_hegicErc721",
          "type": "address"
        },
        {
          "internalType": "address",
          "name": "_usdc",
          "type": "address"
        },
        {
          "internalType": "address",
          "name": "_referrer",
          "type": "address"
        }
      ],
      "stateMutability": "nonpayable",
      "type": "constructor"
    },
    {
      "anonymous": false,
      "inputs": [
        {
          "indexed": true,
          "internalType": "uint256",
          "name": "buildID",
          "type": "uint256"
        },
        {
          "indexed": false,
          "internalType": "uint256",
          "name": "tokenID",
          "type": "uint256"
        },
        {
          "indexed": false,
          "internalType": "address",
          "name": "strategy",
          "type": "address"
        },
        {
          "indexed": false,
          "internalType": "address",
          "name": "holder",
          "type": "address"
        },
        {
          "indexed": false,
          "internalType": "uint256",
          "name": "amount",
          "type": "uint256"
        },
        {
          "indexed": false,
          "internalType": "uint256",
          "name": "period",
          "type": "uint256"
        },
        {
          "indexed": false,
          "internalType": "uint256",
          "name": "premium",
          "type": "uint256"
        }
      ],
      "name": "OpenPositionByHegic",
      "type": "event"
    },
    {
      "anonymous": false,
      "inputs": [
        {
          "indexed": true,
          "internalType": "address",
          "name": "previousOwner",
          "type": "address"
        },
        {
          "indexed": true,
          "internalType": "address",
          "name": "newOwner",
          "type": "address"
        }
      ],
      "name": "OwnershipTransferred",
      "type": "event"
    },
    {
      "inputs": [],
      "name": "allApprove",
      "outputs": [],
      "stateMutability": "nonpayable",
      "type": "function"
    },
    {
      "inputs": [
        {
          "internalType": "bytes",
          "name": "parameters",
          "type": "bytes"
        }
      ],
      "name": "calculateAmount",
      "outputs": [
        {
          "internalType": "address",
          "name": "token",
          "type": "address"
        },
        {
          "internalType": "uint256",
          "name": "amount",
          "type": "uint256"
        }
      ],
      "stateMutability": "view",
      "type": "function"
    },
    {
      "inputs": [
        {
          "internalType": "bytes",
          "name": "paramData",
          "type": "bytes"
        }
      ],
      "name": "decodeFromHegic",
      "outputs": [
        {
          "internalType": "contract IHegicStrategy",
          "name": "strategy",
          "type": "address"
        },
        {
          "internalType": "uint256",
          "name": "amount",
          "type": "uint256"
        },
        {
          "internalType": "uint256",
          "name": "period",
          "type": "uint256"
        },
        {
          "internalType": "uint256",
          "name": "maxTotalCost",
          "type": "uint256"
        },
        {
          "internalType": "bytes[]",
          "name": "additional",
          "type": "bytes[]"
        }
      ],
      "stateMutability": "pure",
      "type": "function"
    },
    {
      "inputs": [
        {
          "internalType": "contract IHegicStrategy",
          "name": "strategy",
          "type": "address"
        },
        {
          "internalType": "uint256",
          "name": "amount",
          "type": "uint256"
        },
        {
          "internalType": "uint256",
          "name": "period",
          "type": "uint256"
        },
        {
          "internalType": "uint256",
          "name": "maxTotalCost",
          "type": "uint256"
        },
        {
          "internalType": "bytes[]",
          "name": "additional",
          "type": "bytes[]"
        }
      ],
      "name": "encodeFromHegic",
      "outputs": [
        {
          "internalType": "bytes",
          "name": "paramData",
          "type": "bytes"
        }
      ],
      "stateMutability": "pure",
      "type": "function"
    },
    {
      "inputs": [],
      "name": "hegicErc721",
      "outputs": [
        {
          "internalType": "address",
          "name": "",
          "type": "address"
        }
      ],
      "stateMutability": "view",
      "type": "function"
    },
    {
      "inputs": [
        {
          "internalType": "address",
          "name": "",
          "type": "address"
        },
        {
          "internalType": "address",
          "name": "",
          "type": "address"
        },
        {
          "internalType": "uint256",
          "name": "",
          "type": "uint256"
        },
        {
          "internalType": "bytes",
          "name": "",
          "type": "bytes"
        }
      ],
      "name": "onERC721Received",
      "outputs": [
        {
          "internalType": "bytes4",
          "name": "",
          "type": "bytes4"
        }
      ],
      "stateMutability": "nonpayable",
      "type": "function"
    },
    {
      "inputs": [],
      "name": "owner",
      "outputs": [
        {
          "internalType": "address",
          "name": "",
          "type": "address"
        }
      ],
      "stateMutability": "view",
      "type": "function"
    },
    {
      "inputs": [
        {
          "internalType": "bytes",
          "name": "parametersArray",
          "type": "bytes"
        },
        {
          "internalType": "uint256",
          "name": "buildID",
          "type": "uint256"
        },
        {
          "internalType": "address",
          "name": "user",
          "type": "address"
        }
      ],
      "name": "processTx",
      "outputs": [],
      "stateMutability": "nonpayable",
      "type": "function"
    },
    {
      "inputs": [],
      "name": "proxySeller",
      "outputs": [
        {
          "internalType": "address",
          "name": "",
          "type": "address"
        }
      ],
      "stateMutability": "view",
      "type": "function"
    },
    {
      "inputs": [],
      "name": "referrer",
      "outputs": [
        {
          "internalType": "address",
          "name": "",
          "type": "address"
        }
      ],
      "stateMutability": "view",
      "type": "function"
    },
    {
      "inputs": [],
      "name": "renounceOwnership",
      "outputs": [],
      "stateMutability": "nonpayable",
      "type": "function"
    },
    {
      "inputs": [
        {
          "internalType": "address",
          "name": "newReferrer",
          "type": "address"
        }
      ],
      "name": "setReferrer",
      "outputs": [],
      "stateMutability": "nonpayable",
      "type": "function"
    },
    {
      "inputs": [
        {
          "internalType": "address",
          "name": "newOwner",
          "type": "address"
        }
      ],
      "name": "transferOwnership",
      "outputs": [],
      "stateMutability": "nonpayable",
      "type": "function"
    },
    {
      "inputs": [],
      "name": "usdc",
      "outputs": [
        {
          "internalType": "address",
          "name": "",
          "type": "address"
        }
      ],
      "stateMutability": "view",
      "type": "function"
    }
  ],
  "transactionHash": "0xc8755d5c72185b226f68d82446eecbbe44678534dafc49d6b7a7c93291e6f515",
  "args": [
    "0xec096ea6eB9aa5ea689b0CF00882366E92377371",
    "0x5Fe380D68fEe022d8acd42dc4D36FbfB249a76d5",
    "0xFF970A61A04b1cA14834A43f5dE4533eBDDB5CC8",
    "0x683ad8b899cd14d8e077c9a623e8b3fed65a8c09"
  ],
  "numDeployments": 1,
  "solcInputHash": "bbe1494aa8cb1ccf942a0a0e74d3ef7f",
  "bytecode": "0x60806040523480156200001157600080fd5b5060405162001c7f38038062001c7f83398181016040528101906200003791906200029b565b620000576200004b6200016560201b60201c565b6200016d60201b60201c565b83600160006101000a81548173ffffffffffffffffffffffffffffffffffffffff021916908373ffffffffffffffffffffffffffffffffffffffff16021790555082600260006101000a81548173ffffffffffffffffffffffffffffffffffffffff021916908373ffffffffffffffffffffffffffffffffffffffff16021790555081600360006101000a81548173ffffffffffffffffffffffffffffffffffffffff021916908373ffffffffffffffffffffffffffffffffffffffff16021790555080600460006101000a81548173ffffffffffffffffffffffffffffffffffffffff021916908373ffffffffffffffffffffffffffffffffffffffff160217905550505050506200030d565b600033905090565b60008060009054906101000a900473ffffffffffffffffffffffffffffffffffffffff169050816000806101000a81548173ffffffffffffffffffffffffffffffffffffffff021916908373ffffffffffffffffffffffffffffffffffffffff1602179055508173ffffffffffffffffffffffffffffffffffffffff168173ffffffffffffffffffffffffffffffffffffffff167f8be0079c531659141344cd1fd0a4f28419497f9722a3daafe3b4186f6b6457e060405160405180910390a35050565b600080fd5b600073ffffffffffffffffffffffffffffffffffffffff82169050919050565b6000620002638262000236565b9050919050565b620002758162000256565b81146200028157600080fd5b50565b60008151905062000295816200026a565b92915050565b60008060008060808587031215620002b857620002b762000231565b5b6000620002c88782880162000284565b9450506020620002db8782880162000284565b9350506040620002ee8782880162000284565b9250506060620003018782880162000284565b91505092959194509250565b611962806200031d6000396000f3fe608060405234801561001057600080fd5b50600436106100ea5760003560e01c806379cce6241161008c578063ad4bb90811610066578063ad4bb9081461023a578063f2b60d2a14610244578063f2fde38b14610278578063f68cae1e14610294576100ea565b806379cce624146101d05780638da5cb5b14610200578063a18a7bfc1461021e576100ea565b80633e413bee116100c85780633e413bee1461015957806368447c9314610177578063715018a6146101955780637531a64e1461019f576100ea565b806305395c20146100ef578063150b7a021461010d5780633819137a1461013d575b600080fd5b6100f76102b2565b6040516101049190610b2a565b60405180910390f35b61012760048036038101906101229190610c20565b6102d8565b6040516101349190610ce3565b60405180910390f35b61015760048036038101906101529190610e3f565b610306565b005b610161610316565b60405161016e9190610b2a565b60405180910390f35b61017f61033c565b60405161018c9190610b2a565b60405180910390f35b61019d610362565b005b6101b960048036038101906101b49190610eae565b610376565b6040516101c7929190610f06565b60405180910390f35b6101ea60048036038101906101e5919061104e565b6104bf565b6040516101f7919061116d565b60405180910390f35b6102086104f4565b6040516102159190610b2a565b60405180910390f35b6102386004803603810190610233919061118f565b61051d565b005b610242610569565b005b61025e60048036038101906102599190610eae565b61065d565b60405161026f959493929190611327565b60405180910390f35b610292600480360381019061028d919061118f565b610696565b005b61029c61071a565b6040516102a99190610b2a565b60405180910390f35b600260009054906101000a900473ffffffffffffffffffffffffffffffffffffffff1681565b60007f150b7a023d4804d13e8c85fb27262cb750cf6ba9f9dd3bb30d90f482ceeb4b1f905095945050505050565b610311838383610740565b505050565b600360009054906101000a900473ffffffffffffffffffffffffffffffffffffffff1681565b600460009054906101000a900473ffffffffffffffffffffffffffffffffffffffff1681565b61036a61099f565b6103746000610a1d565b565b600080600360009054906101000a900473ffffffffffffffffffffffffffffffffffffffff16915060008060008060006103af8861065d565b9450945094509450945060008573ffffffffffffffffffffffffffffffffffffffff1663d666b4338686856040518463ffffffff1660e01b81526004016103f893929190611381565b604080518083038186803b15801561040f57600080fd5b505afa158015610423573d6000803e3d6000fd5b505050506040513d601f19601f820116820180604052508101906104479190611407565b91505082816fffffffffffffffffffffffffffffffff16111561049f576040517f08c379a0000000000000000000000000000000000000000000000000000000008152600401610496906114a4565b60405180910390fd5b806fffffffffffffffffffffffffffffffff169650505050505050915091565b606085858585856040516020016104da959493929190611327565b604051602081830303815290604052905095945050505050565b60008060009054906101000a900473ffffffffffffffffffffffffffffffffffffffff16905090565b61052561099f565b80600460006101000a81548173ffffffffffffffffffffffffffffffffffffffff021916908373ffffffffffffffffffffffffffffffffffffffff16021790555050565b600360009054906101000a900473ffffffffffffffffffffffffffffffffffffffff1673ffffffffffffffffffffffffffffffffffffffff1663095ea7b3600160009054906101000a900473ffffffffffffffffffffffffffffffffffffffff167fffffffffffffffffffffffffffffffffffffffffffffffffffffffffffffffff6040518363ffffffff1660e01b8152600401610608929190610f06565b602060405180830381600087803b15801561062257600080fd5b505af1158015610636573d6000803e3d6000fd5b505050506040513d601f19601f8201168201806040525081019061065a91906114fc565b50565b6000806000806060858060200190518101906106799190611678565b809550819650829750839850849950505050505091939590929450565b61069e61099f565b600073ffffffffffffffffffffffffffffffffffffffff168173ffffffffffffffffffffffffffffffffffffffff16141561070e576040517f08c379a000000000000000000000000000000000000000000000000000000000815260040161070590611781565b60405180910390fd5b61071781610a1d565b50565b600160009054906101000a900473ffffffffffffffffffffffffffffffffffffffff1681565b60008060008061074f8761065d565b945050935093509350600061076388610376565b9150506000600260009054906101000a900473ffffffffffffffffffffffffffffffffffffffff1673ffffffffffffffffffffffffffffffffffffffff166375794a3c6040518163ffffffff1660e01b815260040160206040518083038186803b1580156107d057600080fd5b505afa1580156107e4573d6000803e3d6000fd5b505050506040513d601f19601f8201168201806040525081019061080891906117a1565b9050600160009054906101000a900473ffffffffffffffffffffffffffffffffffffffff1673ffffffffffffffffffffffffffffffffffffffff1663250d295e87878787600460009054906101000a900473ffffffffffffffffffffffffffffffffffffffff166040518663ffffffff1660e01b815260040161088f9594939291906117ce565b600060405180830381600087803b1580156108a957600080fd5b505af11580156108bd573d6000803e3d6000fd5b50505050600260009054906101000a900473ffffffffffffffffffffffffffffffffffffffff1673ffffffffffffffffffffffffffffffffffffffff166323b872dd3089846040518463ffffffff1660e01b815260040161092093929190611828565b600060405180830381600087803b15801561093a57600080fd5b505af115801561094e573d6000803e3d6000fd5b50505050877fb58b8caf38f3a5fb1aa22a6ae38defcd6835d2efaf65952daa55d65c56ac416182888a89898860405161098c9695949392919061185f565b60405180910390a2505050505050505050565b6109a7610ae1565b73ffffffffffffffffffffffffffffffffffffffff166109c56104f4565b73ffffffffffffffffffffffffffffffffffffffff1614610a1b576040517f08c379a0000000000000000000000000000000000000000000000000000000008152600401610a129061190c565b60405180910390fd5b565b60008060009054906101000a900473ffffffffffffffffffffffffffffffffffffffff169050816000806101000a81548173ffffffffffffffffffffffffffffffffffffffff021916908373ffffffffffffffffffffffffffffffffffffffff1602179055508173ffffffffffffffffffffffffffffffffffffffff168173ffffffffffffffffffffffffffffffffffffffff167f8be0079c531659141344cd1fd0a4f28419497f9722a3daafe3b4186f6b6457e060405160405180910390a35050565b600033905090565b600073ffffffffffffffffffffffffffffffffffffffff82169050919050565b6000610b1482610ae9565b9050919050565b610b2481610b09565b82525050565b6000602082019050610b3f6000830184610b1b565b92915050565b6000604051905090565b600080fd5b600080fd5b610b6281610b09565b8114610b6d57600080fd5b50565b600081359050610b7f81610b59565b92915050565b6000819050919050565b610b9881610b85565b8114610ba357600080fd5b50565b600081359050610bb581610b8f565b92915050565b600080fd5b600080fd5b600080fd5b60008083601f840112610be057610bdf610bbb565b5b8235905067ffffffffffffffff811115610bfd57610bfc610bc0565b5b602083019150836001820283011115610c1957610c18610bc5565b5b9250929050565b600080600080600060808688031215610c3c57610c3b610b4f565b5b6000610c4a88828901610b70565b9550506020610c5b88828901610b70565b9450506040610c6c88828901610ba6565b935050606086013567ffffffffffffffff811115610c8d57610c8c610b54565b5b610c9988828901610bca565b92509250509295509295909350565b60007fffffffff0000000000000000000000000000000000000000000000000000000082169050919050565b610cdd81610ca8565b82525050565b6000602082019050610cf86000830184610cd4565b92915050565b600080fd5b6000601f19601f8301169050919050565b7f4e487b7100000000000000000000000000000000000000000000000000000000600052604160045260246000fd5b610d4c82610d03565b810181811067ffffffffffffffff82111715610d6b57610d6a610d14565b5b80604052505050565b6000610d7e610b45565b9050610d8a8282610d43565b919050565b600067ffffffffffffffff821115610daa57610da9610d14565b5b610db382610d03565b9050602081019050919050565b82818337600083830152505050565b6000610de2610ddd84610d8f565b610d74565b905082815260208101848484011115610dfe57610dfd610cfe565b5b610e09848285610dc0565b509392505050565b600082601f830112610e2657610e25610bbb565b5b8135610e36848260208601610dcf565b91505092915050565b600080600060608486031215610e5857610e57610b4f565b5b600084013567ffffffffffffffff811115610e7657610e75610b54565b5b610e8286828701610e11565b9350506020610e9386828701610ba6565b9250506040610ea486828701610b70565b9150509250925092565b600060208284031215610ec457610ec3610b4f565b5b600082013567ffffffffffffffff811115610ee257610ee1610b54565b5b610eee84828501610e11565b91505092915050565b610f0081610b85565b82525050565b6000604082019050610f1b6000830185610b1b565b610f286020830184610ef7565b9392505050565b6000610f3a82610b09565b9050919050565b610f4a81610f2f565b8114610f5557600080fd5b50565b600081359050610f6781610f41565b92915050565b600067ffffffffffffffff821115610f8857610f87610d14565b5b602082029050602081019050919050565b6000610fac610fa784610f6d565b610d74565b90508083825260208201905060208402830185811115610fcf57610fce610bc5565b5b835b8181101561101657803567ffffffffffffffff811115610ff457610ff3610bbb565b5b8086016110018982610e11565b85526020850194505050602081019050610fd1565b5050509392505050565b600082601f83011261103557611034610bbb565b5b8135611045848260208601610f99565b91505092915050565b600080600080600060a0868803121561106a57611069610b4f565b5b600061107888828901610f58565b955050602061108988828901610ba6565b945050604061109a88828901610ba6565b93505060606110ab88828901610ba6565b925050608086013567ffffffffffffffff8111156110cc576110cb610b54565b5b6110d888828901611020565b9150509295509295909350565b600081519050919050565b600082825260208201905092915050565b60005b8381101561111f578082015181840152602081019050611104565b8381111561112e576000848401525b50505050565b600061113f826110e5565b61114981856110f0565b9350611159818560208601611101565b61116281610d03565b840191505092915050565b600060208201905081810360008301526111878184611134565b905092915050565b6000602082840312156111a5576111a4610b4f565b5b60006111b384828501610b70565b91505092915050565b6000819050919050565b60006111e16111dc6111d784610ae9565b6111bc565b610ae9565b9050919050565b60006111f3826111c6565b9050919050565b6000611205826111e8565b9050919050565b611215816111fa565b82525050565b600081519050919050565b600082825260208201905092915050565b6000819050602082019050919050565b600082825260208201905092915050565b6000611263826110e5565b61126d8185611247565b935061127d818560208601611101565b61128681610d03565b840191505092915050565b600061129d8383611258565b905092915050565b6000602082019050919050565b60006112bd8261121b565b6112c78185611226565b9350836020820285016112d985611237565b8060005b8581101561131557848403895281516112f68582611291565b9450611301836112a5565b925060208a019950506001810190506112dd565b50829750879550505050505092915050565b600060a08201905061133c600083018861120c565b6113496020830187610ef7565b6113566040830186610ef7565b6113636060830185610ef7565b818103608083015261137581846112b2565b90509695505050505050565b60006060820190506113966000830186610ef7565b6113a36020830185610ef7565b81810360408301526113b581846112b2565b9050949350505050565b60006fffffffffffffffffffffffffffffffff82169050919050565b6113e4816113bf565b81146113ef57600080fd5b50565b600081519050611401816113db565b92915050565b6000806040838503121561141e5761141d610b4f565b5b600061142c858286016113f2565b925050602061143d858286016113f2565b9150509250929050565b600082825260208201905092915050565b7f6d6178696d756d20746f74616c2076616c756520657863656564656400000000600082015250565b600061148e601c83611447565b915061149982611458565b602082019050919050565b600060208201905081810360008301526114bd81611481565b9050919050565b60008115159050919050565b6114d9816114c4565b81146114e457600080fd5b50565b6000815190506114f6816114d0565b92915050565b60006020828403121561151257611511610b4f565b5b6000611520848285016114e7565b91505092915050565b60008151905061153881610f41565b92915050565b60008151905061154d81610b8f565b92915050565b600061156661156184610d8f565b610d74565b90508281526020810184848401111561158257611581610cfe565b5b61158d848285611101565b509392505050565b600082601f8301126115aa576115a9610bbb565b5b81516115ba848260208601611553565b91505092915050565b60006115d66115d184610f6d565b610d74565b905080838252602082019050602084028301858111156115f9576115f8610bc5565b5b835b8181101561164057805167ffffffffffffffff81111561161e5761161d610bbb565b5b80860161162b8982611595565b855260208501945050506020810190506115fb565b5050509392505050565b600082601f83011261165f5761165e610bbb565b5b815161166f8482602086016115c3565b91505092915050565b600080600080600060a0868803121561169457611693610b4f565b5b60006116a288828901611529565b95505060206116b38882890161153e565b94505060406116c48882890161153e565b93505060606116d58882890161153e565b925050608086015167ffffffffffffffff8111156116f6576116f5610b54565b5b6117028882890161164a565b9150509295509295909350565b7f4f776e61626c653a206e6577206f776e657220697320746865207a65726f206160008201527f6464726573730000000000000000000000000000000000000000000000000000602082015250565b600061176b602683611447565b91506117768261170f565b604082019050919050565b6000602082019050818103600083015261179a8161175e565b9050919050565b6000602082840312156117b7576117b6610b4f565b5b60006117c58482850161153e565b91505092915050565b600060a0820190506117e3600083018861120c565b6117f06020830187610ef7565b6117fd6040830186610ef7565b818103606083015261180f81856112b2565b905061181e6080830184610b1b565b9695505050505050565b600060608201905061183d6000830186610b1b565b61184a6020830185610b1b565b6118576040830184610ef7565b949350505050565b600060c0820190506118746000830189610ef7565b6118816020830188610b1b565b61188e6040830187610b1b565b61189b6060830186610ef7565b6118a86080830185610ef7565b6118b560a0830184610ef7565b979650505050505050565b7f4f776e61626c653a2063616c6c6572206973206e6f7420746865206f776e6572600082015250565b60006118f6602083611447565b9150611901826118c0565b602082019050919050565b60006020820190508181036000830152611925816118e9565b905091905056fea2646970667358221220a243e3d51955a8fd73a549f9621376571c72dee46f5a812ce8c802a9cd588dc664736f6c63430008090033",
  "devdoc": {
    "author": "0nika0",
    "kind": "dev",
    "methods": {
      "allApprove()": {
        "details": "See {ITxBuilderOpenHegic-allApprove}."
      },
      "calculateAmount(bytes)": {
        "details": "This public view function calculates the amount of a token based on a set of input parameters.  It decodes the parameters, retrieves the necessary information from a Hegic strategy,  calculates the premium amount from positive PNL (Profit and Loss),  and ensures it does not exceed the maximum total cost.",
        "params": {
          "parameters": "The encoded parameters for the calculation."
        },
        "returns": {
          "amount": "The calculated amount of the token.",
          "token": "The address of the token to be calculated."
        }
      },
      "decodeFromHegic(bytes)": {
        "details": "See {ITxBuilderOpenHegic-decodeFromHegic}."
      },
      "encodeFromHegic(address,uint256,uint256,uint256,bytes[])": {
        "details": "See {ITxBuilderOpenHegic-encodeFromHegic}."
      },
      "owner()": {
        "details": "Returns the address of the current owner."
      },
      "processTx(bytes,uint256,address)": {
        "details": "See {IBaseTxBuilderOpen-processTx}."
      },
      "renounceOwnership()": {
        "details": "Leaves the contract without owner. It will not be possible to call `onlyOwner` functions. Can only be called by the current owner. NOTE: Renouncing ownership will leave the contract without an owner, thereby disabling any functionality that is only available to the owner."
      },
      "setReferrer(address)": {
        "details": "See {ITxBuilderOpenHegic-setReferrer}."
      },
      "transferOwnership(address)": {
        "details": "Transfers ownership of the contract to a new account (`newOwner`). Can only be called by the current owner."
      }
    },
    "title": "Transaction Builder for Opening Hegic Option Positions",
    "version": 1
  },
  "userdoc": {
    "events": {
      "OpenPositionByHegic(uint256,uint256,address,address,uint256,uint256,uint256)": {
        "notice": "Emitted when a Hegic option position is opened."
      }
    },
    "kind": "user",
    "methods": {
      "calculateAmount(bytes)": {
        "notice": "Calculate the amount of a token based on provided parameters."
      }
    },
    "notice": "This contract facilitates the opening of Hegic option positions using predefined parameters.",
    "version": 1
  },
  "storageLayout": {
    "storage": [
      {
        "astId": 396,
        "contract": "contracts/hegic/TxBuilderOpenHegic.sol:TxBuilderOpenHegic",
        "label": "_owner",
        "offset": 0,
        "slot": "0",
        "type": "t_address"
      },
      {
        "astId": 4022,
        "contract": "contracts/hegic/TxBuilderOpenHegic.sol:TxBuilderOpenHegic",
        "label": "proxySeller",
        "offset": 0,
        "slot": "1",
        "type": "t_address"
      },
      {
        "astId": 4024,
        "contract": "contracts/hegic/TxBuilderOpenHegic.sol:TxBuilderOpenHegic",
        "label": "hegicErc721",
        "offset": 0,
        "slot": "2",
        "type": "t_address"
      },
      {
        "astId": 4026,
        "contract": "contracts/hegic/TxBuilderOpenHegic.sol:TxBuilderOpenHegic",
        "label": "usdc",
        "offset": 0,
        "slot": "3",
        "type": "t_address"
      },
      {
        "astId": 4028,
        "contract": "contracts/hegic/TxBuilderOpenHegic.sol:TxBuilderOpenHegic",
        "label": "referrer",
        "offset": 0,
        "slot": "4",
        "type": "t_address"
      }
    ],
    "types": {
      "t_address": {
        "encoding": "inplace",
        "label": "address",
        "numberOfBytes": "20"
      }
    }
  }
}