{
  "address": "0x92DCa00556c34a17c6AC4CE8A0d0A01445326512",
  "abi": [
    {
      "anonymous": false,
      "inputs": [
        {
          "indexed": true,
          "internalType": "address",
          "name": "previousOwner",
          "type": "address"
        },
        {
          "indexed": true,
          "internalType": "address",
          "name": "newOwner",
          "type": "address"
        }
      ],
      "name": "OwnershipTransferred",
      "type": "event"
    },
    {
      "inputs": [],
      "name": "getBuildID",
      "outputs": [
        {
          "internalType": "uint256",
          "name": "",
          "type": "uint256"
        }
      ],
      "stateMutability": "view",
      "type": "function"
    },
    {
      "inputs": [],
      "name": "increaseBuildID",
      "outputs": [],
      "stateMutability": "nonpayable",
      "type": "function"
    },
    {
      "inputs": [],
      "name": "owner",
      "outputs": [
        {
          "internalType": "address",
          "name": "",
          "type": "address"
        }
      ],
      "stateMutability": "view",
      "type": "function"
    },
    {
      "inputs": [],
      "name": "renounceOwnership",
      "outputs": [],
      "stateMutability": "nonpayable",
      "type": "function"
    },
    {
      "inputs": [
        {
          "internalType": "address",
          "name": "newTxBuilder",
          "type": "address"
        }
      ],
      "name": "setTxBuilder",
      "outputs": [],
      "stateMutability": "nonpayable",
      "type": "function"
    },
    {
      "inputs": [
        {
          "internalType": "address",
          "name": "newOwner",
          "type": "address"
        }
      ],
      "name": "transferOwnership",
      "outputs": [],
      "stateMutability": "nonpayable",
      "type": "function"
    },
    {
      "inputs": [],
      "name": "txBuilder",
      "outputs": [
        {
          "internalType": "address",
          "name": "",
          "type": "address"
        }
      ],
      "stateMutability": "view",
      "type": "function"
    }
  ],
  "transactionHash": "0xb6896027734636b724e10e0bd70d6f660903d3b87e9e5dc14a14570f230170ef",
  "args": [],
  "numDeployments": 1,
  "solcInputHash": "69940414021e249ee89094cf8aaab651",
  "bytecode": "0x6080806040523461005f5760008054336001600160a01b0319821681178355916001600160a01b03909116907f8be0079c531659141344cd1fd0a4f28419497f9722a3daafe3b4186f6b6457e09080a36001805561036990816100658239f35b600080fdfe60808060405260048036101561001457600080fd5b600091823560e01c90816339feea831461024c57508063715018a6146101f2578063815662f3146101d45780638bd32511146101ab5780638da5cb5b14610181578063c671eacd146101395763f2fde38b1461006f57600080fd5b34610135576020366003190112610135576001600160a01b03813581811692908390036101315761009e6102db565b82156100de575082546001600160a01b0319811683178455167f8be0079c531659141344cd1fd0a4f28419497f9722a3daafe3b4186f6b6457e08380a380f35b60849060206040519162461bcd60e51b8352820152602660248201527f4f776e61626c653a206e6577206f776e657220697320746865207a65726f206160448201526564647265737360d01b6064820152fd5b8380fd5b5080fd5b503461013557602036600319011261013557356001600160a01b03811690819003610135576101666102db565b6bffffffffffffffffffffffff60a01b600254161760025580f35b82346101a857806003193601126101a857546040516001600160a01b039091168152602090f35b80fd5b82346101a857806003193601126101a8576002546040516001600160a01b039091168152602090f35b82346101a857806003193601126101a8576020600154604051908152f35b82346101a857806003193601126101a85761020b6102db565b80546001600160a01b03198116825581906001600160a01b03167f8be0079c531659141344cd1fd0a4f28419497f9722a3daafe3b4186f6b6457e08280a380f35b839150346101355781600319360112610135576002546001600160a01b0316330361029a575060015460001981146102875760010160015580f35b506011602492634e487b7160e01b835252fd5b62461bcd60e51b8152602083820152601d60248201527f796f7520646f206e6f74206861766520616363657373207269676874730000006044820152606490fd5b6000546001600160a01b031633036102ef57565b606460405162461bcd60e51b815260206004820152602060248201527f4f776e61626c653a2063616c6c6572206973206e6f7420746865206f776e65726044820152fdfea26469706673582212206831daf749781f51d4583d55868368d25e725aafd42eaeb566f2f29ad8ef04df64736f6c63430008130033",
  "devdoc": {
    "author": "0nika0",
    "details": "A contract that manages the build ID generation and assignment for transactions.      It allows the owner to set the transaction builder contract and provides functions      to retrieve the current build ID and increment it externally, ensuring proper access control.",
    "kind": "dev",
    "methods": {
      "getBuildID()": {
        "details": "Retrieves the current build ID.",
        "returns": {
          "_0": "uint256 The current build ID."
        }
      },
      "increaseBuildID()": {
        "details": "Increments the build ID externally, allowing the designated transaction builder contract to update it.      Requires the caller to be the set transaction builder contract to have access rights."
      },
      "owner()": {
        "details": "Returns the address of the current owner."
      },
      "renounceOwnership()": {
        "details": "Leaves the contract without owner. It will not be possible to call `onlyOwner` functions. Can only be called by the current owner. NOTE: Renouncing ownership will leave the contract without an owner, thereby disabling any functionality that is only available to the owner."
      },
      "setTxBuilder(address)": {
        "details": "Allows the owner to set the address of the transaction builder contract.",
        "params": {
          "newTxBuilder": "The new address of the transaction builder contract."
        }
      },
      "transferOwnership(address)": {
        "details": "Transfers ownership of the contract to a new account (`newOwner`). Can only be called by the current owner."
      }
    },
    "title": "BuildManager",
    "version": 1
  },
  "userdoc": {
    "kind": "user",
    "methods": {},
    "version": 1
  },
  "storageLayout": {
    "storage": [
      {
        "astId": 396,
        "contract": "contracts/BuildManager.sol:BuildManager",
        "label": "_owner",
        "offset": 0,
        "slot": "0",
        "type": "t_address"
      },
      {
        "astId": 2748,
        "contract": "contracts/BuildManager.sol:BuildManager",
        "label": "nextBuildID",
        "offset": 0,
        "slot": "1",
        "type": "t_uint256"
      },
      {
        "astId": 2750,
        "contract": "contracts/BuildManager.sol:BuildManager",
        "label": "txBuilder",
        "offset": 0,
        "slot": "2",
        "type": "t_address"
      }
    ],
    "types": {
      "t_address": {
        "encoding": "inplace",
        "label": "address",
        "numberOfBytes": "20"
      },
      "t_uint256": {
        "encoding": "inplace",
        "label": "uint256",
        "numberOfBytes": "32"
      }
    }
  }
}