{
  "address": "0x03E34a4d1F2B88579521086876E781479A544610",
  "abi": [
    {
      "inputs": [
        {
          "internalType": "address",
          "name": "_swapRouter",
          "type": "address"
        },
        {
          "internalType": "address",
          "name": "_roleManager",
          "type": "address"
        },
        {
          "internalType": "address",
          "name": "_weth9",
          "type": "address"
        }
      ],
      "stateMutability": "nonpayable",
      "type": "constructor"
    },
    {
      "anonymous": false,
      "inputs": [
        {
          "indexed": true,
          "internalType": "address",
          "name": "previousOwner",
          "type": "address"
        },
        {
          "indexed": true,
          "internalType": "address",
          "name": "newOwner",
          "type": "address"
        }
      ],
      "name": "OwnershipTransferred",
      "type": "event"
    },
    {
      "inputs": [
        {
          "internalType": "bytes",
          "name": "swapData",
          "type": "bytes"
        }
      ],
      "name": "calculateMsgValue",
      "outputs": [
        {
          "internalType": "uint256",
          "name": "value",
          "type": "uint256"
        }
      ],
      "stateMutability": "pure",
      "type": "function"
    },
    {
      "inputs": [
        {
          "internalType": "bytes[]",
          "name": "swapDataArray",
          "type": "bytes[]"
        },
        {
          "internalType": "uint256",
          "name": "msgValue",
          "type": "uint256"
        }
      ],
      "name": "checkMsgValue",
      "outputs": [],
      "stateMutability": "pure",
      "type": "function"
    },
    {
      "inputs": [
        {
          "internalType": "bytes",
          "name": "paramData",
          "type": "bytes"
        }
      ],
      "name": "decodeFromExchange",
      "outputs": [
        {
          "components": [
            {
              "internalType": "bytes",
              "name": "path",
              "type": "bytes"
            },
            {
              "internalType": "address",
              "name": "tokenIn",
              "type": "address"
            },
            {
              "internalType": "address",
              "name": "tokenOut",
              "type": "address"
            },
            {
              "internalType": "uint256",
              "name": "amountIn",
              "type": "uint256"
            },
            {
              "internalType": "uint256",
              "name": "amountOutMinimum",
              "type": "uint256"
            },
            {
              "internalType": "bool",
              "name": "isETH",
              "type": "bool"
            },
            {
              "internalType": "bool",
              "name": "swap",
              "type": "bool"
            }
          ],
          "internalType": "struct IExchanger.ExchangeData",
          "name": "data",
          "type": "tuple"
        }
      ],
      "stateMutability": "pure",
      "type": "function"
    },
    {
      "inputs": [
        {
          "components": [
            {
              "internalType": "bytes",
              "name": "path",
              "type": "bytes"
            },
            {
              "internalType": "address",
              "name": "tokenIn",
              "type": "address"
            },
            {
              "internalType": "address",
              "name": "tokenOut",
              "type": "address"
            },
            {
              "internalType": "uint256",
              "name": "amountIn",
              "type": "uint256"
            },
            {
              "internalType": "uint256",
              "name": "amountOutMinimum",
              "type": "uint256"
            },
            {
              "internalType": "bool",
              "name": "isETH",
              "type": "bool"
            },
            {
              "internalType": "bool",
              "name": "swap",
              "type": "bool"
            }
          ],
          "internalType": "struct IExchanger.ExchangeData",
          "name": "data",
          "type": "tuple"
        }
      ],
      "name": "encodeFromExchange",
      "outputs": [
        {
          "internalType": "bytes",
          "name": "paramData",
          "type": "bytes"
        }
      ],
      "stateMutability": "pure",
      "type": "function"
    },
    {
      "inputs": [],
      "name": "owner",
      "outputs": [
        {
          "internalType": "address",
          "name": "",
          "type": "address"
        }
      ],
      "stateMutability": "view",
      "type": "function"
    },
    {
      "inputs": [],
      "name": "renounceOwnership",
      "outputs": [],
      "stateMutability": "nonpayable",
      "type": "function"
    },
    {
      "inputs": [],
      "name": "roleManager",
      "outputs": [
        {
          "internalType": "contract RoleManager",
          "name": "",
          "type": "address"
        }
      ],
      "stateMutability": "view",
      "type": "function"
    },
    {
      "inputs": [
        {
          "internalType": "bytes",
          "name": "data",
          "type": "bytes"
        },
        {
          "internalType": "address",
          "name": "from",
          "type": "address"
        },
        {
          "internalType": "address",
          "name": "to",
          "type": "address"
        }
      ],
      "name": "swap",
      "outputs": [],
      "stateMutability": "payable",
      "type": "function"
    },
    {
      "inputs": [],
      "name": "swapRouter",
      "outputs": [
        {
          "internalType": "contract ISwapRouter",
          "name": "",
          "type": "address"
        }
      ],
      "stateMutability": "view",
      "type": "function"
    },
    {
      "inputs": [
        {
          "internalType": "address",
          "name": "newOwner",
          "type": "address"
        }
      ],
      "name": "transferOwnership",
      "outputs": [],
      "stateMutability": "nonpayable",
      "type": "function"
    },
    {
      "inputs": [],
      "name": "weth9",
      "outputs": [
        {
          "internalType": "contract IWETH9",
          "name": "",
          "type": "address"
        }
      ],
      "stateMutability": "view",
      "type": "function"
    }
  ],
  "transactionHash": "0xc7aa64a6c5eeebec971004b88d18f04d69ecbdbbf003f84c5fc73310dee47684",
  "args": [
    "0xE592427A0AEce92De3Edee1F18E0157C05861564",
    "0x9151147924496E052A939025ecec27134F065498",
    "0x82aF49447D8a07e3bd95BD0d56f35241523fBab1"
  ],
  "numDeployments": 1,
  "solcInputHash": "69940414021e249ee89094cf8aaab651",
  "bytecode": "0x6080346100dc57601f61117438819003918201601f19168301916001600160401b038311848410176100e1578084926060946040528339810103126100dc57610047816100f7565b61005f6040610058602085016100f7565b93016100f7565b600080546001600160a01b03198082163390811784556040519691956001600160a01b0395948694859391908416907f8be0079c531659141344cd1fd0a4f28419497f9722a3daafe3b4186f6b6457e09080a3168560015416176001551683600254161760025516906003541617600355611068908161010c8239f35b600080fd5b634e487b7160e01b600052604160045260246000fd5b51906001600160a01b03821682036100dc5756fe608080604052600436101561001357600080fd5b600090813560e01c908162435da514610cb75750806350879c1c14610c8e578063715018a614610c3457806378a820a7146104f25780638a4c2a0e146103735780638da5cb5b1461034c578063bcc4bffd146102e0578063be3e58b6146101e3578063c31c9c07146101ba578063cafba07e1461016d5763f2fde38b1461009957600080fd5b3461016a57602036600319011261016a576004356001600160a01b0381811691829003610165576100c8610e62565b811561011157600054826bffffffffffffffffffffffff60a01b821617600055167f8be0079c531659141344cd1fd0a4f28419497f9722a3daafe3b4186f6b6457e0600080a380f35b60405162461bcd60e51b815260206004820152602660248201527f4f776e61626c653a206e6577206f776e657220697320746865207a65726f206160448201526564647265737360d01b6064820152608490fd5b600080fd5b80fd5b503461016a57602036600319011261016a576004359067ffffffffffffffff821161016a576101b66101aa6101a53660048601610d4c565b610f0b565b60405191829182610dfc565b0390f35b503461016a578060031936011261016a576001546040516001600160a01b039091168152602090f35b503461016a576003196020368201126102dc576004359067ffffffffffffffff908183116102d85760e09083360301126102d4576040519261022484610cdc565b826004013591821161016a576101b66102b26102c08661029e60c48861024f368a8301600401610d4c565b845261025d60248201610d93565b602085015261026e60448201610d93565b6040850152606481013560608501526084810135608085015261029360a48201610da7565b60a085015201610da7565b60c082015260405192839160208301610dfc565b03601f198101835282610d0e565b604051918291602083526020830190610dd7565b8280fd5b8380fd5b5080fd5b503461016a57602036600319011261016a5760043567ffffffffffffffff81116102dc57906103186101a56020933690600401610d4c565b60a081015115158061033f575b610333575b50604051908152f35b6060915001513861032a565b5060c08101511515610325565b503461016a578060031936011261016a57546040516001600160a01b039091168152602090f35b503461016a57604036600319011261016a5760043567ffffffffffffffff9182821161016a573660238301121561016a578160040135918383116104de5760059280841b94604051926020926103cb84890186610d0e565b84528284019060248098820101923684116104da57888201925b8484106104b05750505050508291835b815181101561046a5761040e8382881b84010151610f0b565b60a081015115158061045d575b610445575b506000198114610432576001016103f5565b634e487b7160e01b855260116004528685fd5b60609094919401518101809111610432579238610420565b5060c0810151151561041b565b84838886813503610479578280f35b9060116064926040519262461bcd60e51b8452600484015282015270696e76616c6964206d73672e76616c756560781b6044820152fd5b83358281116104d65786916104cb83928d3691880101610d4c565b8152019301926103e5565b8880fd5b8680fd5b634e487b7160e01b82526041600452602482fd5b50606036600319011261016a5760043567ffffffffffffffff81116102dc5761051f903690600401610d4c565b6024356001600160a01b03811690036102dc576044356001600160a01b03811690036102dc57600254604051631e14adf960e31b81526001600160a01b0390911690602081600481855afa8015610c29578490610bf6575b60209150604460405180948193632474521560e21b835260048301523360248301525afa9081156106fb578391610bbc575b5015610b77576105b890610f0b565b60c081015190919015610ae45760a082015181901561094e575060608201515b60a0830151151580610930575b15610729576003546001600160a01b0316803b156102d4578290600460405180948193630d0e30db60e41b83525af1801561071e57610706575b5080915b6040818101516080830151915163a9059cbb60e01b8152604480356001600160a01b039081166004840152602483019490945290946020938693849291165af180156106fb576106c1575b60a0915001511515806106b8575b610684575b80f35b80808080478181156106af575b6044356001600160a01b031690f161068157604051903d90823e3d90fd5b506108fc610691565b5047151561067c565b6020823d6020116106f3575b816106da60209383610d0e565b810103126102d4576106ed60a092610eba565b5061066e565b3d91506106cd565b6040513d85823e3d90fd5b67ffffffffffffffff81116104de576040523861061f565b6040513d84823e3d90fd5b918051606082015193608083015190604051928360a081011067ffffffffffffffff60a08601111761091c578392916107bc9160a060209601604052845284840193308552604081019442865260608201998a526080820194855260018060a01b0360015416946040519a8b978896879563c04b8d5960e01b87528b60048801525160a0602488015260c4870190610dd7565b93516001600160a01b031660448601525160648501525160848401525160a483015203925af192831561071e5782936108e8575b50608081015183106108b45760018060a01b0360408201511692608082015181039081116108a05760405163a9059cbb60e01b8152602480356001600160a01b03166004830152810191909152919283929060209082908186816044810103925af180156106fb57610863575b50610623565b6020813d602011610898575b8161087c60209383610d0e565b810103126108945761088d90610eba565b503861085d565b5050fd5b3d915061086f565b634e487b7160e01b83526011600452602483fd5b60405162461bcd60e51b815260206004820152600c60248201526b0696e76616c696420737761760a41b6044820152606490fd5b9092506020813d602011610914575b8161090460209383610d0e565b810103126102dc575191386107f0565b3d91506108f7565b634e487b7160e01b86526041600452602486fd5b50602083015160408401516001600160a01b039081169116146105e5565b60208381015160608501516040516323b872dd60e01b9381019384526001600160a01b036024803582169083015230604483015260648201929092528593849392909216919083906109a381608481016102b2565b51925af16109af610ec7565b81610aad575b5015610a8257602083810151600154606086015160405163095ea7b360e01b9481019485526001600160a01b03928316602482015260448101919091528593849390921691908390610a0a81606481016102b2565b51925af1610a16610ec7565b81610a4b575b506105d85760405162461bcd60e51b8152602060048201526002602482015261534160f01b6044820152606490fd5b8051801592508215610a60575b505038610a1c565b81925090602091810103126102d4576020610a7b9101610eba565b3880610a58565b60405162461bcd60e51b815260206004820152600360248201526229aa2360e91b6044820152606490fd5b8051801592508215610ac2575b5050386109b5565b81925090602091810103126102d4576020610add9101610eba565b3880610aba565b6020828101516060909301516040516323b872dd60e01b81526001600160a01b0360248035821660048401526044803583169184019190915282019290925292938391168185816064810103925af1801561071e57610b41575080f35b6020813d602011610b6f575b81610b5a60209383610d0e565b810103126102dc57610b6b90610eba565b5080f35b3d9150610b4d565b60405162461bcd60e51b815260206004820152601f60248201527f6d73672e73656e646572206e6f742068617665205452414445525f524f4c45006044820152606490fd5b90506020813d602011610bee575b81610bd760209383610d0e565b810103126102d457610be890610eba565b386105a9565b3d9150610bca565b506020813d602011610c21575b81610c1060209383610d0e565b810103126102d85760209051610577565b3d9150610c03565b6040513d86823e3d90fd5b503461016a578060031936011261016a57610c4d610e62565b80546001600160a01b03198116825581906001600160a01b03167f8be0079c531659141344cd1fd0a4f28419497f9722a3daafe3b4186f6b6457e08280a380f35b503461016a578060031936011261016a576003546040516001600160a01b039091168152602090f35b9050346102dc57816003193601126102dc576002546001600160a01b03168152602090f35b60e0810190811067ffffffffffffffff821117610cf857604052565b634e487b7160e01b600052604160045260246000fd5b90601f8019910116810190811067ffffffffffffffff821117610cf857604052565b67ffffffffffffffff8111610cf857601f01601f191660200190565b81601f8201121561016557803590610d6382610d30565b92610d716040519485610d0e565b8284526020838301011161016557816000926020809301838601378301015290565b35906001600160a01b038216820361016557565b3590811515820361016557565b60005b838110610dc75750506000910152565b8181015183820152602001610db7565b90602091610df081518092818552858086019101610db4565b601f01601f1916010190565b6020815260e060c0610e1a8451836020860152610100850190610dd7565b9360018060a01b03806020830151166040860152604082015116606085015260608101516080850152608081015160a085015260a08101511515828501520151151591015290565b6000546001600160a01b03163303610e7657565b606460405162461bcd60e51b815260206004820152602060248201527f4f776e61626c653a2063616c6c6572206973206e6f7420746865206f776e65726044820152fd5b5190811515820361016557565b3d15610ef2573d90610ed882610d30565b91610ee66040519384610d0e565b82523d6000602084013e565b606090565b51906001600160a01b038216820361016557565b6040805190610f1982610cdc565b606082526000918260c0602092828482015282858201528260608201528260808201528260a08201520152835184019281840190828686031261016a578286015167ffffffffffffffff968782116102d4579060e091018096031261016a57835195610f8487610cdc565b838601519081116102dc57850182603f820112156102dc578381015191610faa83610d30565b93610fb787519586610d0e565b83855286848401011161016a575091610fde8492869460e09761102a999785019101610db4565b8652610feb828401610ef7565b90860152610ffb60608301610ef7565b908501526080810151606085015260a0810151608085015261101f60c08201610eba565b60a085015201610eba565b60c08201529056fea26469706673582212204f2af895af012ede9e84118653adbb952e701a572a90e373e555e28af04ab0f964736f6c63430008130033",
  "devdoc": {
    "author": "0nika0",
    "details": "A smart contract for executing token swaps and managing roles for traders.  This contract allows users with the TRADER_ROLE to perform token swaps and enforces checks on the validity of swaps.",
    "kind": "dev",
    "methods": {
      "calculateMsgValue(bytes)": {
        "details": "Calculates the expected `msg.value` for a given swap operation encoded in swapData.  This function calculates the expected `msg.value` based on the information provided in the swapData. It checks if the swap operation involves ETH and is indeed a swap (not just a transfer). If these conditions are met, it returns the calculated `msg.value`. ",
        "params": {
          "swapData": "The encoded swap data that describes the swap operation. "
        },
        "returns": {
          "value": "The calculated `msg.value` for the swap operation. If it's not a swap involving ETH, the value is 0."
        }
      },
      "checkMsgValue(bytes[],uint256)": {
        "details": "Verifies if the provided `msg.value` matches the calculated value based on a series of swap operations.  This function checks if the provided `msg.value` matches the calculated value obtained by summing the input amounts of ETH for each swap operation. It is used to ensure the correctness of `msg.value` when performing multiple swaps, preventing errors or discrepancies. ",
        "params": {
          "msgValue": "The expected `msg.value` to be validated against the calculated value.  Requirements: - The `msg.value` must match the calculated value based on the provided `swapDataArray`.",
          "swapDataArray": "An array of encoded swap data, each containing information about swap or transfer operations."
        }
      },
      "decodeFromExchange(bytes)": {
        "details": "Decodes the ExchangeData struct from a bytes array.  This function decodes the ExchangeData struct from a given bytes array (`paramData`) using ABI decoding. The decoded struct, `data`, is returned for further use and processing. ",
        "params": {
          "paramData": "The bytes array containing the encoded ExchangeData struct. "
        },
        "returns": {
          "data": "The decoded ExchangeData struct."
        }
      },
      "encodeFromExchange((bytes,address,address,uint256,uint256,bool,bool))": {
        "details": "Encodes the ExchangeData struct into a bytes array.  This function takes the ExchangeData struct as input and encodes it into a bytes array using ABI encoding. The resulting bytes array, `paramData`, can be used to store or transmit the struct's data. ",
        "params": {
          "data": "The ExchangeData struct to be encoded. "
        },
        "returns": {
          "paramData": "The encoded data in the form of a bytes array."
        }
      },
      "owner()": {
        "details": "Returns the address of the current owner."
      },
      "renounceOwnership()": {
        "details": "Leaves the contract without owner. It will not be possible to call `onlyOwner` functions. Can only be called by the current owner. NOTE: Renouncing ownership will leave the contract without an owner, thereby disabling any functionality that is only available to the owner."
      },
      "swap(bytes,address,address)": {
        "details": "Allows a trader to perform a swap operation or a direct token transfer between addresses.  This function can be used by traders to perform token swaps through a decentralized exchange or directly transfer tokens between addresses. If the 'swap' flag in the provided data is set to true, a token swap is executed with specific details such as input and output tokens, minimum expected output, and other swap-related parameters. If the 'swap' flag is set to false, a direct token transfer is performed between 'from' and 'to'. ",
        "params": {
          "data": "The encoded swap or transfer data that includes information about the operation.",
          "from": "The address from which tokens are transferred or swapped.",
          "to": "The address that receives the tokens in the transfer or swap operation.  Requirements: - The caller must have the 'TRADER_ROLE'."
        }
      },
      "transferOwnership(address)": {
        "details": "Transfers ownership of the contract to a new account (`newOwner`). Can only be called by the current owner."
      }
    },
    "title": "Exchanger",
    "version": 1
  },
  "userdoc": {
    "kind": "user",
    "methods": {},
    "version": 1
  },
  "storageLayout": {
    "storage": [
      {
        "astId": 396,
        "contract": "contracts/exchanger/Exchanger.sol:Exchanger",
        "label": "_owner",
        "offset": 0,
        "slot": "0",
        "type": "t_address"
      },
      {
        "astId": 3279,
        "contract": "contracts/exchanger/Exchanger.sol:Exchanger",
        "label": "swapRouter",
        "offset": 0,
        "slot": "1",
        "type": "t_contract(ISwapRouter)2563"
      },
      {
        "astId": 3282,
        "contract": "contracts/exchanger/Exchanger.sol:Exchanger",
        "label": "roleManager",
        "offset": 0,
        "slot": "2",
        "type": "t_contract(RoleManager)3003"
      },
      {
        "astId": 3285,
        "contract": "contracts/exchanger/Exchanger.sol:Exchanger",
        "label": "weth9",
        "offset": 0,
        "slot": "3",
        "type": "t_contract(IWETH9)3691"
      }
    ],
    "types": {
      "t_address": {
        "encoding": "inplace",
        "label": "address",
        "numberOfBytes": "20"
      },
      "t_contract(ISwapRouter)2563": {
        "encoding": "inplace",
        "label": "contract ISwapRouter",
        "numberOfBytes": "20"
      },
      "t_contract(IWETH9)3691": {
        "encoding": "inplace",
        "label": "contract IWETH9",
        "numberOfBytes": "20"
      },
      "t_contract(RoleManager)3003": {
        "encoding": "inplace",
        "label": "contract RoleManager",
        "numberOfBytes": "20"
      }
    }
  }
}