{
  "address": "0xb94fe302bF6B707027706996887299120449B6ec",
  "abi": [
    {
      "inputs": [
        {
          "internalType": "address",
          "name": "_proxySeller",
          "type": "address"
        },
        {
          "internalType": "address",
          "name": "_hegicErc721",
          "type": "address"
        },
        {
          "internalType": "address",
          "name": "_usdc",
          "type": "address"
        },
        {
          "internalType": "address",
          "name": "_referrer",
          "type": "address"
        }
      ],
      "stateMutability": "nonpayable",
      "type": "constructor"
    },
    {
      "anonymous": false,
      "inputs": [
        {
          "indexed": true,
          "internalType": "uint256",
          "name": "buildID",
          "type": "uint256"
        },
        {
          "indexed": false,
          "internalType": "uint256",
          "name": "tokenID",
          "type": "uint256"
        },
        {
          "indexed": false,
          "internalType": "address",
          "name": "strategy",
          "type": "address"
        },
        {
          "indexed": false,
          "internalType": "address",
          "name": "holder",
          "type": "address"
        },
        {
          "indexed": false,
          "internalType": "uint256",
          "name": "amount",
          "type": "uint256"
        },
        {
          "indexed": false,
          "internalType": "uint256",
          "name": "period",
          "type": "uint256"
        },
        {
          "indexed": false,
          "internalType": "uint256",
          "name": "premium",
          "type": "uint256"
        }
      ],
      "name": "OpenPositionByHegic",
      "type": "event"
    },
    {
      "anonymous": false,
      "inputs": [
        {
          "indexed": true,
          "internalType": "address",
          "name": "previousOwner",
          "type": "address"
        },
        {
          "indexed": true,
          "internalType": "address",
          "name": "newOwner",
          "type": "address"
        }
      ],
      "name": "OwnershipTransferred",
      "type": "event"
    },
    {
      "inputs": [],
      "name": "allApprove",
      "outputs": [],
      "stateMutability": "nonpayable",
      "type": "function"
    },
    {
      "inputs": [
        {
          "internalType": "bytes",
          "name": "parameters",
          "type": "bytes"
        }
      ],
      "name": "calculateAmount",
      "outputs": [
        {
          "internalType": "address",
          "name": "token",
          "type": "address"
        },
        {
          "internalType": "uint256",
          "name": "amount",
          "type": "uint256"
        }
      ],
      "stateMutability": "view",
      "type": "function"
    },
    {
      "inputs": [
        {
          "internalType": "bytes",
          "name": "paramData",
          "type": "bytes"
        }
      ],
      "name": "decodeFromHegic",
      "outputs": [
        {
          "internalType": "contract IHegicStrategy",
          "name": "strategy",
          "type": "address"
        },
        {
          "internalType": "uint256",
          "name": "amount",
          "type": "uint256"
        },
        {
          "internalType": "uint256",
          "name": "period",
          "type": "uint256"
        },
        {
          "internalType": "uint256",
          "name": "maxTotalCost",
          "type": "uint256"
        },
        {
          "internalType": "bytes[]",
          "name": "additional",
          "type": "bytes[]"
        }
      ],
      "stateMutability": "pure",
      "type": "function"
    },
    {
      "inputs": [
        {
          "internalType": "contract IHegicStrategy",
          "name": "strategy",
          "type": "address"
        },
        {
          "internalType": "uint256",
          "name": "amount",
          "type": "uint256"
        },
        {
          "internalType": "uint256",
          "name": "period",
          "type": "uint256"
        },
        {
          "internalType": "uint256",
          "name": "maxTotalCost",
          "type": "uint256"
        },
        {
          "internalType": "bytes[]",
          "name": "additional",
          "type": "bytes[]"
        }
      ],
      "name": "encodeFromHegic",
      "outputs": [
        {
          "internalType": "bytes",
          "name": "paramData",
          "type": "bytes"
        }
      ],
      "stateMutability": "pure",
      "type": "function"
    },
    {
      "inputs": [],
      "name": "hegicErc721",
      "outputs": [
        {
          "internalType": "address",
          "name": "",
          "type": "address"
        }
      ],
      "stateMutability": "view",
      "type": "function"
    },
    {
      "inputs": [
        {
          "internalType": "address",
          "name": "",
          "type": "address"
        },
        {
          "internalType": "address",
          "name": "",
          "type": "address"
        },
        {
          "internalType": "uint256",
          "name": "",
          "type": "uint256"
        },
        {
          "internalType": "bytes",
          "name": "",
          "type": "bytes"
        }
      ],
      "name": "onERC721Received",
      "outputs": [
        {
          "internalType": "bytes4",
          "name": "",
          "type": "bytes4"
        }
      ],
      "stateMutability": "nonpayable",
      "type": "function"
    },
    {
      "inputs": [],
      "name": "owner",
      "outputs": [
        {
          "internalType": "address",
          "name": "",
          "type": "address"
        }
      ],
      "stateMutability": "view",
      "type": "function"
    },
    {
      "inputs": [
        {
          "internalType": "bytes",
          "name": "parametersArray",
          "type": "bytes"
        },
        {
          "internalType": "uint256",
          "name": "buildID",
          "type": "uint256"
        },
        {
          "internalType": "address",
          "name": "user",
          "type": "address"
        }
      ],
      "name": "processTx",
      "outputs": [],
      "stateMutability": "nonpayable",
      "type": "function"
    },
    {
      "inputs": [],
      "name": "proxySeller",
      "outputs": [
        {
          "internalType": "address",
          "name": "",
          "type": "address"
        }
      ],
      "stateMutability": "view",
      "type": "function"
    },
    {
      "inputs": [],
      "name": "referrer",
      "outputs": [
        {
          "internalType": "address",
          "name": "",
          "type": "address"
        }
      ],
      "stateMutability": "view",
      "type": "function"
    },
    {
      "inputs": [],
      "name": "renounceOwnership",
      "outputs": [],
      "stateMutability": "nonpayable",
      "type": "function"
    },
    {
      "inputs": [
        {
          "internalType": "address",
          "name": "newReferrer",
          "type": "address"
        }
      ],
      "name": "setReferrer",
      "outputs": [],
      "stateMutability": "nonpayable",
      "type": "function"
    },
    {
      "inputs": [
        {
          "internalType": "address",
          "name": "newOwner",
          "type": "address"
        }
      ],
      "name": "transferOwnership",
      "outputs": [],
      "stateMutability": "nonpayable",
      "type": "function"
    },
    {
      "inputs": [],
      "name": "usdc",
      "outputs": [
        {
          "internalType": "address",
          "name": "",
          "type": "address"
        }
      ],
      "stateMutability": "view",
      "type": "function"
    }
  ],
  "transactionHash": "0xc04c8550b90c9a5ca0ca7abab1bf04d32202f0ef6ec0df979e2291a1b54afb5f",
  "args": [
    "0x7740FC99bcaE3763a5641e450357a94936eaF380",
    "0x5Fe380D68fEe022d8acd42dc4D36FbfB249a76d5",
    "0xFF970A61A04b1cA14834A43f5dE4533eBDDB5CC8",
    "0x683ad8b899cd14d8e077c9a623e8b3fed65a8c09"
  ],
  "numDeployments": 1,
  "solcInputHash": "82e65d397ad98f35442f9bc6e2462d36",
  "bytecode": "0x6080346100ef57601f610d3838819003918201601f19168301916001600160401b038311848410176100f4578084926080946040528339810103126100ef576100478161010a565b906100546020820161010a565b61006c60606100656040850161010a565b930161010a565b6000549360018060a01b03199333858716176000556040519560018060a01b03948580948193823391167f8be0079c531659141344cd1fd0a4f28419497f9722a3daafe3b4186f6b6457e0600080a316876001541617600155168560025416176002551683600354161760035516906004541617600455610c19908161011f8239f35b600080fd5b634e487b7160e01b600052604160045260246000fd5b51906001600160a01b03821682036100ef5756fe608060408181526004918236101561001657600080fd5b600092833560e01c91826305395c201461077d57508163150b7a02146107065781633819137a146105035781633e413bee146104da57816368447c93146104b2578163715018a6146104585781637531a64e1461040657816379cce624146103155781638da5cb5b146102ed578163a18a7bfc146102ac578163ad4bb90814610211578163f2b60d2a146101bb578163f2fde38b146100ea575063f68cae1e146100bf57600080fd5b346100e657816003193601126100e65760015490516001600160a01b039091168152602090f35b5080fd5b9050346101b75760203660031901126101b7576101056107a2565b9061010e61095b565b6001600160a01b03918216928315610165575050600054826bffffffffffffffffffffffff60a01b821617600055167f8be0079c531659141344cd1fd0a4f28419497f9722a3daafe3b4186f6b6457e0600080a380f35b906020608492519162461bcd60e51b8352820152602660248201527f4f776e61626c653a206e6577206f776e657220697320746865207a65726f206160448201526564647265737360d01b6064820152fd5b8280fd5b82843461020e57602036600319011261020e5782359067ffffffffffffffff821161020e57506101f461020a936101f992369101610825565b610ad7565b929593949190915195869586610928565b0390f35b80fd5b919050346101b757826003193601126101b757600354600154825163095ea7b360e01b81526001600160a01b03918216948101949094526000196024850152602091849160449183918891165af19081156102a3575061026f575080f35b6020813d821161029b575b81610287602093836107e7565b810103126100e657518015150361020e5780f35b3d915061027a565b513d84823e3d90fd5b8390346100e65760203660031901126100e6576102c76107a2565b6102cf61095b565b81546001600160a01b0319166001600160a01b039190911617905580f35b5050346100e657816003193601126100e657905490516001600160a01b039091168152602090f35b919050346101b75760a03660031901126101b7578135926001600160a01b038416840361020e576084359267ffffffffffffffff908185116101b757366023860112156101b757840135916103698361086c565b91610376855193846107e7565b838352602095868401916024809660051b8301019336851161020e57868301935b8585106103e0578a8a61020a8b6103d18c6103c38d8451978893606435916044359135908a8701610928565b03601f1981018652856107e7565b519282849384528301906108a7565b84358381116101b7578a916103fb83928b3691890101610825565b815201940193610397565b9050823461020e57602036600319011261020e5781359067ffffffffffffffff821161020e57506104429161043d91369101610825565b6109c7565b82516001600160a01b0390921682526020820152f35b833461020e578060031936011261020e5761047161095b565b600080546001600160a01b0319811682556001600160a01b03167f8be0079c531659141344cd1fd0a4f28419497f9722a3daafe3b4186f6b6457e08280a380f35b9050346101b757826003193601126101b7575490516001600160a01b03909116815260209150f35b5050346100e657816003193601126100e65760035490516001600160a01b039091168152602090f35b919050346101b75760603660031901126101b757813567ffffffffffffffff8111610702576105359036908401610825565b6001600160a01b0391604435838116908190036106fe57610566918561055a85610ad7565b999297919890506109c7565b9890506020826002541686519b8c8092631d5e528f60e21b82525afa998a156106bd578b9a6106c7575b508a8260015416938386541694803b156101b75784838b9389986105e48f988d51998a988997889663128694af60e11b8852169e8f908701526024860152604485015260a0606485015260a48401906108cc565b90608483015203925af180156106bd576106a8575b509089916002541690813b156101b757896064849283885195869485936323b872dd60e01b855230908501528b602485015260448401525af1801561069e57610686575b5050815196875260208701528501526060840152608083015260a08201527fb58b8caf38f3a5fb1aa22a6ae38defcd6835d2efaf65952daa55d65c56ac416160c060243592a280f35b61068f906107bd565b61069a57873861063d565b8780fd5b84513d84823e3d90fd5b6106b5909a91929a6107bd565b9890386105f9565b85513d8d823e3d90fd5b9099506020813d82116106f6575b816106e2602093836107e7565b810103126106f257519838610590565b8a80fd5b3d91506106d5565b8580fd5b8380fd5b9050346101b75760803660031901126101b7576107216107a2565b506024356001600160a01b038116036101b7576064359067ffffffffffffffff9081831161077957366023840112156107795782013590811161070257369101602401116100e65751630a85bd0160e11b8152602090f35b8480fd5b8490346100e657816003193601126100e6576002546001600160a01b03168152602090f35b600435906001600160a01b03821682036107b857565b600080fd5b67ffffffffffffffff81116107d157604052565b634e487b7160e01b600052604160045260246000fd5b90601f8019910116810190811067ffffffffffffffff8211176107d157604052565b67ffffffffffffffff81116107d157601f01601f191660200190565b81601f820112156107b85780359061083c82610809565b9261084a60405194856107e7565b828452602083830101116107b857816000926020809301838601378301015290565b67ffffffffffffffff81116107d15760051b60200190565b60005b8381106108975750506000910152565b8181015183820152602001610887565b906020916108c081518092818552858086019101610884565b601f01601f1916010190565b908082519081815260208091019281808460051b8301019501936000915b8483106108fa5750505050505090565b9091929394958480610918600193601f198682030187528a516108a7565b98019301930191949392906108ea565b919260a093610958969592600180871b0316845260208401526040830152606082015281608082015201906108cc565b90565b6000546001600160a01b0316330361096f57565b606460405162461bcd60e51b815260206004820152602060248201527f4f776e61626c653a2063616c6c6572206973206e6f7420746865206f776e65726044820152fd5b51906001600160801b03821682036107b857565b90610a1860018060a01b036109e0816003541694610ad7565b9160409694919695869485519687958694859363d666b43360e01b8552600485015260248401526060604484015260648301906108cc565b0392165afa8015610acc57600090610a84575b6001600160801b03915016918211610a41575090565b5162461bcd60e51b815260206004820152601c60248201527f6d6178696d756d20746f74616c2076616c7565206578636565646564000000006044820152606490fd5b8282813d8311610ac5575b610a9981836107e7565b8101031261020e5750610ac0602082610ab96001600160801b03946109b3565b50016109b3565b610a2b565b503d610a8f565b82513d6000823e3d90fd5b8051810160209060a0838383019203126107b85782820151926001600160a01b03841684036107b8576040908181015193606092838301519460808401519460a085015167ffffffffffffffff958682116107b857019282603f850112156107b8578484015191610b478361086c565b96610b54835198896107e7565b838852828789019460051b870101958587116107b857838101945b878610610b86575050505050505050509091929394565b85518381116107b85782019087605f830112156107b8578582015190610bab82610809565b610bb7885191826107e7565b828152898784860101116107b857610bd88c94938594898685019101610884565b815201950194610b6f56fea2646970667358221220b78beed604b985fc364f549550bfa820f9b83bf2839f3adb4f71fa71ee9bca1a64736f6c63430008130033",
  "devdoc": {
    "author": "0nika0",
    "events": {
      "OpenPositionByHegic(uint256,uint256,address,address,uint256,uint256,uint256)": {
        "details": "This event is triggered when a user successfully opens a Hegic option position using this contract.",
        "params": {
          "amount": "The amount of the option that was purchased.",
          "buildID": "The unique identifier for the option position build.",
          "holder": "The address of the user who opened the option position.",
          "period": "The duration of the option period in seconds.",
          "premium": "The premium paid for the option.",
          "strategy": "The address of the Hegic option strategy contract used for the position.",
          "tokenID": "The identifier of the newly created Hegic option token."
        }
      }
    },
    "kind": "dev",
    "methods": {
      "allApprove()": {
        "details": "See {ITxBuilderOpenHegic-allApprove}."
      },
      "calculateAmount(bytes)": {
        "details": "This public view function calculates the amount of a token based on a set of input parameters.  It decodes the parameters, retrieves the necessary information from a Hegic strategy,  calculates the premium amount from positive PNL (Profit and Loss),  and ensures it does not exceed the maximum total cost.",
        "params": {
          "parameters": "The encoded parameters for the calculation."
        },
        "returns": {
          "amount": "The calculated amount of the token.",
          "token": "The address of the token to be calculated."
        }
      },
      "decodeFromHegic(bytes)": {
        "details": "See {ITxBuilderOpenHegic-decodeFromHegic}."
      },
      "encodeFromHegic(address,uint256,uint256,uint256,bytes[])": {
        "details": "See {ITxBuilderOpenHegic-encodeFromHegic}."
      },
      "owner()": {
        "details": "Returns the address of the current owner."
      },
      "processTx(bytes,uint256,address)": {
        "details": "See {IBaseTxBuilderOpen-processTx}."
      },
      "renounceOwnership()": {
        "details": "Leaves the contract without owner. It will not be possible to call `onlyOwner` functions. Can only be called by the current owner. NOTE: Renouncing ownership will leave the contract without an owner, thereby disabling any functionality that is only available to the owner."
      },
      "setReferrer(address)": {
        "details": "See {ITxBuilderOpenHegic-setReferrer}."
      },
      "transferOwnership(address)": {
        "details": "Transfers ownership of the contract to a new account (`newOwner`). Can only be called by the current owner."
      }
    },
    "title": "Transaction Builder for Opening Hegic Option Positions",
    "version": 1
  },
  "userdoc": {
    "events": {
      "OpenPositionByHegic(uint256,uint256,address,address,uint256,uint256,uint256)": {
        "notice": "Emitted when a Hegic option position is opened."
      }
    },
    "kind": "user",
    "methods": {
      "calculateAmount(bytes)": {
        "notice": "Calculate the amount of a token based on provided parameters."
      }
    },
    "notice": "This contract facilitates the opening of Hegic option positions using predefined parameters.",
    "version": 1
  },
  "storageLayout": {
    "storage": [
      {
        "astId": 396,
        "contract": "contracts/hegic/TxBuilderOpenHegic.sol:TxBuilderOpenHegic",
        "label": "_owner",
        "offset": 0,
        "slot": "0",
        "type": "t_address"
      },
      {
        "astId": 5938,
        "contract": "contracts/hegic/TxBuilderOpenHegic.sol:TxBuilderOpenHegic",
        "label": "proxySeller",
        "offset": 0,
        "slot": "1",
        "type": "t_address"
      },
      {
        "astId": 5940,
        "contract": "contracts/hegic/TxBuilderOpenHegic.sol:TxBuilderOpenHegic",
        "label": "hegicErc721",
        "offset": 0,
        "slot": "2",
        "type": "t_address"
      },
      {
        "astId": 5942,
        "contract": "contracts/hegic/TxBuilderOpenHegic.sol:TxBuilderOpenHegic",
        "label": "usdc",
        "offset": 0,
        "slot": "3",
        "type": "t_address"
      },
      {
        "astId": 5944,
        "contract": "contracts/hegic/TxBuilderOpenHegic.sol:TxBuilderOpenHegic",
        "label": "referrer",
        "offset": 0,
        "slot": "4",
        "type": "t_address"
      }
    ],
    "types": {
      "t_address": {
        "encoding": "inplace",
        "label": "address",
        "numberOfBytes": "20"
      }
    }
  }
}