{
  "address": "0x74c9F3Fd89406DBf66cd856d7e5Baa790437d61b",
  "abi": [
    {
      "inputs": [
        {
          "internalType": "address",
          "name": "_optionMarket",
          "type": "address"
        },
        {
          "internalType": "address",
          "name": "_optionToken",
          "type": "address"
        },
        {
          "internalType": "address",
          "name": "_referrer",
          "type": "address"
        }
      ],
      "stateMutability": "nonpayable",
      "type": "constructor"
    },
    {
      "anonymous": false,
      "inputs": [
        {
          "indexed": true,
          "internalType": "uint256",
          "name": "buildID",
          "type": "uint256"
        },
        {
          "indexed": false,
          "internalType": "uint256",
          "name": "strikeId",
          "type": "uint256"
        },
        {
          "indexed": false,
          "internalType": "uint256",
          "name": "positionId",
          "type": "uint256"
        },
        {
          "indexed": false,
          "internalType": "uint256",
          "name": "iterations",
          "type": "uint256"
        },
        {
          "indexed": false,
          "internalType": "enum IOptionMarket.OptionType",
          "name": "optionType",
          "type": "uint8"
        },
        {
          "indexed": false,
          "internalType": "uint256",
          "name": "amount",
          "type": "uint256"
        },
        {
          "indexed": false,
          "internalType": "uint256",
          "name": "setCollateralTo",
          "type": "uint256"
        },
        {
          "indexed": false,
          "internalType": "uint256",
          "name": "minTotalCost",
          "type": "uint256"
        },
        {
          "indexed": false,
          "internalType": "uint256",
          "name": "maxTotalCost",
          "type": "uint256"
        },
        {
          "indexed": false,
          "internalType": "address",
          "name": "referrer",
          "type": "address"
        },
        {
          "indexed": false,
          "internalType": "uint256",
          "name": "tokenID",
          "type": "uint256"
        }
      ],
      "name": "OpenPositionByLyra",
      "type": "event"
    },
    {
      "anonymous": false,
      "inputs": [
        {
          "indexed": true,
          "internalType": "address",
          "name": "previousOwner",
          "type": "address"
        },
        {
          "indexed": true,
          "internalType": "address",
          "name": "newOwner",
          "type": "address"
        }
      ],
      "name": "OwnershipTransferred",
      "type": "event"
    },
    {
      "inputs": [],
      "name": "allApprove",
      "outputs": [],
      "stateMutability": "nonpayable",
      "type": "function"
    },
    {
      "inputs": [
        {
          "internalType": "bytes",
          "name": "parameters",
          "type": "bytes"
        }
      ],
      "name": "calculateAmount",
      "outputs": [
        {
          "internalType": "address",
          "name": "token",
          "type": "address"
        },
        {
          "internalType": "uint256",
          "name": "amount",
          "type": "uint256"
        }
      ],
      "stateMutability": "view",
      "type": "function"
    },
    {
      "inputs": [
        {
          "internalType": "bytes",
          "name": "paramData",
          "type": "bytes"
        }
      ],
      "name": "decodeFromLyra",
      "outputs": [
        {
          "components": [
            {
              "internalType": "uint256",
              "name": "strikeId",
              "type": "uint256"
            },
            {
              "internalType": "uint256",
              "name": "positionId",
              "type": "uint256"
            },
            {
              "internalType": "uint256",
              "name": "iterations",
              "type": "uint256"
            },
            {
              "internalType": "enum IOptionMarket.OptionType",
              "name": "optionType",
              "type": "uint8"
            },
            {
              "internalType": "uint256",
              "name": "amount",
              "type": "uint256"
            },
            {
              "internalType": "uint256",
              "name": "setCollateralTo",
              "type": "uint256"
            },
            {
              "internalType": "uint256",
              "name": "minTotalCost",
              "type": "uint256"
            },
            {
              "internalType": "uint256",
              "name": "maxTotalCost",
              "type": "uint256"
            },
            {
              "internalType": "address",
              "name": "referrer",
              "type": "address"
            }
          ],
          "internalType": "struct IOptionMarket.TradeInputParameters",
          "name": "params",
          "type": "tuple"
        }
      ],
      "stateMutability": "pure",
      "type": "function"
    },
    {
      "inputs": [
        {
          "components": [
            {
              "internalType": "uint256",
              "name": "strikeId",
              "type": "uint256"
            },
            {
              "internalType": "uint256",
              "name": "positionId",
              "type": "uint256"
            },
            {
              "internalType": "uint256",
              "name": "iterations",
              "type": "uint256"
            },
            {
              "internalType": "enum IOptionMarket.OptionType",
              "name": "optionType",
              "type": "uint8"
            },
            {
              "internalType": "uint256",
              "name": "amount",
              "type": "uint256"
            },
            {
              "internalType": "uint256",
              "name": "setCollateralTo",
              "type": "uint256"
            },
            {
              "internalType": "uint256",
              "name": "minTotalCost",
              "type": "uint256"
            },
            {
              "internalType": "uint256",
              "name": "maxTotalCost",
              "type": "uint256"
            },
            {
              "internalType": "address",
              "name": "referrer",
              "type": "address"
            }
          ],
          "internalType": "struct IOptionMarket.TradeInputParameters",
          "name": "params",
          "type": "tuple"
        }
      ],
      "name": "encodeFromLyra",
      "outputs": [
        {
          "internalType": "bytes",
          "name": "paramData",
          "type": "bytes"
        }
      ],
      "stateMutability": "pure",
      "type": "function"
    },
    {
      "inputs": [
        {
          "internalType": "address",
          "name": "",
          "type": "address"
        },
        {
          "internalType": "address",
          "name": "",
          "type": "address"
        },
        {
          "internalType": "uint256",
          "name": "",
          "type": "uint256"
        },
        {
          "internalType": "bytes",
          "name": "",
          "type": "bytes"
        }
      ],
      "name": "onERC721Received",
      "outputs": [
        {
          "internalType": "bytes4",
          "name": "",
          "type": "bytes4"
        }
      ],
      "stateMutability": "nonpayable",
      "type": "function"
    },
    {
      "inputs": [],
      "name": "optionMarket",
      "outputs": [
        {
          "internalType": "address",
          "name": "",
          "type": "address"
        }
      ],
      "stateMutability": "view",
      "type": "function"
    },
    {
      "inputs": [],
      "name": "optionToken",
      "outputs": [
        {
          "internalType": "address",
          "name": "",
          "type": "address"
        }
      ],
      "stateMutability": "view",
      "type": "function"
    },
    {
      "inputs": [],
      "name": "owner",
      "outputs": [
        {
          "internalType": "address",
          "name": "",
          "type": "address"
        }
      ],
      "stateMutability": "view",
      "type": "function"
    },
    {
      "inputs": [
        {
          "internalType": "bytes",
          "name": "parametersArray",
          "type": "bytes"
        },
        {
          "internalType": "uint256",
          "name": "buildID",
          "type": "uint256"
        },
        {
          "internalType": "address",
          "name": "user",
          "type": "address"
        }
      ],
      "name": "processTx",
      "outputs": [],
      "stateMutability": "nonpayable",
      "type": "function"
    },
    {
      "inputs": [],
      "name": "referrer",
      "outputs": [
        {
          "internalType": "address",
          "name": "",
          "type": "address"
        }
      ],
      "stateMutability": "view",
      "type": "function"
    },
    {
      "inputs": [],
      "name": "renounceOwnership",
      "outputs": [],
      "stateMutability": "nonpayable",
      "type": "function"
    },
    {
      "inputs": [
        {
          "internalType": "address",
          "name": "newReferrer",
          "type": "address"
        }
      ],
      "name": "setReferrer",
      "outputs": [],
      "stateMutability": "nonpayable",
      "type": "function"
    },
    {
      "inputs": [
        {
          "internalType": "address",
          "name": "newOwner",
          "type": "address"
        }
      ],
      "name": "transferOwnership",
      "outputs": [],
      "stateMutability": "nonpayable",
      "type": "function"
    }
  ],
  "transactionHash": "0x23090a62c0d128ff2b14eba7375194a4daab78f3d529bae3b36f521cf812b9ee",
  "args": [
    "0xe044919cf58dFb066FC9DE7c69C7db19f336B20c",
    "0x0e97498F3d91756Ec7F2d244aC97F6Ea9f4eBbC3",
    "0x683ad8b899cd14d8e077c9a623e8b3fed65a8c09"
  ],
  "numDeployments": 1,
  "solcInputHash": "82e65d397ad98f35442f9bc6e2462d36",
  "bytecode": "0x6080346100dc57601f6112ec38819003918201601f19168301916001600160401b038311848410176100e1578084926060946040528339810103126100dc57610047816100f7565b61005f6040610058602085016100f7565b93016100f7565b600080546001600160a01b03198082163390811784556040519691956001600160a01b0395948694859391908416907f8be0079c531659141344cd1fd0a4f28419497f9722a3daafe3b4186f6b6457e09080a31685600154161760015516836002541617600255169060035416176003556111e0908161010c8239f35b600080fd5b634e487b7160e01b600052604160045260246000fd5b51906001600160a01b03821682036100dc5756fe608080604052600436101561001357600080fd5b600090813560e01c908163150b7a0214610b48575080632bab754b14610b1f5780632f63d89214610a2a5780633819137a146104cd57806368447c93146104a4578063715018a61461044a5780637531a64e146103f357806389f94c29146103a65780638da5cb5b1461037f578063a18a7bfc1461033a578063ad4bb908146101a6578063bb4a9f881461017d5763f2fde38b146100b057600080fd5b3461017a57602036600319011261017a576100c9610bbe565b6100d1610d13565b6001600160a01b0390811690811561012657600054826bffffffffffffffffffffffff60a01b821617600055167f8be0079c531659141344cd1fd0a4f28419497f9722a3daafe3b4186f6b6457e0600080a380f35b60405162461bcd60e51b815260206004820152602660248201527f4f776e61626c653a206e6577206f776e657220697320746865207a65726f206160448201526564647265737360d01b6064820152608490fd5b80fd5b503461017a578060031936011261017a576001546040516001600160a01b039091168152602090f35b503461017a578060031936011261017a5760015460405163fdf262b760e01b81526020916001600160a01b039081168383600481845afa92831561032f578593610310575b5060405163095ea7b360e01b91828252600482015284816044818987600019998a6024850152165af18015610305576102e8575b5060015460405163cdf456e160e01b815290831691868683600481875afa9485156102db57879560449483916102ae575b506040519788968795865260048601526024850152165af180156102a357610276578280f35b8161029592903d1061029c575b61028d8183610c07565b810190610d8a565b5038808280f35b503d610283565b6040513d85823e3d90fd5b6102ce9150873d89116102d4575b6102c68183610c07565b810190610d6b565b38610250565b503d6102bc565b50604051903d90823e3d90fd5b6102fe90853d871161029c5761028d8183610c07565b503861021f565b6040513d88823e3d90fd5b610328919350843d86116102d4576102c68183610c07565b91386101eb565b6040513d87823e3d90fd5b503461017a57602036600319011261017a57610354610bbe565b61035c610d13565b60018060a01b03166bffffffffffffffffffffffff60a01b600354161760035580f35b503461017a578060031936011261017a57546040516001600160a01b039091168152602090f35b503461017a57602036600319011261017a576004359067ffffffffffffffff821161017a576103ef6103e36103de3660048601610c29565b6110dc565b60405191829182610ca3565b0390f35b503461017a57602036600319011261017a576004359067ffffffffffffffff821161017a5761042d6104283660048501610c29565b610e02565b604080516001600160a01b03939093168352602083019190915290f35b503461017a578060031936011261017a57610463610d13565b600080546001600160a01b0319811682556001600160a01b03167f8be0079c531659141344cd1fd0a4f28419497f9722a3daafe3b4186f6b6457e08280a380f35b503461017a578060031936011261017a576003546040516001600160a01b039091168152602090f35b503461017a57606036600319011261017a5760043567ffffffffffffffff811161090a576104ff903690600401610c29565b6044356001600160a01b038116900361090a57600482610539610521846110dc565b6003546001600160a01b031661010082015293610e02565b5060025460405163186e33a360e21b81529360209185919082906001600160a01b03165afa928315610a1f5782936109eb575b506001546040516335b02ed160e21b81529060609082906001600160a01b031681868161059c8b60048301610ca3565b03925af180156102a357610964575b506040516370a0823160e01b81523060048201526020816024816001600160a01b0386165afa9081156102a357839161092d575b5060405163a9059cbb60e01b81526001600160a01b03604480358216600484015260248301939093529093602093859392849291165af180156108bb5761090e575b5060025483906001600160a01b0316803b1561090a576040516323b872dd60e01b8152306004820152604480356001600160a01b03166024830152810184905291908290606490829084905af180156108bb576108da575b5060608201805160058110156108c65760021461074d575b8251926020810151916040820151905160058110156107395760808301516106ed60a08501519260c08601519460e08701519661010060018060a01b0391015116976040519a8b5260208b015260408a01526060890190610c80565b608087015260a086015260c085015260e08401526101008301526101208201527f8650344f378c8df5446864351ca3e88677936be22fcf7b4d2254da11ce46875a61014060243592a280f35b634e487b7160e01b87526021600452602487fd5b60015460405163fdf262b760e01b80825286926001600160a01b031690602083600481855afa9283156108bb578493610899575b5060209060046040518094819382525afa9081156102a357602491602091859161087c575b506040516370a0823160e01b815230600482015292839182906001600160a01b03165afa9081156102a357839161083f575b5060405163a9059cbb60e01b81526001600160a01b03604480358216600484015260248301939093529093602093859392849291165af1801561032f57610820575b50610691565b6108389060203d60201161029c5761028d8183610c07565b503861081a565b9250506020823d602011610874575b8161085b60209383610c07565b8101031261086f57905185919060206107d8565b600080fd5b3d915061084e565b6108939150823d84116102d4576102c68183610c07565b386107a6565b60209193506108b490823d84116102d4576102c68183610c07565b9290610781565b6040513d86823e3d90fd5b634e487b7160e01b85526021600452602485fd5b67ffffffffffffffff81949294116108f6576040529138610679565b634e487b7160e01b82526041600452602482fd5b5080fd5b6109269060203d60201161029c5761028d8183610c07565b5038610621565b90506020813d60201161095c575b8161094860209383610c07565b81010312610958575160206105df565b8280fd5b3d915061093b565b9091506060813d6060116109e3575b8161098060609383610c07565b810103126109df576040519081606081011067ffffffffffffffff6060840111176109cb579060408087949360608401825280518452602081015160208501520151910152386105ab565b634e487b7160e01b86526041600452602486fd5b8480fd5b3d9150610973565b9092506020813d602011610a17575b81610a0760209383610c07565b8101031261090a5751913861056c565b3d91506109fa565b6040513d84823e3d90fd5b503461017a5761012036600319011261017a5760405190610a4a82610bd4565b60043582526020916024358382015260443560408201526064356005811015610958576060820152608435608082015260a43560a082015260c43560c082015260e43560e0820152610104356001600160a01b03811681036109585761010082015260405191908290610abf90858301610ca3565b03610ad2601f1991828101855284610c07565b604051938492818452845191828186015281955b838710610b065750506040945090601f9185828601015201168101030190f35b8681018201518888016040015295810195879550610ae6565b503461017a578060031936011261017a576002546040516001600160a01b039091168152602090f35b90503461090a57608036600319011261090a57610b63610bbe565b506024356001600160a01b0381160361090a5760643567ffffffffffffffff808211610bba5736602383011215610bba578160040135908111610bba573691016024011161090a57630a85bd0160e11b8152602090f35b8380fd5b600435906001600160a01b038216820361086f57565b610120810190811067ffffffffffffffff821117610bf157604052565b634e487b7160e01b600052604160045260246000fd5b90601f8019910116810190811067ffffffffffffffff821117610bf157604052565b81601f8201121561086f5780359067ffffffffffffffff8211610bf15760405192610c5e601f8401601f191660200185610c07565b8284526020838301011161086f57816000926020809301838601378301015290565b906005821015610c8d5752565b634e487b7160e01b600052602160045260246000fd5b919091610120810192805182526020810151602083015260408101516040830152610cd660608201516060840190610c80565b6080818101519083015260a0808201519083015260c0808201519083015260e08082015190830152610100908101516001600160a01b0316910152565b6000546001600160a01b03163303610d2757565b606460405162461bcd60e51b815260206004820152602060248201527f4f776e61626c653a2063616c6c6572206973206e6f7420746865206f776e65726044820152fd5b9081602091031261086f57516001600160a01b038116810361086f5790565b9081602091031261086f5751801515810361086f5790565b9081602091031261086f575160ff8116810361086f5790565b60ff16604d8111610dcc57600a0a90565b634e487b7160e01b600052601160045260246000fd5b8115610dec570490565b634e487b7160e01b600052601260045260246000fd5b600090600091610e1283926110dc565b9160608301805160058110156110b4571580156110c8575b15610f6f5750505060e001516001546040805163fdf262b760e01b808252946001600160a01b039492938516926020928381600481885afa908115610f4857879185918591610f52575b50600488518094819363313ce56760e01b8352165afa908115610f485790610ea3918491610f1b575b50610dbb565b8015610f07578391610ebf91670de0b6b3a76400000490610de2565b96600486518096819382525afa938415610efd575092610ee0575b50501691565b610ef69250803d106102d4576102c68183610c07565b3880610eda565b51903d90823e3d90fd5b634e487b7160e01b83526012600452602483fd5b610f3b9150853d8711610f41575b610f338183610c07565b810190610da2565b38610e9d565b503d610f29565b86513d85823e3d90fd5b610f699150823d84116102d4576102c68183610c07565b38610e74565b805160058110156110b45760031480156110a0575b15610ffb5750505060a001516001546040805163fdf262b760e01b808252946001600160a01b039492938516926020928381600481885afa908115610f4857879185918591610f525750600488518094819363313ce56760e01b8352165afa908115610f485790610ea3918491610f1b5750610dbb565b94929093919451600581101561108c57600214611016575050565b60a001516001546040805163cdf456e160e01b8082529597509495506001600160a01b0394909391851692602092918381600481885afa908115610f4857879185918591610f525750600488518094819363313ce56760e01b8352165afa908115610f485790610ea3918491610f1b5750610dbb565b634e487b7160e01b83526021600452602483fd5b50805160058110156110b457600414610f84565b634e487b7160e01b86526021600452602486fd5b50805160058110156110b457600114610e2a565b6040516110e881610bd4565b6000908181528160208201528160408201528160608201528160808201528160a08201528160c08201528160e082015281610100809201526101208084805181010312610958576040519361113c85610bd4565b602081015185526040810151602086015260608101516040860152608081015160058110156109df57606086015260a0810151608086015260c081015160a086015260e081015160c08601528281015160e086015201519160018060a01b038316830361017a57508201529056fea264697066735822122021a0bcba3e26f922582fa07cae6c696f52eccd9aae671763949356ec7763aa8a64736f6c63430008130033",
  "devdoc": {
    "author": "0nika0",
    "events": {
      "OpenPositionByLyra(uint256,uint256,uint256,uint256,uint8,uint256,uint256,uint256,uint256,address,uint256)": {
        "details": "This event is emitted when a user opens a position using the Lyra protocol, recording important details of the transaction.",
        "params": {
          "amount": "The amount of the Lyra option.",
          "buildID": "The unique identifier for the Lyra option position build.",
          "iterations": "The number of iterations for the Lyra option.",
          "maxTotalCost": "The maximum total cost allowed for the option.",
          "minTotalCost": "The minimum total cost allowed for the option.",
          "optionType": "The type of the Lyra option (e.g., LONG_CALL, LONG_PUT, SHORT_CALL_BASE).",
          "positionId": "The identifier for the option position.",
          "referrer": "The referrer associated with the option transaction.",
          "setCollateralTo": "The collateral amount set for the option.",
          "strikeId": "The identifier for the strike price of the option.",
          "tokenID": "The unique identifier of the Lyra option token."
        }
      }
    },
    "kind": "dev",
    "methods": {
      "allApprove()": {
        "details": "See {ITxBuilderOpenLyra-allApprove}."
      },
      "calculateAmount(bytes)": {
        "details": "This public view function calculates the amount of a token based on a set of input parameters. It decodes the parameters, retrieves the necessary information from a Lyra strategy, and calculates the amount based on the option type and related factors.",
        "params": {
          "parameters": "The encoded parameters for the calculation."
        },
        "returns": {
          "amount": "The calculated amount of the token.",
          "token": "The address of the token to be calculated."
        }
      },
      "decodeFromLyra(bytes)": {
        "details": "See {ITxBuilderOpenLyra-decodeFromLyra}."
      },
      "encodeFromLyra((uint256,uint256,uint256,uint8,uint256,uint256,uint256,uint256,address))": {
        "details": "See {ITxBuilderOpenLyra-encodeFromLyra}."
      },
      "owner()": {
        "details": "Returns the address of the current owner."
      },
      "processTx(bytes,uint256,address)": {
        "details": "See {IBaseTxBuilderOpen-processTx}."
      },
      "renounceOwnership()": {
        "details": "Leaves the contract without owner. It will not be possible to call `onlyOwner` functions. Can only be called by the current owner. NOTE: Renouncing ownership will leave the contract without an owner, thereby disabling any functionality that is only available to the owner."
      },
      "setReferrer(address)": {
        "details": "See {ITxBuilderOpenLyra-setReferrer}."
      },
      "transferOwnership(address)": {
        "details": "Transfers ownership of the contract to a new account (`newOwner`). Can only be called by the current owner."
      }
    },
    "title": "TxBuilderOpenLyra",
    "version": 1
  },
  "userdoc": {
    "events": {
      "OpenPositionByLyra(uint256,uint256,uint256,uint256,uint8,uint256,uint256,uint256,uint256,address,uint256)": {
        "notice": "Emitted when a position is opened using the Lyra protocol."
      }
    },
    "kind": "user",
    "methods": {
      "calculateAmount(bytes)": {
        "notice": "Calculate the amount of a token based on provided parameters."
      }
    },
    "notice": "A contract for building and processing Lyra option transactions.",
    "version": 1
  },
  "storageLayout": {
    "storage": [
      {
        "astId": 396,
        "contract": "contracts/lyra/TxBuilderOpenLyra.sol:TxBuilderOpenLyra",
        "label": "_owner",
        "offset": 0,
        "slot": "0",
        "type": "t_address"
      },
      {
        "astId": 6364,
        "contract": "contracts/lyra/TxBuilderOpenLyra.sol:TxBuilderOpenLyra",
        "label": "optionMarket",
        "offset": 0,
        "slot": "1",
        "type": "t_address"
      },
      {
        "astId": 6366,
        "contract": "contracts/lyra/TxBuilderOpenLyra.sol:TxBuilderOpenLyra",
        "label": "optionToken",
        "offset": 0,
        "slot": "2",
        "type": "t_address"
      },
      {
        "astId": 6368,
        "contract": "contracts/lyra/TxBuilderOpenLyra.sol:TxBuilderOpenLyra",
        "label": "referrer",
        "offset": 0,
        "slot": "3",
        "type": "t_address"
      }
    ],
    "types": {
      "t_address": {
        "encoding": "inplace",
        "label": "address",
        "numberOfBytes": "20"
      }
    }
  }
}