{
  "address": "0x9daA79Dbf6CD067D207194661779677B5Ee29DCF",
  "abi": [
    {
      "inputs": [
        {
          "internalType": "address",
          "name": "_exchanger",
          "type": "address"
        },
        {
          "internalType": "address",
          "name": "_buildManager",
          "type": "address"
        }
      ],
      "stateMutability": "nonpayable",
      "type": "constructor"
    },
    {
      "anonymous": false,
      "inputs": [
        {
          "indexed": false,
          "internalType": "uint256",
          "name": "buildID",
          "type": "uint256"
        },
        {
          "indexed": true,
          "internalType": "address",
          "name": "user",
          "type": "address"
        },
        {
          "indexed": false,
          "internalType": "uint256",
          "name": "productType",
          "type": "uint256"
        }
      ],
      "name": "CreateBuild",
      "type": "event"
    },
    {
      "anonymous": false,
      "inputs": [
        {
          "indexed": true,
          "internalType": "address",
          "name": "previousOwner",
          "type": "address"
        },
        {
          "indexed": true,
          "internalType": "address",
          "name": "newOwner",
          "type": "address"
        }
      ],
      "name": "OwnershipTransferred",
      "type": "event"
    },
    {
      "inputs": [],
      "name": "buildManager",
      "outputs": [
        {
          "internalType": "contract IBuildManager",
          "name": "",
          "type": "address"
        }
      ],
      "stateMutability": "view",
      "type": "function"
    },
    {
      "inputs": [
        {
          "components": [
            {
              "internalType": "address",
              "name": "moduleAddress",
              "type": "address"
            },
            {
              "internalType": "string",
              "name": "name",
              "type": "string"
            }
          ],
          "internalType": "struct ITxBuilder.Module[]",
          "name": "moduleArray",
          "type": "tuple[]"
        },
        {
          "internalType": "bytes[]",
          "name": "parametersArray",
          "type": "bytes[]"
        },
        {
          "internalType": "bytes[]",
          "name": "swapDataArray",
          "type": "bytes[]"
        },
        {
          "internalType": "uint256",
          "name": "productType",
          "type": "uint256"
        }
      ],
      "name": "consolidationOfTransactions",
      "outputs": [],
      "stateMutability": "payable",
      "type": "function"
    },
    {
      "inputs": [],
      "name": "exchanger",
      "outputs": [
        {
          "internalType": "contract IExchanger",
          "name": "",
          "type": "address"
        }
      ],
      "stateMutability": "view",
      "type": "function"
    },
    {
      "inputs": [
        {
          "internalType": "uint256",
          "name": "",
          "type": "uint256"
        }
      ],
      "name": "module",
      "outputs": [
        {
          "internalType": "address",
          "name": "moduleAddress",
          "type": "address"
        },
        {
          "internalType": "string",
          "name": "name",
          "type": "string"
        }
      ],
      "stateMutability": "view",
      "type": "function"
    },
    {
      "inputs": [],
      "name": "owner",
      "outputs": [
        {
          "internalType": "address",
          "name": "",
          "type": "address"
        }
      ],
      "stateMutability": "view",
      "type": "function"
    },
    {
      "inputs": [],
      "name": "renounceOwnership",
      "outputs": [],
      "stateMutability": "nonpayable",
      "type": "function"
    },
    {
      "inputs": [
        {
          "internalType": "address",
          "name": "exchangerAddress",
          "type": "address"
        }
      ],
      "name": "setExchanger",
      "outputs": [],
      "stateMutability": "nonpayable",
      "type": "function"
    },
    {
      "inputs": [
        {
          "internalType": "uint256",
          "name": "index",
          "type": "uint256"
        },
        {
          "components": [
            {
              "internalType": "address",
              "name": "moduleAddress",
              "type": "address"
            },
            {
              "internalType": "string",
              "name": "name",
              "type": "string"
            }
          ],
          "internalType": "struct ITxBuilder.Module",
          "name": "modData",
          "type": "tuple"
        }
      ],
      "name": "setModule",
      "outputs": [],
      "stateMutability": "nonpayable",
      "type": "function"
    },
    {
      "inputs": [
        {
          "internalType": "address",
          "name": "newOwner",
          "type": "address"
        }
      ],
      "name": "transferOwnership",
      "outputs": [],
      "stateMutability": "nonpayable",
      "type": "function"
    },
    {
      "inputs": [
        {
          "internalType": "address",
          "name": "token",
          "type": "address"
        },
        {
          "internalType": "address",
          "name": "user",
          "type": "address"
        },
        {
          "internalType": "uint256",
          "name": "amount",
          "type": "uint256"
        }
      ],
      "name": "withdrawERC20",
      "outputs": [],
      "stateMutability": "nonpayable",
      "type": "function"
    },
    {
      "inputs": [
        {
          "internalType": "address",
          "name": "user",
          "type": "address"
        },
        {
          "internalType": "uint256",
          "name": "amount",
          "type": "uint256"
        }
      ],
      "name": "withdrawETH",
      "outputs": [],
      "stateMutability": "nonpayable",
      "type": "function"
    }
  ],
  "transactionHash": "0xd3458a5de7cb205045a4da6fa76dc4582f7524ead28fb6246cd2b235ed0f13e8",
  "args": [
    "0x03E34a4d1F2B88579521086876E781479A544610",
    "0x92DCa00556c34a17c6AC4CE8A0d0A01445326512"
  ],
  "numDeployments": 1,
  "solcInputHash": "4bf5226f41b2f099f1eff60c8b1170a7",
  "bytecode": "0x6080346100c357601f610f7e38819003918201601f19168301916001600160401b038311848410176100c85780849260409485528339810103126100c357610052602061004b836100de565b92016100de565b60008054336001600160a01b0319808316821784556040519590946001600160a01b03949093859391908416907f8be0079c531659141344cd1fd0a4f28419497f9722a3daafe3b4186f6b6457e09080a31683600154161760015516906002541617600255610e8b90816100f38239f35b600080fd5b634e487b7160e01b600052604160045260246000fd5b51906001600160a01b03821682036100c35756fe6080604052600436101561001257600080fd5b6000803560e01c8063302d2ef614610621578063430f75da1461053a57806344004cc1146104875780634782f7791461042b5780634d12fca414610402578063715018a6146103a8578063868ccfb3146101f85780638da5cb5b146101d1578063d4fee1ac146101a8578063da909b09146101635763f2fde38b1461009657600080fd5b34610160576020366003190112610160576100af610c3a565b6100b7610da4565b6001600160a01b0390811690811561010c57600054826bffffffffffffffffffffffff60a01b821617600055167f8be0079c531659141344cd1fd0a4f28419497f9722a3daafe3b4186f6b6457e0600080a380f35b60405162461bcd60e51b815260206004820152602660248201527f4f776e61626c653a206e6577206f776e657220697320746865207a65726f206160448201526564647265737360d01b6064820152608490fd5b80fd5b50346101605760203660031901126101605761017d610c3a565b610185610da4565b60018060a01b03166bffffffffffffffffffffffff60a01b600154161760015580f35b50346101605780600319360112610160576002546040516001600160a01b039091168152602090f35b5034610160578060031936011261016057546040516001600160a01b039091168152602090f35b5034610160576003196040368201126103a45760249081359167ffffffffffffffff908184116103a0576040843603938401126103a057610237610da4565b60043585526020600381526040862093856004013560018060a01b03811680910361039c5785546001600160a01b03191617855560019485019583810135916022190182121561039c570160048101359384116103985783360383820113610398576102a38654610d2a565b601f8111610352575b508691601f85116001146102ea575091839491849388956102dd575b5050501b916000199060031b1c191617905580f35b01013592503880806102c8565b92909184601f198116888a52858a20958a905b89838310610336575050501061031a575b50505050811b01905580f35b60001960f88660031b161c19920101351690553880808061030e565b87860187013589559097019693840193889350908101906102fd565b868852828820601f860160051c81019184871061038e575b601f0160051c019086905b8281106103835750506102ac565b898155018690610375565b909150819061036a565b8680fd5b8780fd5b8480fd5b5080fd5b50346101605780600319360112610160576103c1610da4565b600080546001600160a01b0319811682556001600160a01b03167f8be0079c531659141344cd1fd0a4f28419497f9722a3daafe3b4186f6b6457e08280a380f35b50346101605780600319360112610160576001546040516001600160a01b039091168152602090f35b50346101605760403660031901126101605780808080610449610c3a565b60243590610455610da4565b8290821561047d575b6001600160a01b031690f1156104715780f35b604051903d90823e3d90fd5b6108fc915061045e565b5034610160576060366003190112610160576104a1610c3a565b6001600160a01b039060243582811691908290036105355760446020926104c6610da4565b85604051958694859363a9059cbb60e01b8552600485015284356024850152165af1801561052a576104f6575080f35b6020813d8211610522575b8161050e60209383610c00565b810103126103a45751801515036101605780f35b3d9150610501565b6040513d84823e3d90fd5b600080fd5b50346101605760209081600319360112610160576004358152600382526040812060018060a01b0381541690600180910184604051928583549361057d85610d2a565b808752948381169081156105fc57506001146105c0575b83876105bc886105a6818d0382610c00565b6040805194859485528401526040830190610d64565b0390f35b908094939750528583205b8284106105e9575050508101909201916105a6846105bc8338610594565b80548585018801529286019281016105cb565b60ff1916858801525050505090151560051b82010192506105a6846105bc8338610594565b5060803660031901126101605767ffffffffffffffff906004358281116103a457366023820112156103a457806004013561065b81610c22565b916106696040519384610c00565b8183526024602084019260051b820101903682116103a05760248101925b828410610b365750505050602435838111610b32576106aa903690600401610c97565b92604435908111610b32576106c3903690600401610c97565b92815181518091149081610b27575b5015610aef5760025460405163815662f360e01b81529290602090849060049082906001600160a01b03165afa928315610ae4578493610aac575b506001546001600160a01b0316803b156103a057846040518092634526150760e11b8252604482016040600484015289518091526064830160648260051b8501019160208c019186905b828210610a79575050505082809134602483015203915afa8015610a6e57610a5b575b50835b81518110156109d7576001546107c4906001600160a01b031660206107a2848a610dfc565b516040518094819263bcc4bffd60e01b83528460048401526024830190610d64565b0381845afa9182156109cc578792610998575b50816109195750506001546001600160a01b03166107f58288610dfc565b51906001600160a01b036108098486610dfc565b51511691813b1561039c5791879161083a93836040518096819582946378a820a760e01b8452339060048501610e26565b03925af180156108fa57908691610905575b50505b6001600160a01b036108618284610dfc565b51511661086e8285610dfc565b51813b15610398576108a187928392604051948580948193631c0c89bd60e11b8352606060048401526064830190610d64565b8b602483015233604483015203925af180156108fa579086916108e6575b505060001981146108d25760010161077d565b634e487b7160e01b85526011600452602485fd5b6108ef90610bd6565b6103a05784386108bf565b6040513d88823e3d90fd5b61090e90610bd6565b6103a057843861084c565b6109238389610dfc565b516001600160a01b036109368587610dfc565b51511692823b156109945791610967939189936040518096819582946378a820a760e01b8452339060048501610e26565b03925af180156108fa57908691610980575b505061084f565b61098990610bd6565b6103a0578438610979565b8880fd5b9091506020813d6020116109c4575b816109b460209383610c00565b81010312610535575190386107d7565b3d91506109a7565b6040513d89823e3d90fd5b50505060405190815260643560208201527fdf35236315d79f749febbbe30af46d136cadd5dc4f8006c5668c7bd2fac5da7260403392a260025481906001600160a01b0316803b15610a58578180916004604051809481936339feea8360e01b83525af1801561052a57610a485750f35b610a5190610bd6565b6101605780f35b50fd5b610a6790949194610bd6565b923861077a565b6040513d87823e3d90fd5b929550926001919496506020610a9a81926063198b82030186528851610d64565b960192019201928a9593879593610757565b9092506020813d602011610adc575b81610ac860209383610c00565b81010312610ad85751913861070d565b8380fd5b3d9150610abb565b6040513d86823e3d90fd5b60405162461bcd60e51b815260206004820152601060248201526f185c9c985e5cc81b9bdd08195c5d585b60821b6044820152606490fd5b9050845114386106d2565b8280fd5b8335878111610398578201604060231982360301126103985760405190604082018281108a821117610bc25760405260248101356001600160a01b038116810361099457825260449081810135908a8211610bbe5701366043820112156109945791610baf602094928594369160248201359101610c50565b83820152815201930192610687565b8980fd5b634e487b7160e01b89526041600452602489fd5b67ffffffffffffffff8111610bea57604052565b634e487b7160e01b600052604160045260246000fd5b90601f8019910116810190811067ffffffffffffffff821117610bea57604052565b67ffffffffffffffff8111610bea5760051b60200190565b600435906001600160a01b038216820361053557565b92919267ffffffffffffffff8211610bea5760405191610c7a601f8201601f191660200184610c00565b829481845281830111610535578281602093846000960137010152565b81601f8201121561053557803590610cae82610c22565b92604092610cbe84519586610c00565b808552602093848087019260051b8501019383851161053557858101925b858410610ced575050505050505090565b833567ffffffffffffffff811161053557820185603f82011215610535578791610d1f87838786809601359101610c50565b815201930192610cdc565b90600182811c92168015610d5a575b6020831014610d4457565b634e487b7160e01b600052602260045260246000fd5b91607f1691610d39565b919082519283825260005b848110610d90575050826000602080949584010152601f8019910116010190565b602081830181015184830182015201610d6f565b6000546001600160a01b03163303610db857565b606460405162461bcd60e51b815260206004820152602060248201527f4f776e61626c653a2063616c6c6572206973206e6f7420746865206f776e65726044820152fd5b8051821015610e105760209160051b010190565b634e487b7160e01b600052603260045260246000fd5b91610e3e604092959495606085526060850190610d64565b6001600160a01b039182166020850152941691015256fea264697066735822122072cae748f2e7c5ff6e84a01318771c63d683f2cd47e58cf97cc7d8c9ab0963e764736f6c63430008130033",
  "devdoc": {
    "author": "0nika0",
    "details": "This contract manages the consolidation of transactions and products, allowing users to create and interact with modules. It enables users to consolidate multiple transactions into one and create products through modules.",
    "events": {
      "CreateBuild(uint256,address,uint256)": {
        "details": "An event emitted when a build or product is created.  This event is triggered when a user creates a new build or product, and it provides information about the build ID, the user who created it, and the product type associated with the build. ",
        "params": {
          "buildID": "The unique identifier for the created build.",
          "productType": "The type of product associated with the build.",
          "user": "The address of the user who created the build."
        }
      }
    },
    "kind": "dev",
    "methods": {
      "consolidationOfTransactions((address,string)[],bytes[],bytes[],uint256)": {
        "details": "This external function allows users to consolidate and execute multiple transactions across different modules in a single call.  It takes an array of modules, parameters, and swap data, and executes the transactions sequentially.  The function ensures that the lengths of the arrays are equal and validates the required message value for each swap.",
        "params": {
          "moduleArray": "An array of Module structs representing the modules to interact with.",
          "parametersArray": "An array of encoded parameters for each module's transaction.",
          "productType": "The type of product or operation being performed.",
          "swapDataArray": "An array of encoded swap data for each module's transaction."
        }
      },
      "owner()": {
        "details": "Returns the address of the current owner."
      },
      "renounceOwnership()": {
        "details": "Leaves the contract without owner. It will not be possible to call `onlyOwner` functions. Can only be called by the current owner. NOTE: Renouncing ownership will leave the contract without an owner, thereby disabling any functionality that is only available to the owner."
      },
      "setExchanger(address)": {
        "details": "This external function allows the contract owner to set the address of the Exchanger contract.",
        "params": {
          "exchangerAddress": "The address of the Exchanger contract."
        }
      },
      "setModule(uint256,(address,string))": {
        "details": "This external function allows the contract owner to set a module's data at a specific index.",
        "params": {
          "index": "The index at which to set the module.",
          "modData": "The module data to set."
        }
      },
      "transferOwnership(address)": {
        "details": "Transfers ownership of the contract to a new account (`newOwner`). Can only be called by the current owner."
      },
      "withdrawERC20(address,address,uint256)": {
        "details": "This external function allows the contract owner to withdraw ERC20 tokens to a specified user address.",
        "params": {
          "amount": "The amount of tokens to withdraw.",
          "token": "The address of the ERC20 token contract.",
          "user": "The address of the user to receive the tokens."
        }
      },
      "withdrawETH(address,uint256)": {
        "details": "This external function allows the contract owner to withdraw Ether (ETH) to a specified user address.",
        "params": {
          "amount": "The amount of ETH to withdraw.",
          "user": "The address of the user to receive the ETH."
        }
      }
    },
    "title": "TxBuilder",
    "version": 1
  },
  "userdoc": {
    "kind": "user",
    "methods": {
      "consolidationOfTransactions((address,string)[],bytes[],bytes[],uint256)": {
        "notice": "Consolidate and execute multiple transactions in a single call."
      },
      "setExchanger(address)": {
        "notice": "Set the address of the Exchanger contract."
      },
      "setModule(uint256,(address,string))": {
        "notice": "Set a module at a specific index."
      },
      "withdrawERC20(address,address,uint256)": {
        "notice": "Withdraw ERC20 tokens to a specified user address."
      },
      "withdrawETH(address,uint256)": {
        "notice": "Withdraw Ether (ETH) to a specified user address."
      }
    },
    "version": 1
  },
  "storageLayout": {
    "storage": [
      {
        "astId": 7,
        "contract": "contracts/TxBuilder.sol:TxBuilder",
        "label": "_owner",
        "offset": 0,
        "slot": "0",
        "type": "t_address"
      },
      {
        "astId": 957,
        "contract": "contracts/TxBuilder.sol:TxBuilder",
        "label": "exchanger",
        "offset": 0,
        "slot": "1",
        "type": "t_contract(IExchanger)1249"
      },
      {
        "astId": 960,
        "contract": "contracts/TxBuilder.sol:TxBuilder",
        "label": "buildManager",
        "offset": 0,
        "slot": "2",
        "type": "t_contract(IBuildManager)868"
      },
      {
        "astId": 965,
        "contract": "contracts/TxBuilder.sol:TxBuilder",
        "label": "module",
        "offset": 0,
        "slot": "3",
        "type": "t_mapping(t_uint256,t_struct(Module)876_storage)"
      }
    ],
    "types": {
      "t_address": {
        "encoding": "inplace",
        "label": "address",
        "numberOfBytes": "20"
      },
      "t_contract(IBuildManager)868": {
        "encoding": "inplace",
        "label": "contract IBuildManager",
        "numberOfBytes": "20"
      },
      "t_contract(IExchanger)1249": {
        "encoding": "inplace",
        "label": "contract IExchanger",
        "numberOfBytes": "20"
      },
      "t_mapping(t_uint256,t_struct(Module)876_storage)": {
        "encoding": "mapping",
        "key": "t_uint256",
        "label": "mapping(uint256 => struct ITxBuilder.Module)",
        "numberOfBytes": "32",
        "value": "t_struct(Module)876_storage"
      },
      "t_string_storage": {
        "encoding": "bytes",
        "label": "string",
        "numberOfBytes": "32"
      },
      "t_struct(Module)876_storage": {
        "encoding": "inplace",
        "label": "struct ITxBuilder.Module",
        "members": [
          {
            "astId": 873,
            "contract": "contracts/TxBuilder.sol:TxBuilder",
            "label": "moduleAddress",
            "offset": 0,
            "slot": "0",
            "type": "t_address"
          },
          {
            "astId": 875,
            "contract": "contracts/TxBuilder.sol:TxBuilder",
            "label": "name",
            "offset": 0,
            "slot": "1",
            "type": "t_string_storage"
          }
        ],
        "numberOfBytes": "64"
      },
      "t_uint256": {
        "encoding": "inplace",
        "label": "uint256",
        "numberOfBytes": "32"
      }
    }
  }
}