{
  "address": "0x331484935B9E04354BffC4FdBb4753f8A2E1679E",
  "abi": [
    {
      "inputs": [
        {
          "internalType": "address",
          "name": "_swapRouter",
          "type": "address"
        },
        {
          "internalType": "address",
          "name": "_roleManager",
          "type": "address"
        }
      ],
      "stateMutability": "nonpayable",
      "type": "constructor"
    },
    {
      "anonymous": false,
      "inputs": [
        {
          "indexed": true,
          "internalType": "address",
          "name": "previousOwner",
          "type": "address"
        },
        {
          "indexed": true,
          "internalType": "address",
          "name": "newOwner",
          "type": "address"
        }
      ],
      "name": "OwnershipTransferred",
      "type": "event"
    },
    {
      "inputs": [
        {
          "internalType": "bytes",
          "name": "swapData",
          "type": "bytes"
        }
      ],
      "name": "calculateMsgValue",
      "outputs": [
        {
          "internalType": "uint256",
          "name": "value",
          "type": "uint256"
        }
      ],
      "stateMutability": "pure",
      "type": "function"
    },
    {
      "inputs": [
        {
          "internalType": "bytes[]",
          "name": "swapDataArray",
          "type": "bytes[]"
        },
        {
          "internalType": "uint256",
          "name": "msgValue",
          "type": "uint256"
        }
      ],
      "name": "checkMsgValue",
      "outputs": [],
      "stateMutability": "pure",
      "type": "function"
    },
    {
      "inputs": [
        {
          "internalType": "bytes",
          "name": "paramData",
          "type": "bytes"
        }
      ],
      "name": "decodeFromExchange",
      "outputs": [
        {
          "components": [
            {
              "internalType": "bytes",
              "name": "path",
              "type": "bytes"
            },
            {
              "internalType": "address",
              "name": "tokenIn",
              "type": "address"
            },
            {
              "internalType": "address",
              "name": "tokenOut",
              "type": "address"
            },
            {
              "internalType": "uint256",
              "name": "amountIn",
              "type": "uint256"
            },
            {
              "internalType": "uint256",
              "name": "amountOutMinimum",
              "type": "uint256"
            },
            {
              "internalType": "bool",
              "name": "isETH",
              "type": "bool"
            },
            {
              "internalType": "bool",
              "name": "swap",
              "type": "bool"
            }
          ],
          "internalType": "struct Exchanger.ExchangeData",
          "name": "data",
          "type": "tuple"
        }
      ],
      "stateMutability": "pure",
      "type": "function"
    },
    {
      "inputs": [
        {
          "components": [
            {
              "internalType": "bytes",
              "name": "path",
              "type": "bytes"
            },
            {
              "internalType": "address",
              "name": "tokenIn",
              "type": "address"
            },
            {
              "internalType": "address",
              "name": "tokenOut",
              "type": "address"
            },
            {
              "internalType": "uint256",
              "name": "amountIn",
              "type": "uint256"
            },
            {
              "internalType": "uint256",
              "name": "amountOutMinimum",
              "type": "uint256"
            },
            {
              "internalType": "bool",
              "name": "isETH",
              "type": "bool"
            },
            {
              "internalType": "bool",
              "name": "swap",
              "type": "bool"
            }
          ],
          "internalType": "struct Exchanger.ExchangeData",
          "name": "data",
          "type": "tuple"
        }
      ],
      "name": "encodeFromExchange",
      "outputs": [
        {
          "internalType": "bytes",
          "name": "paramData",
          "type": "bytes"
        }
      ],
      "stateMutability": "pure",
      "type": "function"
    },
    {
      "inputs": [],
      "name": "owner",
      "outputs": [
        {
          "internalType": "address",
          "name": "",
          "type": "address"
        }
      ],
      "stateMutability": "view",
      "type": "function"
    },
    {
      "inputs": [],
      "name": "renounceOwnership",
      "outputs": [],
      "stateMutability": "nonpayable",
      "type": "function"
    },
    {
      "inputs": [],
      "name": "roleManager",
      "outputs": [
        {
          "internalType": "contract RoleManager",
          "name": "",
          "type": "address"
        }
      ],
      "stateMutability": "view",
      "type": "function"
    },
    {
      "inputs": [
        {
          "internalType": "bytes",
          "name": "data",
          "type": "bytes"
        },
        {
          "internalType": "address",
          "name": "from",
          "type": "address"
        },
        {
          "internalType": "address",
          "name": "to",
          "type": "address"
        }
      ],
      "name": "swap",
      "outputs": [],
      "stateMutability": "payable",
      "type": "function"
    },
    {
      "inputs": [],
      "name": "swapRouter",
      "outputs": [
        {
          "internalType": "contract ISwapRouter",
          "name": "",
          "type": "address"
        }
      ],
      "stateMutability": "view",
      "type": "function"
    },
    {
      "inputs": [
        {
          "internalType": "address",
          "name": "newOwner",
          "type": "address"
        }
      ],
      "name": "transferOwnership",
      "outputs": [],
      "stateMutability": "nonpayable",
      "type": "function"
    }
  ],
  "transactionHash": "0x169f16d993fe55128b60ed00c8938d2aaee6aba5a1a962400a8c9ae4c9050d6b",
  "args": [
    "0xE592427A0AEce92De3Edee1F18E0157C05861564",
    "0x42E71587D3A7D2db4995CB57b82CD163E8645911"
  ],
  "numDeployments": 2,
  "solcInputHash": "6222368be85479f7f19423960adc9d20",
  "bytecode": "0x60806040523480156200001157600080fd5b50604051620021e8380380620021e8833981810160405281019062000037919062000217565b620000576200004b620000e160201b60201c565b620000e960201b60201c565b81600160006101000a81548173ffffffffffffffffffffffffffffffffffffffff021916908373ffffffffffffffffffffffffffffffffffffffff16021790555080600260006101000a81548173ffffffffffffffffffffffffffffffffffffffff021916908373ffffffffffffffffffffffffffffffffffffffff16021790555050506200025e565b600033905090565b60008060009054906101000a900473ffffffffffffffffffffffffffffffffffffffff169050816000806101000a81548173ffffffffffffffffffffffffffffffffffffffff021916908373ffffffffffffffffffffffffffffffffffffffff1602179055508173ffffffffffffffffffffffffffffffffffffffff168173ffffffffffffffffffffffffffffffffffffffff167f8be0079c531659141344cd1fd0a4f28419497f9722a3daafe3b4186f6b6457e060405160405180910390a35050565b600080fd5b600073ffffffffffffffffffffffffffffffffffffffff82169050919050565b6000620001df82620001b2565b9050919050565b620001f181620001d2565b8114620001fd57600080fd5b50565b6000815190506200021181620001e6565b92915050565b60008060408385031215620002315762000230620001ad565b5b6000620002418582860162000200565b9250506020620002548582860162000200565b9150509250929050565b611f7a806200026e6000396000f3fe6080604052600436106100905760003560e01c8063bcc4bffd11610059578063bcc4bffd14610147578063be3e58b614610184578063c31c9c07146101c1578063cafba07e146101ec578063f2fde38b1461022957610090565b8062435da514610095578063715018a6146100c057806378a820a7146100d75780638a4c2a0e146100f35780638da5cb5b1461011c575b600080fd5b3480156100a157600080fd5b506100aa610252565b6040516100b79190610f06565b60405180910390f35b3480156100cc57600080fd5b506100d5610278565b005b6100f160048036038101906100ec91906110b9565b61028c565b005b3480156100ff57600080fd5b5061011a60048036038101906101159190611244565b610813565b005b34801561012857600080fd5b506101316108d1565b60405161013e91906112af565b60405180910390f35b34801561015357600080fd5b5061016e600480360381019061016991906112ca565b6108fa565b60405161017b9190611322565b60405180910390f35b34801561019057600080fd5b506101ab60048036038101906101a6919061144f565b61092d565b6040516101b89190611520565b60405180910390f35b3480156101cd57600080fd5b506101d6610956565b6040516101e39190611563565b60405180910390f35b3480156101f857600080fd5b50610213600480360381019061020e91906112ca565b61097c565b6040516102209190611691565b60405180910390f35b34801561023557600080fd5b50610250600480360381019061024b91906116b3565b61099f565b005b600260009054906101000a900473ffffffffffffffffffffffffffffffffffffffff1681565b610280610a23565b61028a6000610aa1565b565b600260009054906101000a900473ffffffffffffffffffffffffffffffffffffffff1673ffffffffffffffffffffffffffffffffffffffff166391d14854600260009054906101000a900473ffffffffffffffffffffffffffffffffffffffff1673ffffffffffffffffffffffffffffffffffffffff1663f0a56fc86040518163ffffffff1660e01b815260040160206040518083038186803b15801561033257600080fd5b505afa158015610346573d6000803e3d6000fd5b505050506040513d601f19601f8201168201806040525081019061036a9190611716565b336040518363ffffffff1660e01b8152600401610388929190611752565b60206040518083038186803b1580156103a057600080fd5b505afa1580156103b4573d6000803e3d6000fd5b505050506040513d601f19601f820116820180604052508101906103d89190611790565b610417576040517f08c379a000000000000000000000000000000000000000000000000000000000815260040161040e9061181a565b60405180910390fd5b60006104228461097c565b90508060c00151156107745760008160a00151156104465781606001519050610490565b61045a826020015185308560600151610b65565b61048f8260200151600160009054906101000a900473ffffffffffffffffffffffffffffffffffffffff168460600151610cbd565b5b60006040518060a00160405280846000015181526020013073ffffffffffffffffffffffffffffffffffffffff16815260200142815260200184606001518152602001846080015181525090506000600160009054906101000a900473ffffffffffffffffffffffffffffffffffffffff1673ffffffffffffffffffffffffffffffffffffffff1663c04b8d5984846040518363ffffffff1660e01b815260040161053b91906118b0565b6020604051808303818588803b15801561055457600080fd5b505af1158015610568573d6000803e3d6000fd5b50505050506040513d601f19601f8201168201806040525081019061058d91906118e7565b9050836040015173ffffffffffffffffffffffffffffffffffffffff1663a9059cbb8686608001516040518363ffffffff1660e01b81526004016105d2929190611914565b602060405180830381600087803b1580156105ec57600080fd5b505af1158015610600573d6000803e3d6000fd5b505050506040513d601f19601f820116820180604052508101906106249190611790565b50836080015181101561066c576040517f08c379a000000000000000000000000000000000000000000000000000000000815260040161066390611989565b60405180910390fd5b836040015173ffffffffffffffffffffffffffffffffffffffff1663a9059cbb8786608001518461069d91906119d8565b6040518363ffffffff1660e01b81526004016106ba929190611914565b602060405180830381600087803b1580156106d457600080fd5b505af11580156106e8573d6000803e3d6000fd5b505050506040513d601f19601f8201168201806040525081019061070c9190611790565b508360a00151801561071f575060004714155b1561076c578473ffffffffffffffffffffffffffffffffffffffff166108fc479081150290604051600060405180830381858888f1935050505015801561076a573d6000803e3d6000fd5b505b50505061080d565b806020015173ffffffffffffffffffffffffffffffffffffffff166323b872dd848484606001516040518463ffffffff1660e01b81526004016107b993929190611a0c565b602060405180830381600087803b1580156107d357600080fd5b505af11580156107e7573d6000803e3d6000fd5b505050506040513d601f19601f8201168201806040525081019061080b9190611790565b505b50505050565b600080600090505b835181101561088957600061084985838151811061083c5761083b611a43565b5b602002602001015161097c565b90508060a00151801561085d57508060c001515b15610875578060600151836108729190611a72565b92505b50808061088190611ac8565b91505061081b565b508082146108cc576040517f08c379a00000000000000000000000000000000000000000000000000000000081526004016108c390611b5d565b60405180910390fd5b505050565b60008060009054906101000a900473ffffffffffffffffffffffffffffffffffffffff16905090565b6000806109068361097c565b90508060a00151801561091a57508060c001515b1561092757806060015191505b50919050565b6060816040516020016109409190611691565b6040516020818303038152906040529050919050565b600160009054906101000a900473ffffffffffffffffffffffffffffffffffffffff1681565b610984610e1a565b818060200190518101906109989190611cd2565b9050919050565b6109a7610a23565b600073ffffffffffffffffffffffffffffffffffffffff168173ffffffffffffffffffffffffffffffffffffffff161415610a17576040517f08c379a0000000000000000000000000000000000000000000000000000000008152600401610a0e90611d8d565b60405180910390fd5b610a2081610aa1565b50565b610a2b610e12565b73ffffffffffffffffffffffffffffffffffffffff16610a496108d1565b73ffffffffffffffffffffffffffffffffffffffff1614610a9f576040517f08c379a0000000000000000000000000000000000000000000000000000000008152600401610a9690611df9565b60405180910390fd5b565b60008060009054906101000a900473ffffffffffffffffffffffffffffffffffffffff169050816000806101000a81548173ffffffffffffffffffffffffffffffffffffffff021916908373ffffffffffffffffffffffffffffffffffffffff1602179055508173ffffffffffffffffffffffffffffffffffffffff168173ffffffffffffffffffffffffffffffffffffffff167f8be0079c531659141344cd1fd0a4f28419497f9722a3daafe3b4186f6b6457e060405160405180910390a35050565b6000808573ffffffffffffffffffffffffffffffffffffffff166323b872dd60e01b868686604051602401610b9c93929190611a0c565b604051602081830303815290604052907bffffffffffffffffffffffffffffffffffffffffffffffffffffffff19166020820180517bffffffffffffffffffffffffffffffffffffffffffffffffffffffff8381831617835250505050604051610c069190611e55565b6000604051808303816000865af19150503d8060008114610c43576040519150601f19603f3d011682016040523d82523d6000602084013e610c48565b606091505b5091509150818015610c765750600081511480610c75575080806020019051810190610c749190611790565b5b5b610cb5576040517f08c379a0000000000000000000000000000000000000000000000000000000008152600401610cac90611eb8565b60405180910390fd5b505050505050565b6000808473ffffffffffffffffffffffffffffffffffffffff1663095ea7b360e01b8585604051602401610cf2929190611914565b604051602081830303815290604052907bffffffffffffffffffffffffffffffffffffffffffffffffffffffff19166020820180517bffffffffffffffffffffffffffffffffffffffffffffffffffffffff8381831617835250505050604051610d5c9190611e55565b6000604051808303816000865af19150503d8060008114610d99576040519150601f19603f3d011682016040523d82523d6000602084013e610d9e565b606091505b5091509150818015610dcc5750600081511480610dcb575080806020019051810190610dca9190611790565b5b5b610e0b576040517f08c379a0000000000000000000000000000000000000000000000000000000008152600401610e0290611f24565b60405180910390fd5b5050505050565b600033905090565b6040518060e0016040528060608152602001600073ffffffffffffffffffffffffffffffffffffffff168152602001600073ffffffffffffffffffffffffffffffffffffffff16815260200160008152602001600081526020016000151581526020016000151581525090565b600073ffffffffffffffffffffffffffffffffffffffff82169050919050565b6000819050919050565b6000610ecc610ec7610ec284610e87565b610ea7565b610e87565b9050919050565b6000610ede82610eb1565b9050919050565b6000610ef082610ed3565b9050919050565b610f0081610ee5565b82525050565b6000602082019050610f1b6000830184610ef7565b92915050565b6000604051905090565b600080fd5b600080fd5b600080fd5b600080fd5b6000601f19601f8301169050919050565b7f4e487b7100000000000000000000000000000000000000000000000000000000600052604160045260246000fd5b610f8882610f3f565b810181811067ffffffffffffffff82111715610fa757610fa6610f50565b5b80604052505050565b6000610fba610f21565b9050610fc68282610f7f565b919050565b600067ffffffffffffffff821115610fe657610fe5610f50565b5b610fef82610f3f565b9050602081019050919050565b82818337600083830152505050565b600061101e61101984610fcb565b610fb0565b90508281526020810184848401111561103a57611039610f3a565b5b611045848285610ffc565b509392505050565b600082601f83011261106257611061610f35565b5b813561107284826020860161100b565b91505092915050565b600061108682610e87565b9050919050565b6110968161107b565b81146110a157600080fd5b50565b6000813590506110b38161108d565b92915050565b6000806000606084860312156110d2576110d1610f2b565b5b600084013567ffffffffffffffff8111156110f0576110ef610f30565b5b6110fc8682870161104d565b935050602061110d868287016110a4565b925050604061111e868287016110a4565b9150509250925092565b600067ffffffffffffffff82111561114357611142610f50565b5b602082029050602081019050919050565b600080fd5b600061116c61116784611128565b610fb0565b9050808382526020820190506020840283018581111561118f5761118e611154565b5b835b818110156111d657803567ffffffffffffffff8111156111b4576111b3610f35565b5b8086016111c1898261104d565b85526020850194505050602081019050611191565b5050509392505050565b600082601f8301126111f5576111f4610f35565b5b8135611205848260208601611159565b91505092915050565b6000819050919050565b6112218161120e565b811461122c57600080fd5b50565b60008135905061123e81611218565b92915050565b6000806040838503121561125b5761125a610f2b565b5b600083013567ffffffffffffffff81111561127957611278610f30565b5b611285858286016111e0565b92505060206112968582860161122f565b9150509250929050565b6112a98161107b565b82525050565b60006020820190506112c460008301846112a0565b92915050565b6000602082840312156112e0576112df610f2b565b5b600082013567ffffffffffffffff8111156112fe576112fd610f30565b5b61130a8482850161104d565b91505092915050565b61131c8161120e565b82525050565b60006020820190506113376000830184611313565b92915050565b600080fd5b600080fd5b60008115159050919050565b61135c81611347565b811461136757600080fd5b50565b60008135905061137981611353565b92915050565b600060e082840312156113955761139461133d565b5b61139f60e0610fb0565b9050600082013567ffffffffffffffff8111156113bf576113be611342565b5b6113cb8482850161104d565b60008301525060206113df848285016110a4565b60208301525060406113f3848285016110a4565b60408301525060606114078482850161122f565b606083015250608061141b8482850161122f565b60808301525060a061142f8482850161136a565b60a08301525060c06114438482850161136a565b60c08301525092915050565b60006020828403121561146557611464610f2b565b5b600082013567ffffffffffffffff81111561148357611482610f30565b5b61148f8482850161137f565b91505092915050565b600081519050919050565b600082825260208201905092915050565b60005b838110156114d25780820151818401526020810190506114b7565b838111156114e1576000848401525b50505050565b60006114f282611498565b6114fc81856114a3565b935061150c8185602086016114b4565b61151581610f3f565b840191505092915050565b6000602082019050818103600083015261153a81846114e7565b905092915050565b600061154d82610ed3565b9050919050565b61155d81611542565b82525050565b60006020820190506115786000830184611554565b92915050565b600082825260208201905092915050565b600061159a82611498565b6115a4818561157e565b93506115b48185602086016114b4565b6115bd81610f3f565b840191505092915050565b6115d18161107b565b82525050565b6115e08161120e565b82525050565b6115ef81611347565b82525050565b600060e0830160008301518482036000860152611612828261158f565b915050602083015161162760208601826115c8565b50604083015161163a60408601826115c8565b50606083015161164d60608601826115d7565b50608083015161166060808601826115d7565b5060a083015161167360a08601826115e6565b5060c083015161168660c08601826115e6565b508091505092915050565b600060208201905081810360008301526116ab81846115f5565b905092915050565b6000602082840312156116c9576116c8610f2b565b5b60006116d7848285016110a4565b91505092915050565b6000819050919050565b6116f3816116e0565b81146116fe57600080fd5b50565b600081519050611710816116ea565b92915050565b60006020828403121561172c5761172b610f2b565b5b600061173a84828501611701565b91505092915050565b61174c816116e0565b82525050565b60006040820190506117676000830185611743565b61177460208301846112a0565b9392505050565b60008151905061178a81611353565b92915050565b6000602082840312156117a6576117a5610f2b565b5b60006117b48482850161177b565b91505092915050565b600082825260208201905092915050565b7f6d73672e73656e646572206e6f742068617665205452414445525f524f4c4500600082015250565b6000611804601f836117bd565b915061180f826117ce565b602082019050919050565b60006020820190508181036000830152611833816117f7565b9050919050565b600060a0830160008301518482036000860152611857828261158f565b915050602083015161186c60208601826115c8565b50604083015161187f60408601826115d7565b50606083015161189260608601826115d7565b5060808301516118a560808601826115d7565b508091505092915050565b600060208201905081810360008301526118ca818461183a565b905092915050565b6000815190506118e181611218565b92915050565b6000602082840312156118fd576118fc610f2b565b5b600061190b848285016118d2565b91505092915050565b600060408201905061192960008301856112a0565b6119366020830184611313565b9392505050565b7f696e76616c696420737761700000000000000000000000000000000000000000600082015250565b6000611973600c836117bd565b915061197e8261193d565b602082019050919050565b600060208201905081810360008301526119a281611966565b9050919050565b7f4e487b7100000000000000000000000000000000000000000000000000000000600052601160045260246000fd5b60006119e38261120e565b91506119ee8361120e565b925082821015611a0157611a006119a9565b5b828203905092915050565b6000606082019050611a2160008301866112a0565b611a2e60208301856112a0565b611a3b6040830184611313565b949350505050565b7f4e487b7100000000000000000000000000000000000000000000000000000000600052603260045260246000fd5b6000611a7d8261120e565b9150611a888361120e565b9250827fffffffffffffffffffffffffffffffffffffffffffffffffffffffffffffffff03821115611abd57611abc6119a9565b5b828201905092915050565b6000611ad38261120e565b91507fffffffffffffffffffffffffffffffffffffffffffffffffffffffffffffffff821415611b0657611b056119a9565b5b600182019050919050565b7f696e76616c6964206d73672e76616c7565000000000000000000000000000000600082015250565b6000611b476011836117bd565b9150611b5282611b11565b602082019050919050565b60006020820190508181036000830152611b7681611b3a565b9050919050565b6000611b90611b8b84610fcb565b610fb0565b905082815260208101848484011115611bac57611bab610f3a565b5b611bb78482856114b4565b509392505050565b600082601f830112611bd457611bd3610f35565b5b8151611be4848260208601611b7d565b91505092915050565b600081519050611bfc8161108d565b92915050565b600060e08284031215611c1857611c1761133d565b5b611c2260e0610fb0565b9050600082015167ffffffffffffffff811115611c4257611c41611342565b5b611c4e84828501611bbf565b6000830152506020611c6284828501611bed565b6020830152506040611c7684828501611bed565b6040830152506060611c8a848285016118d2565b6060830152506080611c9e848285016118d2565b60808301525060a0611cb28482850161177b565b60a08301525060c0611cc68482850161177b565b60c08301525092915050565b600060208284031215611ce857611ce7610f2b565b5b600082015167ffffffffffffffff811115611d0657611d05610f30565b5b611d1284828501611c02565b91505092915050565b7f4f776e61626c653a206e6577206f776e657220697320746865207a65726f206160008201527f6464726573730000000000000000000000000000000000000000000000000000602082015250565b6000611d776026836117bd565b9150611d8282611d1b565b604082019050919050565b60006020820190508181036000830152611da681611d6a565b9050919050565b7f4f776e61626c653a2063616c6c6572206973206e6f7420746865206f776e6572600082015250565b6000611de36020836117bd565b9150611dee82611dad565b602082019050919050565b60006020820190508181036000830152611e1281611dd6565b9050919050565b600081905092915050565b6000611e2f82611498565b611e398185611e19565b9350611e498185602086016114b4565b80840191505092915050565b6000611e618284611e24565b915081905092915050565b7f5354460000000000000000000000000000000000000000000000000000000000600082015250565b6000611ea26003836117bd565b9150611ead82611e6c565b602082019050919050565b60006020820190508181036000830152611ed181611e95565b9050919050565b7f5341000000000000000000000000000000000000000000000000000000000000600082015250565b6000611f0e6002836117bd565b9150611f1982611ed8565b602082019050919050565b60006020820190508181036000830152611f3d81611f01565b905091905056fea26469706673582212206b0c1c35f31dfa16dca4b4606b891609e9ceb08fde07c2521b78269d6ced363a64736f6c63430008090033",
  "devdoc": {
    "kind": "dev",
    "methods": {
      "owner()": {
        "details": "Returns the address of the current owner."
      },
      "renounceOwnership()": {
        "details": "Leaves the contract without owner. It will not be possible to call `onlyOwner` functions. Can only be called by the current owner. NOTE: Renouncing ownership will leave the contract without an owner, thereby disabling any functionality that is only available to the owner."
      },
      "transferOwnership(address)": {
        "details": "Transfers ownership of the contract to a new account (`newOwner`). Can only be called by the current owner."
      }
    },
    "version": 1
  },
  "userdoc": {
    "kind": "user",
    "methods": {},
    "version": 1
  },
  "storageLayout": {
    "storage": [
      {
        "astId": 396,
        "contract": "contracts/Exchanger.sol:Exchanger",
        "label": "_owner",
        "offset": 0,
        "slot": "0",
        "type": "t_address"
      },
      {
        "astId": 2946,
        "contract": "contracts/Exchanger.sol:Exchanger",
        "label": "swapRouter",
        "offset": 0,
        "slot": "1",
        "type": "t_contract(ISwapRouter)2679"
      },
      {
        "astId": 2949,
        "contract": "contracts/Exchanger.sol:Exchanger",
        "label": "roleManager",
        "offset": 0,
        "slot": "2",
        "type": "t_contract(RoleManager)3432"
      }
    ],
    "types": {
      "t_address": {
        "encoding": "inplace",
        "label": "address",
        "numberOfBytes": "20"
      },
      "t_contract(ISwapRouter)2679": {
        "encoding": "inplace",
        "label": "contract ISwapRouter",
        "numberOfBytes": "20"
      },
      "t_contract(RoleManager)3432": {
        "encoding": "inplace",
        "label": "contract RoleManager",
        "numberOfBytes": "20"
      }
    }
  }
}