{
  "address": "0xD2dD21AaadC39e6AB94E593FA6A6F09B168Ca8Af",
  "abi": [
    {
      "inputs": [
        {
          "internalType": "address",
          "name": "_optionMarket",
          "type": "address"
        },
        {
          "internalType": "address",
          "name": "_optionToken",
          "type": "address"
        }
      ],
      "stateMutability": "nonpayable",
      "type": "constructor"
    },
    {
      "anonymous": false,
      "inputs": [
        {
          "indexed": true,
          "internalType": "uint256",
          "name": "buildID",
          "type": "uint256"
        },
        {
          "indexed": false,
          "internalType": "uint256",
          "name": "strikeId",
          "type": "uint256"
        },
        {
          "indexed": false,
          "internalType": "uint256",
          "name": "positionId",
          "type": "uint256"
        },
        {
          "indexed": false,
          "internalType": "uint256",
          "name": "iterations",
          "type": "uint256"
        },
        {
          "indexed": false,
          "internalType": "enum IOptionMarket.OptionType",
          "name": "optionType",
          "type": "uint8"
        },
        {
          "indexed": false,
          "internalType": "uint256",
          "name": "amount",
          "type": "uint256"
        },
        {
          "indexed": false,
          "internalType": "uint256",
          "name": "setCollateralTo",
          "type": "uint256"
        },
        {
          "indexed": false,
          "internalType": "uint256",
          "name": "minTotalCost",
          "type": "uint256"
        },
        {
          "indexed": false,
          "internalType": "uint256",
          "name": "maxTotalCost",
          "type": "uint256"
        },
        {
          "indexed": false,
          "internalType": "address",
          "name": "referrer",
          "type": "address"
        },
        {
          "indexed": false,
          "internalType": "uint256",
          "name": "tokenID",
          "type": "uint256"
        }
      ],
      "name": "OpenPositionByLyra",
      "type": "event"
    },
    {
      "anonymous": false,
      "inputs": [
        {
          "indexed": true,
          "internalType": "address",
          "name": "previousOwner",
          "type": "address"
        },
        {
          "indexed": true,
          "internalType": "address",
          "name": "newOwner",
          "type": "address"
        }
      ],
      "name": "OwnershipTransferred",
      "type": "event"
    },
    {
      "inputs": [],
      "name": "allApprove",
      "outputs": [],
      "stateMutability": "nonpayable",
      "type": "function"
    },
    {
      "inputs": [
        {
          "internalType": "bytes",
          "name": "parameters",
          "type": "bytes"
        }
      ],
      "name": "calculateAmount",
      "outputs": [
        {
          "internalType": "address",
          "name": "token",
          "type": "address"
        },
        {
          "internalType": "uint256",
          "name": "amount",
          "type": "uint256"
        }
      ],
      "stateMutability": "view",
      "type": "function"
    },
    {
      "inputs": [
        {
          "internalType": "bytes",
          "name": "paramData",
          "type": "bytes"
        }
      ],
      "name": "decodeFromLyra",
      "outputs": [
        {
          "components": [
            {
              "internalType": "uint256",
              "name": "strikeId",
              "type": "uint256"
            },
            {
              "internalType": "uint256",
              "name": "positionId",
              "type": "uint256"
            },
            {
              "internalType": "uint256",
              "name": "iterations",
              "type": "uint256"
            },
            {
              "internalType": "enum IOptionMarket.OptionType",
              "name": "optionType",
              "type": "uint8"
            },
            {
              "internalType": "uint256",
              "name": "amount",
              "type": "uint256"
            },
            {
              "internalType": "uint256",
              "name": "setCollateralTo",
              "type": "uint256"
            },
            {
              "internalType": "uint256",
              "name": "minTotalCost",
              "type": "uint256"
            },
            {
              "internalType": "uint256",
              "name": "maxTotalCost",
              "type": "uint256"
            },
            {
              "internalType": "address",
              "name": "referrer",
              "type": "address"
            }
          ],
          "internalType": "struct IOptionMarket.TradeInputParameters",
          "name": "params",
          "type": "tuple"
        }
      ],
      "stateMutability": "pure",
      "type": "function"
    },
    {
      "inputs": [
        {
          "components": [
            {
              "internalType": "uint256",
              "name": "strikeId",
              "type": "uint256"
            },
            {
              "internalType": "uint256",
              "name": "positionId",
              "type": "uint256"
            },
            {
              "internalType": "uint256",
              "name": "iterations",
              "type": "uint256"
            },
            {
              "internalType": "enum IOptionMarket.OptionType",
              "name": "optionType",
              "type": "uint8"
            },
            {
              "internalType": "uint256",
              "name": "amount",
              "type": "uint256"
            },
            {
              "internalType": "uint256",
              "name": "setCollateralTo",
              "type": "uint256"
            },
            {
              "internalType": "uint256",
              "name": "minTotalCost",
              "type": "uint256"
            },
            {
              "internalType": "uint256",
              "name": "maxTotalCost",
              "type": "uint256"
            },
            {
              "internalType": "address",
              "name": "referrer",
              "type": "address"
            }
          ],
          "internalType": "struct IOptionMarket.TradeInputParameters",
          "name": "params",
          "type": "tuple"
        }
      ],
      "name": "encodeFromLyra",
      "outputs": [
        {
          "internalType": "bytes",
          "name": "paramData",
          "type": "bytes"
        }
      ],
      "stateMutability": "pure",
      "type": "function"
    },
    {
      "inputs": [
        {
          "internalType": "address",
          "name": "",
          "type": "address"
        },
        {
          "internalType": "address",
          "name": "",
          "type": "address"
        },
        {
          "internalType": "uint256",
          "name": "",
          "type": "uint256"
        },
        {
          "internalType": "bytes",
          "name": "",
          "type": "bytes"
        }
      ],
      "name": "onERC721Received",
      "outputs": [
        {
          "internalType": "bytes4",
          "name": "",
          "type": "bytes4"
        }
      ],
      "stateMutability": "nonpayable",
      "type": "function"
    },
    {
      "inputs": [],
      "name": "optionMarket",
      "outputs": [
        {
          "internalType": "address",
          "name": "",
          "type": "address"
        }
      ],
      "stateMutability": "view",
      "type": "function"
    },
    {
      "inputs": [],
      "name": "optionToken",
      "outputs": [
        {
          "internalType": "address",
          "name": "",
          "type": "address"
        }
      ],
      "stateMutability": "view",
      "type": "function"
    },
    {
      "inputs": [],
      "name": "owner",
      "outputs": [
        {
          "internalType": "address",
          "name": "",
          "type": "address"
        }
      ],
      "stateMutability": "view",
      "type": "function"
    },
    {
      "inputs": [
        {
          "internalType": "bytes",
          "name": "parametersArray",
          "type": "bytes"
        },
        {
          "internalType": "uint256",
          "name": "buildID",
          "type": "uint256"
        },
        {
          "internalType": "address",
          "name": "user",
          "type": "address"
        }
      ],
      "name": "processTx",
      "outputs": [],
      "stateMutability": "nonpayable",
      "type": "function"
    },
    {
      "inputs": [],
      "name": "renounceOwnership",
      "outputs": [],
      "stateMutability": "nonpayable",
      "type": "function"
    },
    {
      "inputs": [
        {
          "internalType": "address",
          "name": "newOwner",
          "type": "address"
        }
      ],
      "name": "transferOwnership",
      "outputs": [],
      "stateMutability": "nonpayable",
      "type": "function"
    }
  ],
  "transactionHash": "0x4ca67d5a29b908b6c14c9fd10d1f1c74fe2bbd4e4b6bed399d96b3c3c723fb48",
  "args": [
    "0xe044919cf58dFb066FC9DE7c69C7db19f336B20c",
    "0x0e97498F3d91756Ec7F2d244aC97F6Ea9f4eBbC3"
  ],
  "numDeployments": 2,
  "solcInputHash": "3b1f4b53a53352e5b6a41dcbc590953f",
  "bytecode": "0x60806040523480156200001157600080fd5b50604051620026e3380380620026e3833981810160405281019062000037919062000217565b620000576200004b620000e160201b60201c565b620000e960201b60201c565b81600160006101000a81548173ffffffffffffffffffffffffffffffffffffffff021916908373ffffffffffffffffffffffffffffffffffffffff16021790555080600260006101000a81548173ffffffffffffffffffffffffffffffffffffffff021916908373ffffffffffffffffffffffffffffffffffffffff16021790555050506200025e565b600033905090565b60008060009054906101000a900473ffffffffffffffffffffffffffffffffffffffff169050816000806101000a81548173ffffffffffffffffffffffffffffffffffffffff021916908373ffffffffffffffffffffffffffffffffffffffff1602179055508173ffffffffffffffffffffffffffffffffffffffff168173ffffffffffffffffffffffffffffffffffffffff167f8be0079c531659141344cd1fd0a4f28419497f9722a3daafe3b4186f6b6457e060405160405180910390a35050565b600080fd5b600073ffffffffffffffffffffffffffffffffffffffff82169050919050565b6000620001df82620001b2565b9050919050565b620001f181620001d2565b8114620001fd57600080fd5b50565b6000815190506200021181620001e6565b92915050565b60008060408385031215620002315762000230620001ad565b5b6000620002418582860162000200565b9250506020620002548582860162000200565b9150509250929050565b612475806200026e6000396000f3fe608060405234801561001057600080fd5b50600436106100a95760003560e01c80637531a64e116100715780637531a64e1461015257806389f94c29146101835780638da5cb5b146101b3578063ad4bb908146101d1578063bb4a9f88146101db578063f2fde38b146101f9576100a9565b8063150b7a02146100ae5780632bab754b146100de5780632f63d892146100fc5780633819137a1461012c578063715018a614610148575b600080fd5b6100c860048036038101906100c39190611650565b610215565b6040516100d59190611713565b60405180910390f35b6100e6610243565b6040516100f3919061173d565b60405180910390f35b610116600480360381019061011191906118ee565b610269565b60405161012391906119a4565b60405180910390f35b61014660048036038101906101419190611a7b565b610292565b005b6101506102a2565b005b61016c60048036038101906101679190611aea565b6102b6565b60405161017a929190611b42565b60405180910390f35b61019d60048036038101906101989190611aea565b61099e565b6040516101aa9190611cb7565b60405180910390f35b6101bb6109c1565b6040516101c8919061173d565b60405180910390f35b6101d96109ea565b005b6101e3610cca565b6040516101f0919061173d565b60405180910390f35b610213600480360381019061020e9190611cd3565b610cf0565b005b60007f150b7a023d4804d13e8c85fb27262cb750cf6ba9f9dd3bb30d90f482ceeb4b1f905095945050505050565b600260009054906101000a900473ffffffffffffffffffffffffffffffffffffffff1681565b60608160405160200161027c9190611cb7565b6040516020818303038152906040529050919050565b61029d838383610d74565b505050565b6102aa611385565b6102b46000611403565b565b60008060006102c48461099e565b9050600060048111156102da576102d9611b7a565b5b816060015160048111156102f1576102f0611b7a565b5b148061032557506001600481111561030c5761030b611b7a565b5b8160600151600481111561032357610322611b7a565b5b145b1561051e57600160009054906101000a900473ffffffffffffffffffffffffffffffffffffffff1673ffffffffffffffffffffffffffffffffffffffff1663fdf262b76040518163ffffffff1660e01b815260040160206040518083038186803b15801561039257600080fd5b505afa1580156103a6573d6000803e3d6000fd5b505050506040513d601f19601f820116820180604052508101906103ca9190611d3e565b73ffffffffffffffffffffffffffffffffffffffff1663313ce5676040518163ffffffff1660e01b815260040160206040518083038186803b15801561040f57600080fd5b505afa158015610423573d6000803e3d6000fd5b505050506040513d601f19601f820116820180604052508101906104479190611da4565b600a6104539190611f33565b670de0b6b3a76400006104669190611fad565b8160e001516104759190611fad565b9150600160009054906101000a900473ffffffffffffffffffffffffffffffffffffffff1673ffffffffffffffffffffffffffffffffffffffff1663fdf262b76040518163ffffffff1660e01b815260040160206040518083038186803b1580156104df57600080fd5b505afa1580156104f3573d6000803e3d6000fd5b505050506040513d601f19601f820116820180604052508101906105179190611d3e565b9250610998565b6003600481111561053257610531611b7a565b5b8160600151600481111561054957610548611b7a565b5b148061057c575060048081111561056357610562611b7a565b5b8160600151600481111561057a57610579611b7a565b5b145b1561077557600160009054906101000a900473ffffffffffffffffffffffffffffffffffffffff1673ffffffffffffffffffffffffffffffffffffffff1663fdf262b76040518163ffffffff1660e01b815260040160206040518083038186803b1580156105e957600080fd5b505afa1580156105fd573d6000803e3d6000fd5b505050506040513d601f19601f820116820180604052508101906106219190611d3e565b73ffffffffffffffffffffffffffffffffffffffff1663313ce5676040518163ffffffff1660e01b815260040160206040518083038186803b15801561066657600080fd5b505afa15801561067a573d6000803e3d6000fd5b505050506040513d601f19601f8201168201806040525081019061069e9190611da4565b600a6106aa9190611f33565b670de0b6b3a76400006106bd9190611fad565b8160a001516106cc9190611fad565b9150600160009054906101000a900473ffffffffffffffffffffffffffffffffffffffff1673ffffffffffffffffffffffffffffffffffffffff1663fdf262b76040518163ffffffff1660e01b815260040160206040518083038186803b15801561073657600080fd5b505afa15801561074a573d6000803e3d6000fd5b505050506040513d601f19601f8201168201806040525081019061076e9190611d3e565b9250610997565b6002600481111561078957610788611b7a565b5b816060015160048111156107a05761079f611b7a565b5b141561099657600160009054906101000a900473ffffffffffffffffffffffffffffffffffffffff1673ffffffffffffffffffffffffffffffffffffffff1663cdf456e16040518163ffffffff1660e01b815260040160206040518083038186803b15801561080e57600080fd5b505afa158015610822573d6000803e3d6000fd5b505050506040513d601f19601f820116820180604052508101906108469190611d3e565b73ffffffffffffffffffffffffffffffffffffffff1663313ce5676040518163ffffffff1660e01b815260040160206040518083038186803b15801561088b57600080fd5b505afa15801561089f573d6000803e3d6000fd5b505050506040513d601f19601f820116820180604052508101906108c39190611da4565b600a6108cf9190611f33565b670de0b6b3a76400006108e29190611fad565b8160a001516108f19190611fad565b9150600160009054906101000a900473ffffffffffffffffffffffffffffffffffffffff1673ffffffffffffffffffffffffffffffffffffffff1663cdf456e16040518163ffffffff1660e01b815260040160206040518083038186803b15801561095b57600080fd5b505afa15801561096f573d6000803e3d6000fd5b505050506040513d601f19601f820116820180604052508101906109939190611d3e565b92505b5b5b50915091565b6109a66114cf565b818060200190518101906109ba91906120fd565b9050919050565b60008060009054906101000a900473ffffffffffffffffffffffffffffffffffffffff16905090565b600160009054906101000a900473ffffffffffffffffffffffffffffffffffffffff1673ffffffffffffffffffffffffffffffffffffffff1663fdf262b76040518163ffffffff1660e01b815260040160206040518083038186803b158015610a5257600080fd5b505afa158015610a66573d6000803e3d6000fd5b505050506040513d601f19601f82011682018060405250810190610a8a9190611d3e565b73ffffffffffffffffffffffffffffffffffffffff1663095ea7b3600160009054906101000a900473ffffffffffffffffffffffffffffffffffffffff167fffffffffffffffffffffffffffffffffffffffffffffffffffffffffffffffff6040518363ffffffff1660e01b8152600401610b06929190611b42565b602060405180830381600087803b158015610b2057600080fd5b505af1158015610b34573d6000803e3d6000fd5b505050506040513d601f19601f82011682018060405250810190610b589190612163565b50600160009054906101000a900473ffffffffffffffffffffffffffffffffffffffff1673ffffffffffffffffffffffffffffffffffffffff1663cdf456e16040518163ffffffff1660e01b815260040160206040518083038186803b158015610bc157600080fd5b505afa158015610bd5573d6000803e3d6000fd5b505050506040513d601f19601f82011682018060405250810190610bf99190611d3e565b73ffffffffffffffffffffffffffffffffffffffff1663095ea7b3600160009054906101000a900473ffffffffffffffffffffffffffffffffffffffff167fffffffffffffffffffffffffffffffffffffffffffffffffffffffffffffffff6040518363ffffffff1660e01b8152600401610c75929190611b42565b602060405180830381600087803b158015610c8f57600080fd5b505af1158015610ca3573d6000803e3d6000fd5b505050506040513d601f19601f82011682018060405250810190610cc79190612163565b50565b600160009054906101000a900473ffffffffffffffffffffffffffffffffffffffff1681565b610cf8611385565b600073ffffffffffffffffffffffffffffffffffffffff168173ffffffffffffffffffffffffffffffffffffffff161415610d68576040517f08c379a0000000000000000000000000000000000000000000000000000000008152600401610d5f90612213565b60405180910390fd5b610d7181611403565b50565b6000610d7f8461099e565b90506000610d8c856102b6565b5090506000600260009054906101000a900473ffffffffffffffffffffffffffffffffffffffff1673ffffffffffffffffffffffffffffffffffffffff166361b8ce8c6040518163ffffffff1660e01b815260040160206040518083038186803b158015610df957600080fd5b505afa158015610e0d573d6000803e3d6000fd5b505050506040513d601f19601f82011682018060405250810190610e319190612233565b9050600160009054906101000a900473ffffffffffffffffffffffffffffffffffffffff1673ffffffffffffffffffffffffffffffffffffffff1663d6c0bb44846040518263ffffffff1660e01b8152600401610e8e9190611cb7565b606060405180830381600087803b158015610ea857600080fd5b505af1158015610ebc573d6000803e3d6000fd5b505050506040513d601f19601f82011682018060405250810190610ee091906122c4565b508173ffffffffffffffffffffffffffffffffffffffff1663a9059cbb858473ffffffffffffffffffffffffffffffffffffffff166370a08231306040518263ffffffff1660e01b8152600401610f37919061173d565b60206040518083038186803b158015610f4f57600080fd5b505afa158015610f63573d6000803e3d6000fd5b505050506040513d601f19601f82011682018060405250810190610f879190612233565b6040518363ffffffff1660e01b8152600401610fa4929190611b42565b602060405180830381600087803b158015610fbe57600080fd5b505af1158015610fd2573d6000803e3d6000fd5b505050506040513d601f19601f82011682018060405250810190610ff69190612163565b50600260009054906101000a900473ffffffffffffffffffffffffffffffffffffffff1673ffffffffffffffffffffffffffffffffffffffff166323b872dd3086846040518463ffffffff1660e01b8152600401611056939291906122f1565b600060405180830381600087803b15801561107057600080fd5b505af1158015611084573d6000803e3d6000fd5b505050506002600481111561109c5761109b611b7a565b5b836060015160048111156110b3576110b2611b7a565b5b141561130e57600160009054906101000a900473ffffffffffffffffffffffffffffffffffffffff1673ffffffffffffffffffffffffffffffffffffffff1663fdf262b76040518163ffffffff1660e01b815260040160206040518083038186803b15801561112157600080fd5b505afa158015611135573d6000803e3d6000fd5b505050506040513d601f19601f820116820180604052508101906111599190611d3e565b73ffffffffffffffffffffffffffffffffffffffff1663a9059cbb85600160009054906101000a900473ffffffffffffffffffffffffffffffffffffffff1673ffffffffffffffffffffffffffffffffffffffff1663fdf262b76040518163ffffffff1660e01b815260040160206040518083038186803b1580156111dd57600080fd5b505afa1580156111f1573d6000803e3d6000fd5b505050506040513d601f19601f820116820180604052508101906112159190611d3e565b73ffffffffffffffffffffffffffffffffffffffff166370a08231306040518263ffffffff1660e01b815260040161124d919061173d565b60206040518083038186803b15801561126557600080fd5b505afa158015611279573d6000803e3d6000fd5b505050506040513d601f19601f8201168201806040525081019061129d9190612233565b6040518363ffffffff1660e01b81526004016112ba929190611b42565b602060405180830381600087803b1580156112d457600080fd5b505af11580156112e8573d6000803e3d6000fd5b505050506040513d601f19601f8201168201806040525081019061130c9190612163565b505b847f8650344f378c8df5446864351ca3e88677936be22fcf7b4d2254da11ce46875a846000015185602001518660400151876060015188608001518960a001518a60c001518b60e001518c61010001518b6040516113759a99989796959493929190612337565b60405180910390a2505050505050565b61138d6114c7565b73ffffffffffffffffffffffffffffffffffffffff166113ab6109c1565b73ffffffffffffffffffffffffffffffffffffffff1614611401576040517f08c379a00000000000000000000000000000000000000000000000000000000081526004016113f89061241f565b60405180910390fd5b565b60008060009054906101000a900473ffffffffffffffffffffffffffffffffffffffff169050816000806101000a81548173ffffffffffffffffffffffffffffffffffffffff021916908373ffffffffffffffffffffffffffffffffffffffff1602179055508173ffffffffffffffffffffffffffffffffffffffff168173ffffffffffffffffffffffffffffffffffffffff167f8be0079c531659141344cd1fd0a4f28419497f9722a3daafe3b4186f6b6457e060405160405180910390a35050565b600033905090565b6040518061012001604052806000815260200160008152602001600081526020016000600481111561150457611503611b7a565b5b815260200160008152602001600081526020016000815260200160008152602001600073ffffffffffffffffffffffffffffffffffffffff1681525090565b6000604051905090565b600080fd5b600080fd5b600073ffffffffffffffffffffffffffffffffffffffff82169050919050565b600061158282611557565b9050919050565b61159281611577565b811461159d57600080fd5b50565b6000813590506115af81611589565b92915050565b6000819050919050565b6115c8816115b5565b81146115d357600080fd5b50565b6000813590506115e5816115bf565b92915050565b600080fd5b600080fd5b600080fd5b60008083601f8401126116105761160f6115eb565b5b8235905067ffffffffffffffff81111561162d5761162c6115f0565b5b602083019150836001820283011115611649576116486115f5565b5b9250929050565b60008060008060006080868803121561166c5761166b61154d565b5b600061167a888289016115a0565b955050602061168b888289016115a0565b945050604061169c888289016115d6565b935050606086013567ffffffffffffffff8111156116bd576116bc611552565b5b6116c9888289016115fa565b92509250509295509295909350565b60007fffffffff0000000000000000000000000000000000000000000000000000000082169050919050565b61170d816116d8565b82525050565b60006020820190506117286000830184611704565b92915050565b61173781611577565b82525050565b6000602082019050611752600083018461172e565b92915050565b600080fd5b6000601f19601f8301169050919050565b7f4e487b7100000000000000000000000000000000000000000000000000000000600052604160045260246000fd5b6117a68261175d565b810181811067ffffffffffffffff821117156117c5576117c461176e565b5b80604052505050565b60006117d8611543565b90506117e4828261179d565b919050565b600581106117f657600080fd5b50565b600081359050611808816117e9565b92915050565b6000610120828403121561182557611824611758565b5b6118306101206117ce565b90506000611840848285016115d6565b6000830152506020611854848285016115d6565b6020830152506040611868848285016115d6565b604083015250606061187c848285016117f9565b6060830152506080611890848285016115d6565b60808301525060a06118a4848285016115d6565b60a08301525060c06118b8848285016115d6565b60c08301525060e06118cc848285016115d6565b60e0830152506101006118e1848285016115a0565b6101008301525092915050565b600061012082840312156119055761190461154d565b5b60006119138482850161180e565b91505092915050565b600081519050919050565b600082825260208201905092915050565b60005b8381101561195657808201518184015260208101905061193b565b83811115611965576000848401525b50505050565b60006119768261191c565b6119808185611927565b9350611990818560208601611938565b6119998161175d565b840191505092915050565b600060208201905081810360008301526119be818461196b565b905092915050565b600080fd5b600067ffffffffffffffff8211156119e6576119e561176e565b5b6119ef8261175d565b9050602081019050919050565b82818337600083830152505050565b6000611a1e611a19846119cb565b6117ce565b905082815260208101848484011115611a3a57611a396119c6565b5b611a458482856119fc565b509392505050565b600082601f830112611a6257611a616115eb565b5b8135611a72848260208601611a0b565b91505092915050565b600080600060608486031215611a9457611a9361154d565b5b600084013567ffffffffffffffff811115611ab257611ab1611552565b5b611abe86828701611a4d565b9350506020611acf868287016115d6565b9250506040611ae0868287016115a0565b9150509250925092565b600060208284031215611b0057611aff61154d565b5b600082013567ffffffffffffffff811115611b1e57611b1d611552565b5b611b2a84828501611a4d565b91505092915050565b611b3c816115b5565b82525050565b6000604082019050611b57600083018561172e565b611b646020830184611b33565b9392505050565b611b74816115b5565b82525050565b7f4e487b7100000000000000000000000000000000000000000000000000000000600052602160045260246000fd5b60058110611bba57611bb9611b7a565b5b50565b6000819050611bcb82611ba9565b919050565b6000611bdb82611bbd565b9050919050565b611beb81611bd0565b82525050565b611bfa81611577565b82525050565b61012082016000820151611c176000850182611b6b565b506020820151611c2a6020850182611b6b565b506040820151611c3d6040850182611b6b565b506060820151611c506060850182611be2565b506080820151611c636080850182611b6b565b5060a0820151611c7660a0850182611b6b565b5060c0820151611c8960c0850182611b6b565b5060e0820151611c9c60e0850182611b6b565b50610100820151611cb1610100850182611bf1565b50505050565b600061012082019050611ccd6000830184611c00565b92915050565b600060208284031215611ce957611ce861154d565b5b6000611cf7848285016115a0565b91505092915050565b6000611d0b82611577565b9050919050565b611d1b81611d00565b8114611d2657600080fd5b50565b600081519050611d3881611d12565b92915050565b600060208284031215611d5457611d5361154d565b5b6000611d6284828501611d29565b91505092915050565b600060ff82169050919050565b611d8181611d6b565b8114611d8c57600080fd5b50565b600081519050611d9e81611d78565b92915050565b600060208284031215611dba57611db961154d565b5b6000611dc884828501611d8f565b91505092915050565b7f4e487b7100000000000000000000000000000000000000000000000000000000600052601160045260246000fd5b60008160011c9050919050565b6000808291508390505b6001851115611e5757808604811115611e3357611e32611dd1565b5b6001851615611e425780820291505b8081029050611e5085611e00565b9450611e17565b94509492505050565b600082611e705760019050611f2c565b81611e7e5760009050611f2c565b8160018114611e945760028114611e9e57611ecd565b6001915050611f2c565b60ff841115611eb057611eaf611dd1565b5b8360020a915084821115611ec757611ec6611dd1565b5b50611f2c565b5060208310610133831016604e8410600b8410161715611f025782820a905083811115611efd57611efc611dd1565b5b611f2c565b611f0f8484846001611e0d565b92509050818404811115611f2657611f25611dd1565b5b81810290505b9392505050565b6000611f3e826115b5565b9150611f4983611d6b565b9250611f767fffffffffffffffffffffffffffffffffffffffffffffffffffffffffffffffff8484611e60565b905092915050565b7f4e487b7100000000000000000000000000000000000000000000000000000000600052601260045260246000fd5b6000611fb8826115b5565b9150611fc3836115b5565b925082611fd357611fd2611f7e565b5b828204905092915050565b600081519050611fed816115bf565b92915050565b600081519050612002816117e9565b92915050565b60008151905061201781611589565b92915050565b6000610120828403121561203457612033611758565b5b61203f6101206117ce565b9050600061204f84828501611fde565b600083015250602061206384828501611fde565b602083015250604061207784828501611fde565b604083015250606061208b84828501611ff3565b606083015250608061209f84828501611fde565b60808301525060a06120b384828501611fde565b60a08301525060c06120c784828501611fde565b60c08301525060e06120db84828501611fde565b60e0830152506101006120f084828501612008565b6101008301525092915050565b600061012082840312156121145761211361154d565b5b60006121228482850161201d565b91505092915050565b60008115159050919050565b6121408161212b565b811461214b57600080fd5b50565b60008151905061215d81612137565b92915050565b6000602082840312156121795761217861154d565b5b60006121878482850161214e565b91505092915050565b600082825260208201905092915050565b7f4f776e61626c653a206e6577206f776e657220697320746865207a65726f206160008201527f6464726573730000000000000000000000000000000000000000000000000000602082015250565b60006121fd602683612190565b9150612208826121a1565b604082019050919050565b6000602082019050818103600083015261222c816121f0565b9050919050565b6000602082840312156122495761224861154d565b5b600061225784828501611fde565b91505092915050565b60006060828403121561227657612275611758565b5b61228060606117ce565b9050600061229084828501611fde565b60008301525060206122a484828501611fde565b60208301525060406122b884828501611fde565b60408301525092915050565b6000606082840312156122da576122d961154d565b5b60006122e884828501612260565b91505092915050565b6000606082019050612306600083018661172e565b612313602083018561172e565b6123206040830184611b33565b949350505050565b61233181611bd0565b82525050565b60006101408201905061234d600083018d611b33565b61235a602083018c611b33565b612367604083018b611b33565b612374606083018a612328565b6123816080830189611b33565b61238e60a0830188611b33565b61239b60c0830187611b33565b6123a860e0830186611b33565b6123b661010083018561172e565b6123c4610120830184611b33565b9b9a5050505050505050505050565b7f4f776e61626c653a2063616c6c6572206973206e6f7420746865206f776e6572600082015250565b6000612409602083612190565b9150612414826123d3565b602082019050919050565b60006020820190508181036000830152612438816123fc565b905091905056fea2646970667358221220528a0fab91f083a94972ef0a06ff834517557cb315f35b92f1057ee909aee3c764736f6c63430008090033",
  "devdoc": {
    "kind": "dev",
    "methods": {
      "owner()": {
        "details": "Returns the address of the current owner."
      },
      "renounceOwnership()": {
        "details": "Leaves the contract without owner. It will not be possible to call `onlyOwner` functions. Can only be called by the current owner. NOTE: Renouncing ownership will leave the contract without an owner, thereby disabling any functionality that is only available to the owner."
      },
      "transferOwnership(address)": {
        "details": "Transfers ownership of the contract to a new account (`newOwner`). Can only be called by the current owner."
      }
    },
    "version": 1
  },
  "userdoc": {
    "kind": "user",
    "methods": {},
    "version": 1
  },
  "storageLayout": {
    "storage": [
      {
        "astId": 7,
        "contract": "contracts/lyra/TxBuilderOpenLyra.sol:TxBuilderOpenLyra",
        "label": "_owner",
        "offset": 0,
        "slot": "0",
        "type": "t_address"
      },
      {
        "astId": 1103,
        "contract": "contracts/lyra/TxBuilderOpenLyra.sol:TxBuilderOpenLyra",
        "label": "optionMarket",
        "offset": 0,
        "slot": "1",
        "type": "t_address"
      },
      {
        "astId": 1105,
        "contract": "contracts/lyra/TxBuilderOpenLyra.sol:TxBuilderOpenLyra",
        "label": "optionToken",
        "offset": 0,
        "slot": "2",
        "type": "t_address"
      }
    ],
    "types": {
      "t_address": {
        "encoding": "inplace",
        "label": "address",
        "numberOfBytes": "20"
      }
    }
  }
}