{
  "address": "0x519225178c0751973CFE2783367039cf7AC1Ee61",
  "abi": [
    {
      "inputs": [
        {
          "internalType": "address",
          "name": "_operationalTreasury",
          "type": "address"
        },
        {
          "internalType": "address",
          "name": "_hegicErc721",
          "type": "address"
        },
        {
          "internalType": "address",
          "name": "_usdc",
          "type": "address"
        }
      ],
      "stateMutability": "nonpayable",
      "type": "constructor"
    },
    {
      "anonymous": false,
      "inputs": [
        {
          "indexed": true,
          "internalType": "uint256",
          "name": "buildID",
          "type": "uint256"
        },
        {
          "indexed": false,
          "internalType": "uint256",
          "name": "tokenID",
          "type": "uint256"
        },
        {
          "indexed": false,
          "internalType": "address",
          "name": "strategy",
          "type": "address"
        },
        {
          "indexed": false,
          "internalType": "address",
          "name": "holder",
          "type": "address"
        },
        {
          "indexed": false,
          "internalType": "uint256",
          "name": "amount",
          "type": "uint256"
        },
        {
          "indexed": false,
          "internalType": "uint256",
          "name": "period",
          "type": "uint256"
        },
        {
          "indexed": false,
          "internalType": "uint256",
          "name": "premuim",
          "type": "uint256"
        }
      ],
      "name": "OpenPositionByHegic",
      "type": "event"
    },
    {
      "anonymous": false,
      "inputs": [
        {
          "indexed": true,
          "internalType": "address",
          "name": "previousOwner",
          "type": "address"
        },
        {
          "indexed": true,
          "internalType": "address",
          "name": "newOwner",
          "type": "address"
        }
      ],
      "name": "OwnershipTransferred",
      "type": "event"
    },
    {
      "inputs": [],
      "name": "allApprove",
      "outputs": [],
      "stateMutability": "nonpayable",
      "type": "function"
    },
    {
      "inputs": [
        {
          "internalType": "bytes",
          "name": "parameters",
          "type": "bytes"
        }
      ],
      "name": "calculateAmount",
      "outputs": [
        {
          "internalType": "address",
          "name": "token",
          "type": "address"
        },
        {
          "internalType": "uint256",
          "name": "amount",
          "type": "uint256"
        }
      ],
      "stateMutability": "view",
      "type": "function"
    },
    {
      "inputs": [
        {
          "internalType": "bytes",
          "name": "paramData",
          "type": "bytes"
        }
      ],
      "name": "decodeFromHegic",
      "outputs": [
        {
          "internalType": "contract IHegicStrategy",
          "name": "strategy",
          "type": "address"
        },
        {
          "internalType": "address",
          "name": "holder",
          "type": "address"
        },
        {
          "internalType": "uint256",
          "name": "amount",
          "type": "uint256"
        },
        {
          "internalType": "uint256",
          "name": "period",
          "type": "uint256"
        },
        {
          "internalType": "uint256",
          "name": "maxTotalCost",
          "type": "uint256"
        },
        {
          "internalType": "bytes[]",
          "name": "additional",
          "type": "bytes[]"
        }
      ],
      "stateMutability": "pure",
      "type": "function"
    },
    {
      "inputs": [
        {
          "internalType": "contract IHegicStrategy",
          "name": "strategy",
          "type": "address"
        },
        {
          "internalType": "address",
          "name": "holder",
          "type": "address"
        },
        {
          "internalType": "uint256",
          "name": "amount",
          "type": "uint256"
        },
        {
          "internalType": "uint256",
          "name": "period",
          "type": "uint256"
        },
        {
          "internalType": "uint256",
          "name": "maxTotalCost",
          "type": "uint256"
        },
        {
          "internalType": "bytes[]",
          "name": "additional",
          "type": "bytes[]"
        }
      ],
      "name": "encodeFromHegic",
      "outputs": [
        {
          "internalType": "bytes",
          "name": "paramData",
          "type": "bytes"
        }
      ],
      "stateMutability": "pure",
      "type": "function"
    },
    {
      "inputs": [],
      "name": "hegicErc721",
      "outputs": [
        {
          "internalType": "address",
          "name": "",
          "type": "address"
        }
      ],
      "stateMutability": "view",
      "type": "function"
    },
    {
      "inputs": [
        {
          "internalType": "address",
          "name": "",
          "type": "address"
        },
        {
          "internalType": "address",
          "name": "",
          "type": "address"
        },
        {
          "internalType": "uint256",
          "name": "",
          "type": "uint256"
        },
        {
          "internalType": "bytes",
          "name": "",
          "type": "bytes"
        }
      ],
      "name": "onERC721Received",
      "outputs": [
        {
          "internalType": "bytes4",
          "name": "",
          "type": "bytes4"
        }
      ],
      "stateMutability": "nonpayable",
      "type": "function"
    },
    {
      "inputs": [],
      "name": "operationalTreasury",
      "outputs": [
        {
          "internalType": "address",
          "name": "",
          "type": "address"
        }
      ],
      "stateMutability": "view",
      "type": "function"
    },
    {
      "inputs": [],
      "name": "owner",
      "outputs": [
        {
          "internalType": "address",
          "name": "",
          "type": "address"
        }
      ],
      "stateMutability": "view",
      "type": "function"
    },
    {
      "inputs": [
        {
          "internalType": "bytes",
          "name": "parametersArray",
          "type": "bytes"
        },
        {
          "internalType": "uint256",
          "name": "buildID",
          "type": "uint256"
        },
        {
          "internalType": "address",
          "name": "user",
          "type": "address"
        }
      ],
      "name": "processTx",
      "outputs": [],
      "stateMutability": "nonpayable",
      "type": "function"
    },
    {
      "inputs": [],
      "name": "renounceOwnership",
      "outputs": [],
      "stateMutability": "nonpayable",
      "type": "function"
    },
    {
      "inputs": [
        {
          "internalType": "address",
          "name": "newOwner",
          "type": "address"
        }
      ],
      "name": "transferOwnership",
      "outputs": [],
      "stateMutability": "nonpayable",
      "type": "function"
    },
    {
      "inputs": [],
      "name": "usdc",
      "outputs": [
        {
          "internalType": "address",
          "name": "",
          "type": "address"
        }
      ],
      "stateMutability": "view",
      "type": "function"
    }
  ],
  "transactionHash": "0xe038a8d8e186d022ce2c5ed82e12b070bc45c0c702250dffd636bd049e93a1bc",
  "args": [
    "0xec096ea6eB9aa5ea689b0CF00882366E92377371",
    "0x5Fe380D68fEe022d8acd42dc4D36FbfB249a76d5",
    "0xFF970A61A04b1cA14834A43f5dE4533eBDDB5CC8"
  ],
  "numDeployments": 2,
  "solcInputHash": "9020d27c0af171f5c892571046831cff",
  "bytecode": "0x60806040523480156200001157600080fd5b5060405162001ba338038062001ba3833981810160405281019062000037919062000259565b620000576200004b6200012360201b60201c565b6200012b60201b60201c565b82600160006101000a81548173ffffffffffffffffffffffffffffffffffffffff021916908373ffffffffffffffffffffffffffffffffffffffff16021790555081600260006101000a81548173ffffffffffffffffffffffffffffffffffffffff021916908373ffffffffffffffffffffffffffffffffffffffff16021790555080600360006101000a81548173ffffffffffffffffffffffffffffffffffffffff021916908373ffffffffffffffffffffffffffffffffffffffff160217905550505050620002b5565b600033905090565b60008060009054906101000a900473ffffffffffffffffffffffffffffffffffffffff169050816000806101000a81548173ffffffffffffffffffffffffffffffffffffffff021916908373ffffffffffffffffffffffffffffffffffffffff1602179055508173ffffffffffffffffffffffffffffffffffffffff168173ffffffffffffffffffffffffffffffffffffffff167f8be0079c531659141344cd1fd0a4f28419497f9722a3daafe3b4186f6b6457e060405160405180910390a35050565b600080fd5b600073ffffffffffffffffffffffffffffffffffffffff82169050919050565b60006200022182620001f4565b9050919050565b620002338162000214565b81146200023f57600080fd5b50565b600081519050620002538162000228565b92915050565b600080600060608486031215620002755762000274620001ef565b5b6000620002858682870162000242565b9350506020620002988682870162000242565b9250506040620002ab8682870162000242565b9150509250925092565b6118de80620002c56000396000f3fe608060405234801561001057600080fd5b50600436106100b45760003560e01c80637531a64e116100715780637531a64e1461017b5780638da5cb5b146101ac578063ad4bb908146101ca578063d66aafa6146101d4578063f2b60d2a146101f2578063f2fde38b14610227576100b4565b806305395c20146100b9578063150b7a02146100d7578063169dc5d5146101075780633819137a146101375780633e413bee14610153578063715018a614610171575b600080fd5b6100c1610243565b6040516100ce9190610a36565b60405180910390f35b6100f160048036038101906100ec9190610b2c565b610269565b6040516100fe9190610bef565b60405180910390f35b610121600480360381019061011c9190610e6a565b610297565b60405161012e9190610f9b565b60405180910390f35b610151600480360381019061014c9190610fbd565b6102cf565b005b61015b6102df565b6040516101689190610a36565b60405180910390f35b610179610305565b005b6101956004803603810190610190919061102c565b610319565b6040516101a3929190611084565b60405180910390f35b6101b4610463565b6040516101c19190610a36565b60405180910390f35b6101d261048c565b005b6101dc610580565b6040516101e99190610a36565b60405180910390f35b61020c6004803603810190610207919061102c565b6105a6565b60405161021e96959493929190611218565b60405180910390f35b610241600480360381019061023c9190611280565b6105e5565b005b600260009054906101000a900473ffffffffffffffffffffffffffffffffffffffff1681565b60007f150b7a023d4804d13e8c85fb27262cb750cf6ba9f9dd3bb30d90f482ceeb4b1f905095945050505050565b60608686868686866040516020016102b496959493929190611218565b60405160208183030381529060405290509695505050505050565b6102da838383610669565b505050565b600360009054906101000a900473ffffffffffffffffffffffffffffffffffffffff1681565b61030d6108ab565b6103176000610929565b565b600080600360009054906101000a900473ffffffffffffffffffffffffffffffffffffffff1691506000806000806000610352886105a6565b955095509550955050945060008573ffffffffffffffffffffffffffffffffffffffff1663d666b4338686856040518463ffffffff1660e01b815260040161039c939291906112ad565b604080518083038186803b1580156103b357600080fd5b505afa1580156103c7573d6000803e3d6000fd5b505050506040513d601f19601f820116820180604052508101906103eb9190611333565b91505082816fffffffffffffffffffffffffffffffff161115610443576040517f08c379a000000000000000000000000000000000000000000000000000000000815260040161043a906113d0565b60405180910390fd5b806fffffffffffffffffffffffffffffffff169650505050505050915091565b60008060009054906101000a900473ffffffffffffffffffffffffffffffffffffffff16905090565b600360009054906101000a900473ffffffffffffffffffffffffffffffffffffffff1673ffffffffffffffffffffffffffffffffffffffff1663095ea7b3600160009054906101000a900473ffffffffffffffffffffffffffffffffffffffff167fffffffffffffffffffffffffffffffffffffffffffffffffffffffffffffffff6040518363ffffffff1660e01b815260040161052b929190611084565b602060405180830381600087803b15801561054557600080fd5b505af1158015610559573d6000803e3d6000fd5b505050506040513d601f19601f8201168201806040525081019061057d9190611428565b50565b600160009054906101000a900473ffffffffffffffffffffffffffffffffffffffff1681565b60008060008060006060868060200190518101906105c491906115e2565b809650819750829850839950849a50859b5050505050505091939550919395565b6105ed6108ab565b600073ffffffffffffffffffffffffffffffffffffffff168173ffffffffffffffffffffffffffffffffffffffff16141561065d576040517f08c379a0000000000000000000000000000000000000000000000000000000008152600401610654906116fd565b60405180910390fd5b61066681610929565b50565b600080600080600061067a886105a6565b9550509450945094509450600061069089610319565b9150506000600260009054906101000a900473ffffffffffffffffffffffffffffffffffffffff1673ffffffffffffffffffffffffffffffffffffffff166375794a3c6040518163ffffffff1660e01b815260040160206040518083038186803b1580156106fd57600080fd5b505afa158015610711573d6000803e3d6000fd5b505050506040513d601f19601f82011682018060405250810190610735919061171d565b9050600160009054906101000a900473ffffffffffffffffffffffffffffffffffffffff1673ffffffffffffffffffffffffffffffffffffffff16630e5024d788888888886040518663ffffffff1660e01b815260040161079a95949392919061174a565b600060405180830381600087803b1580156107b457600080fd5b505af11580156107c8573d6000803e3d6000fd5b50505050600260009054906101000a900473ffffffffffffffffffffffffffffffffffffffff1673ffffffffffffffffffffffffffffffffffffffff166323b872dd308a846040518463ffffffff1660e01b815260040161082b939291906117a4565b600060405180830381600087803b15801561084557600080fd5b505af1158015610859573d6000803e3d6000fd5b50505050887fb58b8caf38f3a5fb1aa22a6ae38defcd6835d2efaf65952daa55d65c56ac4161828989898988604051610897969594939291906117db565b60405180910390a250505050505050505050565b6108b36109ed565b73ffffffffffffffffffffffffffffffffffffffff166108d1610463565b73ffffffffffffffffffffffffffffffffffffffff1614610927576040517f08c379a000000000000000000000000000000000000000000000000000000000815260040161091e90611888565b60405180910390fd5b565b60008060009054906101000a900473ffffffffffffffffffffffffffffffffffffffff169050816000806101000a81548173ffffffffffffffffffffffffffffffffffffffff021916908373ffffffffffffffffffffffffffffffffffffffff1602179055508173ffffffffffffffffffffffffffffffffffffffff168173ffffffffffffffffffffffffffffffffffffffff167f8be0079c531659141344cd1fd0a4f28419497f9722a3daafe3b4186f6b6457e060405160405180910390a35050565b600033905090565b600073ffffffffffffffffffffffffffffffffffffffff82169050919050565b6000610a20826109f5565b9050919050565b610a3081610a15565b82525050565b6000602082019050610a4b6000830184610a27565b92915050565b6000604051905090565b600080fd5b600080fd5b610a6e81610a15565b8114610a7957600080fd5b50565b600081359050610a8b81610a65565b92915050565b6000819050919050565b610aa481610a91565b8114610aaf57600080fd5b50565b600081359050610ac181610a9b565b92915050565b600080fd5b600080fd5b600080fd5b60008083601f840112610aec57610aeb610ac7565b5b8235905067ffffffffffffffff811115610b0957610b08610acc565b5b602083019150836001820283011115610b2557610b24610ad1565b5b9250929050565b600080600080600060808688031215610b4857610b47610a5b565b5b6000610b5688828901610a7c565b9550506020610b6788828901610a7c565b9450506040610b7888828901610ab2565b935050606086013567ffffffffffffffff811115610b9957610b98610a60565b5b610ba588828901610ad6565b92509250509295509295909350565b60007fffffffff0000000000000000000000000000000000000000000000000000000082169050919050565b610be981610bb4565b82525050565b6000602082019050610c046000830184610be0565b92915050565b6000610c1582610a15565b9050919050565b610c2581610c0a565b8114610c3057600080fd5b50565b600081359050610c4281610c1c565b92915050565b6000601f19601f8301169050919050565b7f4e487b7100000000000000000000000000000000000000000000000000000000600052604160045260246000fd5b610c9182610c48565b810181811067ffffffffffffffff82111715610cb057610caf610c59565b5b80604052505050565b6000610cc3610a51565b9050610ccf8282610c88565b919050565b600067ffffffffffffffff821115610cef57610cee610c59565b5b602082029050602081019050919050565b600080fd5b600067ffffffffffffffff821115610d2057610d1f610c59565b5b610d2982610c48565b9050602081019050919050565b82818337600083830152505050565b6000610d58610d5384610d05565b610cb9565b905082815260208101848484011115610d7457610d73610d00565b5b610d7f848285610d36565b509392505050565b600082601f830112610d9c57610d9b610ac7565b5b8135610dac848260208601610d45565b91505092915050565b6000610dc8610dc384610cd4565b610cb9565b90508083825260208201905060208402830185811115610deb57610dea610ad1565b5b835b81811015610e3257803567ffffffffffffffff811115610e1057610e0f610ac7565b5b808601610e1d8982610d87565b85526020850194505050602081019050610ded565b5050509392505050565b600082601f830112610e5157610e50610ac7565b5b8135610e61848260208601610db5565b91505092915050565b60008060008060008060c08789031215610e8757610e86610a5b565b5b6000610e9589828a01610c33565b9650506020610ea689828a01610a7c565b9550506040610eb789828a01610ab2565b9450506060610ec889828a01610ab2565b9350506080610ed989828a01610ab2565b92505060a087013567ffffffffffffffff811115610efa57610ef9610a60565b5b610f0689828a01610e3c565b9150509295509295509295565b600081519050919050565b600082825260208201905092915050565b60005b83811015610f4d578082015181840152602081019050610f32565b83811115610f5c576000848401525b50505050565b6000610f6d82610f13565b610f778185610f1e565b9350610f87818560208601610f2f565b610f9081610c48565b840191505092915050565b60006020820190508181036000830152610fb58184610f62565b905092915050565b600080600060608486031215610fd657610fd5610a5b565b5b600084013567ffffffffffffffff811115610ff457610ff3610a60565b5b61100086828701610d87565b935050602061101186828701610ab2565b925050604061102286828701610a7c565b9150509250925092565b60006020828403121561104257611041610a5b565b5b600082013567ffffffffffffffff8111156110605761105f610a60565b5b61106c84828501610d87565b91505092915050565b61107e81610a91565b82525050565b60006040820190506110996000830185610a27565b6110a66020830184611075565b9392505050565b6000819050919050565b60006110d26110cd6110c8846109f5565b6110ad565b6109f5565b9050919050565b60006110e4826110b7565b9050919050565b60006110f6826110d9565b9050919050565b611106816110eb565b82525050565b600081519050919050565b600082825260208201905092915050565b6000819050602082019050919050565b600082825260208201905092915050565b600061115482610f13565b61115e8185611138565b935061116e818560208601610f2f565b61117781610c48565b840191505092915050565b600061118e8383611149565b905092915050565b6000602082019050919050565b60006111ae8261110c565b6111b88185611117565b9350836020820285016111ca85611128565b8060005b8581101561120657848403895281516111e78582611182565b94506111f283611196565b925060208a019950506001810190506111ce565b50829750879550505050505092915050565b600060c08201905061122d60008301896110fd565b61123a6020830188610a27565b6112476040830187611075565b6112546060830186611075565b6112616080830185611075565b81810360a083015261127381846111a3565b9050979650505050505050565b60006020828403121561129657611295610a5b565b5b60006112a484828501610a7c565b91505092915050565b60006060820190506112c26000830186611075565b6112cf6020830185611075565b81810360408301526112e181846111a3565b9050949350505050565b60006fffffffffffffffffffffffffffffffff82169050919050565b611310816112eb565b811461131b57600080fd5b50565b60008151905061132d81611307565b92915050565b6000806040838503121561134a57611349610a5b565b5b60006113588582860161131e565b92505060206113698582860161131e565b9150509250929050565b600082825260208201905092915050565b7f6d6178696d756d20746f74616c2076616c756520657863656564656400000000600082015250565b60006113ba601c83611373565b91506113c582611384565b602082019050919050565b600060208201905081810360008301526113e9816113ad565b9050919050565b60008115159050919050565b611405816113f0565b811461141057600080fd5b50565b600081519050611422816113fc565b92915050565b60006020828403121561143e5761143d610a5b565b5b600061144c84828501611413565b91505092915050565b60008151905061146481610c1c565b92915050565b6000611475826109f5565b9050919050565b6114858161146a565b811461149057600080fd5b50565b6000815190506114a28161147c565b92915050565b6000815190506114b781610a9b565b92915050565b60006114d06114cb84610d05565b610cb9565b9050828152602081018484840111156114ec576114eb610d00565b5b6114f7848285610f2f565b509392505050565b600082601f83011261151457611513610ac7565b5b81516115248482602086016114bd565b91505092915050565b600061154061153b84610cd4565b610cb9565b9050808382526020820190506020840283018581111561156357611562610ad1565b5b835b818110156115aa57805167ffffffffffffffff81111561158857611587610ac7565b5b80860161159589826114ff565b85526020850194505050602081019050611565565b5050509392505050565b600082601f8301126115c9576115c8610ac7565b5b81516115d984826020860161152d565b91505092915050565b60008060008060008060c087890312156115ff576115fe610a5b565b5b600061160d89828a01611455565b965050602061161e89828a01611493565b955050604061162f89828a016114a8565b945050606061164089828a016114a8565b935050608061165189828a016114a8565b92505060a087015167ffffffffffffffff81111561167257611671610a60565b5b61167e89828a016115b4565b9150509295509295509295565b7f4f776e61626c653a206e6577206f776e657220697320746865207a65726f206160008201527f6464726573730000000000000000000000000000000000000000000000000000602082015250565b60006116e7602683611373565b91506116f28261168b565b604082019050919050565b60006020820190508181036000830152611716816116da565b9050919050565b60006020828403121561173357611732610a5b565b5b6000611741848285016114a8565b91505092915050565b600060a08201905061175f60008301886110fd565b61176c6020830187610a27565b6117796040830186611075565b6117866060830185611075565b818103608083015261179881846111a3565b90509695505050505050565b60006060820190506117b96000830186610a27565b6117c66020830185610a27565b6117d36040830184611075565b949350505050565b600060c0820190506117f06000830189611075565b6117fd6020830188610a27565b61180a6040830187610a27565b6118176060830186611075565b6118246080830185611075565b61183160a0830184611075565b979650505050505050565b7f4f776e61626c653a2063616c6c6572206973206e6f7420746865206f776e6572600082015250565b6000611872602083611373565b915061187d8261183c565b602082019050919050565b600060208201905081810360008301526118a181611865565b905091905056fea26469706673582212208e81baca818905331d6e79f3eec1cbd624941821e84740e699d9090dfdf86b0564736f6c63430008090033",
  "devdoc": {
    "kind": "dev",
    "methods": {
      "owner()": {
        "details": "Returns the address of the current owner."
      },
      "renounceOwnership()": {
        "details": "Leaves the contract without owner. It will not be possible to call `onlyOwner` functions. Can only be called by the current owner. NOTE: Renouncing ownership will leave the contract without an owner, thereby disabling any functionality that is only available to the owner."
      },
      "transferOwnership(address)": {
        "details": "Transfers ownership of the contract to a new account (`newOwner`). Can only be called by the current owner."
      }
    },
    "version": 1
  },
  "userdoc": {
    "kind": "user",
    "methods": {},
    "version": 1
  },
  "storageLayout": {
    "storage": [
      {
        "astId": 7,
        "contract": "contracts/hegic/TxBuilderOpenHegic.sol:TxBuilderOpenHegic",
        "label": "_owner",
        "offset": 0,
        "slot": "0",
        "type": "t_address"
      },
      {
        "astId": 1241,
        "contract": "contracts/hegic/TxBuilderOpenHegic.sol:TxBuilderOpenHegic",
        "label": "operationalTreasury",
        "offset": 0,
        "slot": "1",
        "type": "t_address"
      },
      {
        "astId": 1243,
        "contract": "contracts/hegic/TxBuilderOpenHegic.sol:TxBuilderOpenHegic",
        "label": "hegicErc721",
        "offset": 0,
        "slot": "2",
        "type": "t_address"
      },
      {
        "astId": 1245,
        "contract": "contracts/hegic/TxBuilderOpenHegic.sol:TxBuilderOpenHegic",
        "label": "usdc",
        "offset": 0,
        "slot": "3",
        "type": "t_address"
      }
    ],
    "types": {
      "t_address": {
        "encoding": "inplace",
        "label": "address",
        "numberOfBytes": "20"
      }
    }
  }
}