{
  "address": "0xDAcdC6dA23D0A7a46973D3Ba7FDb50FF2C5c0Be2",
  "abi": [
    {
      "anonymous": false,
      "inputs": [
        {
          "indexed": true,
          "internalType": "uint256",
          "name": "buildID",
          "type": "uint256"
        },
        {
          "indexed": false,
          "internalType": "address",
          "name": "user",
          "type": "address"
        },
        {
          "components": [
            {
              "components": [
                {
                  "internalType": "contract IHandler",
                  "name": "_handler",
                  "type": "address"
                },
                {
                  "internalType": "contract IUniswapV3Pool",
                  "name": "pool",
                  "type": "address"
                },
                {
                  "internalType": "int24",
                  "name": "tickLower",
                  "type": "int24"
                },
                {
                  "internalType": "int24",
                  "name": "tickUpper",
                  "type": "int24"
                },
                {
                  "internalType": "uint256",
                  "name": "liquidityToUse",
                  "type": "uint256"
                }
              ],
              "internalType": "struct IDopexV2OptionMarket.OptionTicks[]",
              "name": "optionTicks",
              "type": "tuple[]"
            },
            {
              "internalType": "int24",
              "name": "tickLower",
              "type": "int24"
            },
            {
              "internalType": "int24",
              "name": "tickUpper",
              "type": "int24"
            },
            {
              "internalType": "uint256",
              "name": "ttl",
              "type": "uint256"
            },
            {
              "internalType": "bool",
              "name": "isCall",
              "type": "bool"
            },
            {
              "internalType": "uint256",
              "name": "maxCostAllowance",
              "type": "uint256"
            }
          ],
          "indexed": false,
          "internalType": "struct IDopexV2OptionMarket.OptionParams",
          "name": "params",
          "type": "tuple"
        },
        {
          "indexed": false,
          "internalType": "uint256",
          "name": "optionAmount",
          "type": "uint256"
        },
        {
          "indexed": false,
          "internalType": "uint256",
          "name": "premium",
          "type": "uint256"
        }
      ],
      "name": "OpenPositionByDopex",
      "type": "event"
    },
    {
      "anonymous": false,
      "inputs": [
        {
          "indexed": true,
          "internalType": "address",
          "name": "previousOwner",
          "type": "address"
        },
        {
          "indexed": true,
          "internalType": "address",
          "name": "newOwner",
          "type": "address"
        }
      ],
      "name": "OwnershipTransferred",
      "type": "event"
    },
    {
      "inputs": [
        {
          "internalType": "address",
          "name": "token",
          "type": "address"
        },
        {
          "internalType": "address",
          "name": "dopexV2OptionMarket",
          "type": "address"
        },
        {
          "internalType": "uint256",
          "name": "amount",
          "type": "uint256"
        }
      ],
      "name": "allApprove",
      "outputs": [],
      "stateMutability": "nonpayable",
      "type": "function"
    },
    {
      "inputs": [
        {
          "internalType": "bytes",
          "name": "parameters",
          "type": "bytes"
        }
      ],
      "name": "calculateAmount",
      "outputs": [
        {
          "internalType": "address",
          "name": "token",
          "type": "address"
        },
        {
          "internalType": "uint256",
          "name": "amount",
          "type": "uint256"
        }
      ],
      "stateMutability": "view",
      "type": "function"
    },
    {
      "inputs": [
        {
          "internalType": "bytes",
          "name": "paramData",
          "type": "bytes"
        }
      ],
      "name": "decodeFromDopex",
      "outputs": [
        {
          "internalType": "contract IDopexV2OptionMarket",
          "name": "dopexV2OptionMarket",
          "type": "address"
        },
        {
          "internalType": "uint256",
          "name": "optionAmount",
          "type": "uint256"
        },
        {
          "components": [
            {
              "components": [
                {
                  "internalType": "contract IHandler",
                  "name": "_handler",
                  "type": "address"
                },
                {
                  "internalType": "contract IUniswapV3Pool",
                  "name": "pool",
                  "type": "address"
                },
                {
                  "internalType": "int24",
                  "name": "tickLower",
                  "type": "int24"
                },
                {
                  "internalType": "int24",
                  "name": "tickUpper",
                  "type": "int24"
                },
                {
                  "internalType": "uint256",
                  "name": "liquidityToUse",
                  "type": "uint256"
                }
              ],
              "internalType": "struct IDopexV2OptionMarket.OptionTicks[]",
              "name": "optionTicks",
              "type": "tuple[]"
            },
            {
              "internalType": "int24",
              "name": "tickLower",
              "type": "int24"
            },
            {
              "internalType": "int24",
              "name": "tickUpper",
              "type": "int24"
            },
            {
              "internalType": "uint256",
              "name": "ttl",
              "type": "uint256"
            },
            {
              "internalType": "bool",
              "name": "isCall",
              "type": "bool"
            },
            {
              "internalType": "uint256",
              "name": "maxCostAllowance",
              "type": "uint256"
            }
          ],
          "internalType": "struct IDopexV2OptionMarket.OptionParams",
          "name": "params",
          "type": "tuple"
        }
      ],
      "stateMutability": "pure",
      "type": "function"
    },
    {
      "inputs": [
        {
          "internalType": "contract IDopexV2OptionMarket",
          "name": "dopexV2OptionMarket",
          "type": "address"
        },
        {
          "internalType": "uint256",
          "name": "optionAmount",
          "type": "uint256"
        },
        {
          "components": [
            {
              "components": [
                {
                  "internalType": "contract IHandler",
                  "name": "_handler",
                  "type": "address"
                },
                {
                  "internalType": "contract IUniswapV3Pool",
                  "name": "pool",
                  "type": "address"
                },
                {
                  "internalType": "int24",
                  "name": "tickLower",
                  "type": "int24"
                },
                {
                  "internalType": "int24",
                  "name": "tickUpper",
                  "type": "int24"
                },
                {
                  "internalType": "uint256",
                  "name": "liquidityToUse",
                  "type": "uint256"
                }
              ],
              "internalType": "struct IDopexV2OptionMarket.OptionTicks[]",
              "name": "optionTicks",
              "type": "tuple[]"
            },
            {
              "internalType": "int24",
              "name": "tickLower",
              "type": "int24"
            },
            {
              "internalType": "int24",
              "name": "tickUpper",
              "type": "int24"
            },
            {
              "internalType": "uint256",
              "name": "ttl",
              "type": "uint256"
            },
            {
              "internalType": "bool",
              "name": "isCall",
              "type": "bool"
            },
            {
              "internalType": "uint256",
              "name": "maxCostAllowance",
              "type": "uint256"
            }
          ],
          "internalType": "struct IDopexV2OptionMarket.OptionParams",
          "name": "params",
          "type": "tuple"
        }
      ],
      "name": "encodeFromDopex",
      "outputs": [
        {
          "internalType": "bytes",
          "name": "paramData",
          "type": "bytes"
        }
      ],
      "stateMutability": "pure",
      "type": "function"
    },
    {
      "inputs": [
        {
          "internalType": "address",
          "name": "",
          "type": "address"
        },
        {
          "internalType": "address",
          "name": "",
          "type": "address"
        },
        {
          "internalType": "uint256",
          "name": "",
          "type": "uint256"
        },
        {
          "internalType": "bytes",
          "name": "",
          "type": "bytes"
        }
      ],
      "name": "onERC721Received",
      "outputs": [
        {
          "internalType": "bytes4",
          "name": "",
          "type": "bytes4"
        }
      ],
      "stateMutability": "nonpayable",
      "type": "function"
    },
    {
      "inputs": [],
      "name": "owner",
      "outputs": [
        {
          "internalType": "address",
          "name": "",
          "type": "address"
        }
      ],
      "stateMutability": "view",
      "type": "function"
    },
    {
      "inputs": [
        {
          "internalType": "bytes",
          "name": "parametersArray",
          "type": "bytes"
        },
        {
          "internalType": "uint256",
          "name": "buildID",
          "type": "uint256"
        },
        {
          "internalType": "address",
          "name": "user",
          "type": "address"
        }
      ],
      "name": "processTx",
      "outputs": [],
      "stateMutability": "nonpayable",
      "type": "function"
    },
    {
      "inputs": [],
      "name": "putAssetDecimals",
      "outputs": [
        {
          "internalType": "uint8",
          "name": "",
          "type": "uint8"
        }
      ],
      "stateMutability": "view",
      "type": "function"
    },
    {
      "inputs": [],
      "name": "renounceOwnership",
      "outputs": [],
      "stateMutability": "nonpayable",
      "type": "function"
    },
    {
      "inputs": [
        {
          "internalType": "address",
          "name": "newOwner",
          "type": "address"
        }
      ],
      "name": "transferOwnership",
      "outputs": [],
      "stateMutability": "nonpayable",
      "type": "function"
    }
  ],
  "transactionHash": "0xf650007abde20a4a46073e489be9bd47e5b4b23688606d49358b3a39d9cc47a6",
  "args": [],
  "numDeployments": 4,
  "solcInputHash": "282fd6563031a25f369b43cb3fa2490c",
  "bytecode": "0x60a080604052346100705760008054336001600160a01b0319821681178355916001600160a01b03909116907f8be0079c531659141344cd1fd0a4f28419497f9722a3daafe3b4186f6b6457e09080a360066080526111e0908161007682396080518181816108df0152610e290152f35b600080fdfe6080604081815260048036101561001557600080fd5b600092833560e01c9081630d51249b146108c657508063150b7a021461085d5780632ad4cd181461079b5780633819137a14610488578063715018a61461042e5780637531a64e146103cf5780638da5cb5b146103a3578063991f262b146101b3578063c65b63d2146101605763f2fde38b1461009157600080fd5b3461015c57602036600319011261015c576100aa610903565b906100b3610b11565b6001600160a01b0391821692831561010a575050600054826bffffffffffffffffffffffff60a01b821617600055167f8be0079c531659141344cd1fd0a4f28419497f9722a3daafe3b4186f6b6457e0600080a380f35b906020608492519162461bcd60e51b8352820152602660248201527f4f776e61626c653a206e6577206f776e657220697320746865207a65726f206160448201526564647265737360d01b6064820152fd5b8280fd5b5091346101b05760203660031901126101b05782359067ffffffffffffffff82116101b057506101996101ac9361019e923691016109b3565b611007565b909391925193849384610aea565b0390f35b80fd5b5091346101b05760609260031990848236011261015c576001600160a01b039481359190868316830361039f576044359067ffffffffffffffff9485831161039b5760c09083360301126103255786519461020d86610959565b8284013590811161039b578201923660238501121561039b578301359261023384610a0a565b9061024089519283610991565b8482526020998a830190602460a08098028401019236841161039757602401915b8383106103295750505050855261027a60248301610a22565b8886015261028a60448301610a22565b878601526064820135908501526084810135801515810361032557608085015260a40135908301528351929183916102c9919060243590888501610aea565b036102dc601f1991828101855284610991565b8351948592818452845191828186015281955b83871061030d5750508394508582601f949501015201168101030190f35b868101820151898801890152958101958895506102ef565b8580fd5b8783360312610397578b5161033d81610975565b833583811681036103935781528d8401358381168103610393578e82015288918e918e61036b878201610a22565b9082015261037a898701610a22565b8982015260808087013590820152815201920191610261565b8c80fd5b8a80fd5b8680fd5b8480fd5b5050346103cb57816003193601126103cb57905490516001600160a01b039091168152602090f35b5080fd5b5091346101b05760203660031901126101b05782359067ffffffffffffffff82116101b057506104086101ac9361040d923691016109b3565b610bdb565b91516001600160a01b03909116815260208101919091529081906040820190565b83346101b057806003193601126101b057610447610b11565b600080546001600160a01b0319811682556001600160a01b03167f8be0079c531659141344cd1fd0a4f28419497f9722a3daafe3b4186f6b6457e08280a380f35b503461015c57606036600319011261015c57803567ffffffffffffffff8111610797576104b890369083016109b3565b6001600160a01b0391604435838116929083810361039b5784926104e9916104df84611007565b9891949095610bdb565b8a51630a845c7160e11b81529097602096169086818781855afa90811561078d578d91610760575b506001810180911161074d578c823b156101b057610549908c8e51809381926367e1992d60e11b83528c8c8401526024830190610a30565b038183875af180156107415761072c575b50908c91813b1561015c57829060648c8f84905195869485936323b872dd60e01b85528d3090860152602485015260448401525af180156107225761070e575b505089516370a0823160e01b815230858201529291168483602481845afa918b831561070357869481946106c5575b508b5163a9059cbb60e01b81526001600160a01b039092169582019586526020860193909352938492839182906040015b03925af180156106bb57610658575b507f17ac743aa6b0d711282662482a28cbe0e33b5ecb7f6e43a59d9dc418479847189460806106449288519687528601526080850190610a30565b94830152606082015280602435930390a280f35b948186813d83116106b4575b61066e8183610991565b810103126106b0576080610644926106a67f17ac743aa6b0d711282662482a28cbe0e33b5ecb7f6e43a59d9dc4184798471898610b69565b5092505094610609565b8780fd5b503d610664565b87513d8a823e3d90fd5b9480929694508591503d83116106fc575b6106e08183610991565b810103126106f7576105fa938b86945193956105c9565b600080fd5b503d6106d6565b8b51903d90823e3d90fd5b6107179061092f565b610397578a3861059a565b8c513d84823e3d90fd5b610739909d91929d61092f565b9b903861055a565b8e8e51903d90823e3d90fd5b634e487b7160e01b8d526011865260248dfd5b90508681813d8311610786575b6107778183610991565b81010312610393575138610511565b503d61076d565b8c513d8f823e3d90fd5b8380fd5b50903461015c57606036600319011261015c576020610802926107bc610903565b6107c4610919565b6107cc610b11565b845163095ea7b360e01b81526001600160a01b039091169281019283526044356020840152948592839188918391604090910190565b03926001600160a01b03165af1908115610854575061081f575080f35b6020813d821161084c575b8161083760209383610991565b810103126103cb5761084890610b69565b5080f35b3d915061082a565b513d84823e3d90fd5b503461015c57608036600319011261015c57610877610903565b50610880610919565b506064359067ffffffffffffffff9081831161039f573660238401121561039f5782013590811161079757369101602401116103cb5751630a85bd0160e11b8152602090f35b8490346103cb57816003193601126103cb5760209060ff7f0000000000000000000000000000000000000000000000000000000000000000168152f35b600435906001600160a01b03821682036106f757565b602435906001600160a01b03821682036106f757565b67ffffffffffffffff811161094357604052565b634e487b7160e01b600052604160045260246000fd5b60c0810190811067ffffffffffffffff82111761094357604052565b60a0810190811067ffffffffffffffff82111761094357604052565b90601f8019910116810190811067ffffffffffffffff82111761094357604052565b81601f820112156106f75780359067ffffffffffffffff821161094357604051926109e8601f8401601f191660200185610991565b828452602083830101116106f757816000926020809301838601378301015290565b67ffffffffffffffff81116109435760051b60200190565b35908160020b82036106f757565b9060c0810191805160c08352805180945260e083019360208092019060005b818110610a9557505050818160a093928493015160020b90850152604081015160020b604085015260608101516060850152608081015115156080850152015191015290565b825180516001600160a01b039081168952818601511685890152604080820151600290810b918a019190915260608083015190910b908901526080908101519088015260a09096019591830191600101610a4f565b610b0e939260609260018060a01b0316825260208201528160408201520190610a30565b90565b6000546001600160a01b03163303610b2557565b606460405162461bcd60e51b815260206004820152602060248201527f4f776e61626c653a2063616c6c6572206973206e6f7420746865206f776e65726044820152fd5b519081151582036106f757565b805115610b835760200190565b634e487b7160e01b600052603260045260246000fd5b908160209103126106f757516001600160a01b03811681036106f75790565b91908201809211610bc557565b634e487b7160e01b600052601160045260246000fd5b610be490611007565b60018060a09594951b0360208181610bfc8551610b76565b51015116936080840194828651151591600092600014610fa357604051630dfe168160e01b81529250829060049082905afa8015610f97578491600091610f6a575b505b97168383610c4e8751610b76565b51015187519116919015610f5d57604086015160020b945b60409687519863eb22eccb60e01b8a52600494858b015260249760020b888b0152868a604481875afa998a15610f525760009a610f23575b5060608201998a51938a5194632c4b382d60e21b86528786015288858b81895afa948515610eda57600095610ef4575b50825115610ee55788610cef610ce860009e5b5142610bb8565b9551610b76565b5101518b5163ab89fbaf60e01b81529116878201529188838b81895afa928315610eda57600093610eab575b505160009015610e25575086925b8a516348f1922360e01b81529b1515878d0152898c015260448b015260648a01526084890182905260a4890152848860c481855afa978815610e1a57600098610dea575b509160649185949388519788958694631ee1bd7160e31b86528501528301528860448301525afa928315610de05750600092610daf575b5050610b0e91610bb8565b81819392933d8311610dd9575b610dc68183610991565b810103126101b0575051610b0e38610da4565b503d610dbc565b513d6000823e3d90fd5b90978582813d8311610e13575b610e018183610991565b810103126101b0575051966064610d6d565b503d610df7565b87513d6000823e3d90fd5b60ff7f000000000000000000000000000000000000000000000000000000000000000016604d8111610e9957600a0a90818902918983041489151715610e87578215610e75575081900492610d29565b634e487b7160e01b8152601288528a90fd5b634e487b7160e01b8152601188528a90fd5b634e487b7160e01b8252601188528a82fd5b90928982813d8311610ed3575b610ec28183610991565b810103126101b05750519138610d1b565b503d610eb8565b8b513d6000823e3d90fd5b88610cef610ce860019e610ce1565b90948982813d8311610f1c575b610f0b8183610991565b810103126101b05750519338610cce565b503d610f01565b90998782813d8311610f4b575b610f3a8183610991565b810103126101b05750519838610c9e565b503d610f30565b89513d6000823e3d90fd5b8386015160020b94610c66565b610f8a9150843d8611610f90575b610f828183610991565b810190610b99565b38610c3e565b503d610f78565b6040513d6000823e3d90fd5b60405163d21220a760e01b81529190829060049082905afa918215610fed57908592610fd0575b50610c40565b610fe79150843d8611610f9057610f828183610991565b38610fca565b604051903d90823e3d90fd5b51908160020b82036106f757565b604080519161101583610959565b60609283815260006020948186840152818584015281818401528160808401528160a08094015283518401948686019682868803126107975785810151976001600160a01b0390818a168a036103255783880151988589015167ffffffffffffffff998a82116111a657019660c0888303126101b0578551996110978b610959565b858901519081116103cb5788019383603f860112156103cb5785850151926110be84610a0a565b956110cb89519788610991565b848752888c8989019602820101958611610797578801935b85851061113b575050505050509060c0949392918752611104828501610ff9565b90870152611113828401610ff9565b9086015260808201519085015261112b838201610b69565b6080850152015190820152909192565b8b88868403011261079757885161115181610975565b8551848116810361032557815288860151848116810361032557898201528c91899161117e888d01610ff9565b8c82015261118d8d8901610ff9565b8d820152608088015160808201528152019401936110e3565b8880fdfea2646970667358221220a4fcadd4a8c9686f3acde0890f1825f108d46b8ad80c632c18809c86db74377564736f6c63430008130033",
  "devdoc": {
    "kind": "dev",
    "methods": {
      "calculateAmount(bytes)": {
        "details": "See {IBaseTxBuilderOpen-calculateAmount}."
      },
      "owner()": {
        "details": "Returns the address of the current owner."
      },
      "processTx(bytes,uint256,address)": {
        "details": "See {IBaseTxBuilderOpen-processTx}."
      },
      "renounceOwnership()": {
        "details": "Leaves the contract without owner. It will not be possible to call `onlyOwner` functions. Can only be called by the current owner. NOTE: Renouncing ownership will leave the contract without an owner, thereby disabling any functionality that is only available to the owner."
      },
      "transferOwnership(address)": {
        "details": "Transfers ownership of the contract to a new account (`newOwner`). Can only be called by the current owner."
      }
    },
    "version": 1
  },
  "userdoc": {
    "kind": "user",
    "methods": {},
    "version": 1
  },
  "storageLayout": {
    "storage": [
      {
        "astId": 7,
        "contract": "contracts/dopex/TxBuilderOpenDopex.sol:TxBuilderOpenDopex",
        "label": "_owner",
        "offset": 0,
        "slot": "0",
        "type": "t_address"
      }
    ],
    "types": {
      "t_address": {
        "encoding": "inplace",
        "label": "address",
        "numberOfBytes": "20"
      }
    }
  }
}