{
  "address": "0x9bCE26445540803892fd5B74d95e4C35053e8731",
  "abi": [
    {
      "inputs": [
        {
          "internalType": "address",
          "name": "_exchanger",
          "type": "address"
        }
      ],
      "stateMutability": "nonpayable",
      "type": "constructor"
    },
    {
      "anonymous": false,
      "inputs": [
        {
          "indexed": false,
          "internalType": "uint256",
          "name": "buildID",
          "type": "uint256"
        },
        {
          "indexed": true,
          "internalType": "address",
          "name": "user",
          "type": "address"
        },
        {
          "indexed": false,
          "internalType": "uint256",
          "name": "productType",
          "type": "uint256"
        }
      ],
      "name": "CreateBuild",
      "type": "event"
    },
    {
      "anonymous": false,
      "inputs": [
        {
          "indexed": true,
          "internalType": "address",
          "name": "previousOwner",
          "type": "address"
        },
        {
          "indexed": true,
          "internalType": "address",
          "name": "newOwner",
          "type": "address"
        }
      ],
      "name": "OwnershipTransferred",
      "type": "event"
    },
    {
      "inputs": [
        {
          "components": [
            {
              "internalType": "address",
              "name": "moduleAddress",
              "type": "address"
            },
            {
              "internalType": "string",
              "name": "name",
              "type": "string"
            }
          ],
          "internalType": "struct ITxBuilder.Module[]",
          "name": "moduleArray",
          "type": "tuple[]"
        },
        {
          "internalType": "bytes[]",
          "name": "parametersArray",
          "type": "bytes[]"
        },
        {
          "internalType": "bytes[]",
          "name": "swapDataArray",
          "type": "bytes[]"
        },
        {
          "internalType": "uint256",
          "name": "productType",
          "type": "uint256"
        }
      ],
      "name": "consolidationOfTransactions",
      "outputs": [],
      "stateMutability": "payable",
      "type": "function"
    },
    {
      "inputs": [],
      "name": "exchanger",
      "outputs": [
        {
          "internalType": "contract Exchanger",
          "name": "",
          "type": "address"
        }
      ],
      "stateMutability": "view",
      "type": "function"
    },
    {
      "inputs": [
        {
          "internalType": "uint256",
          "name": "",
          "type": "uint256"
        }
      ],
      "name": "module",
      "outputs": [
        {
          "internalType": "address",
          "name": "moduleAddress",
          "type": "address"
        },
        {
          "internalType": "string",
          "name": "name",
          "type": "string"
        }
      ],
      "stateMutability": "view",
      "type": "function"
    },
    {
      "inputs": [],
      "name": "nextBuildID",
      "outputs": [
        {
          "internalType": "uint256",
          "name": "",
          "type": "uint256"
        }
      ],
      "stateMutability": "view",
      "type": "function"
    },
    {
      "inputs": [],
      "name": "owner",
      "outputs": [
        {
          "internalType": "address",
          "name": "",
          "type": "address"
        }
      ],
      "stateMutability": "view",
      "type": "function"
    },
    {
      "inputs": [],
      "name": "renounceOwnership",
      "outputs": [],
      "stateMutability": "nonpayable",
      "type": "function"
    },
    {
      "inputs": [
        {
          "internalType": "address",
          "name": "exchangerAddress",
          "type": "address"
        }
      ],
      "name": "setExchanger",
      "outputs": [],
      "stateMutability": "nonpayable",
      "type": "function"
    },
    {
      "inputs": [
        {
          "internalType": "uint256",
          "name": "index",
          "type": "uint256"
        },
        {
          "components": [
            {
              "internalType": "address",
              "name": "moduleAddress",
              "type": "address"
            },
            {
              "internalType": "string",
              "name": "name",
              "type": "string"
            }
          ],
          "internalType": "struct ITxBuilder.Module",
          "name": "modData",
          "type": "tuple"
        }
      ],
      "name": "setModule",
      "outputs": [],
      "stateMutability": "nonpayable",
      "type": "function"
    },
    {
      "inputs": [
        {
          "internalType": "address",
          "name": "newOwner",
          "type": "address"
        }
      ],
      "name": "transferOwnership",
      "outputs": [],
      "stateMutability": "nonpayable",
      "type": "function"
    },
    {
      "inputs": [
        {
          "internalType": "address",
          "name": "token",
          "type": "address"
        },
        {
          "internalType": "address",
          "name": "user",
          "type": "address"
        },
        {
          "internalType": "uint256",
          "name": "amount",
          "type": "uint256"
        }
      ],
      "name": "withdrawERC20",
      "outputs": [],
      "stateMutability": "nonpayable",
      "type": "function"
    },
    {
      "inputs": [
        {
          "internalType": "address",
          "name": "user",
          "type": "address"
        },
        {
          "internalType": "uint256",
          "name": "amount",
          "type": "uint256"
        }
      ],
      "name": "withdrawETH",
      "outputs": [],
      "stateMutability": "nonpayable",
      "type": "function"
    }
  ],
  "transactionHash": "0x308b4d0b05c76cd316cbe0a5bab813c8b920c1a9e5886dc6b9a67e0d6f5e9bc5",
  "args": [
    "0x61eCF878805122F0D365476fBE05806D0213f482"
  ],
  "numDeployments": 3,
  "solcInputHash": "38f396e0d2a80287c2d9774ec3a8b5e7",
  "bytecode": "0x608060405260016003553480156200001657600080fd5b5060405162001fa038038062001fa083398181016040528101906200003c9190620001da565b6200005c62000050620000a460201b60201c565b620000ac60201b60201c565b80600160006101000a81548173ffffffffffffffffffffffffffffffffffffffff021916908373ffffffffffffffffffffffffffffffffffffffff160217905550506200020c565b600033905090565b60008060009054906101000a900473ffffffffffffffffffffffffffffffffffffffff169050816000806101000a81548173ffffffffffffffffffffffffffffffffffffffff021916908373ffffffffffffffffffffffffffffffffffffffff1602179055508173ffffffffffffffffffffffffffffffffffffffff168173ffffffffffffffffffffffffffffffffffffffff167f8be0079c531659141344cd1fd0a4f28419497f9722a3daafe3b4186f6b6457e060405160405180910390a35050565b600080fd5b600073ffffffffffffffffffffffffffffffffffffffff82169050919050565b6000620001a28262000175565b9050919050565b620001b48162000195565b8114620001c057600080fd5b50565b600081519050620001d481620001a9565b92915050565b600060208284031215620001f357620001f262000170565b5b60006200020384828501620001c3565b91505092915050565b611d84806200021c6000396000f3fe60806040526004361061009c5760003560e01c8063715018a611610064578063715018a614610178578063868ccfb31461018f5780638da5cb5b146101b8578063d7819cd1146101e3578063da909b091461020e578063f2fde38b146102375761009c565b8063302d2ef6146100a1578063430f75da146100bd57806344004cc1146100fb5780634782f779146101245780634d12fca41461014d575b600080fd5b6100bb60048036038101906100b6919061101b565b610260565b005b3480156100c957600080fd5b506100e460048036038101906100df91906110d6565b6106e3565b6040516100f292919061119a565b60405180910390f35b34801561010757600080fd5b50610122600480360381019061011d91906111ca565b6107af565b005b34801561013057600080fd5b5061014b6004803603810190610146919061121d565b61084a565b005b34801561015957600080fd5b5061016261089d565b60405161016f91906112bc565b60405180910390f35b34801561018457600080fd5b5061018d6108c3565b005b34801561019b57600080fd5b506101b660048036038101906101b191906112fb565b6108d7565b005b3480156101c457600080fd5b506101cd610906565b6040516101da9190611357565b60405180910390f35b3480156101ef57600080fd5b506101f861092f565b6040516102059190611381565b60405180910390f35b34801561021a57600080fd5b506102356004803603810190610230919061139c565b610935565b005b34801561024357600080fd5b5061025e6004803603810190610259919061139c565b610981565b005b82518451148015610272575081518351145b6102b1576040517f08c379a00000000000000000000000000000000000000000000000000000000081526004016102a890611415565b60405180910390fd5b600160009054906101000a900473ffffffffffffffffffffffffffffffffffffffff1673ffffffffffffffffffffffffffffffffffffffff16638a4c2a0e83346040518363ffffffff1660e01b815260040161030e92919061154c565b60006040518083038186803b15801561032657600080fd5b505afa15801561033a573d6000803e3d6000fd5b5050505060005b8451811015610672576000600160009054906101000a900473ffffffffffffffffffffffffffffffffffffffff1673ffffffffffffffffffffffffffffffffffffffff1663bcc4bffd85848151811061039d5761039c61157c565b5b60200260200101516040518263ffffffff1660e01b81526004016103c191906115f5565b60206040518083038186803b1580156103d957600080fd5b505afa1580156103ed573d6000803e3d6000fd5b505050506040513d601f19601f82011682018060405250810190610411919061162c565b905060008114156104ea57600160009054906101000a900473ffffffffffffffffffffffffffffffffffffffff1673ffffffffffffffffffffffffffffffffffffffff166378a820a785848151811061046d5761046c61157c565b5b6020026020010151338986815181106104895761048861157c565b5b6020026020010151600001516040518463ffffffff1660e01b81526004016104b393929190611659565b600060405180830381600087803b1580156104cd57600080fd5b505af11580156104e1573d6000803e3d6000fd5b505050506105b5565b600160009054906101000a900473ffffffffffffffffffffffffffffffffffffffff1673ffffffffffffffffffffffffffffffffffffffff166378a820a78286858151811061053c5761053b61157c565b5b6020026020010151338a87815181106105585761055761157c565b5b6020026020010151600001516040518563ffffffff1660e01b815260040161058293929190611659565b6000604051808303818588803b15801561059b57600080fd5b505af11580156105af573d6000803e3d6000fd5b50505050505b8582815181106105c8576105c761157c565b5b60200260200101516000015173ffffffffffffffffffffffffffffffffffffffff16633819137a8684815181106106025761060161157c565b5b6020026020010151600354336040518463ffffffff1660e01b815260040161062c93929190611697565b600060405180830381600087803b15801561064657600080fd5b505af115801561065a573d6000803e3d6000fd5b5050505050808061066a90611704565b915050610341565b503373ffffffffffffffffffffffffffffffffffffffff167fdf35236315d79f749febbbe30af46d136cadd5dc4f8006c5668c7bd2fac5da72600354836040516106bd92919061174d565b60405180910390a2600360008154809291906106d890611704565b919050555050505050565b60026020528060005260406000206000915090508060000160009054906101000a900473ffffffffffffffffffffffffffffffffffffffff169080600101805461072c906117a5565b80601f0160208091040260200160405190810160405280929190818152602001828054610758906117a5565b80156107a55780601f1061077a576101008083540402835291602001916107a5565b820191906000526020600020905b81548152906001019060200180831161078857829003601f168201915b5050505050905082565b6107b7610a05565b8273ffffffffffffffffffffffffffffffffffffffff1663a9059cbb83836040518363ffffffff1660e01b81526004016107f29291906117d7565b602060405180830381600087803b15801561080c57600080fd5b505af1158015610820573d6000803e3d6000fd5b505050506040513d601f19601f820116820180604052508101906108449190611838565b50505050565b610852610a05565b8173ffffffffffffffffffffffffffffffffffffffff166108fc829081150290604051600060405180830381858888f19350505050158015610898573d6000803e3d6000fd5b505050565b600160009054906101000a900473ffffffffffffffffffffffffffffffffffffffff1681565b6108cb610a05565b6108d56000610a83565b565b6108df610a05565b806002600084815260200190815260200160002081816108ff9190611c42565b9050505050565b60008060009054906101000a900473ffffffffffffffffffffffffffffffffffffffff16905090565b60035481565b61093d610a05565b80600160006101000a81548173ffffffffffffffffffffffffffffffffffffffff021916908373ffffffffffffffffffffffffffffffffffffffff16021790555050565b610989610a05565b600073ffffffffffffffffffffffffffffffffffffffff168173ffffffffffffffffffffffffffffffffffffffff1614156109f9576040517f08c379a00000000000000000000000000000000000000000000000000000000081526004016109f090611cc2565b60405180910390fd5b610a0281610a83565b50565b610a0d610b47565b73ffffffffffffffffffffffffffffffffffffffff16610a2b610906565b73ffffffffffffffffffffffffffffffffffffffff1614610a81576040517f08c379a0000000000000000000000000000000000000000000000000000000008152600401610a7890611d2e565b60405180910390fd5b565b60008060009054906101000a900473ffffffffffffffffffffffffffffffffffffffff169050816000806101000a81548173ffffffffffffffffffffffffffffffffffffffff021916908373ffffffffffffffffffffffffffffffffffffffff1602179055508173ffffffffffffffffffffffffffffffffffffffff168173ffffffffffffffffffffffffffffffffffffffff167f8be0079c531659141344cd1fd0a4f28419497f9722a3daafe3b4186f6b6457e060405160405180910390a35050565b600033905090565b6000604051905090565b600080fd5b600080fd5b600080fd5b6000601f19601f8301169050919050565b7f4e487b7100000000000000000000000000000000000000000000000000000000600052604160045260246000fd5b610bb182610b68565b810181811067ffffffffffffffff82111715610bd057610bcf610b79565b5b80604052505050565b6000610be3610b4f565b9050610bef8282610ba8565b919050565b600067ffffffffffffffff821115610c0f57610c0e610b79565b5b602082029050602081019050919050565b600080fd5b600080fd5b600080fd5b600073ffffffffffffffffffffffffffffffffffffffff82169050919050565b6000610c5a82610c2f565b9050919050565b610c6a81610c4f565b8114610c7557600080fd5b50565b600081359050610c8781610c61565b92915050565b600080fd5b600067ffffffffffffffff821115610cad57610cac610b79565b5b610cb682610b68565b9050602081019050919050565b82818337600083830152505050565b6000610ce5610ce084610c92565b610bd9565b905082815260208101848484011115610d0157610d00610c8d565b5b610d0c848285610cc3565b509392505050565b600082601f830112610d2957610d28610b63565b5b8135610d39848260208601610cd2565b91505092915050565b600060408284031215610d5857610d57610c25565b5b610d626040610bd9565b90506000610d7284828501610c78565b600083015250602082013567ffffffffffffffff811115610d9657610d95610c2a565b5b610da284828501610d14565b60208301525092915050565b6000610dc1610dbc84610bf4565b610bd9565b90508083825260208201905060208402830185811115610de457610de3610c20565b5b835b81811015610e2b57803567ffffffffffffffff811115610e0957610e08610b63565b5b808601610e168982610d42565b85526020850194505050602081019050610de6565b5050509392505050565b600082601f830112610e4a57610e49610b63565b5b8135610e5a848260208601610dae565b91505092915050565b600067ffffffffffffffff821115610e7e57610e7d610b79565b5b602082029050602081019050919050565b600067ffffffffffffffff821115610eaa57610ea9610b79565b5b610eb382610b68565b9050602081019050919050565b6000610ed3610ece84610e8f565b610bd9565b905082815260208101848484011115610eef57610eee610c8d565b5b610efa848285610cc3565b509392505050565b600082601f830112610f1757610f16610b63565b5b8135610f27848260208601610ec0565b91505092915050565b6000610f43610f3e84610e63565b610bd9565b90508083825260208201905060208402830185811115610f6657610f65610c20565b5b835b81811015610fad57803567ffffffffffffffff811115610f8b57610f8a610b63565b5b808601610f988982610f02565b85526020850194505050602081019050610f68565b5050509392505050565b600082601f830112610fcc57610fcb610b63565b5b8135610fdc848260208601610f30565b91505092915050565b6000819050919050565b610ff881610fe5565b811461100357600080fd5b50565b60008135905061101581610fef565b92915050565b6000806000806080858703121561103557611034610b59565b5b600085013567ffffffffffffffff81111561105357611052610b5e565b5b61105f87828801610e35565b945050602085013567ffffffffffffffff8111156110805761107f610b5e565b5b61108c87828801610fb7565b935050604085013567ffffffffffffffff8111156110ad576110ac610b5e565b5b6110b987828801610fb7565b92505060606110ca87828801611006565b91505092959194509250565b6000602082840312156110ec576110eb610b59565b5b60006110fa84828501611006565b91505092915050565b61110c81610c4f565b82525050565b600081519050919050565b600082825260208201905092915050565b60005b8381101561114c578082015181840152602081019050611131565b8381111561115b576000848401525b50505050565b600061116c82611112565b611176818561111d565b935061118681856020860161112e565b61118f81610b68565b840191505092915050565b60006040820190506111af6000830185611103565b81810360208301526111c18184611161565b90509392505050565b6000806000606084860312156111e3576111e2610b59565b5b60006111f186828701610c78565b935050602061120286828701610c78565b925050604061121386828701611006565b9150509250925092565b6000806040838503121561123457611233610b59565b5b600061124285828601610c78565b925050602061125385828601611006565b9150509250929050565b6000819050919050565b600061128261127d61127884610c2f565b61125d565b610c2f565b9050919050565b600061129482611267565b9050919050565b60006112a682611289565b9050919050565b6112b68161129b565b82525050565b60006020820190506112d160008301846112ad565b92915050565b600080fd5b6000604082840312156112f2576112f16112d7565b5b81905092915050565b6000806040838503121561131257611311610b59565b5b600061132085828601611006565b925050602083013567ffffffffffffffff81111561134157611340610b5e565b5b61134d858286016112dc565b9150509250929050565b600060208201905061136c6000830184611103565b92915050565b61137b81610fe5565b82525050565b60006020820190506113966000830184611372565b92915050565b6000602082840312156113b2576113b1610b59565b5b60006113c084828501610c78565b91505092915050565b7f617272617973206e6f7420657175616c00000000000000000000000000000000600082015250565b60006113ff60108361111d565b915061140a826113c9565b602082019050919050565b6000602082019050818103600083015261142e816113f2565b9050919050565b600081519050919050565b600082825260208201905092915050565b6000819050602082019050919050565b600081519050919050565b600082825260208201905092915050565b600061148882611461565b611492818561146c565b93506114a281856020860161112e565b6114ab81610b68565b840191505092915050565b60006114c2838361147d565b905092915050565b6000602082019050919050565b60006114e282611435565b6114ec8185611440565b9350836020820285016114fe85611451565b8060005b8581101561153a578484038952815161151b85826114b6565b9450611526836114ca565b925060208a01995050600181019050611502565b50829750879550505050505092915050565b6000604082019050818103600083015261156681856114d7565b90506115756020830184611372565b9392505050565b7f4e487b7100000000000000000000000000000000000000000000000000000000600052603260045260246000fd5b600082825260208201905092915050565b60006115c782611461565b6115d181856115ab565b93506115e181856020860161112e565b6115ea81610b68565b840191505092915050565b6000602082019050818103600083015261160f81846115bc565b905092915050565b60008151905061162681610fef565b92915050565b60006020828403121561164257611641610b59565b5b600061165084828501611617565b91505092915050565b6000606082019050818103600083015261167381866115bc565b90506116826020830185611103565b61168f6040830184611103565b949350505050565b600060608201905081810360008301526116b181866115bc565b90506116c06020830185611372565b6116cd6040830184611103565b949350505050565b7f4e487b7100000000000000000000000000000000000000000000000000000000600052601160045260246000fd5b600061170f82610fe5565b91507fffffffffffffffffffffffffffffffffffffffffffffffffffffffffffffffff821415611742576117416116d5565b5b600182019050919050565b60006040820190506117626000830185611372565b61176f6020830184611372565b9392505050565b7f4e487b7100000000000000000000000000000000000000000000000000000000600052602260045260246000fd5b600060028204905060018216806117bd57607f821691505b602082108114156117d1576117d0611776565b5b50919050565b60006040820190506117ec6000830185611103565b6117f96020830184611372565b9392505050565b60008115159050919050565b61181581611800565b811461182057600080fd5b50565b6000815190506118328161180c565b92915050565b60006020828403121561184e5761184d610b59565b5b600061185c84828501611823565b91505092915050565b6000813561187281610c61565b80915050919050565b60008160001b9050919050565b600073ffffffffffffffffffffffffffffffffffffffff6118a88461187b565b9350801983169250808416831791505092915050565b60006118c982611289565b9050919050565b6000819050919050565b6118e3826118be565b6118f66118ef826118d0565b8354611888565b8255505050565b600080fd5b600080fd5b600080fd5b60008083356001602003843603038112611929576119286118fd565b5b80840192508235915067ffffffffffffffff82111561194b5761194a611902565b5b60208301925060018202360383131561196757611966611907565b5b509250929050565b600082905092915050565b60008190508160005260206000209050919050565b60006020601f8301049050919050565b600082821b905092915050565b6000600883026119dc7fffffffffffffffffffffffffffffffffffffffffffffffffffffffffffffffff8261199f565b6119e6868361199f565b95508019841693508086168417925050509392505050565b6000611a19611a14611a0f84610fe5565b61125d565b610fe5565b9050919050565b6000819050919050565b611a33836119fe565b611a47611a3f82611a20565b8484546119ac565b825550505050565b600090565b611a5c611a4f565b611a67818484611a2a565b505050565b5b81811015611a8b57611a80600082611a54565b600181019050611a6d565b5050565b601f821115611ad057611aa18161197a565b611aaa8461198f565b81016020851015611ab9578190505b611acd611ac58561198f565b830182611a6c565b50505b505050565b600082821c905092915050565b6000611af360001984600802611ad5565b1980831691505092915050565b6000611b0c8383611ae2565b9150826002028217905092915050565b611b26838361196f565b67ffffffffffffffff811115611b3f57611b3e610b79565b5b611b4982546117a5565b611b54828285611a8f565b6000601f831160018114611b835760008415611b71578287013590505b611b7b8582611b00565b865550611be3565b601f198416611b918661197a565b60005b82811015611bb957848901358255600182019150602085019450602081019050611b94565b86831015611bd65784890135611bd2601f891682611ae2565b8355505b6001600288020188555050505b50505050505050565b611bf7838383611b1c565b505050565b600081016000830180611c0e81611865565b9050611c1a81846118da565b5050506001810160208301611c2f818561190c565b611c3a818386611bec565b505050505050565b611c4c8282611bfc565b5050565b7f4f776e61626c653a206e6577206f776e657220697320746865207a65726f206160008201527f6464726573730000000000000000000000000000000000000000000000000000602082015250565b6000611cac60268361111d565b9150611cb782611c50565b604082019050919050565b60006020820190508181036000830152611cdb81611c9f565b9050919050565b7f4f776e61626c653a2063616c6c6572206973206e6f7420746865206f776e6572600082015250565b6000611d1860208361111d565b9150611d2382611ce2565b602082019050919050565b60006020820190508181036000830152611d4781611d0b565b905091905056fea26469706673582212201f9cd4a333340244fe24d9cfd2783b4a1fe781d851077c49f4aa69905765208d64736f6c63430008090033",
  "devdoc": {
    "author": "0nika0",
    "details": "This contract manages the consolidation of transactions and products, allowing users to create and interact with modules. It enables users to consolidate multiple transactions into one and create products through modules.",
    "kind": "dev",
    "methods": {
      "consolidationOfTransactions((address,string)[],bytes[],bytes[],uint256)": {
        "details": "See {ITxBuilder-consolidationOfTransactions}."
      },
      "owner()": {
        "details": "Returns the address of the current owner."
      },
      "renounceOwnership()": {
        "details": "Leaves the contract without owner. It will not be possible to call `onlyOwner` functions. Can only be called by the current owner. NOTE: Renouncing ownership will leave the contract without an owner, thereby disabling any functionality that is only available to the owner."
      },
      "setExchanger(address)": {
        "details": "See {ITxBuilder-setExchanger}."
      },
      "setModule(uint256,(address,string))": {
        "details": "See {ITxBuilder-setModule}."
      },
      "transferOwnership(address)": {
        "details": "Transfers ownership of the contract to a new account (`newOwner`). Can only be called by the current owner."
      },
      "withdrawERC20(address,address,uint256)": {
        "details": "See {ITxBuilder-withdrawERC20}."
      },
      "withdrawETH(address,uint256)": {
        "details": "See {ITxBuilder-withdrawETH}."
      }
    },
    "title": "TxBuilder",
    "version": 1
  },
  "userdoc": {
    "kind": "user",
    "methods": {},
    "version": 1
  },
  "storageLayout": {
    "storage": [
      {
        "astId": 396,
        "contract": "contracts/TxBuilder.sol:TxBuilder",
        "label": "_owner",
        "offset": 0,
        "slot": "0",
        "type": "t_address"
      },
      {
        "astId": 2951,
        "contract": "contracts/TxBuilder.sol:TxBuilder",
        "label": "exchanger",
        "offset": 0,
        "slot": "1",
        "type": "t_contract(Exchanger)3532"
      },
      {
        "astId": 2956,
        "contract": "contracts/TxBuilder.sol:TxBuilder",
        "label": "module",
        "offset": 0,
        "slot": "2",
        "type": "t_mapping(t_uint256,t_struct(Module)2766_storage)"
      },
      {
        "astId": 2959,
        "contract": "contracts/TxBuilder.sol:TxBuilder",
        "label": "nextBuildID",
        "offset": 0,
        "slot": "3",
        "type": "t_uint256"
      }
    ],
    "types": {
      "t_address": {
        "encoding": "inplace",
        "label": "address",
        "numberOfBytes": "20"
      },
      "t_contract(Exchanger)3532": {
        "encoding": "inplace",
        "label": "contract Exchanger",
        "numberOfBytes": "20"
      },
      "t_mapping(t_uint256,t_struct(Module)2766_storage)": {
        "encoding": "mapping",
        "key": "t_uint256",
        "label": "mapping(uint256 => struct ITxBuilder.Module)",
        "numberOfBytes": "32",
        "value": "t_struct(Module)2766_storage"
      },
      "t_string_storage": {
        "encoding": "bytes",
        "label": "string",
        "numberOfBytes": "32"
      },
      "t_struct(Module)2766_storage": {
        "encoding": "inplace",
        "label": "struct ITxBuilder.Module",
        "members": [
          {
            "astId": 2763,
            "contract": "contracts/TxBuilder.sol:TxBuilder",
            "label": "moduleAddress",
            "offset": 0,
            "slot": "0",
            "type": "t_address"
          },
          {
            "astId": 2765,
            "contract": "contracts/TxBuilder.sol:TxBuilder",
            "label": "name",
            "offset": 0,
            "slot": "1",
            "type": "t_string_storage"
          }
        ],
        "numberOfBytes": "64"
      },
      "t_uint256": {
        "encoding": "inplace",
        "label": "uint256",
        "numberOfBytes": "32"
      }
    }
  }
}