{
  "address": "0xdC168b1c8fbd29BcA1953e177b8A05Ed78251216",
  "abi": [
    {
      "inputs": [
        {
          "internalType": "contract ERC20",
          "name": "_usdc",
          "type": "address"
        },
        {
          "internalType": "contract ERC20",
          "name": "_weth",
          "type": "address"
        },
        {
          "internalType": "contract ERC20",
          "name": "_wbtc",
          "type": "address"
        },
        {
          "internalType": "contract IBeyondPricer",
          "name": "_pricer",
          "type": "address"
        },
        {
          "internalType": "contract IOptionExchange",
          "name": "_optionExchange",
          "type": "address"
        },
        {
          "internalType": "contract IAlphaPortfolioValuesFeed",
          "name": "_portfolioValuesFeed",
          "type": "address"
        }
      ],
      "stateMutability": "nonpayable",
      "type": "constructor"
    },
    {
      "anonymous": false,
      "inputs": [
        {
          "indexed": true,
          "internalType": "uint256",
          "name": "buildID",
          "type": "uint256"
        },
        {
          "indexed": false,
          "internalType": "address",
          "name": "token",
          "type": "address"
        },
        {
          "components": [
            {
              "internalType": "enum ICombinedActions.OperationType",
              "name": "operation",
              "type": "uint8"
            },
            {
              "components": [
                {
                  "internalType": "uint256",
                  "name": "actionType",
                  "type": "uint256"
                },
                {
                  "internalType": "address",
                  "name": "owner",
                  "type": "address"
                },
                {
                  "internalType": "address",
                  "name": "secondAddress",
                  "type": "address"
                },
                {
                  "internalType": "address",
                  "name": "asset",
                  "type": "address"
                },
                {
                  "internalType": "uint256",
                  "name": "vaultId",
                  "type": "uint256"
                },
                {
                  "internalType": "uint256",
                  "name": "amount",
                  "type": "uint256"
                },
                {
                  "components": [
                    {
                      "internalType": "uint64",
                      "name": "expiration",
                      "type": "uint64"
                    },
                    {
                      "internalType": "uint128",
                      "name": "strike",
                      "type": "uint128"
                    },
                    {
                      "internalType": "bool",
                      "name": "isPut",
                      "type": "bool"
                    },
                    {
                      "internalType": "address",
                      "name": "underlying",
                      "type": "address"
                    },
                    {
                      "internalType": "address",
                      "name": "strikeAsset",
                      "type": "address"
                    },
                    {
                      "internalType": "address",
                      "name": "collateral",
                      "type": "address"
                    }
                  ],
                  "internalType": "struct ITypes.OptionSeries",
                  "name": "optionSeries",
                  "type": "tuple"
                },
                {
                  "internalType": "uint256",
                  "name": "indexOrAcceptablePremium",
                  "type": "uint256"
                },
                {
                  "internalType": "bytes",
                  "name": "data",
                  "type": "bytes"
                }
              ],
              "internalType": "struct ICombinedActions.ActionArgs[]",
              "name": "operationQueue",
              "type": "tuple[]"
            }
          ],
          "indexed": false,
          "internalType": "struct ICombinedActions.OperationProcedures[]",
          "name": "",
          "type": "tuple[]"
        }
      ],
      "name": "OpenPositionByRyskFinance",
      "type": "event"
    },
    {
      "anonymous": false,
      "inputs": [
        {
          "indexed": true,
          "internalType": "address",
          "name": "previousOwner",
          "type": "address"
        },
        {
          "indexed": true,
          "internalType": "address",
          "name": "newOwner",
          "type": "address"
        }
      ],
      "name": "OwnershipTransferred",
      "type": "event"
    },
    {
      "inputs": [],
      "name": "allApprove",
      "outputs": [],
      "stateMutability": "nonpayable",
      "type": "function"
    },
    {
      "inputs": [
        {
          "internalType": "bytes",
          "name": "parameters",
          "type": "bytes"
        }
      ],
      "name": "calculateAmount",
      "outputs": [
        {
          "internalType": "address",
          "name": "token",
          "type": "address"
        },
        {
          "internalType": "uint256",
          "name": "amount",
          "type": "uint256"
        }
      ],
      "stateMutability": "view",
      "type": "function"
    },
    {
      "inputs": [
        {
          "internalType": "bytes",
          "name": "paramData",
          "type": "bytes"
        }
      ],
      "name": "decodeFromRyskFinance",
      "outputs": [
        {
          "components": [
            {
              "internalType": "enum ICombinedActions.OperationType",
              "name": "operation",
              "type": "uint8"
            },
            {
              "components": [
                {
                  "internalType": "uint256",
                  "name": "actionType",
                  "type": "uint256"
                },
                {
                  "internalType": "address",
                  "name": "owner",
                  "type": "address"
                },
                {
                  "internalType": "address",
                  "name": "secondAddress",
                  "type": "address"
                },
                {
                  "internalType": "address",
                  "name": "asset",
                  "type": "address"
                },
                {
                  "internalType": "uint256",
                  "name": "vaultId",
                  "type": "uint256"
                },
                {
                  "internalType": "uint256",
                  "name": "amount",
                  "type": "uint256"
                },
                {
                  "components": [
                    {
                      "internalType": "uint64",
                      "name": "expiration",
                      "type": "uint64"
                    },
                    {
                      "internalType": "uint128",
                      "name": "strike",
                      "type": "uint128"
                    },
                    {
                      "internalType": "bool",
                      "name": "isPut",
                      "type": "bool"
                    },
                    {
                      "internalType": "address",
                      "name": "underlying",
                      "type": "address"
                    },
                    {
                      "internalType": "address",
                      "name": "strikeAsset",
                      "type": "address"
                    },
                    {
                      "internalType": "address",
                      "name": "collateral",
                      "type": "address"
                    }
                  ],
                  "internalType": "struct ITypes.OptionSeries",
                  "name": "optionSeries",
                  "type": "tuple"
                },
                {
                  "internalType": "uint256",
                  "name": "indexOrAcceptablePremium",
                  "type": "uint256"
                },
                {
                  "internalType": "bytes",
                  "name": "data",
                  "type": "bytes"
                }
              ],
              "internalType": "struct ICombinedActions.ActionArgs[]",
              "name": "operationQueue",
              "type": "tuple[]"
            }
          ],
          "internalType": "struct ICombinedActions.OperationProcedures[]",
          "name": "operationProcedures",
          "type": "tuple[]"
        }
      ],
      "stateMutability": "pure",
      "type": "function"
    },
    {
      "inputs": [
        {
          "components": [
            {
              "internalType": "enum ICombinedActions.OperationType",
              "name": "operation",
              "type": "uint8"
            },
            {
              "components": [
                {
                  "internalType": "uint256",
                  "name": "actionType",
                  "type": "uint256"
                },
                {
                  "internalType": "address",
                  "name": "owner",
                  "type": "address"
                },
                {
                  "internalType": "address",
                  "name": "secondAddress",
                  "type": "address"
                },
                {
                  "internalType": "address",
                  "name": "asset",
                  "type": "address"
                },
                {
                  "internalType": "uint256",
                  "name": "vaultId",
                  "type": "uint256"
                },
                {
                  "internalType": "uint256",
                  "name": "amount",
                  "type": "uint256"
                },
                {
                  "components": [
                    {
                      "internalType": "uint64",
                      "name": "expiration",
                      "type": "uint64"
                    },
                    {
                      "internalType": "uint128",
                      "name": "strike",
                      "type": "uint128"
                    },
                    {
                      "internalType": "bool",
                      "name": "isPut",
                      "type": "bool"
                    },
                    {
                      "internalType": "address",
                      "name": "underlying",
                      "type": "address"
                    },
                    {
                      "internalType": "address",
                      "name": "strikeAsset",
                      "type": "address"
                    },
                    {
                      "internalType": "address",
                      "name": "collateral",
                      "type": "address"
                    }
                  ],
                  "internalType": "struct ITypes.OptionSeries",
                  "name": "optionSeries",
                  "type": "tuple"
                },
                {
                  "internalType": "uint256",
                  "name": "indexOrAcceptablePremium",
                  "type": "uint256"
                },
                {
                  "internalType": "bytes",
                  "name": "data",
                  "type": "bytes"
                }
              ],
              "internalType": "struct ICombinedActions.ActionArgs[]",
              "name": "operationQueue",
              "type": "tuple[]"
            }
          ],
          "internalType": "struct ICombinedActions.OperationProcedures[]",
          "name": "operationProcedures",
          "type": "tuple[]"
        }
      ],
      "name": "encodeFromRyskFinance",
      "outputs": [
        {
          "internalType": "bytes",
          "name": "paramData",
          "type": "bytes"
        }
      ],
      "stateMutability": "pure",
      "type": "function"
    },
    {
      "inputs": [
        {
          "components": [
            {
              "internalType": "enum ICombinedActions.OperationType",
              "name": "operation",
              "type": "uint8"
            },
            {
              "components": [
                {
                  "internalType": "uint256",
                  "name": "actionType",
                  "type": "uint256"
                },
                {
                  "internalType": "address",
                  "name": "owner",
                  "type": "address"
                },
                {
                  "internalType": "address",
                  "name": "secondAddress",
                  "type": "address"
                },
                {
                  "internalType": "address",
                  "name": "asset",
                  "type": "address"
                },
                {
                  "internalType": "uint256",
                  "name": "vaultId",
                  "type": "uint256"
                },
                {
                  "internalType": "uint256",
                  "name": "amount",
                  "type": "uint256"
                },
                {
                  "components": [
                    {
                      "internalType": "uint64",
                      "name": "expiration",
                      "type": "uint64"
                    },
                    {
                      "internalType": "uint128",
                      "name": "strike",
                      "type": "uint128"
                    },
                    {
                      "internalType": "bool",
                      "name": "isPut",
                      "type": "bool"
                    },
                    {
                      "internalType": "address",
                      "name": "underlying",
                      "type": "address"
                    },
                    {
                      "internalType": "address",
                      "name": "strikeAsset",
                      "type": "address"
                    },
                    {
                      "internalType": "address",
                      "name": "collateral",
                      "type": "address"
                    }
                  ],
                  "internalType": "struct ITypes.OptionSeries",
                  "name": "optionSeries",
                  "type": "tuple"
                },
                {
                  "internalType": "uint256",
                  "name": "indexOrAcceptablePremium",
                  "type": "uint256"
                },
                {
                  "internalType": "bytes",
                  "name": "data",
                  "type": "bytes"
                }
              ],
              "internalType": "struct ICombinedActions.ActionArgs[]",
              "name": "operationQueue",
              "type": "tuple[]"
            }
          ],
          "internalType": "struct ICombinedActions.OperationProcedures[]",
          "name": "operationProcedures",
          "type": "tuple[]"
        }
      ],
      "name": "getOtokensAddresses",
      "outputs": [
        {
          "internalType": "address[]",
          "name": "",
          "type": "address[]"
        }
      ],
      "stateMutability": "view",
      "type": "function"
    },
    {
      "inputs": [
        {
          "internalType": "address",
          "name": "",
          "type": "address"
        },
        {
          "internalType": "address",
          "name": "",
          "type": "address"
        },
        {
          "internalType": "uint256",
          "name": "",
          "type": "uint256"
        },
        {
          "internalType": "bytes",
          "name": "",
          "type": "bytes"
        }
      ],
      "name": "onERC721Received",
      "outputs": [
        {
          "internalType": "bytes4",
          "name": "",
          "type": "bytes4"
        }
      ],
      "stateMutability": "nonpayable",
      "type": "function"
    },
    {
      "inputs": [],
      "name": "optionExchange",
      "outputs": [
        {
          "internalType": "contract IOptionExchange",
          "name": "",
          "type": "address"
        }
      ],
      "stateMutability": "view",
      "type": "function"
    },
    {
      "inputs": [],
      "name": "owner",
      "outputs": [
        {
          "internalType": "address",
          "name": "",
          "type": "address"
        }
      ],
      "stateMutability": "view",
      "type": "function"
    },
    {
      "inputs": [],
      "name": "portfolioValuesFeed",
      "outputs": [
        {
          "internalType": "contract IAlphaPortfolioValuesFeed",
          "name": "",
          "type": "address"
        }
      ],
      "stateMutability": "view",
      "type": "function"
    },
    {
      "inputs": [],
      "name": "pricer",
      "outputs": [
        {
          "internalType": "contract IBeyondPricer",
          "name": "",
          "type": "address"
        }
      ],
      "stateMutability": "view",
      "type": "function"
    },
    {
      "inputs": [
        {
          "internalType": "bytes",
          "name": "parametersArray",
          "type": "bytes"
        },
        {
          "internalType": "uint256",
          "name": "buildID",
          "type": "uint256"
        },
        {
          "internalType": "address",
          "name": "user",
          "type": "address"
        }
      ],
      "name": "processTx",
      "outputs": [],
      "stateMutability": "nonpayable",
      "type": "function"
    },
    {
      "inputs": [],
      "name": "renounceOwnership",
      "outputs": [],
      "stateMutability": "nonpayable",
      "type": "function"
    },
    {
      "inputs": [
        {
          "internalType": "address",
          "name": "newOwner",
          "type": "address"
        }
      ],
      "name": "transferOwnership",
      "outputs": [],
      "stateMutability": "nonpayable",
      "type": "function"
    },
    {
      "inputs": [],
      "name": "usdc",
      "outputs": [
        {
          "internalType": "contract ERC20",
          "name": "",
          "type": "address"
        }
      ],
      "stateMutability": "view",
      "type": "function"
    },
    {
      "inputs": [],
      "name": "wbtc",
      "outputs": [
        {
          "internalType": "contract ERC20",
          "name": "",
          "type": "address"
        }
      ],
      "stateMutability": "view",
      "type": "function"
    },
    {
      "inputs": [],
      "name": "weth",
      "outputs": [
        {
          "internalType": "contract ERC20",
          "name": "",
          "type": "address"
        }
      ],
      "stateMutability": "view",
      "type": "function"
    }
  ],
  "transactionHash": "0x55899c6cf723495b38505e359fe7227e8388a8c60a53e4e30abcf7b408305f35",
  "args": [
    "0xaf88d065e77c8cC2239327C5EDb3A432268e5831",
    "0x82aF49447D8a07e3bd95BD0d56f35241523fBab1",
    "0x2f2a2543B76A4166549F7aaB2e75Bef0aefC5B0f",
    "0xeA5Fb118862876f249Ff0b3e7fb25fEb38158def",
    "0xC117bf3103bd09552F9a721F0B8Bce9843aaE1fa",
    "0xc7abaec336098cd0dcd98b67cb14d3b18e1c68a8"
  ],
  "numDeployments": 10,
  "solcInputHash": "aafa5d52e38ce27c4668d67dbdd2663c",
  "bytecode": "0x60806040523480156200001157600080fd5b506040516200362338038062003623833981810160405281019062000037919062000402565b620000576200004b620001e960201b60201c565b620001f160201b60201c565b85600160006101000a81548173ffffffffffffffffffffffffffffffffffffffff021916908373ffffffffffffffffffffffffffffffffffffffff16021790555084600260006101000a81548173ffffffffffffffffffffffffffffffffffffffff021916908373ffffffffffffffffffffffffffffffffffffffff16021790555083600360006101000a81548173ffffffffffffffffffffffffffffffffffffffff021916908373ffffffffffffffffffffffffffffffffffffffff16021790555082600460006101000a81548173ffffffffffffffffffffffffffffffffffffffff021916908373ffffffffffffffffffffffffffffffffffffffff16021790555081600560006101000a81548173ffffffffffffffffffffffffffffffffffffffff021916908373ffffffffffffffffffffffffffffffffffffffff16021790555080600660006101000a81548173ffffffffffffffffffffffffffffffffffffffff021916908373ffffffffffffffffffffffffffffffffffffffff1602179055505050505050506200049e565b600033905090565b60008060009054906101000a900473ffffffffffffffffffffffffffffffffffffffff169050816000806101000a81548173ffffffffffffffffffffffffffffffffffffffff021916908373ffffffffffffffffffffffffffffffffffffffff1602179055508173ffffffffffffffffffffffffffffffffffffffff168173ffffffffffffffffffffffffffffffffffffffff167f8be0079c531659141344cd1fd0a4f28419497f9722a3daafe3b4186f6b6457e060405160405180910390a35050565b600080fd5b600073ffffffffffffffffffffffffffffffffffffffff82169050919050565b6000620002e782620002ba565b9050919050565b6000620002fb82620002da565b9050919050565b6200030d81620002ee565b81146200031957600080fd5b50565b6000815190506200032d8162000302565b92915050565b60006200034082620002da565b9050919050565b620003528162000333565b81146200035e57600080fd5b50565b600081519050620003728162000347565b92915050565b60006200038582620002da565b9050919050565b620003978162000378565b8114620003a357600080fd5b50565b600081519050620003b7816200038c565b92915050565b6000620003ca82620002da565b9050919050565b620003dc81620003bd565b8114620003e857600080fd5b50565b600081519050620003fc81620003d1565b92915050565b60008060008060008060c08789031215620004225762000421620002b5565b5b60006200043289828a016200031c565b96505060206200044589828a016200031c565b95505060406200045889828a016200031c565b94505060606200046b89828a0162000361565b93505060806200047e89828a01620003a6565b92505060a06200049189828a01620003eb565b9150509295509295509295565b61317580620004ae6000396000f3fe608060405234801561001057600080fd5b50600436106101005760003560e01c8063715018a611610097578063a6138ed911610066578063a6138ed9146102a0578063ad4bb908146102be578063dfea90c1146102c8578063f2fde38b146102f857610100565b8063715018a6146102175780637294eb40146102215780637531a64e146102515780638da5cb5b1461028257610100565b80633e413bee116100d35780633e413bee1461019f5780633fc8cef3146101bd578063532785c7146101db5780635fb480c9146101f957610100565b8063150b7a02146101055780631b116e95146101355780633819137a146101655780633cdc538914610181575b600080fd5b61011f600480360381019061011a9190611959565b610314565b60405161012c9190611a1c565b60405180910390f35b61014f600480360381019061014a9190612032565b610342565b60405161015c9190612103565b60405180910390f35b61017f600480360381019061017a9190612125565b61036b565b005b61018961037b565b60405161019691906121f3565b60405180910390f35b6101a76103a1565b6040516101b491906121f3565b60405180910390f35b6101c56103c7565b6040516101d291906121f3565b60405180910390f35b6101e36103ed565b6040516101f0919061222f565b60405180910390f35b610201610413565b60405161020e919061226b565b60405180910390f35b61021f610439565b005b61023b60048036038101906102369190612286565b61044d565b60405161024891906126dd565b60405180910390f35b61026b60048036038101906102669190612286565b61046a565b60405161027992919061271d565b60405180910390f35b61028a6107c4565b6040516102979190612746565b60405180910390f35b6102a86107ed565b6040516102b59190612782565b60405180910390f35b6102c6610813565b005b6102e260048036038101906102dd9190612032565b610aeb565b6040516102ef919061284c565b60405180910390f35b610312600480360381019061030d919061286e565b610eb8565b005b60007f150b7a023d4804d13e8c85fb27262cb750cf6ba9f9dd3bb30d90f482ceeb4b1f905095945050505050565b60608160405160200161035591906126dd565b6040516020818303038152906040529050919050565b610376838383610f3c565b505050565b600360009054906101000a900473ffffffffffffffffffffffffffffffffffffffff1681565b600160009054906101000a900473ffffffffffffffffffffffffffffffffffffffff1681565b600260009054906101000a900473ffffffffffffffffffffffffffffffffffffffff1681565b600560009054906101000a900473ffffffffffffffffffffffffffffffffffffffff1681565b600660009054906101000a900473ffffffffffffffffffffffffffffffffffffffff1681565b6104416115d8565b61044b6000611656565b565b6060818060200190518101906104639190612cfc565b9050919050565b60008060006104788461044d565b905060008060005b83518110156104f55760018081111561049c5761049b6122fb565b5b8482815181106104af576104ae612d45565b5b60200260200101516000015160018111156104cd576104cc6122fb565b5b14156104e25781806104de90612da3565b9250505b80806104ed90612da3565b915050610480565b5060008167ffffffffffffffff81111561051257610511611a48565b5b60405190808252806020026020018201604052801561054b57816020015b610538611722565b8152602001906001900390816105305790505b50905060005b8281101561064c5760018081111561056c5761056b6122fb565b5b85828151811061057f5761057e612d45565b5b602002602001015160000151600181111561059d5761059c6122fb565b5b14156106395760005b8582815181106105b9576105b8612d45565b5b60200260200101516020015151811015610637578582815181106105e0576105df612d45565b5b60200260200101516020015181815181106105fe576105fd612d45565b5b602002602001015183838151811061061957610618612d45565b5b6020026020010181905250808061062f90612da3565b9150506105a6565b505b808061064490612da3565b915050610551565b5060005b828110156107ba57600182828151811061066d5761066c612d45565b5b60200260200101516000015114806106a35750600282828151811061069557610694612d45565b5b602002602001015160000151145b156107a75760008282815181106106bd576106bc612d45565b5b602002602001015160c0015160a001519050600073ffffffffffffffffffffffffffffffffffffffff168573ffffffffffffffffffffffffffffffffffffffff161415610708578094505b8473ffffffffffffffffffffffffffffffffffffffff168173ffffffffffffffffffffffffffffffffffffffff1614610776576040517f08c379a000000000000000000000000000000000000000000000000000000000815260040161076d90612e49565b60405180910390fd5b80975082828151811061078c5761078b612d45565b5b602002602001015160e00151876107a39190612e69565b9650505b80806107b290612da3565b915050610650565b5050505050915091565b60008060009054906101000a900473ffffffffffffffffffffffffffffffffffffffff16905090565b600460009054906101000a900473ffffffffffffffffffffffffffffffffffffffff1681565b600160009054906101000a900473ffffffffffffffffffffffffffffffffffffffff1673ffffffffffffffffffffffffffffffffffffffff1663095ea7b3600560009054906101000a900473ffffffffffffffffffffffffffffffffffffffff167fffffffffffffffffffffffffffffffffffffffffffffffffffffffffffffffff6040518363ffffffff1660e01b81526004016108b292919061271d565b602060405180830381600087803b1580156108cc57600080fd5b505af11580156108e0573d6000803e3d6000fd5b505050506040513d601f19601f820116820180604052508101906109049190612ebf565b50600260009054906101000a900473ffffffffffffffffffffffffffffffffffffffff1673ffffffffffffffffffffffffffffffffffffffff1663095ea7b3600560009054906101000a900473ffffffffffffffffffffffffffffffffffffffff167fffffffffffffffffffffffffffffffffffffffffffffffffffffffffffffffff6040518363ffffffff1660e01b81526004016109a492919061271d565b602060405180830381600087803b1580156109be57600080fd5b505af11580156109d2573d6000803e3d6000fd5b505050506040513d601f19601f820116820180604052508101906109f69190612ebf565b50600360009054906101000a900473ffffffffffffffffffffffffffffffffffffffff1673ffffffffffffffffffffffffffffffffffffffff1663095ea7b3600560009054906101000a900473ffffffffffffffffffffffffffffffffffffffff167fffffffffffffffffffffffffffffffffffffffffffffffffffffffffffffffff6040518363ffffffff1660e01b8152600401610a9692919061271d565b602060405180830381600087803b158015610ab057600080fd5b505af1158015610ac4573d6000803e3d6000fd5b505050506040513d601f19601f82011682018060405250810190610ae89190612ebf565b50565b60606000805b8351811015610b6657600180811115610b0d57610b0c6122fb565b5b848281518110610b2057610b1f612d45565b5b6020026020010151600001516001811115610b3e57610b3d6122fb565b5b1415610b53578180610b4f90612da3565b9250505b8080610b5e90612da3565b915050610af1565b5060008167ffffffffffffffff811115610b8357610b82611a48565b5b604051908082528060200260200182016040528015610bbc57816020015b610ba9611722565b815260200190600190039081610ba15790505b50905060005b82811015610cbd57600180811115610bdd57610bdc6122fb565b5b858281518110610bf057610bef612d45565b5b6020026020010151600001516001811115610c0e57610c0d6122fb565b5b1415610caa5760005b858281518110610c2a57610c29612d45565b5b60200260200101516020015151811015610ca857858281518110610c5157610c50612d45565b5b6020026020010151602001518181518110610c6f57610c6e612d45565b5b6020026020010151838381518110610c8a57610c89612d45565b5b60200260200101819052508080610ca090612da3565b915050610c17565b505b8080610cb590612da3565b915050610bc2565b506000808367ffffffffffffffff811115610cdb57610cda611a48565b5b604051908082528060200260200182016040528015610d095781602001602082028036833780820191505090505b50905060005b84811015610eab576001848281518110610d2c57610d2b612d45565b5b6020026020010151600001511480610d6257506002848281518110610d5457610d53612d45565b5b602002602001015160000151145b15610e98576000600560009054906101000a900473ffffffffffffffffffffffffffffffffffffffff1673ffffffffffffffffffffffffffffffffffffffff1663f2476f3d6000878581518110610dbc57610dbb612d45565b5b602002602001015160c001516040518363ffffffff1660e01b8152600401610de5929190612f67565b6101006040518083038186803b158015610dfe57600080fd5b505afa158015610e12573d6000803e3d6000fd5b505050506040513d601f19601f82011682018060405250810190610e369190612f90565b5050905080838581518110610e4e57610e4d612d45565b5b602002602001019073ffffffffffffffffffffffffffffffffffffffff16908173ffffffffffffffffffffffffffffffffffffffff16815250508380610e9390612da3565b945050505b8080610ea390612da3565b915050610d0f565b5080945050505050919050565b610ec06115d8565b600073ffffffffffffffffffffffffffffffffffffffff168173ffffffffffffffffffffffffffffffffffffffff161415610f30576040517f08c379a0000000000000000000000000000000000000000000000000000000008152600401610f2790613056565b60405180910390fd5b610f3981611656565b50565b6000610f478461044d565b90506000610f548561046a565b509050600560009054906101000a900473ffffffffffffffffffffffffffffffffffffffff1673ffffffffffffffffffffffffffffffffffffffff166314b6c4c6836040518263ffffffff1660e01b8152600401610fb291906126dd565b600060405180830381600087803b158015610fcc57600080fd5b505af1158015610fe0573d6000803e3d6000fd5b505050506000610fef83610aeb565b905060005b815181101561115a578181815181106110105761100f612d45565b5b602002602001015173ffffffffffffffffffffffffffffffffffffffff1663a9059cbb8684848151811061104757611046612d45565b5b602002602001015173ffffffffffffffffffffffffffffffffffffffff166370a08231306040518263ffffffff1660e01b81526004016110879190612746565b60206040518083038186803b15801561109f57600080fd5b505afa1580156110b3573d6000803e3d6000fd5b505050506040513d601f19601f820116820180604052508101906110d79190613076565b6040518363ffffffff1660e01b81526004016110f492919061271d565b602060405180830381600087803b15801561110e57600080fd5b505af1158015611122573d6000803e3d6000fd5b505050506040513d601f19601f820116820180604052508101906111469190612ebf565b50808061115290612da3565b915050610ff4565b506000600160009054906101000a900473ffffffffffffffffffffffffffffffffffffffff1673ffffffffffffffffffffffffffffffffffffffff166370a08231306040518263ffffffff1660e01b81526004016111b89190612746565b60206040518083038186803b1580156111d057600080fd5b505afa1580156111e4573d6000803e3d6000fd5b505050506040513d601f19601f820116820180604052508101906112089190613076565b9050600081146112c357600160009054906101000a900473ffffffffffffffffffffffffffffffffffffffff1673ffffffffffffffffffffffffffffffffffffffff1663a9059cbb86836040518363ffffffff1660e01b815260040161126f92919061271d565b602060405180830381600087803b15801561128957600080fd5b505af115801561129d573d6000803e3d6000fd5b505050506040513d601f19601f820116820180604052508101906112c19190612ebf565b505b6000600260009054906101000a900473ffffffffffffffffffffffffffffffffffffffff1673ffffffffffffffffffffffffffffffffffffffff166370a08231306040518263ffffffff1660e01b81526004016113209190612746565b60206040518083038186803b15801561133857600080fd5b505afa15801561134c573d6000803e3d6000fd5b505050506040513d601f19601f820116820180604052508101906113709190613076565b90506000811461142b57600260009054906101000a900473ffffffffffffffffffffffffffffffffffffffff1673ffffffffffffffffffffffffffffffffffffffff1663a9059cbb87836040518363ffffffff1660e01b81526004016113d792919061271d565b602060405180830381600087803b1580156113f157600080fd5b505af1158015611405573d6000803e3d6000fd5b505050506040513d601f19601f820116820180604052508101906114299190612ebf565b505b6000600360009054906101000a900473ffffffffffffffffffffffffffffffffffffffff1673ffffffffffffffffffffffffffffffffffffffff166370a08231306040518263ffffffff1660e01b81526004016114889190612746565b60206040518083038186803b1580156114a057600080fd5b505afa1580156114b4573d6000803e3d6000fd5b505050506040513d601f19601f820116820180604052508101906114d89190613076565b90506000811461159357600360009054906101000a900473ffffffffffffffffffffffffffffffffffffffff1673ffffffffffffffffffffffffffffffffffffffff1663a9059cbb88836040518363ffffffff1660e01b815260040161153f92919061271d565b602060405180830381600087803b15801561155957600080fd5b505af115801561156d573d6000803e3d6000fd5b505050506040513d601f19601f820116820180604052508101906115919190612ebf565b505b877feb749712d2654f72d79433c37e4c3049c7de50f55000ee9d6b9f951656301b6f86886040516115c59291906130a3565b60405180910390a2505050505050505050565b6115e061171a565b73ffffffffffffffffffffffffffffffffffffffff166115fe6107c4565b73ffffffffffffffffffffffffffffffffffffffff1614611654576040517f08c379a000000000000000000000000000000000000000000000000000000000815260040161164b9061311f565b60405180910390fd5b565b60008060009054906101000a900473ffffffffffffffffffffffffffffffffffffffff169050816000806101000a81548173ffffffffffffffffffffffffffffffffffffffff021916908373ffffffffffffffffffffffffffffffffffffffff1602179055508173ffffffffffffffffffffffffffffffffffffffff168173ffffffffffffffffffffffffffffffffffffffff167f8be0079c531659141344cd1fd0a4f28419497f9722a3daafe3b4186f6b6457e060405160405180910390a35050565b600033905090565b60405180610120016040528060008152602001600073ffffffffffffffffffffffffffffffffffffffff168152602001600073ffffffffffffffffffffffffffffffffffffffff168152602001600073ffffffffffffffffffffffffffffffffffffffff16815260200160008152602001600081526020016117a26117b6565b815260200160008152602001606081525090565b6040518060c00160405280600067ffffffffffffffff16815260200160006fffffffffffffffffffffffffffffffff168152602001600015158152602001600073ffffffffffffffffffffffffffffffffffffffff168152602001600073ffffffffffffffffffffffffffffffffffffffff168152602001600073ffffffffffffffffffffffffffffffffffffffff1681525090565b6000604051905090565b600080fd5b600080fd5b600073ffffffffffffffffffffffffffffffffffffffff82169050919050565b600061188b82611860565b9050919050565b61189b81611880565b81146118a657600080fd5b50565b6000813590506118b881611892565b92915050565b6000819050919050565b6118d1816118be565b81146118dc57600080fd5b50565b6000813590506118ee816118c8565b92915050565b600080fd5b600080fd5b600080fd5b60008083601f840112611919576119186118f4565b5b8235905067ffffffffffffffff811115611936576119356118f9565b5b602083019150836001820283011115611952576119516118fe565b5b9250929050565b60008060008060006080868803121561197557611974611856565b5b6000611983888289016118a9565b9550506020611994888289016118a9565b94505060406119a5888289016118df565b935050606086013567ffffffffffffffff8111156119c6576119c561185b565b5b6119d288828901611903565b92509250509295509295909350565b60007fffffffff0000000000000000000000000000000000000000000000000000000082169050919050565b611a16816119e1565b82525050565b6000602082019050611a316000830184611a0d565b92915050565b6000601f19601f8301169050919050565b7f4e487b7100000000000000000000000000000000000000000000000000000000600052604160045260246000fd5b611a8082611a37565b810181811067ffffffffffffffff82111715611a9f57611a9e611a48565b5b80604052505050565b6000611ab261184c565b9050611abe8282611a77565b919050565b600067ffffffffffffffff821115611ade57611add611a48565b5b602082029050602081019050919050565b600080fd5b600080fd5b60028110611b0657600080fd5b50565b600081359050611b1881611af9565b92915050565b600067ffffffffffffffff821115611b3957611b38611a48565b5b602082029050602081019050919050565b600067ffffffffffffffff82169050919050565b611b6781611b4a565b8114611b7257600080fd5b50565b600081359050611b8481611b5e565b92915050565b60006fffffffffffffffffffffffffffffffff82169050919050565b611baf81611b8a565b8114611bba57600080fd5b50565b600081359050611bcc81611ba6565b92915050565b60008115159050919050565b611be781611bd2565b8114611bf257600080fd5b50565b600081359050611c0481611bde565b92915050565b600060c08284031215611c2057611c1f611aef565b5b611c2a60c0611aa8565b90506000611c3a84828501611b75565b6000830152506020611c4e84828501611bbd565b6020830152506040611c6284828501611bf5565b6040830152506060611c76848285016118a9565b6060830152506080611c8a848285016118a9565b60808301525060a0611c9e848285016118a9565b60a08301525092915050565b600080fd5b600067ffffffffffffffff821115611cca57611cc9611a48565b5b611cd382611a37565b9050602081019050919050565b82818337600083830152505050565b6000611d02611cfd84611caf565b611aa8565b905082815260208101848484011115611d1e57611d1d611caa565b5b611d29848285611ce0565b509392505050565b600082601f830112611d4657611d456118f4565b5b8135611d56848260208601611cef565b91505092915050565b60006101c08284031215611d7657611d75611aef565b5b611d81610120611aa8565b90506000611d91848285016118df565b6000830152506020611da5848285016118a9565b6020830152506040611db9848285016118a9565b6040830152506060611dcd848285016118a9565b6060830152506080611de1848285016118df565b60808301525060a0611df5848285016118df565b60a08301525060c0611e0984828501611c0a565b60c083015250610180611e1e848285016118df565b60e0830152506101a082013567ffffffffffffffff811115611e4357611e42611af4565b5b611e4f84828501611d31565b6101008301525092915050565b6000611e6f611e6a84611b1e565b611aa8565b90508083825260208201905060208402830185811115611e9257611e916118fe565b5b835b81811015611ed957803567ffffffffffffffff811115611eb757611eb66118f4565b5b808601611ec48982611d5f565b85526020850194505050602081019050611e94565b5050509392505050565b600082601f830112611ef857611ef76118f4565b5b8135611f08848260208601611e5c565b91505092915050565b600060408284031215611f2757611f26611aef565b5b611f316040611aa8565b90506000611f4184828501611b09565b600083015250602082013567ffffffffffffffff811115611f6557611f64611af4565b5b611f7184828501611ee3565b60208301525092915050565b6000611f90611f8b84611ac3565b611aa8565b90508083825260208201905060208402830185811115611fb357611fb26118fe565b5b835b81811015611ffa57803567ffffffffffffffff811115611fd857611fd76118f4565b5b808601611fe58982611f11565b85526020850194505050602081019050611fb5565b5050509392505050565b600082601f830112612019576120186118f4565b5b8135612029848260208601611f7d565b91505092915050565b60006020828403121561204857612047611856565b5b600082013567ffffffffffffffff8111156120665761206561185b565b5b61207284828501612004565b91505092915050565b600081519050919050565b600082825260208201905092915050565b60005b838110156120b557808201518184015260208101905061209a565b838111156120c4576000848401525b50505050565b60006120d58261207b565b6120df8185612086565b93506120ef818560208601612097565b6120f881611a37565b840191505092915050565b6000602082019050818103600083015261211d81846120ca565b905092915050565b60008060006060848603121561213e5761213d611856565b5b600084013567ffffffffffffffff81111561215c5761215b61185b565b5b61216886828701611d31565b9350506020612179868287016118df565b925050604061218a868287016118a9565b9150509250925092565b6000819050919050565b60006121b96121b46121af84611860565b612194565b611860565b9050919050565b60006121cb8261219e565b9050919050565b60006121dd826121c0565b9050919050565b6121ed816121d2565b82525050565b600060208201905061220860008301846121e4565b92915050565b6000612219826121c0565b9050919050565b6122298161220e565b82525050565b60006020820190506122446000830184612220565b92915050565b6000612255826121c0565b9050919050565b6122658161224a565b82525050565b6000602082019050612280600083018461225c565b92915050565b60006020828403121561229c5761229b611856565b5b600082013567ffffffffffffffff8111156122ba576122b961185b565b5b6122c684828501611d31565b91505092915050565b600081519050919050565b600082825260208201905092915050565b6000819050602082019050919050565b7f4e487b7100000000000000000000000000000000000000000000000000000000600052602160045260246000fd5b6002811061233b5761233a6122fb565b5b50565b600081905061234c8261232a565b919050565b600061235c8261233e565b9050919050565b61236c81612351565b82525050565b600081519050919050565b600082825260208201905092915050565b6000819050602082019050919050565b6123a7816118be565b82525050565b6123b681611880565b82525050565b6123c581611b4a565b82525050565b6123d481611b8a565b82525050565b6123e381611bd2565b82525050565b60c0820160008201516123ff60008501826123bc565b50602082015161241260208501826123cb565b50604082015161242560408501826123da565b50606082015161243860608501826123ad565b50608082015161244b60808501826123ad565b5060a082015161245e60a08501826123ad565b50505050565b600082825260208201905092915050565b60006124808261207b565b61248a8185612464565b935061249a818560208601612097565b6124a381611a37565b840191505092915050565b60006101c0830160008301516124c7600086018261239e565b5060208301516124da60208601826123ad565b5060408301516124ed60408601826123ad565b50606083015161250060608601826123ad565b506080830151612513608086018261239e565b5060a083015161252660a086018261239e565b5060c083015161253960c08601826123e9565b5060e083015161254d61018086018261239e565b506101008301518482036101a08601526125678282612475565b9150508091505092915050565b600061258083836124ae565b905092915050565b6000602082019050919050565b60006125a082612372565b6125aa818561237d565b9350836020820285016125bc8561238e565b8060005b858110156125f857848403895281516125d98582612574565b94506125e483612588565b925060208a019950506001810190506125c0565b50829750879550505050505092915050565b60006040830160008301516126226000860182612363565b506020830151848203602086015261263a8282612595565b9150508091505092915050565b6000612653838361260a565b905092915050565b6000602082019050919050565b6000612673826122cf565b61267d81856122da565b93508360208202850161268f856122eb565b8060005b858110156126cb57848403895281516126ac8582612647565b94506126b78361265b565b925060208a01995050600181019050612693565b50829750879550505050505092915050565b600060208201905081810360008301526126f78184612668565b905092915050565b61270881611880565b82525050565b612717816118be565b82525050565b600060408201905061273260008301856126ff565b61273f602083018461270e565b9392505050565b600060208201905061275b60008301846126ff565b92915050565b600061276c826121c0565b9050919050565b61277c81612761565b82525050565b60006020820190506127976000830184612773565b92915050565b600081519050919050565b600082825260208201905092915050565b6000819050602082019050919050565b60006127d583836123ad565b60208301905092915050565b6000602082019050919050565b60006127f98261279d565b61280381856127a8565b935061280e836127b9565b8060005b8381101561283f57815161282688826127c9565b9750612831836127e1565b925050600181019050612812565b5085935050505092915050565b6000602082019050818103600083015261286681846127ee565b905092915050565b60006020828403121561288457612883611856565b5b6000612892848285016118a9565b91505092915050565b6000815190506128aa81611af9565b92915050565b6000815190506128bf816118c8565b92915050565b6000815190506128d481611892565b92915050565b6000815190506128e981611b5e565b92915050565b6000815190506128fe81611ba6565b92915050565b60008151905061291381611bde565b92915050565b600060c0828403121561292f5761292e611aef565b5b61293960c0611aa8565b90506000612949848285016128da565b600083015250602061295d848285016128ef565b602083015250604061297184828501612904565b6040830152506060612985848285016128c5565b6060830152506080612999848285016128c5565b60808301525060a06129ad848285016128c5565b60a08301525092915050565b60006129cc6129c784611caf565b611aa8565b9050828152602081018484840111156129e8576129e7611caa565b5b6129f3848285612097565b509392505050565b600082601f830112612a1057612a0f6118f4565b5b8151612a208482602086016129b9565b91505092915050565b60006101c08284031215612a4057612a3f611aef565b5b612a4b610120611aa8565b90506000612a5b848285016128b0565b6000830152506020612a6f848285016128c5565b6020830152506040612a83848285016128c5565b6040830152506060612a97848285016128c5565b6060830152506080612aab848285016128b0565b60808301525060a0612abf848285016128b0565b60a08301525060c0612ad384828501612919565b60c083015250610180612ae8848285016128b0565b60e0830152506101a082015167ffffffffffffffff811115612b0d57612b0c611af4565b5b612b19848285016129fb565b6101008301525092915050565b6000612b39612b3484611b1e565b611aa8565b90508083825260208201905060208402830185811115612b5c57612b5b6118fe565b5b835b81811015612ba357805167ffffffffffffffff811115612b8157612b806118f4565b5b808601612b8e8982612a29565b85526020850194505050602081019050612b5e565b5050509392505050565b600082601f830112612bc257612bc16118f4565b5b8151612bd2848260208601612b26565b91505092915050565b600060408284031215612bf157612bf0611aef565b5b612bfb6040611aa8565b90506000612c0b8482850161289b565b600083015250602082015167ffffffffffffffff811115612c2f57612c2e611af4565b5b612c3b84828501612bad565b60208301525092915050565b6000612c5a612c5584611ac3565b611aa8565b90508083825260208201905060208402830185811115612c7d57612c7c6118fe565b5b835b81811015612cc457805167ffffffffffffffff811115612ca257612ca16118f4565b5b808601612caf8982612bdb565b85526020850194505050602081019050612c7f565b5050509392505050565b600082601f830112612ce357612ce26118f4565b5b8151612cf3848260208601612c47565b91505092915050565b600060208284031215612d1257612d11611856565b5b600082015167ffffffffffffffff811115612d3057612d2f61185b565b5b612d3c84828501612cce565b91505092915050565b7f4e487b7100000000000000000000000000000000000000000000000000000000600052603260045260246000fd5b7f4e487b7100000000000000000000000000000000000000000000000000000000600052601160045260246000fd5b6000612dae826118be565b91507fffffffffffffffffffffffffffffffffffffffffffffffffffffffffffffffff821415612de157612de0612d74565b5b600182019050919050565b600082825260208201905092915050565b7f646966666572656e7420636f6c6c61746572616c20746f6b656e730000000000600082015250565b6000612e33601b83612dec565b9150612e3e82612dfd565b602082019050919050565b60006020820190508181036000830152612e6281612e26565b9050919050565b6000612e74826118be565b9150612e7f836118be565b9250827fffffffffffffffffffffffffffffffffffffffffffffffffffffffffffffffff03821115612eb457612eb3612d74565b5b828201905092915050565b600060208284031215612ed557612ed4611856565b5b6000612ee384828501612904565b91505092915050565b60c082016000820151612f0260008501826123bc565b506020820151612f1560208501826123cb565b506040820151612f2860408501826123da565b506060820151612f3b60608501826123ad565b506080820151612f4e60808501826123ad565b5060a0820151612f6160a08501826123ad565b50505050565b600060e082019050612f7c60008301856126ff565b612f896020830184612eec565b9392505050565b60008060006101008486031215612faa57612fa9611856565b5b6000612fb8868287016128c5565b9350506020612fc986828701612919565b92505060e0612fda868287016128ef565b9150509250925092565b7f4f776e61626c653a206e6577206f776e657220697320746865207a65726f206160008201527f6464726573730000000000000000000000000000000000000000000000000000602082015250565b6000613040602683612dec565b915061304b82612fe4565b604082019050919050565b6000602082019050818103600083015261306f81613033565b9050919050565b60006020828403121561308c5761308b611856565b5b600061309a848285016128b0565b91505092915050565b60006040820190506130b860008301856126ff565b81810360208301526130ca8184612668565b90509392505050565b7f4f776e61626c653a2063616c6c6572206973206e6f7420746865206f776e6572600082015250565b6000613109602083612dec565b9150613114826130d3565b602082019050919050565b60006020820190508181036000830152613138816130fc565b905091905056fea2646970667358221220df280601908d03d5a5d6cd6e303a5ca46f0a91f44c33fd07ce6031b481a3f01664736f6c63430008090033",
  "devdoc": {
    "kind": "dev",
    "methods": {
      "calculateAmount(bytes)": {
        "details": "See {IBaseTxBuilderOpen-calculateAmount}."
      },
      "owner()": {
        "details": "Returns the address of the current owner."
      },
      "processTx(bytes,uint256,address)": {
        "details": "See {IBaseTxBuilderOpen-processTx}."
      },
      "renounceOwnership()": {
        "details": "Leaves the contract without owner. It will not be possible to call `onlyOwner` functions. Can only be called by the current owner. NOTE: Renouncing ownership will leave the contract without an owner, thereby disabling any functionality that is only available to the owner."
      },
      "transferOwnership(address)": {
        "details": "Transfers ownership of the contract to a new account (`newOwner`). Can only be called by the current owner."
      }
    },
    "version": 1
  },
  "userdoc": {
    "kind": "user",
    "methods": {},
    "version": 1
  },
  "storageLayout": {
    "storage": [
      {
        "astId": 7,
        "contract": "contracts/risk_finance/TxBuilderOpenRyskFinance.sol:TxBuilderOpenRyskFinance",
        "label": "_owner",
        "offset": 0,
        "slot": "0",
        "type": "t_address"
      },
      {
        "astId": 1110,
        "contract": "contracts/risk_finance/TxBuilderOpenRyskFinance.sol:TxBuilderOpenRyskFinance",
        "label": "usdc",
        "offset": 0,
        "slot": "1",
        "type": "t_contract(ERC20)699"
      },
      {
        "astId": 1113,
        "contract": "contracts/risk_finance/TxBuilderOpenRyskFinance.sol:TxBuilderOpenRyskFinance",
        "label": "weth",
        "offset": 0,
        "slot": "2",
        "type": "t_contract(ERC20)699"
      },
      {
        "astId": 1116,
        "contract": "contracts/risk_finance/TxBuilderOpenRyskFinance.sol:TxBuilderOpenRyskFinance",
        "label": "wbtc",
        "offset": 0,
        "slot": "3",
        "type": "t_contract(ERC20)699"
      },
      {
        "astId": 1119,
        "contract": "contracts/risk_finance/TxBuilderOpenRyskFinance.sol:TxBuilderOpenRyskFinance",
        "label": "pricer",
        "offset": 0,
        "slot": "4",
        "type": "t_contract(IBeyondPricer)956"
      },
      {
        "astId": 1122,
        "contract": "contracts/risk_finance/TxBuilderOpenRyskFinance.sol:TxBuilderOpenRyskFinance",
        "label": "optionExchange",
        "offset": 0,
        "slot": "5",
        "type": "t_contract(IOptionExchange)1034"
      },
      {
        "astId": 1125,
        "contract": "contracts/risk_finance/TxBuilderOpenRyskFinance.sol:TxBuilderOpenRyskFinance",
        "label": "portfolioValuesFeed",
        "offset": 0,
        "slot": "6",
        "type": "t_contract(IAlphaPortfolioValuesFeed)933"
      }
    ],
    "types": {
      "t_address": {
        "encoding": "inplace",
        "label": "address",
        "numberOfBytes": "20"
      },
      "t_contract(ERC20)699": {
        "encoding": "inplace",
        "label": "contract ERC20",
        "numberOfBytes": "20"
      },
      "t_contract(IAlphaPortfolioValuesFeed)933": {
        "encoding": "inplace",
        "label": "contract IAlphaPortfolioValuesFeed",
        "numberOfBytes": "20"
      },
      "t_contract(IBeyondPricer)956": {
        "encoding": "inplace",
        "label": "contract IBeyondPricer",
        "numberOfBytes": "20"
      },
      "t_contract(IOptionExchange)1034": {
        "encoding": "inplace",
        "label": "contract IOptionExchange",
        "numberOfBytes": "20"
      }
    }
  }
}