{
  "address": "0x351dFcEEd372bA14E15BBB930B5d9045C056a94a",
  "abi": [
    {
      "inputs": [
        {
          "internalType": "contract ERC20",
          "name": "_usdc",
          "type": "address"
        },
        {
          "internalType": "contract ERC20",
          "name": "_weth",
          "type": "address"
        },
        {
          "internalType": "contract ERC20",
          "name": "_wbtc",
          "type": "address"
        },
        {
          "internalType": "contract IBeyondPricer",
          "name": "_pricer",
          "type": "address"
        },
        {
          "internalType": "contract IOptionExchange",
          "name": "_optionExchange",
          "type": "address"
        },
        {
          "internalType": "contract IAlphaPortfolioValuesFeed",
          "name": "_portfolioValuesFeed",
          "type": "address"
        }
      ],
      "stateMutability": "nonpayable",
      "type": "constructor"
    },
    {
      "anonymous": false,
      "inputs": [
        {
          "indexed": true,
          "internalType": "uint256",
          "name": "buildID",
          "type": "uint256"
        },
        {
          "indexed": false,
          "internalType": "address",
          "name": "token",
          "type": "address"
        },
        {
          "components": [
            {
              "internalType": "enum ICombinedActions.OperationType",
              "name": "operation",
              "type": "uint8"
            },
            {
              "components": [
                {
                  "internalType": "uint256",
                  "name": "actionType",
                  "type": "uint256"
                },
                {
                  "internalType": "address",
                  "name": "owner",
                  "type": "address"
                },
                {
                  "internalType": "address",
                  "name": "secondAddress",
                  "type": "address"
                },
                {
                  "internalType": "address",
                  "name": "asset",
                  "type": "address"
                },
                {
                  "internalType": "uint256",
                  "name": "vaultId",
                  "type": "uint256"
                },
                {
                  "internalType": "uint256",
                  "name": "amount",
                  "type": "uint256"
                },
                {
                  "components": [
                    {
                      "internalType": "uint64",
                      "name": "expiration",
                      "type": "uint64"
                    },
                    {
                      "internalType": "uint128",
                      "name": "strike",
                      "type": "uint128"
                    },
                    {
                      "internalType": "bool",
                      "name": "isPut",
                      "type": "bool"
                    },
                    {
                      "internalType": "address",
                      "name": "underlying",
                      "type": "address"
                    },
                    {
                      "internalType": "address",
                      "name": "strikeAsset",
                      "type": "address"
                    },
                    {
                      "internalType": "address",
                      "name": "collateral",
                      "type": "address"
                    }
                  ],
                  "internalType": "struct ITypes.OptionSeries",
                  "name": "optionSeries",
                  "type": "tuple"
                },
                {
                  "internalType": "uint256",
                  "name": "indexOrAcceptablePremium",
                  "type": "uint256"
                },
                {
                  "internalType": "bytes",
                  "name": "data",
                  "type": "bytes"
                }
              ],
              "internalType": "struct ICombinedActions.ActionArgs[]",
              "name": "operationQueue",
              "type": "tuple[]"
            }
          ],
          "indexed": false,
          "internalType": "struct ICombinedActions.OperationProcedures[]",
          "name": "operationProcedures",
          "type": "tuple[]"
        }
      ],
      "name": "OpenPositionByRyskFinance",
      "type": "event"
    },
    {
      "anonymous": false,
      "inputs": [
        {
          "indexed": true,
          "internalType": "address",
          "name": "previousOwner",
          "type": "address"
        },
        {
          "indexed": true,
          "internalType": "address",
          "name": "newOwner",
          "type": "address"
        }
      ],
      "name": "OwnershipTransferred",
      "type": "event"
    },
    {
      "inputs": [],
      "name": "allApprove",
      "outputs": [],
      "stateMutability": "nonpayable",
      "type": "function"
    },
    {
      "inputs": [
        {
          "internalType": "bytes",
          "name": "parameters",
          "type": "bytes"
        }
      ],
      "name": "calculateAmount",
      "outputs": [
        {
          "internalType": "address",
          "name": "token",
          "type": "address"
        },
        {
          "internalType": "uint256",
          "name": "amount",
          "type": "uint256"
        }
      ],
      "stateMutability": "view",
      "type": "function"
    },
    {
      "inputs": [
        {
          "internalType": "bytes",
          "name": "paramData",
          "type": "bytes"
        }
      ],
      "name": "decodeFromRyskFinance",
      "outputs": [
        {
          "components": [
            {
              "internalType": "enum ICombinedActions.OperationType",
              "name": "operation",
              "type": "uint8"
            },
            {
              "components": [
                {
                  "internalType": "uint256",
                  "name": "actionType",
                  "type": "uint256"
                },
                {
                  "internalType": "address",
                  "name": "owner",
                  "type": "address"
                },
                {
                  "internalType": "address",
                  "name": "secondAddress",
                  "type": "address"
                },
                {
                  "internalType": "address",
                  "name": "asset",
                  "type": "address"
                },
                {
                  "internalType": "uint256",
                  "name": "vaultId",
                  "type": "uint256"
                },
                {
                  "internalType": "uint256",
                  "name": "amount",
                  "type": "uint256"
                },
                {
                  "components": [
                    {
                      "internalType": "uint64",
                      "name": "expiration",
                      "type": "uint64"
                    },
                    {
                      "internalType": "uint128",
                      "name": "strike",
                      "type": "uint128"
                    },
                    {
                      "internalType": "bool",
                      "name": "isPut",
                      "type": "bool"
                    },
                    {
                      "internalType": "address",
                      "name": "underlying",
                      "type": "address"
                    },
                    {
                      "internalType": "address",
                      "name": "strikeAsset",
                      "type": "address"
                    },
                    {
                      "internalType": "address",
                      "name": "collateral",
                      "type": "address"
                    }
                  ],
                  "internalType": "struct ITypes.OptionSeries",
                  "name": "optionSeries",
                  "type": "tuple"
                },
                {
                  "internalType": "uint256",
                  "name": "indexOrAcceptablePremium",
                  "type": "uint256"
                },
                {
                  "internalType": "bytes",
                  "name": "data",
                  "type": "bytes"
                }
              ],
              "internalType": "struct ICombinedActions.ActionArgs[]",
              "name": "operationQueue",
              "type": "tuple[]"
            }
          ],
          "internalType": "struct ICombinedActions.OperationProcedures[]",
          "name": "operationProcedures",
          "type": "tuple[]"
        }
      ],
      "stateMutability": "pure",
      "type": "function"
    },
    {
      "inputs": [
        {
          "components": [
            {
              "internalType": "enum ICombinedActions.OperationType",
              "name": "operation",
              "type": "uint8"
            },
            {
              "components": [
                {
                  "internalType": "uint256",
                  "name": "actionType",
                  "type": "uint256"
                },
                {
                  "internalType": "address",
                  "name": "owner",
                  "type": "address"
                },
                {
                  "internalType": "address",
                  "name": "secondAddress",
                  "type": "address"
                },
                {
                  "internalType": "address",
                  "name": "asset",
                  "type": "address"
                },
                {
                  "internalType": "uint256",
                  "name": "vaultId",
                  "type": "uint256"
                },
                {
                  "internalType": "uint256",
                  "name": "amount",
                  "type": "uint256"
                },
                {
                  "components": [
                    {
                      "internalType": "uint64",
                      "name": "expiration",
                      "type": "uint64"
                    },
                    {
                      "internalType": "uint128",
                      "name": "strike",
                      "type": "uint128"
                    },
                    {
                      "internalType": "bool",
                      "name": "isPut",
                      "type": "bool"
                    },
                    {
                      "internalType": "address",
                      "name": "underlying",
                      "type": "address"
                    },
                    {
                      "internalType": "address",
                      "name": "strikeAsset",
                      "type": "address"
                    },
                    {
                      "internalType": "address",
                      "name": "collateral",
                      "type": "address"
                    }
                  ],
                  "internalType": "struct ITypes.OptionSeries",
                  "name": "optionSeries",
                  "type": "tuple"
                },
                {
                  "internalType": "uint256",
                  "name": "indexOrAcceptablePremium",
                  "type": "uint256"
                },
                {
                  "internalType": "bytes",
                  "name": "data",
                  "type": "bytes"
                }
              ],
              "internalType": "struct ICombinedActions.ActionArgs[]",
              "name": "operationQueue",
              "type": "tuple[]"
            }
          ],
          "internalType": "struct ICombinedActions.OperationProcedures[]",
          "name": "operationProcedures",
          "type": "tuple[]"
        }
      ],
      "name": "encodeFromRyskFinance",
      "outputs": [
        {
          "internalType": "bytes",
          "name": "paramData",
          "type": "bytes"
        }
      ],
      "stateMutability": "pure",
      "type": "function"
    },
    {
      "inputs": [
        {
          "internalType": "address",
          "name": "",
          "type": "address"
        },
        {
          "internalType": "address",
          "name": "",
          "type": "address"
        },
        {
          "internalType": "uint256",
          "name": "",
          "type": "uint256"
        },
        {
          "internalType": "bytes",
          "name": "",
          "type": "bytes"
        }
      ],
      "name": "onERC721Received",
      "outputs": [
        {
          "internalType": "bytes4",
          "name": "",
          "type": "bytes4"
        }
      ],
      "stateMutability": "nonpayable",
      "type": "function"
    },
    {
      "inputs": [],
      "name": "optionExchange",
      "outputs": [
        {
          "internalType": "contract IOptionExchange",
          "name": "",
          "type": "address"
        }
      ],
      "stateMutability": "view",
      "type": "function"
    },
    {
      "inputs": [],
      "name": "owner",
      "outputs": [
        {
          "internalType": "address",
          "name": "",
          "type": "address"
        }
      ],
      "stateMutability": "view",
      "type": "function"
    },
    {
      "inputs": [],
      "name": "portfolioValuesFeed",
      "outputs": [
        {
          "internalType": "contract IAlphaPortfolioValuesFeed",
          "name": "",
          "type": "address"
        }
      ],
      "stateMutability": "view",
      "type": "function"
    },
    {
      "inputs": [],
      "name": "pricer",
      "outputs": [
        {
          "internalType": "contract IBeyondPricer",
          "name": "",
          "type": "address"
        }
      ],
      "stateMutability": "view",
      "type": "function"
    },
    {
      "inputs": [
        {
          "internalType": "bytes",
          "name": "parametersArray",
          "type": "bytes"
        },
        {
          "internalType": "uint256",
          "name": "buildID",
          "type": "uint256"
        },
        {
          "internalType": "address",
          "name": "user",
          "type": "address"
        }
      ],
      "name": "processTx",
      "outputs": [],
      "stateMutability": "nonpayable",
      "type": "function"
    },
    {
      "inputs": [],
      "name": "renounceOwnership",
      "outputs": [],
      "stateMutability": "nonpayable",
      "type": "function"
    },
    {
      "inputs": [
        {
          "internalType": "address",
          "name": "newOwner",
          "type": "address"
        }
      ],
      "name": "transferOwnership",
      "outputs": [],
      "stateMutability": "nonpayable",
      "type": "function"
    },
    {
      "inputs": [],
      "name": "usdc",
      "outputs": [
        {
          "internalType": "contract ERC20",
          "name": "",
          "type": "address"
        }
      ],
      "stateMutability": "view",
      "type": "function"
    },
    {
      "inputs": [],
      "name": "wbtc",
      "outputs": [
        {
          "internalType": "contract ERC20",
          "name": "",
          "type": "address"
        }
      ],
      "stateMutability": "view",
      "type": "function"
    },
    {
      "inputs": [],
      "name": "weth",
      "outputs": [
        {
          "internalType": "contract ERC20",
          "name": "",
          "type": "address"
        }
      ],
      "stateMutability": "view",
      "type": "function"
    }
  ],
  "transactionHash": "0x1966782cc21b5a95d924fa04a20cf043a863eed5fae320196180cc0b5be966e8",
  "args": [
    "0xaf88d065e77c8cC2239327C5EDb3A432268e5831",
    "0x82aF49447D8a07e3bd95BD0d56f35241523fBab1",
    "0x2f2a2543B76A4166549F7aaB2e75Bef0aefC5B0f",
    "0xeA5Fb118862876f249Ff0b3e7fb25fEb38158def",
    "0xC117bf3103bd09552F9a721F0B8Bce9843aaE1fa",
    "0xc7abaec336098cd0dcd98b67cb14d3b18e1c68a8"
  ],
  "numDeployments": 13,
  "solcInputHash": "c92f49ad8eb08c288ec34498e482d325",
  "bytecode": "0x6080346200013157601f620018af38819003918201601f19168301916001600160401b03831184841017620001365780849260c09460405283398101031262000131576200004d816200014c565b906200005c602082016200014c565b916200006b604083016200014c565b60608301519092906001600160a01b03808216918290036200013157608083015192818416809403620001315760a0015194818616809603620001315781600054978160018060a01b03199733898c16176000556040519a823391167f8be0079c531659141344cd1fd0a4f28419497f9722a3daafe3b4186f6b6457e0600080a3168760015416176001551685600254161760025516836003541617600355826004541617600455816005541617600555600654161760065561174d9081620001628239f35b600080fd5b634e487b7160e01b600052604160045260246000fd5b51906001600160a01b0382168203620001315756fe60808060405260048036101561001457600080fd5b600091823560e01c908163150b7a0214610ca2575080631b116e95146109605780633819137a1461053d5780633cdc5389146105145780633e413bee146104eb5780633fc8cef3146104c2578063532785c7146104995780635fb480c914610470578063715018a6146104165780637294eb40146103c75780637531a64e1461036e5780638da5cb5b14610347578063a6138ed914610320578063ad4bb908146101955763f2fde38b146100c757600080fd5b34610191576020366003190112610191576100e0610d1c565b6100e8611030565b6001600160a01b0390811691821561013e5750600054826bffffffffffffffffffffffff60a01b821617600055167f8be0079c531659141344cd1fd0a4f28419497f9722a3daafe3b4186f6b6457e0600080a380f35b60849060206040519162461bcd60e51b8352820152602660248201527f4f776e61626c653a206e6577206f776e657220697320746865207a65726f206160448201526564647265737360d01b6064820152fd5b5080fd5b50346101915781600319360112610191578160018060a01b0381816001541693826005541660405163095ea7b360e01b918282528382015260001996876024830152816044816020998a945af18015610315576102dd575b5082858560025416604487600554166040519788938492888452898401528c60248401525af19384156102d0578694610292575b50846044939495600354169060055416976040519889968795865285015260248401525af1801561028757610254578280f35b81813d8311610280575b6102688183610dae565b810103126101915761027990611088565b5038808280f35b503d61025e565b6040513d85823e3d90fd5b929383813d83116102c9575b6102a88183610dae565b810103126102c65785946102bd604494611088565b50949392610221565b80fd5b503d61029e565b50604051903d90823e3d90fd5b8581813d831161030e575b6102f28183610dae565b8101031261030a5761030390611088565b50386101ed565b8380fd5b503d6102e8565b6040513d86823e3d90fd5b5034610191578160031936011261019157546040516001600160a01b039091168152602090f35b82346102c657806003193601126102c657546040516001600160a01b039091168152602090f35b5090346102c65760203660031901126102c6578135906001600160401b0382116102c6576103a66103a136848601610e01565b6110f1565b604080516001600160a01b03939093168352602083019190915290f35b0390f35b5090346102c65760203660031901126102c6578135906001600160401b0382116102c6576103c36104026103fd36858701610e01565b6113e7565b604051918291602083526020830190610e90565b82346102c657806003193601126102c65761042f611030565b600080546001600160a01b0319811682556001600160a01b03167f8be0079c531659141344cd1fd0a4f28419497f9722a3daafe3b4186f6b6457e08280a380f35b82346102c657806003193601126102c6576006546040516001600160a01b039091168152602090f35b82346102c657806003193601126102c6576005546040516001600160a01b039091168152602090f35b82346102c657806003193601126102c6576002546040516001600160a01b039091168152602090f35b82346102c657806003193601126102c6576001546040516001600160a01b039091168152602090f35b82346102c657806003193601126102c6576003546040516001600160a01b039091168152602090f35b5034610191576060366003190112610191576001600160401b03813581811161030a5761056d9036908401610e01565b916001600160a01b039060443590828216820361095c57610596610590866113e7565b956110f1565b5091836005541691823b1561095857869560405190630a5b626360e11b8252898260209687868301528183816105d160249e8f830190610e90565b03925af1801561084357610932575b5050846001541691886040516370a0823160e01b94858252308583015286828b81845afa90811561028757879284926108fd575b5081610883575b505050866002541660405190858252308583015286828b81845afa908115610287578792849261084e575b50816107c5575b505050866003541692604051948552308186015285858a81875afa9485156107ba578295610782575b50846106c7575b50505050507feb749712d2654f72d79433c37e4c3049c7de50f55000ee9d6b9f951656301b6f9360406106c192815195869516855284015235946040830190610e90565b0390a280f35b6040805163a9059cbb60e01b81526001600160a01b039490941691840191825260208201959095529193859385938490039091019183915af1801561077757610714575b8080888161067d565b938185813d8311610770575b61072a8183610dae565b8101031261076c5760406106c1926107627feb749712d2654f72d79433c37e4c3049c7de50f55000ee9d6b9f951656301b6f97611088565b509250509361070b565b8680fd5b503d610720565b6040513d89823e3d90fd5b86809296508193503d83116107b3575b61079c8183610dae565b810103126107ae578990519338610676565b600080fd5b503d610792565b6040513d84823e3d90fd5b6040805163a9059cbb60e01b81526001600160a01b0387168882019081526020810194909452948593849283910103925af180156108435761080b575b84818b9261064d565b8481813d831161083c575b6108208183610dae565b810103126108385761083190611088565b5038610802565b8980fd5b503d610816565b6040513d8c823e3d90fd5b92839194508092503d831161087c575b6108688183610dae565b810103126107ae578a918691519038610646565b503d61085e565b6040805163a9059cbb60e01b81526001600160a01b0387168882019081526020810194909452948593849283910103925af18015610843576108c9575b84818b9261061b565b8481813d83116108f6575b6108de8183610dae565b81010312610838576108ef90611088565b50386108c0565b503d6108d4565b92839194508092503d831161092b575b6109178183610dae565b810103126107ae578a918691519038610614565b503d61090d565b8199929911610946576040529638806105e0565b634e487b7160e01b8252604189528682fd5b8780fd5b8580fd5b5090346102c65760203660031901126102c6576001600160401b038235116102c65736602383350112156102c657813582013561099c81610dcf565b926109aa6040519485610dae565b81845260208401903660248460051b833501011161030a576024813501915b60248460051b833501018310610a1b576103c36109f9610a07886040519283916020808401526040830190610e90565b03601f198101835282610dae565b604051918291602083526020830190610e6b565b82356001600160401b03811161095c578235016040602319823603011261095c5760405190610a4982610d46565b602481013560028110156109585782526044810135906001600160401b038211610958573660438383010112156109585760248282010135610a8a81610dcf565b92610a986040519485610dae565b81845260208401923660448460051b848401010111610c9e57604482820101935b60448460051b84840101018510610ae557505050506020808401929092525090825292830192016109c9565b84356001600160401b038111610c9a576101c0838501820136036043190112610c9a5760405190610b1582610d77565b838501810160448101358352610b2d90606401610d32565b6020830152610b426084828787010101610d32565b6040830152610b5760a4828787010101610d32565b6060830152838501810160c4810135608084015260e481013560a084015260c03691909103610103190112610c8e57604051610b9281610d93565b610104828787010101356001600160401b0381168103610c96578152848601820161012401356001600160801b0381169003610c92578486018201610124810135602083015261014401358015159003610c925784860182016101448101356040830152610c039061016401610d32565b6060820152610c19610184838888010101610d32565b6080820152610c2f6101a4838888010101610d32565b60a082015260c083015283850181016101c481013560e08401526001600160401b036101e49091013511610c8e5760209283929091610c7d903690878901016101e481013501604401610e01565b610100820152815201940193610ab9565b8d80fd5b8e80fd5b8f80fd5b8c80fd5b8a80fd5b91905034610d18576080366003190112610d1857610cbe610d1c565b506024356001600160a01b03811603610d1857606435906001600160401b0390818311610d145736602384011215610d145782013590811161030a573691016024011161019157630a85bd0160e11b8152602090f35b8480fd5b8280fd5b600435906001600160a01b03821682036107ae57565b35906001600160a01b03821682036107ae57565b604081019081106001600160401b03821117610d6157604052565b634e487b7160e01b600052604160045260246000fd5b61012081019081106001600160401b03821117610d6157604052565b60c081019081106001600160401b03821117610d6157604052565b90601f801991011681019081106001600160401b03821117610d6157604052565b6001600160401b038111610d615760051b60200190565b6001600160401b038111610d6157601f01601f191660200190565b81601f820112156107ae57803590610e1882610de6565b92610e266040519485610dae565b828452602083830101116107ae57816000926020809301838601378301015290565b60005b838110610e5b5750506000910152565b8181015183820152602001610e4b565b90602091610e8481518092818552858086019101610e48565b601f01601f1916010190565b9080825190818152602080910192600593828085871b8401019601946000925b858410610ec1575050505050505090565b90919293949596601f19828203018452875160409081830190805190600282101561101a578994929391908591845201519281858401528351809152606092838101928685848b1b8401019601946000915b848310610f3757505050505050509080600192990194019401929594939190610eb0565b9193959780611006600193959799605f19898203018b52868c518051835287878060a01b038087840151168786015280828401511682860152808484015116848601526080808401518187015260a09081850151828801528260c09182870151926001600160401b03845116908a0152816001600160801b038c850151169660e097888c0152840151151598610100998a8c0152840151166101208a0152820151166101408801520151166101608501528101516101808401520151906101c090816101a08201520190610e6b565b99019701930190918c979695939492610f13565b634e487b7160e01b600052602160045260246000fd5b6000546001600160a01b0316330361104457565b606460405162461bcd60e51b815260206004820152602060248201527f4f776e61626c653a2063616c6c6572206973206e6f7420746865206f776e65726044820152fd5b519081151582036107ae57565b60001981146110a45760010190565b634e487b7160e01b600052601160045260246000fd5b80518210156110ce5760209160051b010190565b634e487b7160e01b600052603260045260246000fd5b51600281101561101a5790565b60009160009261110184936113e7565b9084938593865b845181101561116c5761112461111e82876110ba565b516110e4565b600281101561115857600114611143575b61113e90611095565b611108565b9461115061113e91611095565b959050611135565b634e487b7160e01b89526021600452602489fd5b5093919592909461117c83610dcf565b9160409061118c82519485610dae565b848452601f1961119b86610dcf565b01865b818110611360575050855b8581106112b3575050845b8481106111c357505050505050565b60016111cf82866110ba565b515114801561129e575b6111ec575b6111e790611095565b6111b4565b9697506001600160a01b038060a060c06112068b886110ba565b5101510151169080841615611295575b83168103611251579760e061122b89866110ba565b510151810180911161123d57966111de565b634e487b7160e01b86526011600452602486fd5b815162461bcd60e51b815260206004820152601b60248201527f646966666572656e7420636f6c6c61746572616c20746f6b656e7300000000006044820152606490fd5b92508092611216565b5060026112ab82866110ba565b5151146111d9565b6112c061111e82846110ba565b600281101561134c5760018091146112e2575b506112dd90611095565b6111a9565b87815b6112f0575b506112d3565b6020806112fd85876110ba565b51015151821015611346578161132484936113409361131c888a6110ba565b5101516110ba565b5161132f868b6110ba565b5261133a858a6110ba565b50611095565b906112e5565b506112ea565b634e487b7160e01b88526021600452602488fd5b602090845161136e81610d77565b898152828a818301528a8783015260608b8184015260808c818501528c60a08181870152818b519361139f85610d93565b8185528187860152818d860152818686015284015282015260c08401528b60e084015261010083015282890101520161119e565b51906001600160a01b03821682036107ae57565b805181016020828203126107ae5760208201516001600160401b0381116107ae5760208201603f8285010112156107ae57602081840101519061142982610dcf565b936114376040519586610dae565b82855260208501916020850160408560051b8385010101116107ae57604081830101925b60408560051b838501010184106114755750505050505090565b83516001600160401b0381116107ae57838301016040818803601f1901126107ae57604051906114a482610d46565b604081015160028110156107ae57825260608101516001600160401b0381116107ae5760208901605f8284010112156107ae57604081830101516114e781610dcf565b926114f56040519485610dae565b818452602084019060208c0160608460051b8684010101116107ae57606084820101915b60608460051b86840101018310611545575050505060208084019290925250908252938401930161145b565b8251906001600160401b0382116107ae576101c083870183018f03603f1901126107ae576040519060c08f61157984610d77565b858901850160608101518552611591906080016113d3565b60208501526115a660a0868b890101016113d3565b60408501526115ba82868b890101016113d3565b6060850152858901850160e0810151608086015261010081015160a0860152900360ff1901126107ae576040516115f081610d93565b610120848987010101516001600160401b03811681036107ae578152610140848987010101516001600160801b03811681036107ae57602082015261163c610160858a88010101611088565b6040820152611652610180858a880101016113d3565b60608201526116686101a0858a880101016113d3565b608082015261167e6101c0858a880101016113d3565b60a082015260c083015283870183016101e081015160e08401526102000151926001600160401b0384116107ae578f9360209189870101019301607f840112156107ae576060830151918f60206116d485610de6565b916116e26040519384610dae565b85835201608085870101116107ae5761170660209594869560808785019101610e48565b61010082015281520192019161151956fea2646970667358221220453d3c2ab0043b85a39cf7d78ee4a094ee0b42616b1ed7be9b8ff3a12de692a264736f6c63430008130033",
  "devdoc": {
    "author": "0nika0",
    "events": {
      "OpenPositionByRyskFinance(uint256,address,(uint8,(uint256,address,address,address,uint256,uint256,(uint64,uint128,bool,address,address,address),uint256,bytes)[])[])": {
        "details": "This event, `OpenPositionByRyskFinance`, provides information about the specific transaction build identified by `buildID`, the involved `token` in the position, and an array of `OperationProcedures` representing the steps taken in the process. This event is useful for tracking and monitoring transactions related to opening positions initiated by Rysk Finance.",
        "params": {
          "buildID": "The unique identifier for the transaction build associated with the opened position.",
          "operationProcedures": "An array of `OperationProcedures` representing the steps taken in the process of opening the position.",
          "token": "The address of the token involved in the opened position."
        }
      }
    },
    "kind": "dev",
    "methods": {
      "allApprove()": {
        "details": "See {ITxBuilderOpenRyskFinance-allApprove}."
      },
      "calculateAmount(bytes)": {
        "details": "This public view function `calculateAmount` takes encoded parameters from Rysk Finance and decodes them to determine the token and amount involved in the specified Rysk operations. The decoded parameters represent a series of actions (operation procedures) related to Rysk Finance.",
        "params": {
          "parameters": "Encoded parameters containing Rysk Finance operation details."
        },
        "returns": {
          "amount": "The total amount associated with the specified Rysk operations.",
          "token": "The address of the token involved in the Rysk operations."
        }
      },
      "decodeFromRyskFinance(bytes)": {
        "details": "See {ITxBuilderOpenRyskFinance-decodeFromRyskFinance}."
      },
      "encodeFromRyskFinance((uint8,(uint256,address,address,address,uint256,uint256,(uint64,uint128,bool,address,address,address),uint256,bytes)[])[])": {
        "details": "See {ITxBuilderOpenRyskFinance-encodeFromRyskFinance}."
      },
      "owner()": {
        "details": "Returns the address of the current owner."
      },
      "processTx(bytes,uint256,address)": {
        "details": "See {IBaseTxBuilderOpen-processTx}."
      },
      "renounceOwnership()": {
        "details": "Leaves the contract without owner. It will not be possible to call `onlyOwner` functions. Can only be called by the current owner. NOTE: Renouncing ownership will leave the contract without an owner, thereby disabling any functionality that is only available to the owner."
      },
      "transferOwnership(address)": {
        "details": "Transfers ownership of the contract to a new account (`newOwner`). Can only be called by the current owner."
      }
    },
    "title": "Rysk Finance Transaction Builder - Open Position",
    "version": 1
  },
  "userdoc": {
    "events": {
      "OpenPositionByRyskFinance(uint256,address,(uint8,(uint256,address,address,address,uint256,uint256,(uint64,uint128,bool,address,address,address),uint256,bytes)[])[])": {
        "notice": "Emitted to signal the successful opening of a position by Rysk Finance."
      }
    },
    "kind": "user",
    "methods": {},
    "notice": "A contract facilitating the opening of positions on the Rysk Finance protocol.          It provides functions to calculate transaction amounts, process transactions, and manage approvals.",
    "version": 1
  },
  "storageLayout": {
    "storage": [
      {
        "astId": 7,
        "contract": "contracts/risk_finance/TxBuilderOpenRyskFinance.sol:TxBuilderOpenRyskFinance",
        "label": "_owner",
        "offset": 0,
        "slot": "0",
        "type": "t_address"
      },
      {
        "astId": 4028,
        "contract": "contracts/risk_finance/TxBuilderOpenRyskFinance.sol:TxBuilderOpenRyskFinance",
        "label": "usdc",
        "offset": 0,
        "slot": "1",
        "type": "t_contract(ERC20)2185"
      },
      {
        "astId": 4031,
        "contract": "contracts/risk_finance/TxBuilderOpenRyskFinance.sol:TxBuilderOpenRyskFinance",
        "label": "weth",
        "offset": 0,
        "slot": "2",
        "type": "t_contract(ERC20)2185"
      },
      {
        "astId": 4034,
        "contract": "contracts/risk_finance/TxBuilderOpenRyskFinance.sol:TxBuilderOpenRyskFinance",
        "label": "wbtc",
        "offset": 0,
        "slot": "3",
        "type": "t_contract(ERC20)2185"
      },
      {
        "astId": 4037,
        "contract": "contracts/risk_finance/TxBuilderOpenRyskFinance.sol:TxBuilderOpenRyskFinance",
        "label": "pricer",
        "offset": 0,
        "slot": "4",
        "type": "t_contract(IBeyondPricer)3869"
      },
      {
        "astId": 4040,
        "contract": "contracts/risk_finance/TxBuilderOpenRyskFinance.sol:TxBuilderOpenRyskFinance",
        "label": "optionExchange",
        "offset": 0,
        "slot": "5",
        "type": "t_contract(IOptionExchange)3947"
      },
      {
        "astId": 4043,
        "contract": "contracts/risk_finance/TxBuilderOpenRyskFinance.sol:TxBuilderOpenRyskFinance",
        "label": "portfolioValuesFeed",
        "offset": 0,
        "slot": "6",
        "type": "t_contract(IAlphaPortfolioValuesFeed)3846"
      }
    ],
    "types": {
      "t_address": {
        "encoding": "inplace",
        "label": "address",
        "numberOfBytes": "20"
      },
      "t_contract(ERC20)2185": {
        "encoding": "inplace",
        "label": "contract ERC20",
        "numberOfBytes": "20"
      },
      "t_contract(IAlphaPortfolioValuesFeed)3846": {
        "encoding": "inplace",
        "label": "contract IAlphaPortfolioValuesFeed",
        "numberOfBytes": "20"
      },
      "t_contract(IBeyondPricer)3869": {
        "encoding": "inplace",
        "label": "contract IBeyondPricer",
        "numberOfBytes": "20"
      },
      "t_contract(IOptionExchange)3947": {
        "encoding": "inplace",
        "label": "contract IOptionExchange",
        "numberOfBytes": "20"
      }
    }
  }
}